{
  "_format": "hh-sol-artifact-1",
  "contractName": "Airdrop",
  "sourceName": "contracts/AirdropContract.sol",
  "abi": [
    {
      "inputs": [
        {
          "internalType": "uint256",
          "name": "_maxParticipants",
          "type": "uint256"
        }
      ],
      "stateMutability": "nonpayable",
      "type": "constructor"
    },
    {
      "inputs": [],
      "name": "AirdropActive",
      "type": "error"
    },
    {
      "inputs": [],
      "name": "AirdropInactive",
      "type": "error"
    },
    {
      "inputs": [],
      "name": "AirdropNotConfigured",
      "type": "error"
    },
    {
      "inputs": [],
      "name": "AirdropNotFunded",
      "type": "error"
    },
    {
      "inputs": [],
      "name": "AlreadyClaimed",
      "type": "error"
    },
    {
      "inputs": [],
      "name": "CallerNotOwner",
      "type": "error"
    },
    {
      "inputs": [],
      "name": "InsufficientContractBalance",
      "type": "error"
    },
    {
      "inputs": [],
      "name": "InvalidAmount",
      "type": "error"
    },
    {
      "inputs": [],
      "name": "InvalidDates",
      "type": "error"
    },
    {
      "inputs": [],
      "name": "InvalidTokenAddress",
      "type": "error"
    },
    {
      "inputs": [],
      "name": "NotEligible",
      "type": "error"
    },
    {
      "inputs": [],
      "name": "StartDateMustBeFuture",
      "type": "error"
    },
    {
      "inputs": [],
      "name": "TransferFailed",
      "type": "error"
    },
    {
      "inputs": [],
      "name": "TransferLimitExceeded",
      "type": "error"
    },
    {
      "inputs": [],
      "name": "UnsupportedAirdropType",
      "type": "error"
    },
    {
      "anonymous": false,
      "inputs": [
        {
          "indexed": false,
          "internalType": "enum Airdrop.AirdropType",
          "name": "airdropType",
          "type": "uint8"
        },
        {
          "indexed": false,
          "internalType": "address",
          "name": "tokenAddress",
          "type": "address"
        },
        {
          "indexed": false,
          "internalType": "uint256",
          "name": "amount",
          "type": "uint256"
        },
        {
          "indexed": false,
          "internalType": "string",
          "name": "description",
          "type": "string"
        }
      ],
      "name": "AirdropConfigured",
      "type": "event"
    },
    {
      "anonymous": false,
      "inputs": [
        {
          "indexed": true,
          "internalType": "address",
          "name": "contractAddress",
          "type": "address"
        },
        {
          "indexed": false,
          "internalType": "bool",
          "name": "status",
          "type": "bool"
        }
      ],
      "name": "ContractWhitelisted",
      "type": "event"
    },
    {
      "anonymous": false,
      "inputs": [
        {
          "indexed": true,
          "internalType": "address",
          "name": "token",
          "type": "address"
        },
        {
          "indexed": false,
          "internalType": "uint256",
          "name": "amount",
          "type": "uint256"
        }
      ],
      "name": "EmergencyWithdrawal",
      "type": "event"
    },
    {
      "anonymous": false,
      "inputs": [
        {
          "indexed": true,
          "internalType": "address",
          "name": "from",
          "type": "address"
        },
        {
          "indexed": false,
          "internalType": "uint256",
          "name": "amount",
          "type": "uint256"
        }
      ],
      "name": "FundsReceived",
      "type": "event"
    },
    {
      "anonymous": false,
      "inputs": [
        {
          "indexed": true,
          "internalType": "address",
          "name": "user",
          "type": "address"
        },
        {
          "indexed": false,
          "internalType": "uint256",
          "name": "tokenId",
          "type": "uint256"
        }
      ],
      "name": "NFTClaimed",
      "type": "event"
    },
    {
      "anonymous": false,
      "inputs": [
        {
          "indexed": false,
          "internalType": "address",
          "name": "account",
          "type": "address"
        }
      ],
      "name": "Paused",
      "type": "event"
    },
    {
      "anonymous": false,
      "inputs": [
        {
          "indexed": false,
          "internalType": "uint256",
          "name": "phaseId",
          "type": "uint256"
        },
        {
          "indexed": false,
          "internalType": "uint256",
          "name": "startTime",
          "type": "uint256"
        },
        {
          "indexed": false,
          "internalType": "uint256",
          "name": "endTime",
          "type": "uint256"
        },
        {
          "indexed": false,
          "internalType": "uint256",
          "name": "maxParticipants",
          "type": "uint256"
        }
      ],
      "name": "PhaseConfigured",
      "type": "event"
    },
    {
      "anonymous": false,
      "inputs": [
        {
          "indexed": true,
          "internalType": "address",
          "name": "user",
          "type": "address"
        },
        {
          "indexed": false,
          "internalType": "uint256",
          "name": "amount",
          "type": "uint256"
        }
      ],
      "name": "TokensClaimed",
      "type": "event"
    },
    {
      "anonymous": false,
      "inputs": [
        {
          "indexed": false,
          "internalType": "address",
          "name": "account",
          "type": "address"
        }
      ],
      "name": "Unpaused",
      "type": "event"
    },
    {
      "anonymous": false,
      "inputs": [
        {
          "indexed": true,
          "internalType": "address",
          "name": "user",
          "type": "address"
        },
        {
          "indexed": false,
          "internalType": "uint256",
          "name": "timestamp",
          "type": "uint256"
        }
      ],
      "name": "UserRegistered",
      "type": "event"
    },
    {
      "stateMutability": "payable",
      "type": "fallback"
    },
    {
      "inputs": [],
      "name": "CLAIM_TYPEHASH",
      "outputs": [
        {
          "internalType": "bytes32",
          "name": "",
          "type": "bytes32"
        }
      ],
      "stateMutability": "view",
      "type": "function"
    },
    {
      "inputs": [],
      "name": "MAX_BATCH_SIZE",
      "outputs": [
        {
          "internalType": "uint256",
          "name": "",
          "type": "uint256"
        }
      ],
      "stateMutability": "view",
      "type": "function"
    },
    {
      "inputs": [],
      "name": "MIN_BALANCE",
      "outputs": [
        {
          "internalType": "uint256",
          "name": "",
          "type": "uint256"
        }
      ],
      "stateMutability": "view",
      "type": "function"
    },
    {
      "inputs": [
        {
          "internalType": "uint256",
          "name": "",
          "type": "uint256"
        }
      ],
      "name": "availableNFTs",
      "outputs": [
        {
          "internalType": "uint256",
          "name": "",
          "type": "uint256"
        }
      ],
      "stateMutability": "view",
      "type": "function"
    },
    {
      "inputs": [
        {
          "internalType": "address[]",
          "name": "users",
          "type": "address[]"
        }
      ],
      "name": "batchClaim",
      "outputs": [],
      "stateMutability": "nonpayable",
      "type": "function"
    },
    {
      "inputs": [
        {
          "internalType": "address",
          "name": "user",
          "type": "address"
        }
      ],
      "name": "checkUserEligibility",
      "outputs": [
        {
          "internalType": "bool",
          "name": "isEligible_",
          "type": "bool"
        },
        {
          "internalType": "bool",
          "name": "hasClaimed_",
          "type": "bool"
        },
        {
          "internalType": "bool",
          "name": "hasMinBalance_",
          "type": "bool"
        },
        {
          "internalType": "uint256",
          "name": "userBalance",
          "type": "uint256"
        }
      ],
      "stateMutability": "view",
      "type": "function"
    },
    {
      "inputs": [],
      "name": "claim",
      "outputs": [],
      "stateMutability": "nonpayable",
      "type": "function"
    },
    {
      "inputs": [
        {
          "internalType": "enum Airdrop.AirdropType",
          "name": "_type",
          "type": "uint8"
        },
        {
          "internalType": "address",
          "name": "_tokenAddress",
          "type": "address"
        },
        {
          "internalType": "uint256",
          "name": "_amount",
          "type": "uint256"
        },
        {
          "internalType": "uint256",
          "name": "_startDate",
          "type": "uint256"
        },
        {
          "internalType": "uint256",
          "name": "_endDate",
          "type": "uint256"
        },
        {
          "internalType": "string",
          "name": "_description",
          "type": "string"
        }
      ],
      "name": "configureAirdrop",
      "outputs": [],
      "stateMutability": "nonpayable",
      "type": "function"
    },
    {
      "inputs": [
        {
          "internalType": "uint256",
          "name": "_phaseId",
          "type": "uint256"
        },
        {
          "internalType": "uint256",
          "name": "_startTime",
          "type": "uint256"
        },
        {
          "internalType": "uint256",
          "name": "_endTime",
          "type": "uint256"
        },
        {
          "internalType": "uint256",
          "name": "_maxParticipants",
          "type": "uint256"
        },
        {
          "internalType": "uint256",
          "name": "_tokenAmount",
          "type": "uint256"
        }
      ],
      "name": "configurePhase",
      "outputs": [],
      "stateMutability": "nonpayable",
      "type": "function"
    },
    {
      "inputs": [],
      "name": "currentAirdrop",
      "outputs": [
        {
          "internalType": "enum Airdrop.AirdropType",
          "name": "airdropType",
          "type": "uint8"
        },
        {
          "internalType": "address",
          "name": "tokenAddress",
          "type": "address"
        },
        {
          "internalType": "uint256",
          "name": "tokenAmount",
          "type": "uint256"
        },
        {
          "internalType": "uint256",
          "name": "startDate",
          "type": "uint256"
        },
        {
          "internalType": "uint256",
          "name": "endDate",
          "type": "uint256"
        },
        {
          "internalType": "bool",
          "name": "isConfigured",
          "type": "bool"
        },
        {
          "internalType": "string",
          "name": "description",
          "type": "string"
        }
      ],
      "stateMutability": "view",
      "type": "function"
    },
    {
      "inputs": [],
      "name": "currentPhase",
      "outputs": [
        {
          "internalType": "uint256",
          "name": "",
          "type": "uint256"
        }
      ],
      "stateMutability": "view",
      "type": "function"
    },
    {
      "inputs": [
        {
          "internalType": "uint256[]",
          "name": "tokenIds",
          "type": "uint256[]"
        }
      ],
      "name": "depositNFTs",
      "outputs": [],
      "stateMutability": "nonpayable",
      "type": "function"
    },
    {
      "inputs": [],
      "name": "emergencyRecovery",
      "outputs": [],
      "stateMutability": "nonpayable",
      "type": "function"
    },
    {
      "inputs": [
        {
          "internalType": "address",
          "name": "token_",
          "type": "address"
        }
      ],
      "name": "emergencyWithdraw",
      "outputs": [],
      "stateMutability": "nonpayable",
      "type": "function"
    },
    {
      "inputs": [],
      "name": "fundContract",
      "outputs": [],
      "stateMutability": "payable",
      "type": "function"
    },
    {
      "inputs": [],
      "name": "getAirdropInfo",
      "outputs": [
        {
          "internalType": "enum Airdrop.AirdropType",
          "name": "airdropType",
          "type": "uint8"
        },
        {
          "internalType": "address",
          "name": "tokenAddress",
          "type": "address"
        },
        {
          "internalType": "uint256",
          "name": "tokenAmount",
          "type": "uint256"
        },
        {
          "internalType": "uint256",
          "name": "startDate",
          "type": "uint256"
        },
        {
          "internalType": "uint256",
          "name": "endDate",
          "type": "uint256"
        },
        {
          "internalType": "string",
          "name": "description",
          "type": "string"
        },
        {
          "internalType": "uint256",
          "name": "remainingTokens",
          "type": "uint256"
        },
        {
          "internalType": "uint256",
          "name": "claimedCount",
          "type": "uint256"
        },
        {
          "internalType": "bool",
          "name": "isActive_",
          "type": "bool"
        },
        {
          "internalType": "bool",
          "name": "canClaim",
          "type": "bool"
        }
      ],
      "stateMutability": "view",
      "type": "function"
    },
    {
      "inputs": [],
      "name": "getAirdropStats",
      "outputs": [
        {
          "internalType": "uint256",
          "name": "remainingTokens",
          "type": "uint256"
        },
        {
          "internalType": "uint256",
          "name": "claimedCount",
          "type": "uint256"
        },
        {
          "internalType": "uint256",
          "name": "remainingTime",
          "type": "uint256"
        },
        {
          "internalType": "bool",
          "name": "isAirdropActive",
          "type": "bool"
        },
        {
          "internalType": "bool",
          "name": "isFunded",
          "type": "bool"
        }
      ],
      "stateMutability": "view",
      "type": "function"
    },
    {
      "inputs": [],
      "name": "getContractBalance",
      "outputs": [
        {
          "internalType": "uint256",
          "name": "",
          "type": "uint256"
        }
      ],
      "stateMutability": "view",
      "type": "function"
    },
    {
      "inputs": [
        {
          "internalType": "address",
          "name": "",
          "type": "address"
        }
      ],
      "name": "hasClaimed",
      "outputs": [
        {
          "internalType": "bool",
          "name": "",
          "type": "bool"
        }
      ],
      "stateMutability": "view",
      "type": "function"
    },
    {
      "inputs": [],
      "name": "hasSufficientFunds",
      "outputs": [
        {
          "internalType": "bool",
          "name": "",
          "type": "bool"
        }
      ],
      "stateMutability": "view",
      "type": "function"
    },
    {
      "inputs": [],
      "name": "isActive",
      "outputs": [
        {
          "internalType": "bool",
          "name": "",
          "type": "bool"
        }
      ],
      "stateMutability": "view",
      "type": "function"
    },
    {
      "inputs": [
        {
          "internalType": "address",
          "name": "_address",
          "type": "address"
        }
      ],
      "name": "isEligible",
      "outputs": [
        {
          "internalType": "bool",
          "name": "",
          "type": "bool"
        }
      ],
      "stateMutability": "view",
      "type": "function"
    },
    {
      "inputs": [],
      "name": "maxParticipants",
      "outputs": [
        {
          "internalType": "uint256",
          "name": "",
          "type": "uint256"
        }
      ],
      "stateMutability": "view",
      "type": "function"
    },
    {
      "inputs": [
        {
          "internalType": "uint256",
          "name": "",
          "type": "uint256"
        }
      ],
      "name": "nftClaimed",
      "outputs": [
        {
          "internalType": "bool",
          "name": "",
          "type": "bool"
        }
      ],
      "stateMutability": "view",
      "type": "function"
    },
    {
      "inputs": [
        {
          "internalType": "address",
          "name": "",
          "type": "address"
        },
        {
          "internalType": "address",
          "name": "",
          "type": "address"
        },
        {
          "internalType": "uint256",
          "name": "",
          "type": "uint256"
        },
        {
          "internalType": "bytes",
          "name": "",
          "type": "bytes"
        }
      ],
      "name": "onERC721Received",
      "outputs": [
        {
          "internalType": "bytes4",
          "name": "",
          "type": "bytes4"
        }
      ],
      "stateMutability": "pure",
      "type": "function"
    },
    {
      "inputs": [],
      "name": "owner",
      "outputs": [
        {
          "internalType": "address",
          "name": "",
          "type": "address"
        }
      ],
      "stateMutability": "view",
      "type": "function"
    },
    {
      "inputs": [],
      "name": "pause",
      "outputs": [],
      "stateMutability": "nonpayable",
      "type": "function"
    },
    {
      "inputs": [],
      "name": "paused",
      "outputs": [
        {
          "internalType": "bool",
          "name": "",
          "type": "bool"
        }
      ],
      "stateMutability": "view",
      "type": "function"
    },
    {
      "inputs": [
        {
          "internalType": "uint256",
          "name": "",
          "type": "uint256"
        }
      ],
      "name": "phases",
      "outputs": [
        {
          "internalType": "uint256",
          "name": "startTime",
          "type": "uint256"
        },
        {
          "internalType": "uint256",
          "name": "endTime",
          "type": "uint256"
        },
        {
          "internalType": "uint256",
          "name": "maxParticipants",
          "type": "uint256"
        },
        {
          "internalType": "uint256",
          "name": "tokenAmount",
          "type": "uint256"
        },
        {
          "internalType": "bool",
          "name": "isActive",
          "type": "bool"
        }
      ],
      "stateMutability": "view",
      "type": "function"
    },
    {
      "inputs": [
        {
          "internalType": "bytes32",
          "name": "_ethSignedMessageHash",
          "type": "bytes32"
        },
        {
          "internalType": "bytes",
          "name": "_signature",
          "type": "bytes"
        }
      ],
      "name": "recoverSigner",
      "outputs": [
        {
          "internalType": "address",
          "name": "",
          "type": "address"
        }
      ],
      "stateMutability": "pure",
      "type": "function"
    },
    {
      "inputs": [],
      "name": "registerForAirdrop",
      "outputs": [],
      "stateMutability": "nonpayable",
      "type": "function"
    },
    {
      "inputs": [
        {
          "internalType": "bytes",
          "name": "signature",
          "type": "bytes"
        }
      ],
      "name": "registerForAirdropWithSignature",
      "outputs": [],
      "stateMutability": "nonpayable",
      "type": "function"
    },
    {
      "inputs": [
        {
          "internalType": "uint256",
          "name": "_maxParticipants",
          "type": "uint256"
        }
      ],
      "name": "setMaxParticipants",
      "outputs": [],
      "stateMutability": "nonpayable",
      "type": "function"
    },
    {
      "inputs": [
        {
          "internalType": "bytes",
          "name": "sig",
          "type": "bytes"
        }
      ],
      "name": "splitSignature",
      "outputs": [
        {
          "internalType": "bytes32",
          "name": "r",
          "type": "bytes32"
        },
        {
          "internalType": "bytes32",
          "name": "s",
          "type": "bytes32"
        },
        {
          "internalType": "uint8",
          "name": "v",
          "type": "uint8"
        }
      ],
      "stateMutability": "pure",
      "type": "function"
    },
    {
      "inputs": [],
      "name": "totalParticipants",
      "outputs": [
        {
          "internalType": "uint256",
          "name": "",
          "type": "uint256"
        }
      ],
      "stateMutability": "view",
      "type": "function"
    },
    {
      "inputs": [],
      "name": "unpause",
      "outputs": [],
      "stateMutability": "nonpayable",
      "type": "function"
    },
    {
      "inputs": [
        {
          "internalType": "address",
          "name": "",
          "type": "address"
        }
      ],
      "name": "userSignatures",
      "outputs": [
        {
          "internalType": "bytes",
          "name": "",
          "type": "bytes"
        }
      ],
      "stateMutability": "view",
      "type": "function"
    },
    {
      "inputs": [
        {
          "internalType": "bytes",
          "name": "signature",
          "type": "bytes"
        }
      ],
      "name": "verifySignature",
      "outputs": [
        {
          "internalType": "bool",
          "name": "",
          "type": "bool"
        }
      ],
      "stateMutability": "view",
      "type": "function"
    },
    {
      "inputs": [
        {
          "internalType": "address",
          "name": "_contract",
          "type": "address"
        },
        {
          "internalType": "bool",
          "name": "_status",
          "type": "bool"
        }
      ],
      "name": "whitelistContract",
      "outputs": [],
      "stateMutability": "nonpayable",
      "type": "function"
    },
    {
      "inputs": [
        {
          "internalType": "address",
          "name": "",
          "type": "address"
        }
      ],
      "name": "whitelistedContracts",
      "outputs": [
        {
          "internalType": "bool",
          "name": "",
          "type": "bool"
        }
      ],
      "stateMutability": "view",
      "type": "function"
    },
    {
      "stateMutability": "payable",
      "type": "receive"
    }
  ],
  "bytecode": "0x60806040523480156200001157600080fd5b5060405162002f2238038062002f22833981016040819052620000349162000058565b6001600081905580546001600160a81b031916610100330217905560035562000072565b6000602082840312156200006b57600080fd5b5051919050565b612ea080620000826000396000f3fe60806040526004361061023f5760003560e01c806373b2e80e1161012e578063bb775ce7116100ab578063e9b2e0d71161006f578063e9b2e0d7146107fe578063ee0d23ef1461081e578063f80af98414610833578063fb5f749f14610853578063fe437ad0146108735761027c565b8063bb775ce714610750578063bd097e2114610780578063c4d92a7514610788578063cad64738146107c9578063cfdbf254146107e95761027c565b806396b3ce54116100f257806396b3ce541461068f57806397aba7f9146106bc578063a26dbf26146106dc578063a672990c146106f2578063a7bb5803146107125761027c565b806373b2e80e146105d15780638456cb5914610601578063867378c5146106165780638a12c47a146106325780638da5cb5b146106525761027c565b8063391feebb116101bc5780635c975abb116101805780635c975abb1461053257806366e305fd1461054a5780636b0509b11461056a5780636f9fb98a1461059e5780636ff1c9bc146105b15761027c565b8063391feebb1461047b5780633f4ba83a146104ab5780634e71d92d146104c05780634e8bea04146104d557806350db0225146104ea5761027c565b806324924bf71161020357806324924bf7146103815780632bf7299b146103975780632e37eef6146103b95780632e4e58bc1461043057806332f08873146104505761027c565b806303f14e96146102ae578063055ad42e146102df578063150b7a02146103035780631ef4f8de1461034857806322f3e2d41461036c5761027c565b3661027c5760405134815233907f8e47b87b0ef542cdfa1659c551d88bad38aa7f452d2bbb349ab7530dfec8be8f906020015b60405180910390a2005b60405134815233907f8e47b87b0ef542cdfa1659c551d88bad38aa7f452d2bbb349ab7530dfec8be8f90602001610272565b3480156102ba57600080fd5b506102c3610893565b6040516102d69796959493929190612776565b60405180910390f35b3480156102eb57600080fd5b506102f5600f5481565b6040519081526020016102d6565b34801561030f57600080fd5b5061032f61031e366004612830565b630a85bd0160e11b95945050505050565b6040516001600160e01b031990911681526020016102d6565b34801561035457600080fd5b506005544710155b60405190151581526020016102d6565b34801561037857600080fd5b5061035c61094e565b34801561038d57600080fd5b506102f560035481565b3480156103a357600080fd5b506103b76103b236600461289f565b61096a565b005b3480156103c557600080fd5b506104066103d436600461289f565b600e60205260009081526040902080546001820154600283015460038401546004909401549293919290919060ff1685565b6040805195865260208601949094529284019190915260608301521515608082015260a0016102d6565b34801561043c57600080fd5b506103b761044b3660046128b8565b61099f565b34801561045c57600080fd5b50610465610b15565b6040516102d69a999897969594939291906128f3565b34801561048757600080fd5b5061035c610496366004612962565b600d6020526000908152604090205460ff1681565b3480156104b757600080fd5b506103b7610cdc565b3480156104cc57600080fd5b506103b7610d16565b3480156104e157600080fd5b506103b7610eb1565b3480156104f657600080fd5b5061050a610505366004612962565b611121565b60408051941515855292151560208501529015159183019190915260608201526080016102d6565b34801561053e57600080fd5b5060015460ff1661035c565b34801561055657600080fd5b5061035c610565366004612962565b61116b565b34801561057657600080fd5b506102f57f6a91aef9732223a1e08535aa86300046e552b28b7d08a6f74cea3441c482402781565b3480156105aa57600080fd5b50476102f5565b3480156105bd57600080fd5b506103b76105cc366004612962565b6111b1565b3480156105dd57600080fd5b5061035c6105ec366004612962565b600a6020526000908152604090205460ff1681565b34801561060d57600080fd5b506103b76113f7565b34801561062257600080fd5b506102f5670de0b6b3a764000081565b34801561063e57600080fd5b506103b761064d3660046129c9565b61142f565b34801561065e57600080fd5b506001546106779061010090046001600160a01b031681565b6040516001600160a01b0390911681526020016102d6565b34801561069b57600080fd5b506106af6106aa366004612962565b611579565b6040516102d69190612a0b565b3480156106c857600080fd5b506106776106d7366004612ac1565b611613565b3480156106e857600080fd5b506102f560025481565b3480156106fe57600080fd5b506103b761070d366004612b16565b611692565b34801561071e57600080fd5b5061073261072d366004612b4d565b61176a565b60408051938452602084019290925260ff16908201526060016102d6565b34801561075c57600080fd5b5061035c61076b36600461289f565b600b6020526000908152604090205460ff1681565b6103b76117de565b34801561079457600080fd5b5061079d611837565b60408051958652602086019490945292840191909152151560608301521515608082015260a0016102d6565b3480156107d557600080fd5b506103b76107e4366004612b8a565b61187e565b3480156107f557600080fd5b506102f5606481565b34801561080a57600080fd5b506102f561081936600461289f565b611ade565b34801561082a57600080fd5b506103b7611aff565b34801561083f57600080fd5b5061035c61084e366004612b4d565b611c97565b34801561085f57600080fd5b506103b761086e3660046129c9565b611d5f565b34801561087f57600080fd5b506103b761088e366004612b4d565b611ec2565b600480546005546006546007546008546009805460ff808816986101009098046001600160a01b03169793169291906108cb90612c12565b80601f01602080910402602001604051908101604052809291908181526020018280546108f790612c12565b80156109445780601f1061091957610100808354040283529160200191610944565b820191906000526020600020905b81548152906001019060200180831161092757829003601f168201915b5050505050905087565b600654600090421080159061096557506007544211155b905090565b60015461010090046001600160a01b0316331461099a57604051632e6c18c960e11b815260040160405180910390fd5b600355565b60015461010090046001600160a01b031633146109cf57604051632e6c18c960e11b815260040160405180910390fd5b828410610a135760405162461bcd60e51b815260206004820152600d60248201526c496e76616c69642074696d657360981b60448201526064015b60405180910390fd5b428411610a625760405162461bcd60e51b815260206004820152601960248201527f53746172742074696d65206d75737420626520667574757265000000000000006044820152606401610a0a565b6040805160a081018252858152602080820186815282840186815260608085018781526001608080880182815260008f8152600e89528a9020985189559551918801919091559251600287015551600386015591516004909401805460ff19169415159490941790935583518981529182018890529281018690529182018490527fbfbc62bdb9341bf2ead87fafa0579b40f01f27d54feef8db08479e2aeba9b21e910160405180910390a15050505050565b6004546005546006546007546009805460ff86169561010090046001600160a01b031694939291606091600091829182918291610b5190612c12565b80601f0160208091040260200160405190810160405280929190818152602001828054610b7d90612c12565b8015610bca5780601f10610b9f57610100808354040283529160200191610bca565b820191906000526020600020905b815481529060010190602001808311610bad57829003601f168201915b5093985060009350610bdb92505050565b60045460ff166002811115610bf257610bf26126f8565b03610bff57479350610c92565b600160045460ff166002811115610c1857610c186126f8565b03610c8c576040516370a0823160e01b81523060048201526001600160a01b038a16906370a0823190602401602060405180830381865afa158015610c61573d6000803e3d6000fd5b505050506040513d601f19601f82011682018060405250810190610c859190612c4c565b9350610c92565b600c5493505b6002549250610c9f61094e565b9150818015610cbe5750336000908152600a602052604090205460ff16155b8015610cce5750610cce3361116b565b905090919293949596979899565b60015461010090046001600160a01b03163314610d0c57604051632e6c18c960e11b815260040160405180910390fd5b610d14612117565b565b610d1e612169565b610d266121c2565b60085460ff16610d4957604051635c24dd8960e11b815260040160405180910390fd5b610d5161094e565b610d6e5760405163133c07dd60e21b815260040160405180910390fd5b610d773361116b565b610d9457604051637c75aa6f60e11b815260040160405180910390fd5b336000908152600a602052604090205460ff1615610dc557604051630c8d9eab60e31b815260040160405180910390fd5b60035460025410610de957604051633525bb0b60e01b815260040160405180910390fd5b336000908152600a60205260408120805460ff191660011790556002805491610e1183612c7b565b909155506000905060045460ff166002811115610e3057610e306126f8565b03610e4257610e3d612208565b610ea7565b600160045460ff166002811115610e5b57610e5b6126f8565b03610e6857610e3d6122c9565b600260045460ff166002811115610e8157610e816126f8565b03610e8e57610e3d612427565b60405163191b4dab60e31b815260040160405180910390fd5b610d146001600055565b60015461010090046001600160a01b03163314610ee157604051632e6c18c960e11b815260040160405180910390fd5b610ee9612563565b600754610ef99062278d00612c94565b4211610f405760405162461bcd60e51b815260206004820152601660248201527515d85a5d080ccc0819185e5cc818599d195c88195b9960521b6044820152606401610a0a565b478015610f87576001546040516101009091046001600160a01b0316906108fc8315029083906000818181858888f19350505050158015610f85573d6000803e3d6000fd5b505b600160045460ff166002811115610fa057610fa06126f8565b036110e757600480546040516370a0823160e01b8152309281019290925261010090046001600160a01b03169060009082906370a0823190602401602060405180830381865afa158015610ff8573d6000803e3d6000fd5b505050506040513d601f19601f8201168201806040525081019061101c9190612c4c565b905080156110e45760015460405163a9059cbb60e01b81526101009091046001600160a01b0390811660048301526024820183905283169063a9059cbb906044016020604051808303816000875af115801561107c573d6000803e3d6000fd5b505050506040513d601f19601f820116820180604052508101906110a09190612ca7565b6110e45760405162461bcd60e51b8152602060048201526015602482015274151bdad95b881d1c985b9cd9995c8819985a5b1959605a1b6044820152606401610a0a565b50505b6040518181526000907f23d6711a1d031134a36921253c75aa59e967d38e369ac625992824315e204f20906020015b60405180910390a250565b6000806000806111308561116b565b6001600160a01b039095166000818152600a6020526040902054959660ff90961695670de0b6b3a76400009131918210159550909350915050565b6001600160a01b0381166000908152600d602052604081205460ff161561119457506001919050565b32331480156111ab57506001600160a01b0382163b155b92915050565b60015461010090046001600160a01b031633146111e157604051632e6c18c960e11b815260040160405180910390fd5b6111e9612563565b6111f161094e565b1561120f576040516336c1412f60e11b815260040160405180910390fd5b6000806001600160a01b038316611284576001546040514793506101009091046001600160a01b0316908390600081818185875af1925050503d8060008114611274576040519150601f19603f3d011682016040523d82523d6000602084013e611279565b606091505b505080915050611370565b6040516370a0823160e01b815230600482015283906001600160a01b038216906370a0823190602401602060405180830381865afa1580156112ca573d6000803e3d6000fd5b505050506040513d601f19601f820116820180604052508101906112ee9190612c4c565b60015460405163a9059cbb60e01b81526001600160a01b03610100909204821660048201526024810183905291945082169063a9059cbb906044016020604051808303816000875af1158015611348573d6000803e3d6000fd5b505050506040513d601f19601f8201168201806040525081019061136c9190612ca7565b9150505b806113af5760405162461bcd60e51b815260206004820152600f60248201526e151c985b9cd9995c8819985a5b1959608a1b6044820152606401610a0a565b826001600160a01b03167f23d6711a1d031134a36921253c75aa59e967d38e369ac625992824315e204f20836040516113ea91815260200190565b60405180910390a2505050565b60015461010090046001600160a01b0316331461142757604051632e6c18c960e11b815260040160405180910390fd5b610d146125ac565b600260045460ff166002811115611448576114486126f8565b146114875760405162461bcd60e51b815260206004820152600f60248201526e04e6f74204e46542061697264726f7608c1b6044820152606401610a0a565b60045461010090046001600160a01b031660005b8281101561157357816001600160a01b03166342842e0e33308787868181106114c6576114c6612cc4565b6040516001600160e01b031960e088901b1681526001600160a01b03958616600482015294909316602485015250602090910201356044820152606401600060405180830381600087803b15801561151d57600080fd5b505af1158015611531573d6000803e3d6000fd5b50505050600c84848381811061154957611549612cc4565b8354600180820186556000958652602095869020929095029390930135920191909155500161149b565b50505050565b6010602052600090815260409020805461159290612c12565b80601f01602080910402602001604051908101604052809291908181526020018280546115be90612c12565b801561160b5780601f106115e05761010080835404028352916020019161160b565b820191906000526020600020905b8154815290600101906020018083116115ee57829003601f168201915b505050505081565b6000806000806116228561176a565b6040805160008152602081018083528b905260ff8316918101919091526060810184905260808101839052929550909350915060019060a0016020604051602081039080840390855afa15801561167d573d6000803e3d6000fd5b5050604051601f190151979650505050505050565b60015461010090046001600160a01b031633146116c257604051632e6c18c960e11b815260040160405180910390fd5b6001600160a01b03821661170a5760405162461bcd60e51b815260206004820152600f60248201526e496e76616c6964206164647265737360881b6044820152606401610a0a565b6001600160a01b0382166000818152600d6020908152604091829020805460ff191685151590811790915591519182527f46fe0810a41e3dbf985c77c9f30207ce6eda91dcba24d8de583b6ea30ac16f0091015b60405180910390a25050565b600080600083516041146117c05760405162461bcd60e51b815260206004820152601860248201527f496e76616c6964207369676e6174757265206c656e67746800000000000000006044820152606401610a0a565b50505060208101516040820151606090920151909260009190911a90565b346000036117ff5760405163162908e360e11b815260040160405180910390fd5b60405134815233907f8e47b87b0ef542cdfa1659c551d88bad38aa7f452d2bbb349ab7530dfec8be8f906020015b60405180910390a2565b600254600754479190600090819081904210611854576000611862565b600754611862904290612cda565b925061186c61094e565b60055490925085101590509091929394565b60015461010090046001600160a01b031633146118ae57604051632e6c18c960e11b815260040160405180910390fd5b8284106118ce5760405163364dd21b60e21b815260040160405180910390fd5b4284116118ee57604051635b7ce02360e11b815260040160405180910390fd5b6000876002811115611902576119026126f8565b1415801561191757506001600160a01b038616155b1561193557604051630f58058360e11b815260040160405180910390fd5b600480546001600160a81b031916815560006005819055600681905560078190556008805460ff1916905561196b6009826126a2565b505060006002819055506040518060e00160405280886002811115611992576119926126f8565b8152602001876001600160a01b0316815260200186815260200185815260200184815260200160011515815260200183838080601f0160208091040260200160405190810160405280939291908181526020018383808284376000920191909152505050915250805160048054909190829060ff19166001836002811115611a1c57611a1c6126f8565b021790555060208201518154610100600160a81b0319166101006001600160a01b039092169190910217815560408201516001820155606082015160028201556080820151600382015560a082015160048201805460ff191691151591909117905560c08201516005820190611a929082612d3e565b509050507f32e2a843cfba79ba9e9ad633a0abf0d4dd5505180676d5458acb4beb825dc9668787878585604051611acd959493929190612dfe565b60405180910390a150505050505050565b600c8181548110611aee57600080fd5b600091825260209091200154905081565b611b076121c2565b336000908152600a602052604090205460ff1615611b5c5760405162461bcd60e51b8152602060048201526012602482015271105b1c9958591e481c9959da5cdd195c995960721b6044820152606401610a0a565b60085460ff16611ba75760405162461bcd60e51b8152602060048201526016602482015275105a5c991c9bdc081b9bdd0818dbdb999a59dd5c995960521b6044820152606401610a0a565b6007544210611be85760405162461bcd60e51b815260206004820152600d60248201526c105a5c991c9bdc08195b991959609a1b6044820152606401610a0a565b60035460025410611c3b5760405162461bcd60e51b815260206004820152601c60248201527f4d6178696d756d207061727469636970616e74732072656163686564000000006044820152606401610a0a565b336000908152600a60205260408120805460ff191690556002805491611c6083612c7b565b909155505060405142815233907fe29d35093005f4d575e1003753426b57a7f64378ba73332eef9c6ccc2b8decd69060200161182d565b6005546040516bffffffffffffffffffffffff193360601b16602082015260348101919091526000908190605401604051602081830303815290604052805190602001209050600081604051602001611d1c91907f19457468657265756d205369676e6564204d6573736167653a0a3332000000008152601c810191909152603c0190565b6040516020818303038152906040528051906020012090506000611d408286611613565b60015461010090046001600160a01b0390811691161495945050505050565b60015461010090046001600160a01b03163314611d8f57604051632e6c18c960e11b815260040160405180910390fd5b6064811115611dd25760405162461bcd60e51b815260206004820152600f60248201526e426174636820746f6f206c6172676560881b6044820152606401610a0a565b60005a9050619c4060005b8381108015611deb57508183115b15611ebb57600a6000868684818110611e0657611e06612cc4565b9050602002016020810190611e1b9190612962565b6001600160a01b0316815260208101919091526040016000205460ff16158015611e6a5750611e6a858583818110611e5557611e55612cc4565b90506020020160208101906105659190612962565b15611ea9575a925081831115611ea957611ea9858583818110611e8f57611e8f612cc4565b9050602002016020810190611ea49190612962565b6125e7565b80611eb381612c7b565b915050611ddd565b5050505050565b611eca6121c2565b336000908152600a602052604090205460ff1615611f1f5760405162461bcd60e51b8152602060048201526012602482015271105b1c9958591e481c9959da5cdd195c995960721b6044820152606401610a0a565b611f2881611c97565b611f685760405162461bcd60e51b8152602060048201526011602482015270496e76616c6964207369676e617475726560781b6044820152606401610a0a565b60085460ff16611fb35760405162461bcd60e51b8152602060048201526016602482015275105a5c991c9bdc081b9bdd0818dbdb999a59dd5c995960521b6044820152606401610a0a565b600f546000908152600e60205260409020600481015460ff1661200b5760405162461bcd60e51b815260206004820152601060248201526f5068617365206e6f742061637469766560801b6044820152606401610a0a565b80544210801590612020575080600101544211155b61205f5760405162461bcd60e51b815260206004820152601060248201526f5068617365206e6f742061637469766560801b6044820152606401610a0a565b8060020154600254106120a15760405162461bcd60e51b815260206004820152600a602482015269141a185cd948199d5b1b60b21b6044820152606401610a0a565b3360009081526010602052604090206120ba8382612d3e565b50336000908152600a60205260408120805460ff1916905560028054916120e083612c7b565b909155505060405142815233907fe29d35093005f4d575e1003753426b57a7f64378ba73332eef9c6ccc2b8decd69060200161175e565b61211f612563565b6001805460ff191690557f5db9ee0a495bf2e6ff9c91a7834c1ba4fdd244a5e8aa4e537bd38aeae4b073aa335b6040516001600160a01b03909116815260200160405180910390a1565b6002600054036121bb5760405162461bcd60e51b815260206004820152601f60248201527f5265656e7472616e637947756172643a207265656e7472616e742063616c6c006044820152606401610a0a565b6002600055565b60015460ff1615610d145760405162461bcd60e51b815260206004820152601060248201526f14185d5cd8589b194e881c185d5cd95960821b6044820152606401610a0a565b60055447101561222b5760405163786e0a9960e01b815260040160405180910390fd5b600554604051600090339083908381818185875af1925050503d8060008114612270576040519150601f19603f3d011682016040523d82523d6000602084013e612275565b606091505b5050905080612297576040516312171d8360e31b815260040160405180910390fd5b60405182815233907f896e034966eaaf1adc54acc0f257056febbd300c9e47182cf761982cf1f5e4309060200161175e565b600480546005546040516370a0823160e01b815230938101939093526101009091046001600160a01b03169182906370a0823190602401602060405180830381865afa15801561231d573d6000803e3d6000fd5b505050506040513d601f19601f820116820180604052508101906123419190612c4c565b10156123605760405163786e0a9960e01b815260040160405180910390fd5b60055460405163a9059cbb60e01b815233600482015260248101919091526001600160a01b0382169063a9059cbb906044016020604051808303816000875af11580156123b1573d6000803e3d6000fd5b505050506040513d601f19601f820116820180604052508101906123d59190612ca7565b6123f2576040516312171d8360e31b815260040160405180910390fd5b60055460405190815233907f896e034966eaaf1adc54acc0f257056febbd300c9e47182cf761982cf1f5e43090602001611116565b600c5460000361244a5760405163786e0a9960e01b815260040160405180910390fd5b600c80546000919061245e90600190612cda565b8154811061246e5761246e612cc4565b90600052602060002001549050600c80548061248c5761248c612e54565b60008281526020812060001990830181019190915501905560048054604051632142170760e11b815230928101929092523360248301526044820183905261010090046001600160a01b03169081906342842e0e90606401600060405180830381600087803b1580156124fe57600080fd5b505af1158015612512573d6000803e3d6000fd5b5050506000838152600b602052604090819020805460ff19166001179055513391507fb792983f4be9cd6a6722f6cf3c136d8cf44f77c5cf7cb263f75f36b04806a01b9061175e9085815260200190565b60015460ff16610d145760405162461bcd60e51b815260206004820152601460248201527314185d5cd8589b194e881b9bdd081c185d5cd95960621b6044820152606401610a0a565b6125b46121c2565b6001805460ff1916811790557f62e78cea01bee320cd4e420270b5ea74000d11b0c9f74754ebdbfc544b05a2583361214c565b6001600160a01b0381166000818152600a6020526040808220805460ff191660011790556005549051919291617530919084818181858888f193505050503d8060008114612651576040519150601f19603f3d011682016040523d82523d6000602084013e612656565b606091505b50509050801561269e576005546040519081526001600160a01b038316907f896e034966eaaf1adc54acc0f257056febbd300c9e47182cf761982cf1f5e4309060200161175e565b5050565b5080546126ae90612c12565b6000825580601f106126be575050565b601f0160209004906000526020600020908101906126dc91906126df565b50565b5b808211156126f457600081556001016126e0565b5090565b634e487b7160e01b600052602160045260246000fd5b6003811061272c57634e487b7160e01b600052602160045260246000fd5b9052565b6000815180845260005b818110156127565760208185018101518683018201520161273a565b506000602082860101526020601f19601f83011685010191505092915050565b612780818961270e565b60018060a01b038716602082015285604082015284606082015283608082015282151560a082015260e060c082015260006127be60e0830184612730565b9998505050505050505050565b80356001600160a01b03811681146127e257600080fd5b919050565b60008083601f8401126127f957600080fd5b50813567ffffffffffffffff81111561281157600080fd5b60208301915083602082850101111561282957600080fd5b9250929050565b60008060008060006080868803121561284857600080fd5b612851866127cb565b945061285f602087016127cb565b935060408601359250606086013567ffffffffffffffff81111561288257600080fd5b61288e888289016127e7565b969995985093965092949392505050565b6000602082840312156128b157600080fd5b5035919050565b600080600080600060a086880312156128d057600080fd5b505083359560208501359550604085013594606081013594506080013592509050565b6000610140612902838e61270e565b60018060a01b038c1660208401528a60408401528960608401528860808401528060a084015261293481840189612730565b60c0840197909752505060e08101939093529015156101008301521515610120909101529695505050505050565b60006020828403121561297457600080fd5b61297d826127cb565b9392505050565b60008083601f84011261299657600080fd5b50813567ffffffffffffffff8111156129ae57600080fd5b6020830191508360208260051b850101111561282957600080fd5b600080602083850312156129dc57600080fd5b823567ffffffffffffffff8111156129f357600080fd5b6129ff85828601612984565b90969095509350505050565b60208152600061297d6020830184612730565b634e487b7160e01b600052604160045260246000fd5b600082601f830112612a4557600080fd5b813567ffffffffffffffff80821115612a6057612a60612a1e565b604051601f8301601f19908116603f01168101908282118183101715612a8857612a88612a1e565b81604052838152866020858801011115612aa157600080fd5b836020870160208301376000602085830101528094505050505092915050565b60008060408385031215612ad457600080fd5b82359150602083013567ffffffffffffffff811115612af257600080fd5b612afe85828601612a34565b9150509250929050565b80151581146126dc57600080fd5b60008060408385031215612b2957600080fd5b612b32836127cb565b91506020830135612b4281612b08565b809150509250929050565b600060208284031215612b5f57600080fd5b813567ffffffffffffffff811115612b7657600080fd5b612b8284828501612a34565b949350505050565b600080600080600080600060c0888a031215612ba557600080fd5b873560038110612bb457600080fd5b9650612bc2602089016127cb565b955060408801359450606088013593506080880135925060a088013567ffffffffffffffff811115612bf357600080fd5b612bff8a828b016127e7565b989b979a50959850939692959293505050565b600181811c90821680612c2657607f821691505b602082108103612c4657634e487b7160e01b600052602260045260246000fd5b50919050565b600060208284031215612c5e57600080fd5b5051919050565b634e487b7160e01b600052601160045260246000fd5b600060018201612c8d57612c8d612c65565b5060010190565b808201808211156111ab576111ab612c65565b600060208284031215612cb957600080fd5b815161297d81612b08565b634e487b7160e01b600052603260045260246000fd5b818103818111156111ab576111ab612c65565b601f821115612d39576000816000526020600020601f850160051c81016020861015612d165750805b601f850160051c820191505b81811015612d3557828155600101612d22565b5050505b505050565b815167ffffffffffffffff811115612d5857612d58612a1e565b612d6c81612d668454612c12565b84612ced565b602080601f831160018114612da15760008415612d895750858301515b600019600386901b1c1916600185901b178555612d35565b600085815260208120601f198616915b82811015612dd057888601518255948401946001909101908401612db1565b5085821015612dee5787850151600019600388901b60f8161c191681555b5050505050600190811b01905550565b612e08818761270e565b6001600160a01b0385166020820152604081018490526080606082018190528101829052818360a0830137600081830160a090810191909152601f909201601f19160101949350505050565b634e487b7160e01b600052603160045260246000fdfea26469706673582212203c30cbde9b6a0306ee58d485bcd5edbfc2347c287c0c5b2d511fdacf6d395e1064736f6c63430008180033",
  "linkReferences": {},
  "deployedLinkReferences": {}
}