{
  "_format": "hh-sol-artifact-1",
  "contractName": "Airdrop",
  "sourceName": "contracts/AirdropContract.sol",
  "abi": [
    {
      "inputs": [
        {
          "internalType": "address",
          "name": "_token",
          "type": "address"
        },
        {
          "internalType": "uint256",
          "name": "_maxParticipants",
          "type": "uint256"
        }
      ],
      "stateMutability": "nonpayable",
      "type": "constructor"
    },
    {
      "inputs": [],
      "name": "AirdropActive",
      "type": "error"
    },
    {
      "inputs": [],
      "name": "AirdropNotFunded",
      "type": "error"
    },
    {
      "inputs": [],
      "name": "AlreadyClaimed",
      "type": "error"
    },
    {
      "inputs": [],
      "name": "CallerNotOwner",
      "type": "error"
    },
    {
      "inputs": [],
      "name": "InsufficientContractBalance",
      "type": "error"
    },
    {
      "inputs": [],
      "name": "InvalidAmount",
      "type": "error"
    },
    {
      "inputs": [],
      "name": "InvalidDates",
      "type": "error"
    },
    {
      "inputs": [],
      "name": "NotEligible",
      "type": "error"
    },
    {
      "inputs": [],
      "name": "StartDateMustBeFuture",
      "type": "error"
    },
    {
      "inputs": [],
      "name": "TransferFailed",
      "type": "error"
    },
    {
      "inputs": [],
      "name": "TransferLimitExceeded",
      "type": "error"
    },
    {
      "anonymous": false,
      "inputs": [
        {
          "indexed": false,
          "internalType": "uint256",
          "name": "startDate",
          "type": "uint256"
        },
        {
          "indexed": false,
          "internalType": "uint256",
          "name": "endDate",
          "type": "uint256"
        },
        {
          "indexed": false,
          "internalType": "uint256",
          "name": "amount",
          "type": "uint256"
        }
      ],
      "name": "AirdropConfigured",
      "type": "event"
    },
    {
      "anonymous": false,
      "inputs": [
        {
          "indexed": false,
          "internalType": "uint256",
          "name": "amount",
          "type": "uint256"
        }
      ],
      "name": "AirdropFunded",
      "type": "event"
    },
    {
      "anonymous": false,
      "inputs": [
        {
          "indexed": false,
          "internalType": "address",
          "name": "token",
          "type": "address"
        },
        {
          "indexed": false,
          "internalType": "uint256",
          "name": "amount",
          "type": "uint256"
        }
      ],
      "name": "EmergencyWithdrawal",
      "type": "event"
    },
    {
      "anonymous": false,
      "inputs": [
        {
          "indexed": false,
          "internalType": "address",
          "name": "account",
          "type": "address"
        }
      ],
      "name": "Paused",
      "type": "event"
    },
    {
      "anonymous": false,
      "inputs": [
        {
          "indexed": true,
          "internalType": "address",
          "name": "user",
          "type": "address"
        },
        {
          "indexed": false,
          "internalType": "uint256",
          "name": "amount",
          "type": "uint256"
        }
      ],
      "name": "TokensClaimed",
      "type": "event"
    },
    {
      "anonymous": false,
      "inputs": [
        {
          "indexed": false,
          "internalType": "address",
          "name": "account",
          "type": "address"
        }
      ],
      "name": "Unpaused",
      "type": "event"
    },
    {
      "inputs": [],
      "name": "GAS_LIMIT",
      "outputs": [
        {
          "internalType": "uint256",
          "name": "",
          "type": "uint256"
        }
      ],
      "stateMutability": "view",
      "type": "function"
    },
    {
      "inputs": [],
      "name": "MAX_BATCH_SIZE",
      "outputs": [
        {
          "internalType": "uint256",
          "name": "",
          "type": "uint256"
        }
      ],
      "stateMutability": "view",
      "type": "function"
    },
    {
      "inputs": [],
      "name": "MIN_CONTRACT_BALANCE",
      "outputs": [
        {
          "internalType": "uint256",
          "name": "",
          "type": "uint256"
        }
      ],
      "stateMutability": "view",
      "type": "function"
    },
    {
      "inputs": [
        {
          "internalType": "address[]",
          "name": "users",
          "type": "address[]"
        }
      ],
      "name": "batchClaim",
      "outputs": [],
      "stateMutability": "nonpayable",
      "type": "function"
    },
    {
      "inputs": [
        {
          "internalType": "address",
          "name": "user",
          "type": "address"
        }
      ],
      "name": "checkUserEligibility",
      "outputs": [
        {
          "internalType": "bool",
          "name": "isEligible_",
          "type": "bool"
        },
        {
          "internalType": "bool",
          "name": "hasClaimed_",
          "type": "bool"
        },
        {
          "internalType": "bool",
          "name": "hasMinBalance_",
          "type": "bool"
        },
        {
          "internalType": "uint256",
          "name": "userBalance",
          "type": "uint256"
        }
      ],
      "stateMutability": "view",
      "type": "function"
    },
    {
      "inputs": [],
      "name": "claimTokens",
      "outputs": [],
      "stateMutability": "nonpayable",
      "type": "function"
    },
    {
      "inputs": [
        {
          "internalType": "uint256",
          "name": "_startDate",
          "type": "uint256"
        },
        {
          "internalType": "uint256",
          "name": "_endDate",
          "type": "uint256"
        },
        {
          "internalType": "uint256",
          "name": "_tokenAmount",
          "type": "uint256"
        }
      ],
      "name": "configureAirdrop",
      "outputs": [],
      "stateMutability": "nonpayable",
      "type": "function"
    },
    {
      "inputs": [
        {
          "internalType": "address",
          "name": "token_",
          "type": "address"
        }
      ],
      "name": "emergencyWithdraw",
      "outputs": [],
      "stateMutability": "nonpayable",
      "type": "function"
    },
    {
      "inputs": [],
      "name": "endDate",
      "outputs": [
        {
          "internalType": "uint256",
          "name": "",
          "type": "uint256"
        }
      ],
      "stateMutability": "view",
      "type": "function"
    },
    {
      "inputs": [
        {
          "internalType": "uint256",
          "name": "amount",
          "type": "uint256"
        }
      ],
      "name": "fundAirdrop",
      "outputs": [],
      "stateMutability": "nonpayable",
      "type": "function"
    },
    {
      "inputs": [],
      "name": "getAirdropStats",
      "outputs": [
        {
          "internalType": "uint256",
          "name": "remainingTokens",
          "type": "uint256"
        },
        {
          "internalType": "uint256",
          "name": "claimedCount",
          "type": "uint256"
        },
        {
          "internalType": "uint256",
          "name": "remainingTime",
          "type": "uint256"
        },
        {
          "internalType": "bool",
          "name": "isAirdropActive",
          "type": "bool"
        },
        {
          "internalType": "bool",
          "name": "isFunded",
          "type": "bool"
        }
      ],
      "stateMutability": "view",
      "type": "function"
    },
    {
      "inputs": [],
      "name": "getContractBalance",
      "outputs": [
        {
          "internalType": "uint256",
          "name": "",
          "type": "uint256"
        }
      ],
      "stateMutability": "view",
      "type": "function"
    },
    {
      "inputs": [
        {
          "internalType": "address",
          "name": "",
          "type": "address"
        }
      ],
      "name": "hasClaimed",
      "outputs": [
        {
          "internalType": "bool",
          "name": "",
          "type": "bool"
        }
      ],
      "stateMutability": "view",
      "type": "function"
    },
    {
      "inputs": [],
      "name": "hasSufficientFunds",
      "outputs": [
        {
          "internalType": "bool",
          "name": "",
          "type": "bool"
        }
      ],
      "stateMutability": "view",
      "type": "function"
    },
    {
      "inputs": [],
      "name": "isActive",
      "outputs": [
        {
          "internalType": "bool",
          "name": "",
          "type": "bool"
        }
      ],
      "stateMutability": "view",
      "type": "function"
    },
    {
      "inputs": [
        {
          "internalType": "address",
          "name": "_user",
          "type": "address"
        }
      ],
      "name": "isEligible",
      "outputs": [
        {
          "internalType": "bool",
          "name": "",
          "type": "bool"
        }
      ],
      "stateMutability": "view",
      "type": "function"
    },
    {
      "inputs": [],
      "name": "maxParticipants",
      "outputs": [
        {
          "internalType": "uint256",
          "name": "",
          "type": "uint256"
        }
      ],
      "stateMutability": "view",
      "type": "function"
    },
    {
      "inputs": [],
      "name": "owner",
      "outputs": [
        {
          "internalType": "address",
          "name": "",
          "type": "address"
        }
      ],
      "stateMutability": "view",
      "type": "function"
    },
    {
      "inputs": [],
      "name": "pause",
      "outputs": [],
      "stateMutability": "nonpayable",
      "type": "function"
    },
    {
      "inputs": [],
      "name": "paused",
      "outputs": [
        {
          "internalType": "bool",
          "name": "",
          "type": "bool"
        }
      ],
      "stateMutability": "view",
      "type": "function"
    },
    {
      "inputs": [],
      "name": "recoverUnclaimedTokens",
      "outputs": [],
      "stateMutability": "nonpayable",
      "type": "function"
    },
    {
      "inputs": [
        {
          "internalType": "uint256",
          "name": "_maxParticipants",
          "type": "uint256"
        }
      ],
      "name": "setMaxParticipants",
      "outputs": [],
      "stateMutability": "nonpayable",
      "type": "function"
    },
    {
      "inputs": [],
      "name": "startDate",
      "outputs": [
        {
          "internalType": "uint256",
          "name": "",
          "type": "uint256"
        }
      ],
      "stateMutability": "view",
      "type": "function"
    },
    {
      "inputs": [],
      "name": "token",
      "outputs": [
        {
          "internalType": "contract IERC20",
          "name": "",
          "type": "address"
        }
      ],
      "stateMutability": "view",
      "type": "function"
    },
    {
      "inputs": [],
      "name": "tokenAmount",
      "outputs": [
        {
          "internalType": "uint256",
          "name": "",
          "type": "uint256"
        }
      ],
      "stateMutability": "view",
      "type": "function"
    },
    {
      "inputs": [],
      "name": "totalParticipants",
      "outputs": [
        {
          "internalType": "uint256",
          "name": "",
          "type": "uint256"
        }
      ],
      "stateMutability": "view",
      "type": "function"
    },
    {
      "inputs": [],
      "name": "unpause",
      "outputs": [],
      "stateMutability": "nonpayable",
      "type": "function"
    }
  ],
  "bytecode": "0x608060405234801561001057600080fd5b5060405161140a38038061140a83398101604081905261002f91610073565b6001600081905580546001600160a81b0319166101003302179055600280546001600160a01b0319166001600160a01b0393909316929092179091556007556100ad565b6000806040838503121561008657600080fd5b82516001600160a01b038116811461009d57600080fd5b6020939093015192949293505050565b61134e806100bc6000396000f3fe608060405234801561001057600080fd5b50600436106101a95760003560e01c80636ff1c9bc116100f9578063a26dbf2611610097578063cfdbf25411610071578063cfdbf2541461036d578063eec7faa114610375578063fb5f749f1461037e578063fc0c546a1461039157600080fd5b8063a26dbf2614610327578063c24a0f8b14610330578063c4d92a751461033957600080fd5b80638da5cb5b116100d35780638da5cb5b146102d35780638e2decd8146103035780639c1e05a1146103165780639f56f8dc1461031f57600080fd5b80636ff1c9bc1461029557806373b2e80e146102a85780638456cb59146102cb57600080fd5b80632bf7299b1161016657806350db02251161014057806350db0225146102345780635c975abb1461026f57806366e305fd1461027a5780636f9fb98a1461028d57600080fd5b80632bf7299b146102115780633f4ba83a1461022457806348c54b9d1461022c57600080fd5b8063029e9e5f146101ae578063091d2788146101c35780630b97bc86146101df5780631ef4f8de146101e857806322f3e2d41461020057806324924bf714610208575b600080fd5b6101c16101bc366004611195565b6103a4565b005b6101cc61c35081565b6040519081526020015b60405180910390f35b6101cc60045481565b6101f061046a565b60405190151581526020016101d6565b6101f0610480565b6101cc60075481565b6101c161021f3660046111c1565b61049b565b6101c16104d0565b6101c161050a565b6102476102423660046111da565b6106ed565b60408051941515855292151560208501529015159183019190915260608201526080016101d6565b60015460ff166101f0565b6101f06102883660046111da565b3b1590565b6101cc610790565b6101c16102a33660046111da565b6107fd565b6101f06102b63660046111da565b60086020526000908152604090205460ff1681565b6101c1610a8c565b6001546102eb9061010090046001600160a01b031681565b6040516001600160a01b0390911681526020016101d6565b6101c16103113660046111c1565b610ac4565b6101cc6103e881565b6101c1610be8565b6101cc60065481565b6101cc60055481565b610341610d4f565b60408051958652602086019490945292840191909152151560608301521515608082015260a0016101d6565b6101cc606481565b6101cc60035481565b6101c161038c36600461120a565b610d9f565b6002546102eb906001600160a01b031681565b60015461010090046001600160a01b031633146103d457604051632e6c18c960e11b815260040160405180910390fd5b8183106103f45760405163364dd21b60e21b815260040160405180910390fd5b42831161041457604051635b7ce02360e11b815260040160405180910390fd5b60048390556005829055600381905560408051848152602081018490529081018290527f7f128528596c34f71635ee68b8e1bab96ff7ac4d3f0536b9a837589e0ec3f26f906060015b60405180910390a1505050565b600080610475610790565b600354111592915050565b6000600454421015801561049657506005544211155b905090565b60015461010090046001600160a01b031633146104cb57604051632e6c18c960e11b815260040160405180910390fd5b600755565b60015461010090046001600160a01b0316331461050057604051632e6c18c960e11b815260040160405180910390fd5b610508611020565b565b610512611072565b61051a6110cb565b60045442108061052b575060055442115b15610549576040516336c1412f60e11b815260040160405180910390fd5b3360009081526008602052604090205460ff161561057a57604051630c8d9eab60e31b815260040160405180910390fd5b333b1561059a57604051637c75aa6f60e11b815260040160405180910390fd5b600754600654106105be57604051633525bb0b60e01b815260040160405180910390fd5b6105c661046a565b6105e35760405163786e0a9960e01b815260040160405180910390fd5b336000908152600860205260408120805460ff19166001179055600680549161060b83611295565b909155505060025460035460405163a9059cbb60e01b815233600482015260248101919091526000916001600160a01b03169063a9059cbb906044016020604051808303816000875af1158015610666573d6000803e3d6000fd5b505050506040513d601f19601f8201168201806040525081019061068a91906112ae565b9050806106aa576040516312171d8360e31b815260040160405180910390fd5b60035460405190815233907f896e034966eaaf1adc54acc0f257056febbd300c9e47182cf761982cf1f5e4309060200160405180910390a2506105086001600055565b6000808080843b156001600160a01b03868116600081815260086020526040908190205460025491516370a0823160e01b8152600481019390935293975060ff90931695509116906370a0823190602401602060405180830381865afa15801561075b573d6000803e3d6000fd5b505050506040513d601f19601f8201168201806040525081019061077f91906112d0565b90506103e881101591509193509193565b6002546040516370a0823160e01b81523060048201526000916001600160a01b0316906370a0823190602401602060405180830381865afa1580156107d9573d6000803e3d6000fd5b505050506040513d601f19601f8201168201806040525081019061049691906112d0565b60015461010090046001600160a01b0316331461082d57604051632e6c18c960e11b815260040160405180910390fd5b610835611111565b60025460009081906001600160a01b0390811690841603610943576002546040516370a0823160e01b81523060048201526001600160a01b03909116906370a0823190602401602060405180830381865afa158015610898573d6000803e3d6000fd5b505050506040513d601f19601f820116820180604052508101906108bc91906112d0565b60025460015460405163a9059cbb60e01b81526001600160a01b036101009092048216600482015260248101849052929450169063a9059cbb906044016020604051808303816000875af1158015610918573d6000803e3d6000fd5b505050506040513d601f19601f8201168201806040525081019061093c91906112ae565b9050610a2f565b6040516370a0823160e01b815230600482015283906001600160a01b038216906370a0823190602401602060405180830381865afa158015610989573d6000803e3d6000fd5b505050506040513d601f19601f820116820180604052508101906109ad91906112d0565b60015460405163a9059cbb60e01b81526001600160a01b03610100909204821660048201526024810183905291945082169063a9059cbb906044016020604051808303816000875af1158015610a07573d6000803e3d6000fd5b505050506040513d601f19601f82011682018060405250810190610a2b91906112ae565b9150505b80610a4d576040516312171d8360e31b815260040160405180910390fd5b604080516001600160a01b0385168152602081018490527f23d6711a1d031134a36921253c75aa59e967d38e369ac625992824315e204f20910161045d565b60015461010090046001600160a01b03163314610abc57604051632e6c18c960e11b815260040160405180910390fd5b61050861115a565b60015461010090046001600160a01b03163314610af457604051632e6c18c960e11b815260040160405180910390fd5b80600003610b155760405163162908e360e11b815260040160405180910390fd5b6002546040516323b872dd60e01b8152336004820152306024820152604481018390526000916001600160a01b0316906323b872dd906064016020604051808303816000875af1158015610b6d573d6000803e3d6000fd5b505050506040513d601f19601f82011682018060405250810190610b9191906112ae565b905080610bb1576040516312171d8360e31b815260040160405180910390fd5b6040518281527f61d1787896dfd1a6b3a32acc98452f04ce057666fd4bea2cf39bc30fc6087eaa9060200160405180910390a15050565b60015461010090046001600160a01b03163314610c1857604051632e6c18c960e11b815260040160405180910390fd5b6005544211610c3a576040516336c1412f60e11b815260040160405180910390fd5b6002546040516370a0823160e01b81523060048201526000916001600160a01b0316906370a0823190602401602060405180830381865afa158015610c83573d6000803e3d6000fd5b505050506040513d601f19601f82011682018060405250810190610ca791906112d0565b60025460015460405163a9059cbb60e01b81526001600160a01b03610100909204821660048201526024810184905292935060009291169063a9059cbb906044016020604051808303816000875af1158015610d07573d6000803e3d6000fd5b505050506040513d601f19601f82011682018060405250810190610d2b91906112ae565b905080610d4b576040516312171d8360e31b815260040160405180910390fd5b5050565b6000806000806000610d5f610790565b945060065493506005544210610d76576000610d84565b42600554610d8491906112e9565b9250610d8e610480565b915060035485101590509091929394565b60015461010090046001600160a01b03163314610dcf57604051632e6c18c960e11b815260040160405180910390fd5b6064811115610e175760405162461bcd60e51b815260206004820152600f60248201526e426174636820746f6f206c6172676560881b60448201526064015b60405180910390fd5b60005b8181101561101b5760086000848484818110610e3857610e38611302565b9050602002016020810190610e4d91906111da565b6001600160a01b0316815260208101919091526040016000205460ff16158015610e9c5750610e9c838383818110610e8757610e87611302565b905060200201602081019061028891906111da565b1561101357600160086000858585818110610eb957610eb9611302565b9050602002016020810190610ece91906111da565b6001600160a01b03908116825260208201929092526040016000908120805460ff1916931515939093179092556002541663a9059cbb858585818110610f1657610f16611302565b9050602002016020810190610f2b91906111da565b6003546040516001600160e01b031960e085901b1681526001600160a01b03909216600483015260248201526044016020604051808303816000875af1158015610f79573d6000803e3d6000fd5b505050506040513d601f19601f82011682018060405250810190610f9d91906112ae565b9050801561101157838383818110610fb757610fb7611302565b9050602002016020810190610fcc91906111da565b6001600160a01b03167f896e034966eaaf1adc54acc0f257056febbd300c9e47182cf761982cf1f5e43060035460405161100891815260200190565b60405180910390a25b505b600101610e1a565b505050565b611028611111565b6001805460ff191690557f5db9ee0a495bf2e6ff9c91a7834c1ba4fdd244a5e8aa4e537bd38aeae4b073aa335b6040516001600160a01b03909116815260200160405180910390a1565b6002600054036110c45760405162461bcd60e51b815260206004820152601f60248201527f5265656e7472616e637947756172643a207265656e7472616e742063616c6c006044820152606401610e0e565b6002600055565b60015460ff16156105085760405162461bcd60e51b815260206004820152601060248201526f14185d5cd8589b194e881c185d5cd95960821b6044820152606401610e0e565b60015460ff166105085760405162461bcd60e51b815260206004820152601460248201527314185d5cd8589b194e881b9bdd081c185d5cd95960621b6044820152606401610e0e565b6111626110cb565b6001805460ff1916811790557f62e78cea01bee320cd4e420270b5ea74000d11b0c9f74754ebdbfc544b05a25833611055565b6000806000606084860312156111aa57600080fd5b505081359360208301359350604090920135919050565b6000602082840312156111d357600080fd5b5035919050565b6000602082840312156111ec57600080fd5b81356001600160a01b038116811461120357600080fd5b9392505050565b6000806020838503121561121d57600080fd5b823567ffffffffffffffff8082111561123557600080fd5b818501915085601f83011261124957600080fd5b81358181111561125857600080fd5b8660208260051b850101111561126d57600080fd5b60209290920196919550909350505050565b634e487b7160e01b600052601160045260246000fd5b6000600182016112a7576112a761127f565b5060010190565b6000602082840312156112c057600080fd5b8151801515811461120357600080fd5b6000602082840312156112e257600080fd5b5051919050565b818103818111156112fc576112fc61127f565b92915050565b634e487b7160e01b600052603260045260246000fdfea264697066735822122025c29e99fac7117f6c0b3d5f8107e57ea479441b735a48e6cc0a105ac32a770f64736f6c63430008180033",
  "linkReferences": {},
  "deployedLinkReferences": {}
}