{
  "_format": "hh-sol-artifact-1",
  "contractName": "Airdrop",
  "sourceName": "contracts/Airdrops.sol",
  "abi": [
    {
      "inputs": [
        {
          "internalType": "address",
          "name": "_token",
          "type": "address"
        },
        {
          "internalType": "uint256",
          "name": "_registrationDuration",
          "type": "uint256"
        },
        {
          "internalType": "uint256",
          "name": "_claimDelay",
          "type": "uint256"
        },
        {
          "internalType": "uint256",
          "name": "_amountPerUser",
          "type": "uint256"
        }
      ],
      "stateMutability": "nonpayable",
      "type": "constructor"
    },
    {
      "anonymous": false,
      "inputs": [
        {
          "indexed": true,
          "internalType": "address",
          "name": "previousOwner",
          "type": "address"
        },
        {
          "indexed": true,
          "internalType": "address",
          "name": "newOwner",
          "type": "address"
        }
      ],
      "name": "OwnershipTransferred",
      "type": "event"
    },
    {
      "anonymous": false,
      "inputs": [
        {
          "indexed": true,
          "internalType": "address",
          "name": "user",
          "type": "address"
        },
        {
          "indexed": false,
          "internalType": "uint256",
          "name": "amount",
          "type": "uint256"
        }
      ],
      "name": "TokensClaimed",
      "type": "event"
    },
    {
      "anonymous": false,
      "inputs": [
        {
          "indexed": true,
          "internalType": "address",
          "name": "owner",
          "type": "address"
        },
        {
          "indexed": false,
          "internalType": "uint256",
          "name": "amount",
          "type": "uint256"
        }
      ],
      "name": "TokensWithdrawn",
      "type": "event"
    },
    {
      "anonymous": false,
      "inputs": [
        {
          "indexed": true,
          "internalType": "address",
          "name": "user",
          "type": "address"
        }
      ],
      "name": "UserRegistered",
      "type": "event"
    },
    {
      "inputs": [],
      "name": "airdropAmount",
      "outputs": [
        {
          "internalType": "uint256",
          "name": "",
          "type": "uint256"
        }
      ],
      "stateMutability": "view",
      "type": "function"
    },
    {
      "inputs": [],
      "name": "claim",
      "outputs": [],
      "stateMutability": "nonpayable",
      "type": "function"
    },
    {
      "inputs": [],
      "name": "claimStartTime",
      "outputs": [
        {
          "internalType": "uint256",
          "name": "",
          "type": "uint256"
        }
      ],
      "stateMutability": "view",
      "type": "function"
    },
    {
      "inputs": [
        {
          "internalType": "address",
          "name": "",
          "type": "address"
        }
      ],
      "name": "hasClaimed",
      "outputs": [
        {
          "internalType": "bool",
          "name": "",
          "type": "bool"
        }
      ],
      "stateMutability": "view",
      "type": "function"
    },
    {
      "inputs": [
        {
          "internalType": "address",
          "name": "",
          "type": "address"
        }
      ],
      "name": "isRegistered",
      "outputs": [
        {
          "internalType": "bool",
          "name": "",
          "type": "bool"
        }
      ],
      "stateMutability": "view",
      "type": "function"
    },
    {
      "inputs": [],
      "name": "owner",
      "outputs": [
        {
          "internalType": "address",
          "name": "",
          "type": "address"
        }
      ],
      "stateMutability": "view",
      "type": "function"
    },
    {
      "inputs": [],
      "name": "register",
      "outputs": [],
      "stateMutability": "nonpayable",
      "type": "function"
    },
    {
      "inputs": [],
      "name": "registeredUserCount",
      "outputs": [
        {
          "internalType": "uint256",
          "name": "",
          "type": "uint256"
        }
      ],
      "stateMutability": "view",
      "type": "function"
    },
    {
      "inputs": [],
      "name": "registrationEndTime",
      "outputs": [
        {
          "internalType": "uint256",
          "name": "",
          "type": "uint256"
        }
      ],
      "stateMutability": "view",
      "type": "function"
    },
    {
      "inputs": [],
      "name": "token",
      "outputs": [
        {
          "internalType": "contract IERC20",
          "name": "",
          "type": "address"
        }
      ],
      "stateMutability": "view",
      "type": "function"
    },
    {
      "inputs": [
        {
          "internalType": "address",
          "name": "newOwner",
          "type": "address"
        }
      ],
      "name": "transferOwnership",
      "outputs": [],
      "stateMutability": "nonpayable",
      "type": "function"
    },
    {
      "inputs": [],
      "name": "withdrawRemainingTokens",
      "outputs": [],
      "stateMutability": "nonpayable",
      "type": "function"
    }
  ],
  "bytecode": "0x610100604052348015610010575f5ffd5b50604051610e45380380610e4583398101604081905261002f9161018f565b61003833610140565b6001600160a01b0384166100a15760405162461bcd60e51b815260206004820152602560248201527f41697264726f703a20546f6b656e20616464726573732063616e6e6f74206265604482015264207a65726f60d81b60648201526084015b60405180910390fd5b5f811161010a5760405162461bcd60e51b815260206004820152603160248201527f41697264726f703a2041697264726f7020616d6f756e74206d7573742062652060448201527067726561746572207468616e207a65726f60781b6064820152608401610098565b6001600160a01b03841660805261012183426101d6565b60a08190526101319083906101d6565b60c05260e052506101fb915050565b5f80546001600160a01b038381166001600160a01b0319831681178455604051919092169283917f8be0079c531659141344cd1fd0a4f28419497f9722a3daafe3b4186f6b6457e09190a35050565b5f5f5f5f608085870312156101a2575f5ffd5b84516001600160a01b03811681146101b8575f5ffd5b60208601516040870151606090970151919890975090945092505050565b808201808211156101f557634e487b7160e01b5f52601160045260245ffd5b92915050565b60805160a05160c05160e051610bd861026d5f395f818161020e015281816105030152818161061f015261070d01525f818161014d015261038401525f81816101ad015261023201525f81816101e70152818161052501528181610647015281816107df015261085b0152610bd85ff3fe608060405234801561000f575f5ffd5b50600436106100cf575f3560e01c8063c3c5a5471161007d578063f2fde38b11610058578063f2fde38b146101cf578063fc0c546a146101e2578063fc2ea8a514610209575f5ffd5b8063c3c5a5471461017d578063cb3d05641461019f578063dff7d2c7146101a8575f5ffd5b80638afbf669116100ad5780638afbf6691461011c5780638da5cb5b14610124578063a6a11bb114610148575f5ffd5b80631aa3a008146100d35780634e71d92d146100dd57806373b2e80e146100e5575b5f5ffd5b6100db610230565b005b6100db610382565b6101076100f3366004610b1b565b60036020525f908152604090205460ff1681565b60405190151581526020015b60405180910390f35b6100db610760565b5f546001600160a01b03165b6040516001600160a01b039091168152602001610113565b61016f7f000000000000000000000000000000000000000000000000000000000000000081565b604051908152602001610113565b61010761018b366004610b1b565b60026020525f908152604090205460ff1681565b61016f60015481565b61016f7f000000000000000000000000000000000000000000000000000000000000000081565b6100db6101dd366004610b1b565b6109cc565b6101307f000000000000000000000000000000000000000000000000000000000000000081565b61016f7f000000000000000000000000000000000000000000000000000000000000000081565b7f000000000000000000000000000000000000000000000000000000000000000042106102ca5760405162461bcd60e51b815260206004820152602660248201527f41697264726f703a20526567697374726174696f6e20706572696f642068617360448201527f20656e646564000000000000000000000000000000000000000000000000000060648201526084015b60405180910390fd5b335f9081526002602052604090205460ff16156103295760405162461bcd60e51b815260206004820181905260248201527f41697264726f703a205573657220616c7265616479207265676973746572656460448201526064016102c1565b335f908152600260205260408120805460ff1916600190811790915580549161035183610b48565b909155505060405133907f54db7a5cb4735e1aac1f53db512d3390390bb6637bd30ad4bf9fc98667d9b9b9905f90a2565b7f00000000000000000000000000000000000000000000000000000000000000004210156104185760405162461bcd60e51b815260206004820152602960248201527f41697264726f703a20436c61696d20706572696f6420686173206e6f7420737460448201527f617274656420796574000000000000000000000000000000000000000000000060648201526084016102c1565b335f9081526002602052604090205460ff166104765760405162461bcd60e51b815260206004820152601f60248201527f41697264726f703a2055736572206973206e6f7420726567697374657265640060448201526064016102c1565b335f9081526003602052604090205460ff16156104d55760405162461bcd60e51b815260206004820152601f60248201527f41697264726f703a20546f6b656e7320616c726561647920636c61696d65640060448201526064016102c1565b335f9081526003602052604090819020805460ff19166001179055516370a0823160e01b81523060048201527f0000000000000000000000000000000000000000000000000000000000000000907f00000000000000000000000000000000000000000000000000000000000000006001600160a01b0316906370a0823190602401602060405180830381865afa158015610572573d5f5f3e3d5ffd5b505050506040513d601f19601f820116820180604052508101906105969190610b6c565b101561060a5760405162461bcd60e51b815260206004820152602f60248201527f41697264726f703a20496e73756666696369656e7420746f6b656e2062616c6160448201527f6e636520696e20636f6e7472616374000000000000000000000000000000000060648201526084016102c1565b60405163a9059cbb60e01b81523360048201527f000000000000000000000000000000000000000000000000000000000000000060248201525f907f00000000000000000000000000000000000000000000000000000000000000006001600160a01b03169063a9059cbb906044016020604051808303815f875af1158015610695573d5f5f3e3d5ffd5b505050506040513d601f19601f820116820180604052508101906106b99190610b83565b9050806107085760405162461bcd60e51b815260206004820152601e60248201527f41697264726f703a20546f6b656e207472616e73666572206661696c6564000060448201526064016102c1565b6040517f0000000000000000000000000000000000000000000000000000000000000000815233907f896e034966eaaf1adc54acc0f257056febbd300c9e47182cf761982cf1f5e4309060200160405180910390a250565b336107725f546001600160a01b031690565b6001600160a01b0316146107c85760405162461bcd60e51b815260206004820181905260248201527f4f776e61626c653a2063616c6c6572206973206e6f7420746865206f776e657260448201526064016102c1565b6040516370a0823160e01b81523060048201525f907f00000000000000000000000000000000000000000000000000000000000000006001600160a01b0316906370a0823190602401602060405180830381865afa15801561082c573d5f5f3e3d5ffd5b505050506040513d601f19601f820116820180604052508101906108509190610b6c565b905080156109c9575f7f00000000000000000000000000000000000000000000000000000000000000006001600160a01b031663a9059cbb6108995f546001600160a01b031690565b6040517fffffffff0000000000000000000000000000000000000000000000000000000060e084901b1681526001600160a01b039091166004820152602481018590526044016020604051808303815f875af11580156108fb573d5f5f3e3d5ffd5b505050506040513d601f19601f8201168201806040525081019061091f9190610b83565b90508061097a5760405162461bcd60e51b815260206004820152602360248201527f41697264726f703a205769746864726177616c207472616e73666572206661696044820152621b195960ea1b60648201526084016102c1565b5f546001600160a01b03166001600160a01b03167f6352c5382c4a4578e712449ca65e83cdb392d045dfcf1cad9615189db2da244b836040516109bf91815260200190565b60405180910390a2505b50565b336109de5f546001600160a01b031690565b6001600160a01b031614610a345760405162461bcd60e51b815260206004820181905260248201527f4f776e61626c653a2063616c6c6572206973206e6f7420746865206f776e657260448201526064016102c1565b6001600160a01b038116610ab05760405162461bcd60e51b815260206004820152602660248201527f4f776e61626c653a206e6577206f776e657220697320746865207a65726f206160448201527f646472657373000000000000000000000000000000000000000000000000000060648201526084016102c1565b6109c9815f80546001600160a01b038381167fffffffffffffffffffffffff0000000000000000000000000000000000000000831681178455604051919092169283917f8be0079c531659141344cd1fd0a4f28419497f9722a3daafe3b4186f6b6457e09190a35050565b5f60208284031215610b2b575f5ffd5b81356001600160a01b0381168114610b41575f5ffd5b9392505050565b5f60018201610b6557634e487b7160e01b5f52601160045260245ffd5b5060010190565b5f60208284031215610b7c575f5ffd5b5051919050565b5f60208284031215610b93575f5ffd5b81518015158114610b41575f5ffdfea2646970667358221220f10d0f3a8fcefcfa9a6eb248aaf5267fd2ff22b4ee5fb67c4050fc119ddb0de064736f6c634300081e0033",
  "linkReferences": {},
  "deployedLinkReferences": {}
}