{
    "_format": "hh-sol-artifact-1",
    "contractName": "Gobernanza",
    "sourceName": "contracts/Governance.sol",
    "abi": [
        {
            "inputs": [],
            "stateMutability": "nonpayable",
            "type": "constructor"
        },
        {
            "anonymous": false,
            "inputs": [
                {
                    "indexed": true,
                    "internalType": "address",
                    "name": "previousOwner",
                    "type": "address"
                },
                {
                    "indexed": true,
                    "internalType": "address",
                    "name": "newOwner",
                    "type": "address"
                }
            ],
            "name": "OwnershipTransferred",
            "type": "event"
        },
        {
            "inputs": [],
            "name": "COMISION_RETIRO",
            "outputs": [
                {
                    "internalType": "uint256",
                    "name": "",
                    "type": "uint256"
                }
            ],
            "stateMutability": "view",
            "type": "function"
        },
        {
            "inputs": [],
            "name": "VOTOS_POR_MATIC",
            "outputs": [
                {
                    "internalType": "uint256",
                    "name": "",
                    "type": "uint256"
                }
            ],
            "stateMutability": "view",
            "type": "function"
        },
        {
            "inputs": [
                {
                    "internalType": "string",
                    "name": "_descripcion",
                    "type": "string"
                }
            ],
            "name": "crearPropuesta",
            "outputs": [],
            "stateMutability": "nonpayable",
            "type": "function"
        },
        {
            "inputs": [],
            "name": "depositar",
            "outputs": [],
            "stateMutability": "payable",
            "type": "function"
        },
        {
            "inputs": [
                {
                    "internalType": "uint256",
                    "name": "_idPropuesta",
                    "type": "uint256"
                }
            ],
            "name": "ejecutarPropuesta",
            "outputs": [],
            "stateMutability": "nonpayable",
            "type": "function"
        },
        {
            "inputs": [],
            "name": "numPropuestas",
            "outputs": [
                {
                    "internalType": "uint256",
                    "name": "",
                    "type": "uint256"
                }
            ],
            "stateMutability": "view",
            "type": "function"
        },
        {
            "inputs": [],
            "name": "owner",
            "outputs": [
                {
                    "internalType": "address",
                    "name": "",
                    "type": "address"
                }
            ],
            "stateMutability": "view",
            "type": "function"
        },
        {
            "inputs": [
                {
                    "internalType": "uint256",
                    "name": "",
                    "type": "uint256"
                }
            ],
            "name": "propuestas",
            "outputs": [
                {
                    "internalType": "string",
                    "name": "descripcion",
                    "type": "string"
                },
                {
                    "internalType": "uint256",
                    "name": "votosAFavor",
                    "type": "uint256"
                },
                {
                    "internalType": "uint256",
                    "name": "votosEnContra",
                    "type": "uint256"
                },
                {
                    "internalType": "bool",
                    "name": "ejecutada",
                    "type": "bool"
                }
            ],
            "stateMutability": "view",
            "type": "function"
        },
        {
            "inputs": [],
            "name": "renounceOwnership",
            "outputs": [],
            "stateMutability": "nonpayable",
            "type": "function"
        },
        {
            "inputs": [
                {
                    "internalType": "uint256",
                    "name": "_cantidad",
                    "type": "uint256"
                }
            ],
            "name": "retirar",
            "outputs": [],
            "stateMutability": "nonpayable",
            "type": "function"
        },
        {
            "inputs": [
                {
                    "internalType": "address",
                    "name": "",
                    "type": "address"
                }
            ],
            "name": "saldos",
            "outputs": [
                {
                    "internalType": "uint256",
                    "name": "",
                    "type": "uint256"
                }
            ],
            "stateMutability": "view",
            "type": "function"
        },
        {
            "inputs": [
                {
                    "internalType": "address",
                    "name": "newOwner",
                    "type": "address"
                }
            ],
            "name": "transferOwnership",
            "outputs": [],
            "stateMutability": "nonpayable",
            "type": "function"
        },
        {
            "inputs": [
                {
                    "internalType": "uint256",
                    "name": "_idPropuesta",
                    "type": "uint256"
                },
                {
                    "internalType": "bool",
                    "name": "_voto",
                    "type": "bool"
                }
            ],
            "name": "votar",
            "outputs": [],
            "stateMutability": "nonpayable",
            "type": "function"
        },
        {
            "inputs": [
                {
                    "internalType": "address",
                    "name": "",
                    "type": "address"
                }
            ],
            "name": "votos",
            "outputs": [
                {
                    "internalType": "uint256",
                    "name": "",
                    "type": "uint256"
                }
            ],
            "stateMutability": "view",
            "type": "function"
        }
    ],
    "bytecode": "0x608060405234801561001057600080fd5b5061001a3361001f565b61006f565b600080546001600160a01b038381166001600160a01b0319831681178455604051919092169283917f8be0079c531659141344cd1fd0a4f28419497f9722a3daafe3b4186f6b6457e09190a35050565b610c558061007e6000396000f3fe6080604052600436106100dd5760003560e01c80638da5cb5b1161007f578063c68c061211610059578063c68c061214610224578063e2497dc014610251578063e8b1298f14610266578063f2fde38b1461028657600080fd5b80638da5cb5b146101af5780639174fdd5146101d7578063996ee408146101f757600080fd5b806354b2638c116100bb57806354b2638c146101355780636097e21614610155578063715018a61461018557806384c555a21461019a57600080fd5b806328962d4e146100e25780633d922f901461010457806352080feb1461010c575b600080fd5b3480156100ee57600080fd5b506101026100fd366004610896565b6102a6565b005b61010261037d565b34801561011857600080fd5b5061012260025481565b6040519081526020015b60405180910390f35b34801561014157600080fd5b506101026101503660046108cb565b610435565b34801561016157600080fd5b506101756101703660046108cb565b610516565b60405161012c94939291906108e4565b34801561019157600080fd5b506101026105cb565b3480156101a657600080fd5b50610122600281565b3480156101bb57600080fd5b506000546040516001600160a01b03909116815260200161012c565b3480156101e357600080fd5b506101026101f236600461095f565b6105df565b34801561020357600080fd5b50610122610212366004610a10565b60046020526000908152604090205481565b34801561023057600080fd5b5061012261023f366004610a10565b60036020526000908152604090205481565b34801561025d57600080fd5b50610122600681565b34801561027257600080fd5b506101026102813660046108cb565b61066f565b34801561029257600080fd5b506101026102a1366004610a10565b610773565b336000908152600460205260409020546102f95760405162461bcd60e51b815260206004820152600f60248201526e4e6f207469656e657320766f746f7360881b60448201526064015b60405180910390fd5b6000828152600160205260409020811561033d573360009081526004602052604081205460018301805491929091610332908490610a56565b909155506103689050565b3360009081526004602052604081205460028301805491929091610362908490610a56565b90915550505b50503360009081526004602052604081205550565b600034116103df5760405162461bcd60e51b815260206004820152602960248201527f4465626573206465706f736974617220756e612063616e7469646164206d61796044820152686f722061206365726f60b81b60648201526084016102f0565b33600090815260036020526040812080543492906103fe908490610a56565b9091555061040f9050600234610a6f565b336000908152600460205260408120805490919061042e908490610a56565b9091555050565b61043d6107ec565b60008181526001602081905260409091206002810154918101549091106104b05760405162461bcd60e51b815260206004820152602160248201527f4e6f2068617920737566696369656e74657320766f746f732061206661766f726044820152601760f91b60648201526084016102f0565b600381015460ff16156105055760405162461bcd60e51b815260206004820152601760248201527f50726f70756573746120796120656a656375746164612e00000000000000000060448201526064016102f0565b600301805460ff1916600117905550565b60016020526000908152604090208054819061053190610a86565b80601f016020809104026020016040519081016040528092919081815260200182805461055d90610a86565b80156105aa5780601f1061057f576101008083540402835291602001916105aa565b820191906000526020600020905b81548152906001019060200180831161058d57829003601f168201915b50505050600183015460028401546003909401549293909290915060ff1684565b6105d36107ec565b6105dd6000610846565b565b6105e76107ec565b60408051608081018252828152600060208083018290528284018290526060830182905260025482526001905291909120815181906106269082610b11565b506020820151600182015560408201516002808301919091556060909201516003909101805460ff1916911515919091179055805490600061066783610bd1565b919050555050565b336000908152600360205260409020548111156106c35760405162461bcd60e51b815260206004820152601260248201527153616c646f20696e737566696369656e746560701b60448201526064016102f0565b600060646106d2600684610a6f565b6106dc9190610bea565b905060006106ea8284610c0c565b3360009081526003602052604081208054929350859290919061070e908490610c0c565b90915550503360009081526003602052604090205461072f90600290610a6f565b33600081815260046020526040808220939093559151909183156108fc02918491818181858888f1935050505015801561076d573d6000803e3d6000fd5b50505050565b61077b6107ec565b6001600160a01b0381166107e05760405162461bcd60e51b815260206004820152602660248201527f4f776e61626c653a206e6577206f776e657220697320746865207a65726f206160448201526564647265737360d01b60648201526084016102f0565b6107e981610846565b50565b6000546001600160a01b031633146105dd5760405162461bcd60e51b815260206004820181905260248201527f4f776e61626c653a2063616c6c6572206973206e6f7420746865206f776e657260448201526064016102f0565b600080546001600160a01b038381166001600160a01b0319831681178455604051919092169283917f8be0079c531659141344cd1fd0a4f28419497f9722a3daafe3b4186f6b6457e09190a35050565b600080604083850312156108a957600080fd5b82359150602083013580151581146108c057600080fd5b809150509250929050565b6000602082840312156108dd57600080fd5b5035919050565b608081526000855180608084015260005b8181101561091257602081890181015160a08684010152016108f5565b50600060a0828501015260a0601f19601f830116840101915050846020830152836040830152821515606083015295945050505050565b634e487b7160e01b600052604160045260246000fd5b60006020828403121561097157600080fd5b813567ffffffffffffffff8082111561098957600080fd5b818401915084601f83011261099d57600080fd5b8135818111156109af576109af610949565b604051601f8201601f19908116603f011681019083821181831017156109d7576109d7610949565b816040528281528760208487010111156109f057600080fd5b826020860160208301376000928101602001929092525095945050505050565b600060208284031215610a2257600080fd5b81356001600160a01b0381168114610a3957600080fd5b9392505050565b634e487b7160e01b600052601160045260246000fd5b80820180821115610a6957610a69610a40565b92915050565b8082028115828204841417610a6957610a69610a40565b600181811c90821680610a9a57607f821691505b602082108103610aba57634e487b7160e01b600052602260045260246000fd5b50919050565b601f821115610b0c576000816000526020600020601f850160051c81016020861015610ae95750805b601f850160051c820191505b81811015610b0857828155600101610af5565b5050505b505050565b815167ffffffffffffffff811115610b2b57610b2b610949565b610b3f81610b398454610a86565b84610ac0565b602080601f831160018114610b745760008415610b5c5750858301515b600019600386901b1c1916600185901b178555610b08565b600085815260208120601f198616915b82811015610ba357888601518255948401946001909101908401610b84565b5085821015610bc15787850151600019600388901b60f8161c191681555b5050505050600190811b01905550565b600060018201610be357610be3610a40565b5060010190565b600082610c0757634e487b7160e01b600052601260045260246000fd5b500490565b81810381811115610a6957610a69610a4056fea264697066735822122023da8c6552e9162330d5b39f699f434b97b2e4e0339f2d92a8ebac08d8071d2764736f6c63430008180033",
    "linkReferences": {},
    "deployedLinkReferences": {}
}