{
  "_format": "hh-sol-artifact-1",
  "contractName": "Governance",
  "sourceName": "contracts/Governance.sol",
  "abi": [
    {
      "inputs": [
        {
          "internalType": "address",
          "name": "_treasury",
          "type": "address"
        }
      ],
      "stateMutability": "nonpayable",
      "type": "constructor"
    },
    {
      "anonymous": false,
      "inputs": [
        {
          "indexed": true,
          "internalType": "address",
          "name": "previousOwner",
          "type": "address"
        },
        {
          "indexed": true,
          "internalType": "address",
          "name": "newOwner",
          "type": "address"
        }
      ],
      "name": "OwnershipTransferred",
      "type": "event"
    },
    {
      "anonymous": false,
      "inputs": [
        {
          "indexed": false,
          "internalType": "enum Governance.UpdateType",
          "name": "updateType",
          "type": "uint8"
        },
        {
          "indexed": false,
          "internalType": "uint256",
          "name": "newValue",
          "type": "uint256"
        }
      ],
      "name": "ParameterUpdated",
      "type": "event"
    },
    {
      "anonymous": false,
      "inputs": [
        {
          "indexed": true,
          "internalType": "uint256",
          "name": "proposalId",
          "type": "uint256"
        },
        {
          "indexed": true,
          "internalType": "address",
          "name": "author",
          "type": "address"
        }
      ],
      "name": "ProposalCanceled",
      "type": "event"
    },
    {
      "anonymous": false,
      "inputs": [
        {
          "indexed": true,
          "internalType": "uint256",
          "name": "proposalId",
          "type": "uint256"
        },
        {
          "indexed": true,
          "internalType": "address",
          "name": "author",
          "type": "address"
        },
        {
          "indexed": false,
          "internalType": "string",
          "name": "title",
          "type": "string"
        }
      ],
      "name": "ProposalCreated",
      "type": "event"
    },
    {
      "anonymous": false,
      "inputs": [
        {
          "indexed": true,
          "internalType": "uint256",
          "name": "proposalId",
          "type": "uint256"
        },
        {
          "indexed": true,
          "internalType": "address",
          "name": "executor",
          "type": "address"
        },
        {
          "indexed": false,
          "internalType": "enum Governance.UpdateType",
          "name": "updateType",
          "type": "uint8"
        },
        {
          "indexed": false,
          "internalType": "uint256",
          "name": "newValue",
          "type": "uint256"
        }
      ],
      "name": "ProposalExecuted",
      "type": "event"
    },
    {
      "anonymous": false,
      "inputs": [
        {
          "indexed": true,
          "internalType": "uint256",
          "name": "proposalId",
          "type": "uint256"
        },
        {
          "indexed": false,
          "internalType": "enum Governance.ProposalStatus",
          "name": "status",
          "type": "uint8"
        }
      ],
      "name": "ProposalStatusChanged",
      "type": "event"
    },
    {
      "anonymous": false,
      "inputs": [
        {
          "indexed": true,
          "internalType": "uint256",
          "name": "proposalId",
          "type": "uint256"
        },
        {
          "indexed": true,
          "internalType": "address",
          "name": "voter",
          "type": "address"
        },
        {
          "indexed": false,
          "internalType": "bool",
          "name": "vote",
          "type": "bool"
        },
        {
          "indexed": false,
          "internalType": "uint256",
          "name": "numVotes",
          "type": "uint256"
        }
      ],
      "name": "ProposalVoted",
      "type": "event"
    },
    {
      "inputs": [
        {
          "internalType": "address",
          "name": "",
          "type": "address"
        }
      ],
      "name": "balances",
      "outputs": [
        {
          "internalType": "uint256",
          "name": "",
          "type": "uint256"
        }
      ],
      "stateMutability": "view",
      "type": "function"
    },
    {
      "inputs": [
        {
          "internalType": "uint256",
          "name": "_proposalId",
          "type": "uint256"
        }
      ],
      "name": "cancelProposal",
      "outputs": [],
      "stateMutability": "nonpayable",
      "type": "function"
    },
    {
      "inputs": [],
      "name": "deposit",
      "outputs": [],
      "stateMutability": "payable",
      "type": "function"
    },
    {
      "inputs": [
        {
          "internalType": "uint256",
          "name": "_proposalId",
          "type": "uint256"
        },
        {
          "internalType": "enum Governance.UpdateType",
          "name": "_updateType",
          "type": "uint8"
        },
        {
          "internalType": "uint256",
          "name": "_newValue",
          "type": "uint256"
        }
      ],
      "name": "executeProposal",
      "outputs": [],
      "stateMutability": "nonpayable",
      "type": "function"
    },
    {
      "inputs": [],
      "name": "listProposals",
      "outputs": [
        {
          "components": [
            {
              "internalType": "uint256",
              "name": "id",
              "type": "uint256"
            },
            {
              "internalType": "string",
              "name": "title",
              "type": "string"
            },
            {
              "internalType": "string",
              "name": "description",
              "type": "string"
            },
            {
              "internalType": "address",
              "name": "author",
              "type": "address"
            },
            {
              "internalType": "uint256",
              "name": "createdAt",
              "type": "uint256"
            },
            {
              "internalType": "uint256",
              "name": "expiresAt",
              "type": "uint256"
            },
            {
              "internalType": "string",
              "name": "category",
              "type": "string"
            },
            {
              "internalType": "string[]",
              "name": "attachments",
              "type": "string[]"
            },
            {
              "internalType": "uint256",
              "name": "votesInFavor",
              "type": "uint256"
            },
            {
              "internalType": "uint256",
              "name": "votesAgainst",
              "type": "uint256"
            },
            {
              "internalType": "bool",
              "name": "executed",
              "type": "bool"
            },
            {
              "internalType": "enum Governance.ProposalStatus",
              "name": "status",
              "type": "uint8"
            }
          ],
          "internalType": "struct Governance.Proposal[]",
          "name": "",
          "type": "tuple[]"
        }
      ],
      "stateMutability": "view",
      "type": "function"
    },
    {
      "inputs": [],
      "name": "numProposals",
      "outputs": [
        {
          "internalType": "uint256",
          "name": "",
          "type": "uint256"
        }
      ],
      "stateMutability": "view",
      "type": "function"
    },
    {
      "inputs": [],
      "name": "owner",
      "outputs": [
        {
          "internalType": "address",
          "name": "",
          "type": "address"
        }
      ],
      "stateMutability": "view",
      "type": "function"
    },
    {
      "inputs": [
        {
          "internalType": "uint256",
          "name": "",
          "type": "uint256"
        }
      ],
      "name": "proposals",
      "outputs": [
        {
          "internalType": "uint256",
          "name": "id",
          "type": "uint256"
        },
        {
          "internalType": "string",
          "name": "title",
          "type": "string"
        },
        {
          "internalType": "string",
          "name": "description",
          "type": "string"
        },
        {
          "internalType": "address",
          "name": "author",
          "type": "address"
        },
        {
          "internalType": "uint256",
          "name": "createdAt",
          "type": "uint256"
        },
        {
          "internalType": "uint256",
          "name": "expiresAt",
          "type": "uint256"
        },
        {
          "internalType": "string",
          "name": "category",
          "type": "string"
        },
        {
          "internalType": "uint256",
          "name": "votesInFavor",
          "type": "uint256"
        },
        {
          "internalType": "uint256",
          "name": "votesAgainst",
          "type": "uint256"
        },
        {
          "internalType": "bool",
          "name": "executed",
          "type": "bool"
        },
        {
          "internalType": "enum Governance.ProposalStatus",
          "name": "status",
          "type": "uint8"
        }
      ],
      "stateMutability": "view",
      "type": "function"
    },
    {
      "inputs": [],
      "name": "renounceOwnership",
      "outputs": [],
      "stateMutability": "nonpayable",
      "type": "function"
    },
    {
      "inputs": [
        {
          "internalType": "address",
          "name": "_treasury",
          "type": "address"
        }
      ],
      "name": "setTreasury",
      "outputs": [],
      "stateMutability": "nonpayable",
      "type": "function"
    },
    {
      "inputs": [
        {
          "internalType": "string",
          "name": "_title",
          "type": "string"
        },
        {
          "internalType": "string",
          "name": "_description",
          "type": "string"
        },
        {
          "internalType": "string",
          "name": "_category",
          "type": "string"
        },
        {
          "internalType": "string[]",
          "name": "_attachments",
          "type": "string[]"
        }
      ],
      "name": "submitProposal",
      "outputs": [],
      "stateMutability": "nonpayable",
      "type": "function"
    },
    {
      "inputs": [
        {
          "internalType": "address",
          "name": "newOwner",
          "type": "address"
        }
      ],
      "name": "transferOwnership",
      "outputs": [],
      "stateMutability": "nonpayable",
      "type": "function"
    },
    {
      "inputs": [],
      "name": "treasury",
      "outputs": [
        {
          "internalType": "address",
          "name": "",
          "type": "address"
        }
      ],
      "stateMutability": "view",
      "type": "function"
    },
    {
      "inputs": [
        {
          "internalType": "uint256",
          "name": "_proposalId",
          "type": "uint256"
        },
        {
          "internalType": "bool",
          "name": "_vote",
          "type": "bool"
        },
        {
          "internalType": "uint256",
          "name": "_numVotes",
          "type": "uint256"
        }
      ],
      "name": "updateVote",
      "outputs": [],
      "stateMutability": "nonpayable",
      "type": "function"
    },
    {
      "inputs": [
        {
          "internalType": "uint256",
          "name": "_proposalId",
          "type": "uint256"
        },
        {
          "internalType": "bool",
          "name": "_vote",
          "type": "bool"
        },
        {
          "internalType": "uint256",
          "name": "_numVotes",
          "type": "uint256"
        }
      ],
      "name": "vote",
      "outputs": [],
      "stateMutability": "nonpayable",
      "type": "function"
    },
    {
      "inputs": [
        {
          "internalType": "address",
          "name": "",
          "type": "address"
        }
      ],
      "name": "votes",
      "outputs": [
        {
          "internalType": "uint256",
          "name": "",
          "type": "uint256"
        }
      ],
      "stateMutability": "view",
      "type": "function"
    },
    {
      "inputs": [
        {
          "internalType": "uint256",
          "name": "_amount",
          "type": "uint256"
        }
      ],
      "name": "withdraw",
      "outputs": [],
      "stateMutability": "nonpayable",
      "type": "function"
    }
  ],
  "bytecode": "0x60806040523480156200001157600080fd5b506040516200207e3803806200207e8339810160408190526200003491620000d1565b6200003f3362000081565b600260069081556007556101f4600855603c60095562093a80600a55600580546001600160a01b0319166001600160a01b039290921691909117905562000103565b600080546001600160a01b038381166001600160a01b0319831681178455604051919092169283917f8be0079c531659141344cd1fd0a4f28419497f9722a3daafe3b4186f6b6457e09190a35050565b600060208284031215620000e457600080fd5b81516001600160a01b0381168114620000fc57600080fd5b9392505050565b611f6b80620001136000396000f3fe6080604052600436106100fe5760003560e01c8063715018a611610095578063d46a5d7e11610064578063d46a5d7e146102ab578063d8bff5a5146102cb578063e0a8f6f5146102f8578063f0f4426014610318578063f2fde38b1461033857600080fd5b8063715018a61461025057806371ad65cb146102655780638da5cb5b14610285578063d0e30db0146102a357600080fd5b80632e1a7d4d116100d15780632e1a7d4d146101c2578063400e3949146101e257806356b800ab146101f857806361d027b31461021857600080fd5b8063013cf08b14610103578063129d5dbb1461014357806326c7eb1c1461016557806327e235e314610187575b600080fd5b34801561010f57600080fd5b5061012361011e366004611723565b610358565b60405161013a9b9a999897969594939291906117ac565b60405180910390f35b34801561014f57600080fd5b5061016361015e366004611842565b610559565b005b34801561017157600080fd5b5061017a610807565b60405161013a91906118d8565b34801561019357600080fd5b506101b46101a2366004611a15565b60036020526000908152604090205481565b60405190815260200161013a565b3480156101ce57600080fd5b506101636101dd366004611723565b610bcd565b3480156101ee57600080fd5b506101b460025481565b34801561020457600080fd5b50610163610213366004611a45565b610d13565b34801561022457600080fd5b50600554610238906001600160a01b031681565b6040516001600160a01b03909116815260200161013a565b34801561025c57600080fd5b50610163610e9c565b34801561027157600080fd5b50610163610280366004611b28565b610eb0565b34801561029157600080fd5b506000546001600160a01b0316610238565b61016361109c565b3480156102b757600080fd5b506101636102c6366004611a45565b611158565b3480156102d757600080fd5b506101b46102e6366004611a15565b60046020526000908152604090205481565b34801561030457600080fd5b50610163610313366004611723565b6111de565b34801561032457600080fd5b50610163610333366004611a15565b611315565b34801561034457600080fd5b50610163610353366004611a15565b61133f565b60016020819052600091825260409091208054918101805461037990611c54565b80601f01602080910402602001604051908101604052809291908181526020018280546103a590611c54565b80156103f25780601f106103c7576101008083540402835291602001916103f2565b820191906000526020600020905b8154815290600101906020018083116103d557829003601f168201915b50505050509080600201805461040790611c54565b80601f016020809104026020016040519081016040528092919081815260200182805461043390611c54565b80156104805780601f1061045557610100808354040283529160200191610480565b820191906000526020600020905b81548152906001019060200180831161046357829003601f168201915b50505060038401546004850154600586015460068701805496976001600160a01b0390941696929550909350906104b690611c54565b80601f01602080910402602001604051908101604052809291908181526020018280546104e290611c54565b801561052f5780601f106105045761010080835404028352916020019161052f565b820191906000526020600020905b81548152906001019060200180831161051257829003601f168201915b5050505060088301546009840154600a909401549293909290915060ff808216916101009004168b565b6105616113b8565b6000838152600160205260409020600a81015460ff161561059d5760405162461bcd60e51b815260040161059490611c88565b60405180910390fd5b80600501544211156105c15760405162461bcd60e51b815260040161059490611cca565b6105ca84611412565b6000816009015482600801546105e09190611d0e565b905060085481101561063e5760405162461bcd60e51b815260206004820152602160248201527f4e6f7420656e6f75676820766f74657320746f2072656163682071756f72756d6044820152601760f91b6064820152608401610594565b60646009548261064e9190611d27565b6106589190611d3e565b826008015410156106ab5760405162461bcd60e51b815260206004820152601a60248201527f4e6f7420656e6f75676820766f74657320696e206661766f722e0000000000006044820152606401610594565b600a8201805461ffff191661030117905560008460058111156106d0576106d0611782565b146107845760018460058111156106e9576106e9611782565b036106fc576106f7836114e6565b610784565b600284600581111561071057610710611782565b0361071e576106f78361150a565b600384600581111561073257610732611782565b03610740576106f78361152e565b600484600581111561075457610754611782565b03610762576106f783611552565b600584600581111561077657610776611782565b036107845761078483611576565b336001600160a01b0316857eb96d0682b32383721899f6672e236382966d591425d17ac4707e77e415834b86866040516107bf929190611d60565b60405180910390a3847f3346abf262ac5179e9052765fb72484e0baab1f356f08442bb7a3054147631de60036040516107f89190611d7e565b60405180910390a25050505050565b6060600060025467ffffffffffffffff81111561082657610826611a71565b60405190808252806020026020018201604052801561085f57816020015b61084c6115ea565b8152602001906001900390816108445790505b50905060005b600254811015610bc75760008181526001602081815260409283902083516101808101909452805484529182018054918401916108a190611c54565b80601f01602080910402602001604051908101604052809291908181526020018280546108cd90611c54565b801561091a5780601f106108ef5761010080835404028352916020019161091a565b820191906000526020600020905b8154815290600101906020018083116108fd57829003601f168201915b5050505050815260200160028201805461093390611c54565b80601f016020809104026020016040519081016040528092919081815260200182805461095f90611c54565b80156109ac5780601f10610981576101008083540402835291602001916109ac565b820191906000526020600020905b81548152906001019060200180831161098f57829003601f168201915b505050918352505060038201546001600160a01b0316602082015260048201546040820152600582015460608201526006820180546080909201916109f090611c54565b80601f0160208091040260200160405190810160405280929190818152602001828054610a1c90611c54565b8015610a695780601f10610a3e57610100808354040283529160200191610a69565b820191906000526020600020905b815481529060010190602001808311610a4c57829003601f168201915b5050505050815260200160078201805480602002602001604051908101604052809291908181526020016000905b82821015610b43578382906000526020600020018054610ab690611c54565b80601f0160208091040260200160405190810160405280929190818152602001828054610ae290611c54565b8015610b2f5780601f10610b0457610100808354040283529160200191610b2f565b820191906000526020600020905b815481529060010190602001808311610b1257829003601f168201915b505050505081526020019060010190610a97565b505050908252506008820154602082015260098201546040820152600a82015460ff80821615156060840152608090920191610100909104166003811115610b8d57610b8d611782565b6003811115610b9e57610b9e611782565b81525050828281518110610bb457610bb4611d8c565b6020908102919091010152600101610865565b50919050565b33600090815260036020526040902054811115610c235760405162461bcd60e51b8152602060048201526014602482015273496e73756666696369656e742062616c616e636560601b6044820152606401610594565b6000606460075483610c359190611d27565b610c3f9190611d3e565b90506000610c4d8284611da2565b33600090815260036020526040812080549293508592909190610c71908490611da2565b909155505060065433600090815260036020526040902054610c939190611d27565b336000908152600460205260408082209290925560055491516001600160a01b03909216916108fc85150291859190818181858888f19350505050158015610cdf573d6000803e3d6000fd5b50604051339082156108fc029083906000818181858888f19350505050158015610d0d573d6000803e3d6000fd5b50505050565b33600090815260046020526040902054811115610d675760405162461bcd60e51b8152602060048201526012602482015271496e73756666696369656e7420766f74657360701b6044820152606401610594565b60008381526001602052604090206005810154421115610d995760405162461bcd60e51b815260040161059490611cca565b60008160080154118015610db1575060008160090154115b15610e0f5781816008015410610de05781816008016000828254610dd59190611da2565b90915550610e0f9050565b6008810154610def9083611da2565b816009016000828254610e029190611da2565b9091555050600060088201555b8215610e345781816008016000828254610e299190611d0e565b90915550610e4e9050565b81816009016000828254610e489190611d0e565b90915550505b610e5784611412565b60408051841515815260208101849052339186917f78975aaf742630489badd22949b88ac50eaaea576339ee05440b671a33bfb6a9910160405180910390a350505050565b610ea46113b8565b610eae600061159a565b565b60006002549050604051806101800160405280828152602001868152602001858152602001336001600160a01b03168152602001428152602001600a5442610ef89190611d0e565b8152602001848152602001838152602001600081526020016000815260200160001515815260200160006003811115610f3357610f33611782565b90526000828152600160208181526040909220835181559183015190820190610f5c9082611e06565b5060408201516002820190610f719082611e06565b5060608201516003820180546001600160a01b0319166001600160a01b039092169190911790556080820151600482015560a0820151600582015560c08201516006820190610fc09082611e06565b5060e08201518051610fdc916007840191602090910190611666565b506101008281015160088301556101208301516009830155610140830151600a8301805491151560ff1983168117825561016086015193919261ff001990911661ffff19909116179083600381111561103757611037611782565b021790555050600280549150600061104e83611ec6565b9190505550336001600160a01b0316817f7585f467599d0f008985f231af99293be388626ac16ca59505c2f8f88969cd638760405161108d9190611edf565b60405180910390a35050505050565b600034116111015760405162461bcd60e51b815260206004820152602c60248201527f596f75206d757374206465706f73697420616e20616d6f756e7420677265617460448201526b6572207468616e207a65726f60a01b6064820152608401610594565b3360009081526003602052604081208054349290611120908490611d0e565b90915550506006546111329034611d27565b3360009081526004602052604081208054909190611151908490611d0e565b9091555050565b336000908152600460205260409020548111156111ac5760405162461bcd60e51b8152602060048201526012602482015271496e73756666696369656e7420766f74657360701b6044820152606401610594565b60008381526001602052604090206005810154421115610e0f5760405162461bcd60e51b815260040161059490611cca565b600081815260016020526040902060038101546001600160a01b031633146112585760405162461bcd60e51b815260206004820152602760248201527f4f6e6c792074686520617574686f722063616e2063616e63656c2074686520706044820152661c9bdc1bdcd85b60ca1b6064820152608401610594565b600a81015460ff161561127d5760405162461bcd60e51b815260040161059490611c88565b600a818101805461ff0019166102001790556000838152600160208190526040808320909301805460ff191690911790559051339184917f253042c67143aeb6d431bb762d75e5905f18fa7850b7b9edb31fedb7c362d7e89190a3817f3346abf262ac5179e9052765fb72484e0baab1f356f08442bb7a3054147631de60026040516113099190611d7e565b60405180910390a25050565b61131d6113b8565b600580546001600160a01b0319166001600160a01b0392909216919091179055565b6113476113b8565b6001600160a01b0381166113ac5760405162461bcd60e51b815260206004820152602660248201527f4f776e61626c653a206e6577206f776e657220697320746865207a65726f206160448201526564647265737360d01b6064820152608401610594565b6113b58161159a565b50565b6000546001600160a01b03163314610eae5760405162461bcd60e51b815260206004820181905260248201527f4f776e61626c653a2063616c6c6572206973206e6f7420746865206f776e65726044820152606401610594565b6000818152600160205260408120600981015460088201549192916114379190611d0e565b90506000818360080154606461144d9190611d27565b6114579190611d3e565b9050600854821015801561146d57506009548110155b1561148857600a8301805461ff00191661010017905561149a565b600a8301805461ff0019166102001790555b600a83015460405185917f3346abf262ac5179e9052765fb72484e0baab1f356f08442bb7a3054147631de916114d891610100900460ff1690611d7e565b60405180910390a250505050565b3330036115055760405162461bcd60e51b815260040161059490611ef2565b600655565b3330036115295760405162461bcd60e51b815260040161059490611ef2565b600755565b33300361154d5760405162461bcd60e51b815260040161059490611ef2565b600855565b3330036115715760405162461bcd60e51b815260040161059490611ef2565b600955565b3330036115955760405162461bcd60e51b815260040161059490611ef2565b600a55565b600080546001600160a01b038381166001600160a01b0319831681178455604051919092169283917f8be0079c531659141344cd1fd0a4f28419497f9722a3daafe3b4186f6b6457e09190a35050565b60405180610180016040528060008152602001606081526020016060815260200160006001600160a01b031681526020016000815260200160008152602001606081526020016060815260200160008152602001600081526020016000151581526020016000600381111561166157611661611782565b905290565b8280548282559060005260206000209081019282156116ac579160200282015b828111156116ac578251829061169c9082611e06565b5091602001919060010190611686565b506116b89291506116bc565b5090565b808211156116b85760006116d082826116d9565b506001016116bc565b5080546116e590611c54565b6000825580601f106116f5575050565b601f0160209004906000526020600020908101906113b591905b808211156116b8576000815560010161170f565b60006020828403121561173557600080fd5b5035919050565b6000815180845260005b8181101561176257602081850181015186830182015201611746565b506000602082860101526020601f19601f83011685010191505092915050565b634e487b7160e01b600052602160045260246000fd5b600481106117a8576117a8611782565b9052565b60006101608d83528060208401526117c68184018e61173c565b905082810360408401526117da818d61173c565b6001600160a01b038c166060850152608084018b905260a084018a905283810360c0850152905061180b818961173c565b9150508560e083015284610100830152831515610120830152611832610140830184611798565b9c9b505050505050505050505050565b60008060006060848603121561185757600080fd5b8335925060208401356006811061186d57600080fd5b929592945050506040919091013590565b60008282518085526020808601955060208260051b8401016020860160005b848110156118cb57601f198684030189526118b983835161173c565b9884019892509083019060010161189d565b5090979650505050505050565b600060208083018184528085518083526040925060408601915060408160051b87010184880160005b83811015611a0757603f1989840301855281516101808151855288820151818a8701526119308287018261173c565b9150508782015185820389870152611948828261173c565b915050606080830151611965828801826001600160a01b03169052565b50506080828101519086015260a0808301519086015260c08083015186830382880152611992838261173c565b9250505060e080830151868303828801526119ad838261187e565b92505050610100808301518187015250610120808301518187015250610140808301516119dd8288018215159052565b505061016091820151916119f386820184611798565b509588019593505090860190600101611901565b509098975050505050505050565b600060208284031215611a2757600080fd5b81356001600160a01b0381168114611a3e57600080fd5b9392505050565b600080600060608486031215611a5a57600080fd5b833592506020840135801515811461186d57600080fd5b634e487b7160e01b600052604160045260246000fd5b604051601f8201601f1916810167ffffffffffffffff81118282101715611ab057611ab0611a71565b604052919050565b600082601f830112611ac957600080fd5b813567ffffffffffffffff811115611ae357611ae3611a71565b611af6601f8201601f1916602001611a87565b818152846020838601011115611b0b57600080fd5b816020850160208301376000918101602001919091529392505050565b60008060008060808587031215611b3e57600080fd5b843567ffffffffffffffff80821115611b5657600080fd5b611b6288838901611ab8565b9550602091508187013581811115611b7957600080fd5b611b8589828a01611ab8565b955050604087013581811115611b9a57600080fd5b611ba689828a01611ab8565b945050606087013581811115611bbb57600080fd5b8701601f81018913611bcc57600080fd5b803582811115611bde57611bde611a71565b8060051b611bed858201611a87565b918252828101850191858101908c841115611c0757600080fd5b86850192505b83831015611c4357823586811115611c255760008081fd5b611c338e8983890101611ab8565b8352509186019190860190611c0d565b999c989b5096995050505050505050565b600181811c90821680611c6857607f821691505b602082108103610bc757634e487b7160e01b600052602260045260246000fd5b60208082526022908201527f50726f706f73616c2068617320616c7265616479206265656e20657865637574604082015261195960f21b606082015260800190565b602080825260149082015273141c9bdc1bdcd85b081a185cc8195e1c1a5c995960621b604082015260600190565b634e487b7160e01b600052601160045260246000fd5b80820180821115611d2157611d21611cf8565b92915050565b8082028115828204841417611d2157611d21611cf8565b600082611d5b57634e487b7160e01b600052601260045260246000fd5b500490565b6040810160068410611d7457611d74611782565b9281526020015290565b60208101611d218284611798565b634e487b7160e01b600052603260045260246000fd5b81810381811115611d2157611d21611cf8565b601f821115611e01576000816000526020600020601f850160051c81016020861015611dde5750805b601f850160051c820191505b81811015611dfd57828155600101611dea565b5050505b505050565b815167ffffffffffffffff811115611e2057611e20611a71565b611e3481611e2e8454611c54565b84611db5565b602080601f831160018114611e695760008415611e515750858301515b600019600386901b1c1916600185901b178555611dfd565b600085815260208120601f198616915b82811015611e9857888601518255948401946001909101908401611e79565b5085821015611eb65787850151600019600388901b60f8161c191681555b5050505050600190811b01905550565b600060018201611ed857611ed8611cf8565b5060010190565b602081526000611a3e602083018461173c565b60208082526023908201527f43616e206f6e6c792062652063616c6c6564207669612064656c656761746563604082015262185b1b60ea1b60608201526080019056fea2646970667358221220db855530416b8ea4a63443d4859d62cdd2ed6571c40aa06f3e5d078591950c6264736f6c63430008180033",
  "linkReferences": {},
  "deployedLinkReferences": {}
}