{
  "_format": "hh-sol-artifact-1",
  "contractName": "Marketplace",
  "sourceName": "contracts/TokenizationApp.sol",
  "abi": [
    {
      "inputs": [],
      "stateMutability": "nonpayable",
      "type": "constructor"
    },
    {
      "inputs": [],
      "name": "AlreadyListed",
      "type": "error"
    },
    {
      "inputs": [],
      "name": "BlacklistedAddress",
      "type": "error"
    },
    {
      "inputs": [],
      "name": "CategoryNotValid",
      "type": "error"
    },
    {
      "inputs": [],
      "name": "InsufficientFunds",
      "type": "error"
    },
    {
      "inputs": [],
      "name": "InvalidInput",
      "type": "error"
    },
    {
      "inputs": [],
      "name": "OfferNotActive",
      "type": "error"
    },
    {
      "inputs": [],
      "name": "RoyaltyTooHigh",
      "type": "error"
    },
    {
      "inputs": [],
      "name": "SectionPaused",
      "type": "error"
    },
    {
      "inputs": [],
      "name": "TokenDoesNotExist",
      "type": "error"
    },
    {
      "inputs": [],
      "name": "TokenNotForSale",
      "type": "error"
    },
    {
      "inputs": [],
      "name": "TransferFailed",
      "type": "error"
    },
    {
      "inputs": [],
      "name": "Unauthorized",
      "type": "error"
    },
    {
      "anonymous": false,
      "inputs": [
        {
          "indexed": true,
          "internalType": "address",
          "name": "owner",
          "type": "address"
        },
        {
          "indexed": true,
          "internalType": "address",
          "name": "approved",
          "type": "address"
        },
        {
          "indexed": true,
          "internalType": "uint256",
          "name": "tokenId",
          "type": "uint256"
        }
      ],
      "name": "Approval",
      "type": "event"
    },
    {
      "anonymous": false,
      "inputs": [
        {
          "indexed": true,
          "internalType": "address",
          "name": "owner",
          "type": "address"
        },
        {
          "indexed": true,
          "internalType": "address",
          "name": "operator",
          "type": "address"
        },
        {
          "indexed": false,
          "internalType": "bool",
          "name": "approved",
          "type": "bool"
        }
      ],
      "name": "ApprovalForAll",
      "type": "event"
    },
    {
      "anonymous": false,
      "inputs": [
        {
          "indexed": false,
          "internalType": "uint256",
          "name": "_fromTokenId",
          "type": "uint256"
        },
        {
          "indexed": false,
          "internalType": "uint256",
          "name": "_toTokenId",
          "type": "uint256"
        }
      ],
      "name": "BatchMetadataUpdate",
      "type": "event"
    },
    {
      "anonymous": false,
      "inputs": [
        {
          "indexed": false,
          "internalType": "string",
          "name": "category",
          "type": "string"
        }
      ],
      "name": "CategoryRegistered",
      "type": "event"
    },
    {
      "anonymous": false,
      "inputs": [
        {
          "indexed": true,
          "internalType": "uint256",
          "name": "tokenId",
          "type": "uint256"
        },
        {
          "indexed": false,
          "internalType": "address",
          "name": "commenter",
          "type": "address"
        },
        {
          "indexed": false,
          "internalType": "string",
          "name": "comment",
          "type": "string"
        }
      ],
      "name": "CommentAdded",
      "type": "event"
    },
    {
      "anonymous": false,
      "inputs": [
        {
          "indexed": false,
          "internalType": "address",
          "name": "to",
          "type": "address"
        },
        {
          "indexed": false,
          "internalType": "uint256",
          "name": "amount",
          "type": "uint256"
        }
      ],
      "name": "EmergencyWithdrawal",
      "type": "event"
    },
    {
      "anonymous": false,
      "inputs": [
        {
          "indexed": false,
          "internalType": "uint256",
          "name": "_tokenId",
          "type": "uint256"
        }
      ],
      "name": "MetadataUpdate",
      "type": "event"
    },
    {
      "anonymous": false,
      "inputs": [
        {
          "indexed": true,
          "internalType": "uint256",
          "name": "offerId",
          "type": "uint256"
        },
        {
          "indexed": true,
          "internalType": "uint256",
          "name": "tokenId",
          "type": "uint256"
        },
        {
          "indexed": false,
          "internalType": "address",
          "name": "seller",
          "type": "address"
        },
        {
          "indexed": false,
          "internalType": "address",
          "name": "buyer",
          "type": "address"
        },
        {
          "indexed": false,
          "internalType": "uint256",
          "name": "amount",
          "type": "uint256"
        }
      ],
      "name": "OfferAccepted",
      "type": "event"
    },
    {
      "anonymous": false,
      "inputs": [
        {
          "indexed": true,
          "internalType": "uint256",
          "name": "offerId",
          "type": "uint256"
        }
      ],
      "name": "OfferCancelled",
      "type": "event"
    },
    {
      "anonymous": false,
      "inputs": [
        {
          "indexed": true,
          "internalType": "uint256",
          "name": "offerId",
          "type": "uint256"
        },
        {
          "indexed": true,
          "internalType": "uint256",
          "name": "tokenId",
          "type": "uint256"
        },
        {
          "indexed": true,
          "internalType": "address",
          "name": "buyer",
          "type": "address"
        },
        {
          "indexed": false,
          "internalType": "uint256",
          "name": "amount",
          "type": "uint256"
        },
        {
          "indexed": false,
          "internalType": "uint256",
          "name": "expiresAt",
          "type": "uint256"
        }
      ],
      "name": "OfferCreated",
      "type": "event"
    },
    {
      "anonymous": false,
      "inputs": [
        {
          "indexed": true,
          "internalType": "uint256",
          "name": "offerId",
          "type": "uint256"
        }
      ],
      "name": "OfferRejected",
      "type": "event"
    },
    {
      "anonymous": false,
      "inputs": [
        {
          "indexed": false,
          "internalType": "address",
          "name": "account",
          "type": "address"
        }
      ],
      "name": "Paused",
      "type": "event"
    },
    {
      "anonymous": false,
      "inputs": [
        {
          "indexed": true,
          "internalType": "bytes32",
          "name": "role",
          "type": "bytes32"
        },
        {
          "indexed": true,
          "internalType": "bytes32",
          "name": "previousAdminRole",
          "type": "bytes32"
        },
        {
          "indexed": true,
          "internalType": "bytes32",
          "name": "newAdminRole",
          "type": "bytes32"
        }
      ],
      "name": "RoleAdminChanged",
      "type": "event"
    },
    {
      "anonymous": false,
      "inputs": [
        {
          "indexed": true,
          "internalType": "bytes32",
          "name": "role",
          "type": "bytes32"
        },
        {
          "indexed": true,
          "internalType": "address",
          "name": "account",
          "type": "address"
        },
        {
          "indexed": true,
          "internalType": "address",
          "name": "sender",
          "type": "address"
        }
      ],
      "name": "RoleGranted",
      "type": "event"
    },
    {
      "anonymous": false,
      "inputs": [
        {
          "indexed": true,
          "internalType": "bytes32",
          "name": "role",
          "type": "bytes32"
        },
        {
          "indexed": true,
          "internalType": "address",
          "name": "account",
          "type": "address"
        },
        {
          "indexed": true,
          "internalType": "address",
          "name": "sender",
          "type": "address"
        }
      ],
      "name": "RoleRevoked",
      "type": "event"
    },
    {
      "anonymous": false,
      "inputs": [
        {
          "indexed": true,
          "internalType": "uint256",
          "name": "tokenId",
          "type": "uint256"
        },
        {
          "indexed": true,
          "internalType": "address",
          "name": "creator",
          "type": "address"
        },
        {
          "indexed": false,
          "internalType": "uint256",
          "name": "amount",
          "type": "uint256"
        }
      ],
      "name": "RoyaltyPaid",
      "type": "event"
    },
    {
      "anonymous": false,
      "inputs": [
        {
          "indexed": true,
          "internalType": "uint256",
          "name": "tokenId",
          "type": "uint256"
        },
        {
          "indexed": false,
          "internalType": "address",
          "name": "user",
          "type": "address"
        },
        {
          "indexed": false,
          "internalType": "uint256",
          "name": "totalLikes",
          "type": "uint256"
        }
      ],
      "name": "TokenLiked",
      "type": "event"
    },
    {
      "anonymous": false,
      "inputs": [
        {
          "indexed": true,
          "internalType": "uint256",
          "name": "tokenId",
          "type": "uint256"
        },
        {
          "indexed": true,
          "internalType": "address",
          "name": "seller",
          "type": "address"
        },
        {
          "indexed": false,
          "internalType": "uint256",
          "name": "price",
          "type": "uint256"
        },
        {
          "indexed": false,
          "internalType": "string",
          "name": "category",
          "type": "string"
        }
      ],
      "name": "TokenListed",
      "type": "event"
    },
    {
      "anonymous": false,
      "inputs": [
        {
          "indexed": true,
          "internalType": "uint256",
          "name": "tokenId",
          "type": "uint256"
        },
        {
          "indexed": true,
          "internalType": "address",
          "name": "creator",
          "type": "address"
        },
        {
          "indexed": false,
          "internalType": "string",
          "name": "tokenURI",
          "type": "string"
        },
        {
          "indexed": false,
          "internalType": "string",
          "name": "category",
          "type": "string"
        }
      ],
      "name": "TokenMinted",
      "type": "event"
    },
    {
      "anonymous": false,
      "inputs": [
        {
          "indexed": true,
          "internalType": "uint256",
          "name": "tokenId",
          "type": "uint256"
        },
        {
          "indexed": false,
          "internalType": "uint256",
          "name": "newPrice",
          "type": "uint256"
        }
      ],
      "name": "TokenPriceUpdated",
      "type": "event"
    },
    {
      "anonymous": false,
      "inputs": [
        {
          "indexed": true,
          "internalType": "uint256",
          "name": "tokenId",
          "type": "uint256"
        },
        {
          "indexed": true,
          "internalType": "address",
          "name": "seller",
          "type": "address"
        },
        {
          "indexed": true,
          "internalType": "address",
          "name": "buyer",
          "type": "address"
        },
        {
          "indexed": false,
          "internalType": "uint256",
          "name": "price",
          "type": "uint256"
        }
      ],
      "name": "TokenSold",
      "type": "event"
    },
    {
      "anonymous": false,
      "inputs": [
        {
          "indexed": true,
          "internalType": "uint256",
          "name": "tokenId",
          "type": "uint256"
        },
        {
          "indexed": false,
          "internalType": "address",
          "name": "user",
          "type": "address"
        },
        {
          "indexed": false,
          "internalType": "uint256",
          "name": "totalLikes",
          "type": "uint256"
        }
      ],
      "name": "TokenUnLiked",
      "type": "event"
    },
    {
      "anonymous": false,
      "inputs": [
        {
          "indexed": true,
          "internalType": "uint256",
          "name": "tokenId",
          "type": "uint256"
        }
      ],
      "name": "TokenUnlisted",
      "type": "event"
    },
    {
      "anonymous": false,
      "inputs": [
        {
          "indexed": true,
          "internalType": "address",
          "name": "from",
          "type": "address"
        },
        {
          "indexed": true,
          "internalType": "address",
          "name": "to",
          "type": "address"
        },
        {
          "indexed": true,
          "internalType": "uint256",
          "name": "tokenId",
          "type": "uint256"
        }
      ],
      "name": "Transfer",
      "type": "event"
    },
    {
      "anonymous": false,
      "inputs": [
        {
          "indexed": false,
          "internalType": "address",
          "name": "account",
          "type": "address"
        }
      ],
      "name": "Unpaused",
      "type": "event"
    },
    {
      "inputs": [],
      "name": "ADMIN_ROLE",
      "outputs": [
        {
          "internalType": "bytes32",
          "name": "",
          "type": "bytes32"
        }
      ],
      "stateMutability": "view",
      "type": "function"
    },
    {
      "inputs": [],
      "name": "DEFAULT_ADMIN_ROLE",
      "outputs": [
        {
          "internalType": "bytes32",
          "name": "",
          "type": "bytes32"
        }
      ],
      "stateMutability": "view",
      "type": "function"
    },
    {
      "inputs": [],
      "name": "MAX_BATCH_MINT_SIZE",
      "outputs": [
        {
          "internalType": "uint256",
          "name": "",
          "type": "uint256"
        }
      ],
      "stateMutability": "view",
      "type": "function"
    },
    {
      "inputs": [],
      "name": "MAX_BATCH_SIZE",
      "outputs": [
        {
          "internalType": "uint256",
          "name": "",
          "type": "uint256"
        }
      ],
      "stateMutability": "view",
      "type": "function"
    },
    {
      "inputs": [],
      "name": "MIN_PRICE",
      "outputs": [
        {
          "internalType": "uint256",
          "name": "",
          "type": "uint256"
        }
      ],
      "stateMutability": "view",
      "type": "function"
    },
    {
      "inputs": [],
      "name": "MODERATOR_ROLE",
      "outputs": [
        {
          "internalType": "bytes32",
          "name": "",
          "type": "bytes32"
        }
      ],
      "stateMutability": "view",
      "type": "function"
    },
    {
      "inputs": [
        {
          "internalType": "uint256",
          "name": "offerId",
          "type": "uint256"
        }
      ],
      "name": "acceptOffer",
      "outputs": [],
      "stateMutability": "nonpayable",
      "type": "function"
    },
    {
      "inputs": [
        {
          "internalType": "uint256",
          "name": "tokenId",
          "type": "uint256"
        },
        {
          "internalType": "string",
          "name": "text",
          "type": "string"
        }
      ],
      "name": "addComment",
      "outputs": [],
      "stateMutability": "nonpayable",
      "type": "function"
    },
    {
      "inputs": [
        {
          "internalType": "address",
          "name": "to",
          "type": "address"
        },
        {
          "internalType": "uint256",
          "name": "tokenId",
          "type": "uint256"
        }
      ],
      "name": "approve",
      "outputs": [],
      "stateMutability": "nonpayable",
      "type": "function"
    },
    {
      "inputs": [
        {
          "internalType": "address",
          "name": "owner",
          "type": "address"
        }
      ],
      "name": "balanceOf",
      "outputs": [
        {
          "internalType": "uint256",
          "name": "",
          "type": "uint256"
        }
      ],
      "stateMutability": "view",
      "type": "function"
    },
    {
      "inputs": [
        {
          "internalType": "address",
          "name": "user",
          "type": "address"
        }
      ],
      "name": "blacklistAddress",
      "outputs": [],
      "stateMutability": "nonpayable",
      "type": "function"
    },
    {
      "inputs": [
        {
          "internalType": "uint256",
          "name": "tokenId",
          "type": "uint256"
        }
      ],
      "name": "buyToken",
      "outputs": [],
      "stateMutability": "payable",
      "type": "function"
    },
    {
      "inputs": [
        {
          "internalType": "uint256",
          "name": "offerId",
          "type": "uint256"
        }
      ],
      "name": "cancelOffer",
      "outputs": [],
      "stateMutability": "nonpayable",
      "type": "function"
    },
    {
      "inputs": [
        {
          "internalType": "string",
          "name": "_tokenURI",
          "type": "string"
        },
        {
          "internalType": "string",
          "name": "category",
          "type": "string"
        },
        {
          "internalType": "uint96",
          "name": "royaltyPercentage",
          "type": "uint96"
        }
      ],
      "name": "createNFT",
      "outputs": [
        {
          "internalType": "uint256",
          "name": "",
          "type": "uint256"
        }
      ],
      "stateMutability": "nonpayable",
      "type": "function"
    },
    {
      "inputs": [
        {
          "internalType": "string",
          "name": "_tokenURI",
          "type": "string"
        },
        {
          "internalType": "string",
          "name": "category",
          "type": "string"
        },
        {
          "internalType": "uint96",
          "name": "royaltyPercentage",
          "type": "uint96"
        },
        {
          "internalType": "uint256",
          "name": "quantity",
          "type": "uint256"
        }
      ],
      "name": "createNFTBatch",
      "outputs": [
        {
          "internalType": "uint256[]",
          "name": "",
          "type": "uint256[]"
        }
      ],
      "stateMutability": "nonpayable",
      "type": "function"
    },
    {
      "inputs": [],
      "name": "defaultRoyaltyPercentage",
      "outputs": [
        {
          "internalType": "uint96",
          "name": "",
          "type": "uint96"
        }
      ],
      "stateMutability": "view",
      "type": "function"
    },
    {
      "inputs": [
        {
          "internalType": "address payable",
          "name": "to",
          "type": "address"
        }
      ],
      "name": "emergencyWithdraw",
      "outputs": [],
      "stateMutability": "nonpayable",
      "type": "function"
    },
    {
      "inputs": [
        {
          "internalType": "uint256",
          "name": "tokenId",
          "type": "uint256"
        }
      ],
      "name": "getApproved",
      "outputs": [
        {
          "internalType": "address",
          "name": "",
          "type": "address"
        }
      ],
      "stateMutability": "view",
      "type": "function"
    },
    {
      "inputs": [
        {
          "internalType": "uint256",
          "name": "tokenId",
          "type": "uint256"
        },
        {
          "internalType": "uint256",
          "name": "startIndex",
          "type": "uint256"
        },
        {
          "internalType": "uint256",
          "name": "count",
          "type": "uint256"
        }
      ],
      "name": "getComments",
      "outputs": [
        {
          "internalType": "address[]",
          "name": "",
          "type": "address[]"
        },
        {
          "internalType": "string[]",
          "name": "",
          "type": "string[]"
        },
        {
          "internalType": "uint256[]",
          "name": "",
          "type": "uint256[]"
        }
      ],
      "stateMutability": "view",
      "type": "function"
    },
    {
      "inputs": [
        {
          "internalType": "uint256",
          "name": "tokenId",
          "type": "uint256"
        }
      ],
      "name": "getLikesCount",
      "outputs": [
        {
          "internalType": "uint256",
          "name": "",
          "type": "uint256"
        }
      ],
      "stateMutability": "view",
      "type": "function"
    },
    {
      "inputs": [
        {
          "internalType": "uint256",
          "name": "tokenId",
          "type": "uint256"
        }
      ],
      "name": "getListedToken",
      "outputs": [
        {
          "internalType": "uint256",
          "name": "",
          "type": "uint256"
        },
        {
          "internalType": "address",
          "name": "",
          "type": "address"
        },
        {
          "internalType": "address",
          "name": "",
          "type": "address"
        },
        {
          "internalType": "uint256",
          "name": "",
          "type": "uint256"
        },
        {
          "internalType": "bool",
          "name": "",
          "type": "bool"
        },
        {
          "internalType": "uint256",
          "name": "",
          "type": "uint256"
        },
        {
          "internalType": "string",
          "name": "",
          "type": "string"
        }
      ],
      "stateMutability": "view",
      "type": "function"
    },
    {
      "inputs": [
        {
          "internalType": "uint256",
          "name": "offerId",
          "type": "uint256"
        }
      ],
      "name": "getOffer",
      "outputs": [
        {
          "internalType": "uint256",
          "name": "",
          "type": "uint256"
        },
        {
          "internalType": "uint256",
          "name": "",
          "type": "uint256"
        },
        {
          "internalType": "address",
          "name": "",
          "type": "address"
        },
        {
          "internalType": "uint256",
          "name": "",
          "type": "uint256"
        },
        {
          "internalType": "uint256",
          "name": "",
          "type": "uint256"
        },
        {
          "internalType": "bool",
          "name": "",
          "type": "bool"
        }
      ],
      "stateMutability": "view",
      "type": "function"
    },
    {
      "inputs": [
        {
          "internalType": "bytes32",
          "name": "role",
          "type": "bytes32"
        }
      ],
      "name": "getRoleAdmin",
      "outputs": [
        {
          "internalType": "bytes32",
          "name": "",
          "type": "bytes32"
        }
      ],
      "stateMutability": "view",
      "type": "function"
    },
    {
      "inputs": [
        {
          "internalType": "address",
          "name": "creator",
          "type": "address"
        }
      ],
      "name": "getTokensByCreator",
      "outputs": [
        {
          "internalType": "uint256[]",
          "name": "",
          "type": "uint256[]"
        }
      ],
      "stateMutability": "view",
      "type": "function"
    },
    {
      "inputs": [
        {
          "internalType": "bytes32",
          "name": "role",
          "type": "bytes32"
        },
        {
          "internalType": "address",
          "name": "account",
          "type": "address"
        }
      ],
      "name": "grantRole",
      "outputs": [],
      "stateMutability": "nonpayable",
      "type": "function"
    },
    {
      "inputs": [
        {
          "internalType": "bytes32",
          "name": "role",
          "type": "bytes32"
        },
        {
          "internalType": "address",
          "name": "account",
          "type": "address"
        }
      ],
      "name": "hasRole",
      "outputs": [
        {
          "internalType": "bool",
          "name": "",
          "type": "bool"
        }
      ],
      "stateMutability": "view",
      "type": "function"
    },
    {
      "inputs": [
        {
          "internalType": "uint256",
          "name": "tokenId",
          "type": "uint256"
        },
        {
          "internalType": "address",
          "name": "user",
          "type": "address"
        }
      ],
      "name": "hasUserLiked",
      "outputs": [
        {
          "internalType": "bool",
          "name": "",
          "type": "bool"
        }
      ],
      "stateMutability": "view",
      "type": "function"
    },
    {
      "inputs": [
        {
          "internalType": "address",
          "name": "owner",
          "type": "address"
        },
        {
          "internalType": "address",
          "name": "operator",
          "type": "address"
        }
      ],
      "name": "isApprovedForAll",
      "outputs": [
        {
          "internalType": "bool",
          "name": "",
          "type": "bool"
        }
      ],
      "stateMutability": "view",
      "type": "function"
    },
    {
      "inputs": [
        {
          "internalType": "uint256",
          "name": "tokenId",
          "type": "uint256"
        },
        {
          "internalType": "uint256",
          "name": "price",
          "type": "uint256"
        },
        {
          "internalType": "string",
          "name": "category",
          "type": "string"
        }
      ],
      "name": "listTokenForSale",
      "outputs": [],
      "stateMutability": "nonpayable",
      "type": "function"
    },
    {
      "inputs": [
        {
          "internalType": "uint256",
          "name": "tokenId",
          "type": "uint256"
        },
        {
          "internalType": "uint8",
          "name": "expiresInDays",
          "type": "uint8"
        }
      ],
      "name": "makeOffer",
      "outputs": [],
      "stateMutability": "payable",
      "type": "function"
    },
    {
      "inputs": [],
      "name": "name",
      "outputs": [
        {
          "internalType": "string",
          "name": "",
          "type": "string"
        }
      ],
      "stateMutability": "view",
      "type": "function"
    },
    {
      "inputs": [
        {
          "internalType": "uint256",
          "name": "tokenId",
          "type": "uint256"
        }
      ],
      "name": "ownerOf",
      "outputs": [
        {
          "internalType": "address",
          "name": "",
          "type": "address"
        }
      ],
      "stateMutability": "view",
      "type": "function"
    },
    {
      "inputs": [],
      "name": "pause",
      "outputs": [],
      "stateMutability": "nonpayable",
      "type": "function"
    },
    {
      "inputs": [],
      "name": "paused",
      "outputs": [
        {
          "internalType": "bool",
          "name": "",
          "type": "bool"
        }
      ],
      "stateMutability": "view",
      "type": "function"
    },
    {
      "inputs": [],
      "name": "platformFeePercentage",
      "outputs": [
        {
          "internalType": "uint256",
          "name": "",
          "type": "uint256"
        }
      ],
      "stateMutability": "view",
      "type": "function"
    },
    {
      "inputs": [],
      "name": "platformTreasury",
      "outputs": [
        {
          "internalType": "address",
          "name": "",
          "type": "address"
        }
      ],
      "stateMutability": "view",
      "type": "function"
    },
    {
      "inputs": [
        {
          "internalType": "string",
          "name": "category",
          "type": "string"
        }
      ],
      "name": "registerCategory",
      "outputs": [],
      "stateMutability": "nonpayable",
      "type": "function"
    },
    {
      "inputs": [
        {
          "internalType": "uint256",
          "name": "offerId",
          "type": "uint256"
        }
      ],
      "name": "rejectOffer",
      "outputs": [],
      "stateMutability": "nonpayable",
      "type": "function"
    },
    {
      "inputs": [
        {
          "internalType": "address",
          "name": "user",
          "type": "address"
        }
      ],
      "name": "removeFromBlacklist",
      "outputs": [],
      "stateMutability": "nonpayable",
      "type": "function"
    },
    {
      "inputs": [
        {
          "internalType": "bytes32",
          "name": "role",
          "type": "bytes32"
        },
        {
          "internalType": "address",
          "name": "account",
          "type": "address"
        }
      ],
      "name": "renounceRole",
      "outputs": [],
      "stateMutability": "nonpayable",
      "type": "function"
    },
    {
      "inputs": [
        {
          "internalType": "bytes32",
          "name": "role",
          "type": "bytes32"
        },
        {
          "internalType": "address",
          "name": "account",
          "type": "address"
        }
      ],
      "name": "revokeRole",
      "outputs": [],
      "stateMutability": "nonpayable",
      "type": "function"
    },
    {
      "inputs": [
        {
          "internalType": "uint256",
          "name": "tokenId",
          "type": "uint256"
        },
        {
          "internalType": "uint256",
          "name": "salePrice",
          "type": "uint256"
        }
      ],
      "name": "royaltyInfo",
      "outputs": [
        {
          "internalType": "address",
          "name": "",
          "type": "address"
        },
        {
          "internalType": "uint256",
          "name": "",
          "type": "uint256"
        }
      ],
      "stateMutability": "view",
      "type": "function"
    },
    {
      "inputs": [
        {
          "internalType": "address",
          "name": "from",
          "type": "address"
        },
        {
          "internalType": "address",
          "name": "to",
          "type": "address"
        },
        {
          "internalType": "uint256",
          "name": "tokenId",
          "type": "uint256"
        }
      ],
      "name": "safeTransferFrom",
      "outputs": [],
      "stateMutability": "nonpayable",
      "type": "function"
    },
    {
      "inputs": [
        {
          "internalType": "address",
          "name": "from",
          "type": "address"
        },
        {
          "internalType": "address",
          "name": "to",
          "type": "address"
        },
        {
          "internalType": "uint256",
          "name": "tokenId",
          "type": "uint256"
        },
        {
          "internalType": "bytes",
          "name": "data",
          "type": "bytes"
        }
      ],
      "name": "safeTransferFrom",
      "outputs": [],
      "stateMutability": "nonpayable",
      "type": "function"
    },
    {
      "inputs": [
        {
          "internalType": "uint8",
          "name": "",
          "type": "uint8"
        }
      ],
      "name": "sectionPaused",
      "outputs": [
        {
          "internalType": "bool",
          "name": "",
          "type": "bool"
        }
      ],
      "stateMutability": "view",
      "type": "function"
    },
    {
      "inputs": [
        {
          "internalType": "address",
          "name": "operator",
          "type": "address"
        },
        {
          "internalType": "bool",
          "name": "approved",
          "type": "bool"
        }
      ],
      "name": "setApprovalForAll",
      "outputs": [],
      "stateMutability": "nonpayable",
      "type": "function"
    },
    {
      "inputs": [
        {
          "internalType": "uint96",
          "name": "newRoyaltyPercentage",
          "type": "uint96"
        }
      ],
      "name": "setDefaultRoyalty",
      "outputs": [],
      "stateMutability": "nonpayable",
      "type": "function"
    },
    {
      "inputs": [
        {
          "internalType": "uint256",
          "name": "newFeePercentage",
          "type": "uint256"
        }
      ],
      "name": "setPlatformFee",
      "outputs": [],
      "stateMutability": "nonpayable",
      "type": "function"
    },
    {
      "inputs": [
        {
          "internalType": "address",
          "name": "_treasury",
          "type": "address"
        }
      ],
      "name": "setPlatformTreasury",
      "outputs": [],
      "stateMutability": "nonpayable",
      "type": "function"
    },
    {
      "inputs": [
        {
          "internalType": "uint8",
          "name": "section",
          "type": "uint8"
        },
        {
          "internalType": "bool",
          "name": "paused",
          "type": "bool"
        }
      ],
      "name": "setSectionPaused",
      "outputs": [],
      "stateMutability": "nonpayable",
      "type": "function"
    },
    {
      "inputs": [
        {
          "internalType": "bytes4",
          "name": "interfaceId",
          "type": "bytes4"
        }
      ],
      "name": "supportsInterface",
      "outputs": [
        {
          "internalType": "bool",
          "name": "",
          "type": "bool"
        }
      ],
      "stateMutability": "view",
      "type": "function"
    },
    {
      "inputs": [],
      "name": "symbol",
      "outputs": [
        {
          "internalType": "string",
          "name": "",
          "type": "string"
        }
      ],
      "stateMutability": "view",
      "type": "function"
    },
    {
      "inputs": [
        {
          "internalType": "uint256",
          "name": "tokenId",
          "type": "uint256"
        },
        {
          "internalType": "bool",
          "name": "like",
          "type": "bool"
        }
      ],
      "name": "toggleLike",
      "outputs": [],
      "stateMutability": "nonpayable",
      "type": "function"
    },
    {
      "inputs": [
        {
          "internalType": "uint256",
          "name": "tokenId",
          "type": "uint256"
        }
      ],
      "name": "tokenURI",
      "outputs": [
        {
          "internalType": "string",
          "name": "",
          "type": "string"
        }
      ],
      "stateMutability": "view",
      "type": "function"
    },
    {
      "inputs": [
        {
          "internalType": "address",
          "name": "from",
          "type": "address"
        },
        {
          "internalType": "address",
          "name": "to",
          "type": "address"
        },
        {
          "internalType": "uint256",
          "name": "tokenId",
          "type": "uint256"
        }
      ],
      "name": "transferFrom",
      "outputs": [],
      "stateMutability": "nonpayable",
      "type": "function"
    },
    {
      "inputs": [
        {
          "internalType": "uint256",
          "name": "tokenId",
          "type": "uint256"
        }
      ],
      "name": "unlistedToken",
      "outputs": [],
      "stateMutability": "nonpayable",
      "type": "function"
    },
    {
      "inputs": [],
      "name": "unpause",
      "outputs": [],
      "stateMutability": "nonpayable",
      "type": "function"
    },
    {
      "inputs": [
        {
          "internalType": "uint256",
          "name": "tokenId",
          "type": "uint256"
        },
        {
          "internalType": "uint256",
          "name": "newPrice",
          "type": "uint256"
        }
      ],
      "name": "updatePrice",
      "outputs": [],
      "stateMutability": "nonpayable",
      "type": "function"
    },
    {
      "inputs": [],
      "name": "withdrawPlatformFees",
      "outputs": [],
      "stateMutability": "nonpayable",
      "type": "function"
    }
  ],
  "bytecode": "0x60c06040527fa49807205ce4d355092ef5a8a18f56e8913cf4a201fbe287825b095693c217756080527f71f3d55856e4058ed06ee057d79ada615f65cdf5f9ee88181b914225088f834f60a0526005600f55601080546001600160601b03191660fa17905534801561006f575f5ffd5b506040518060400160405280600a8152602001694e75766f73204e46547360b01b815250604051806040016040528060048152602001634e46542b60e01b81525081600290816100bf91906103e5565b5060036100cc82826103e5565b5050600160095550600a805460ff191690556100e85f336101dd565b6080516100f590336101dd565b60a05161010290336101dd565b600e80546001600160a01b03191633179055604080518082019091526003815262185c9d60ea1b60208201526101379061027e565b60408051808201909152600b81526a70686f746f67726170687960a81b60208201526101629061027e565b6040805180820190915260058152646d7573696360d81b60208201526101879061027e565b604080518082019091526005815264766964656f60d81b60208201526101ac9061027e565b60408051808201909152600c81526b636f6c6c65637469626c657360a01b60208201526101d89061027e565b6104ea565b5f828152600b602090815260408083206001600160a01b038516845290915290205460ff1661027a575f828152600b602090815260408083206001600160a01b03851684529091529020805460ff191660011790556102393390565b6001600160a01b0316816001600160a01b0316837f2f8788117e7eff1d82e926ec794901d17c78024a50270940304540a733656f0d60405160405180910390a45b5050565b80515f0361029f5760405163b4fa3fb360e01b815260040160405180910390fd5b5f816040516020016102b1919061049f565b60408051601f1981840301815291815281516020928301205f818152601890935291205490915060ff16156102f95760405163b4fa3fb360e01b815260040160405180910390fd5b5f8181526018602052604090819020805460ff19166001179055517f3735abe6d37d9ef031373b241641b39aa1b4bd92a1123b14abe463f461ac5dca906103419084906104b5565b60405180910390a15050565b634e487b7160e01b5f52604160045260245ffd5b600181811c9082168061037557607f821691505b60208210810361039357634e487b7160e01b5f52602260045260245ffd5b50919050565b601f8211156103e057805f5260205f20601f840160051c810160208510156103be5750805b601f840160051c820191505b818110156103dd575f81556001016103ca565b50505b505050565b81516001600160401b038111156103fe576103fe61034d565b6104128161040c8454610361565b84610399565b6020601f821160018114610444575f831561042d5750848201515b5f19600385901b1c1916600184901b1784556103dd565b5f84815260208120601f198516915b828110156104735787850151825560209485019460019092019101610453565b508482101561049057868401515f19600387901b60f8161c191681555b50505050600190811b01905550565b5f82518060208501845e5f920191825250919050565b602081525f82518060208401528060208501604085015e5f604082850101526040601f19601f83011684010191505092915050565b60805160a0516156a86105585f395f81816107e101528181613049015261329401525f81816107ae01528181610da201528181611357015281816113cb0152818161147f01528181611d7e01528181612038015281816121e201528181612eb30152612fcb01526156a85ff3fe60806040526004361061037c575f3560e01c806382367b2d116101d3578063cdd78cfc116100fd578063df901d511161009d578063e985e9c51161006d578063e985e9c514610b1e578063ef706adf14610b65578063f3290d7514610b84578063f3eb744e14610ba3575f5ffd5b8063df901d5114610ac1578063e0990c5a14610ae0578063e138818c14610aff578063e4c9adf61461093c575f5ffd5b8063d0b7830b116100d8578063d0b7830b14610a50578063d547741f14610a64578063d5c7127514610a83578063d6948b7514610aa2575f5ffd5b8063cdd78cfc146109fb578063ce2ecf4614610a10578063cfdbf25414610a3c575f5ffd5b8063a22cb46511610173578063b70d475011610143578063b70d475014610970578063b88d4fde1461099e578063c815729d146109bd578063c87b56dd146109dc575f5ffd5b8063a22cb465146108fe578063aa7e56831461091d578063ad9f20a61461093c578063b2cc521914610951575f5ffd5b806391d14854116101ae57806391d148541461087457806395d89b41146108b8578063a160a5df146108cc578063a217fddf146108eb575f5ffd5b806382367b2d146108225780638456cb591461084157806388b10c7514610855575f5ffd5b8063402f0fa0116102b45780636352211e1161025457806370bb609a1161022457806370bb609a1461076b57806375b238fc1461079d578063797669c9146107d05780637cd86d6014610803575f5ffd5b80636352211e146106e05780636818ba1d146106ff5780636ff1c9bc1461072d57806370a082311461074c575f5ffd5b8063537df3b61161028f578063537df3b614610678578063578eaf44146106975780635c975abb146106b6578063602dcf29146106cd575f5ffd5b8063402f0fa0146105a057806342842e0e146105bf5780634579268a146105de575f5ffd5b8063248a9ca31161031f5780632f2ff15d116102fa5780632f2ff15d1461052f57806336568abe1461054e57806339a7846c1461056d5780633f4ba83a1461058c575f5ffd5b8063248a9ca3146104a25780632a55205a146104de5780632d296bf11461051c575f5ffd5b8063095ea7b31161035a578063095ea7b31461040c57806312e8e2c31461042d578063139d83251461044c57806323b872dd14610483575f5ffd5b806301ffc9a71461038057806306fdde03146103b4578063081812fc146103d5575b5f5ffd5b34801561038b575f5ffd5b5061039f61039a366004614b81565b610bc2565b60405190151581526020015b60405180910390f35b3480156103bf575f5ffd5b506103c8610bd2565b6040516103ab9190614bca565b3480156103e0575f5ffd5b506103f46103ef366004614bdc565b610c62565b6040516001600160a01b0390911681526020016103ab565b348015610417575f5ffd5b5061042b610426366004614c07565b610c87565b005b348015610438575f5ffd5b5061042b610447366004614bdc565b610da0565b348015610457575f5ffd5b5060105461046b906001600160601b031681565b6040516001600160601b0390911681526020016103ab565b34801561048e575f5ffd5b5061042b61049d366004614c31565b610df2565b3480156104ad575f5ffd5b506104d06104bc366004614bdc565b5f908152600b602052604090206001015490565b6040519081526020016103ab565b3480156104e9575f5ffd5b506104fd6104f8366004614c6f565b610e69565b604080516001600160a01b0390931683526020830191909152016103ab565b61042b61052a366004614bdc565b610f14565b34801561053a575f5ffd5b5061042b610549366004614c8f565b6112a5565b348015610559575f5ffd5b5061042b610568366004614c8f565b6112c9565b348015610578575f5ffd5b5061042b610587366004614ce1565b611355565b348015610597575f5ffd5b5061042b6113c9565b3480156105ab575f5ffd5b5061039f6105ba366004614c8f565b6113fb565b3480156105ca575f5ffd5b5061042b6105d9366004614c31565b611463565b3480156105e9575f5ffd5b5061063b6105f8366004614bdc565b5f90815260156020526040902080546001820154600283015460038401546004850154600590950154939592946001600160a01b0390921693909260ff90911690565b6040805196875260208701959095526001600160a01b039093169385019390935260608401526080830191909152151560a082015260c0016103ab565b348015610683575f5ffd5b5061042b610692366004614d12565b61147d565b3480156106a2575f5ffd5b5061042b6106b1366004614d6b565b6114d1565b3480156106c1575f5ffd5b50600a5460ff1661039f565b61042b6106db366004614dba565b6117ca565b3480156106eb575f5ffd5b506103f46106fa366004614bdc565b611a63565b34801561070a575f5ffd5b5061071e610719366004614ddb565b611ac7565b6040516103ab93929190614e3e565b348015610738575f5ffd5b5061042b610747366004614d12565b611d7c565b348015610757575f5ffd5b506104d0610766366004614d12565b611e70565b348015610776575f5ffd5b5061078a610785366004614bdc565b611f08565b6040516103ab9796959493929190614efa565b3480156107a8575f5ffd5b506104d07f000000000000000000000000000000000000000000000000000000000000000081565b3480156107db575f5ffd5b506104d07f000000000000000000000000000000000000000000000000000000000000000081565b34801561080e575f5ffd5b5061042b61081d366004614d12565b612036565b34801561082d575f5ffd5b5061042b61083c366004614c6f565b6120aa565b34801561084c575f5ffd5b5061042b6121e0565b348015610860575f5ffd5b5061042b61086f366004614bdc565b612212565b34801561087f575f5ffd5b5061039f61088e366004614c8f565b5f918252600b602090815260408084206001600160a01b0393909316845291905290205460ff1690565b3480156108c3575f5ffd5b506103c8612310565b3480156108d7575f5ffd5b506104d06108e6366004614bdc565b61231f565b3480156108f6575f5ffd5b506104d05f81565b348015610909575f5ffd5b5061042b610918366004614f44565b61236c565b348015610928575f5ffd5b5061042b610937366004614f60565b612377565b348015610947575f5ffd5b506104d06103e881565b34801561095c575f5ffd5b506104d061096b366004614fbe565b612512565b34801561097b575f5ffd5b5061039f61098a36600461503e565b60116020525f908152604090205460ff1681565b3480156109a9575f5ffd5b5061042b6109b83660046150e2565b612795565b3480156109c8575f5ffd5b5061042b6109d7366004614bdc565b612813565b3480156109e7575f5ffd5b506103c86109f6366004614bdc565b612b42565b348015610a06575f5ffd5b506104d0600f5481565b348015610a1b575f5ffd5b50610a2f610a2a36600461515d565b612b4d565b6040516103ab91906151e7565b348015610a47575f5ffd5b506104d0601481565b348015610a5b575f5ffd5b5061042b612eb1565b348015610a6f575f5ffd5b5061042b610a7e366004614c8f565b612f82565b348015610a8e575f5ffd5b50610a2f610a9d366004614d12565b612fa6565b348015610aad575f5ffd5b5061042b610abc3660046151f9565b612fc9565b348015610acc575f5ffd5b5061042b610adb366004615212565b613047565b348015610aeb575f5ffd5b5061042b610afa366004614bdc565b61307a565b348015610b0a575f5ffd5b50600e546103f4906001600160a01b031681565b348015610b29575f5ffd5b5061039f610b38366004615257565b6001600160a01b039182165f90815260076020908152604080832093909416825291909152205460ff1690565b348015610b70575f5ffd5b5061042b610b7f366004614bdc565b613185565b348015610b8f575f5ffd5b5061042b610b9e366004614d12565b613292565b348015610bae575f5ffd5b5061042b610bbd366004615283565b6132e9565b5f610bcc82613482565b92915050565b606060028054610be1906152a4565b80601f0160208091040260200160405190810160405280929190818152602001828054610c0d906152a4565b8015610c585780601f10610c2f57610100808354040283529160200191610c58565b820191905f5260205f20905b815481529060010190602001808311610c3b57829003601f168201915b5050505050905090565b5f610c6c826134a6565b505f908152600660205260409020546001600160a01b031690565b5f610c9182611a63565b9050806001600160a01b0316836001600160a01b031603610d035760405162461bcd60e51b815260206004820152602160248201527f4552433732313a20617070726f76616c20746f2063757272656e74206f776e656044820152603960f91b60648201526084015b60405180910390fd5b336001600160a01b0382161480610d1f5750610d1f8133610b38565b610d915760405162461bcd60e51b815260206004820152603d60248201527f4552433732313a20617070726f76652063616c6c6572206973206e6f7420746f60448201527f6b656e206f776e6572206f7220617070726f76656420666f7220616c6c0000006064820152608401610cfa565b610d9b8383613509565b505050565b7f0000000000000000000000000000000000000000000000000000000000000000610dca81613576565b600a821115610dec5760405163b4fa3fb360e01b815260040160405180910390fd5b50600f55565b610dfc3382613580565b610e5e5760405162461bcd60e51b815260206004820152602d60248201527f4552433732313a2063616c6c6572206973206e6f7420746f6b656e206f776e6560448201526c1c881bdc88185c1c1c9bdd9959609a1b6064820152608401610cfa565b610d9b8383836135fd565b5f8281526001602090815260408083208151808301909252546001600160a01b038116808352600160a01b9091046001600160601b0316928201929092528291610edc5750604080518082019091525f546001600160a01b0381168252600160a01b90046001600160601b031660208201525b60208101515f9061271090610efa906001600160601b0316876152ea565b610f049190615301565b91519350909150505b9250929050565b610f1c6137db565b610f24613834565b60015f81905260116020527f17bc176d2408558f6e4111feebc3cab4e16b63e967be91cde721f4c8a488b5525460ff1615610f7257604051630df56d4f60e21b815260040160405180910390fd5b335f9081526017602052604090205460ff1615610fa257604051632652747360e21b815260040160405180910390fd5b5f8281526004602052604090205482906001600160a01b0316610fd85760405163677510db60e11b815260040160405180910390fd5b5f838152601260205260409020600481015460ff1661100a5760405163037eff1360e21b815260040160405180910390fd5b806003015434101561102f5760405163356680b760e01b815260040160405180910390fd5b6001810154336001600160a01b039091160361105e5760405163b4fa3fb360e01b815260040160405180910390fd5b60018101546003820154600f546001600160a01b03909216915f9060649061108690846152ea565b6110909190615301565b905080156110b057600e546110ae906001600160a01b031682613889565b505b5f878152601960205260408120546001600160a01b031680158015906110e85750846001600160a01b0316816001600160a01b031614155b15611179575f5f6110f98b87610e69565b915091508093505f8411801561111757506001600160a01b03821615155b15611176575f6111278386613889565b9050801561117457826001600160a01b03168c7ff670029fc6f5302baba881b4ae845d1453acdf752b4c19ed81fe0fa6a686409b8760405161116b91815260200190565b60405180910390a35b505b50505b5f826111858587615320565b61118f9190615320565b600288018054336001600160a01b0319918216811790925560018a018054909116909117905560048801805460ff1916905590506111cc8a6138e3565b6111d786338c6135fd565b5f6111e28783613889565b905080611202576040516312171d8360e31b815260040160405180910390fd5b85341115611240575f61121e336112198934615320565b613889565b90508061123e576040516312171d8360e31b815260040160405180910390fd5b505b336001600160a01b0316876001600160a01b03168c7f3d5eb834b5d6cadc063c171c3f25f60bca8ea892ba9db25342278927d0af95568960405161128691815260200190565b60405180910390a4505050505050505050506112a26001600955565b50565b5f828152600b60205260409020600101546112bf81613576565b610d9b83836139db565b6001600160a01b03811633146113475760405162461bcd60e51b815260206004820152602f60248201527f416363657373436f6e74726f6c3a2063616e206f6e6c792072656e6f756e636560448201527f20726f6c657320666f722073656c6600000000000000000000000000000000006064820152608401610cfa565b6113518282613a7b565b5050565b7f000000000000000000000000000000000000000000000000000000000000000061137f81613576565b60038360ff1611156113a45760405163b4fa3fb360e01b815260040160405180910390fd5b5060ff919091165f908152601160205260409020805460ff1916911515919091179055565b7f00000000000000000000000000000000000000000000000000000000000000006113f381613576565b6112a2613afc565b5f8281526004602052604081205483906001600160a01b03166114315760405163677510db60e11b815260040160405180910390fd5b5f8481526013602090815260408083206001600160a01b038716845260010190915290205460ff1691505b5092915050565b610d9b83838360405180602001604052805f815250612795565b7f00000000000000000000000000000000000000000000000000000000000000006114a781613576565b6001600160a01b0382165f908152601760205260409020805460ff19169055610d9b601c83613b4e565b6114d9613834565b5f80805260116020527f4ad3b33220dddc71b994a52d72c06b10862965f7d926534c05c00fb7e819e7b75460ff161561152557604051630df56d4f60e21b815260040160405180910390fd5b335f9081526017602052604090205460ff161561155557604051632652747360e21b815260040160405180910390fd5b5f8581526004602052604090205485906001600160a01b031661158b5760405163677510db60e11b815260040160405180910390fd5b83838080601f0160208091040260200160405190810160405280939291908181526020018383808284375f9201829052506040519093506115d2925084915060200161534a565b60408051601f1981840301815291815281516020928301205f818152601890935291205490915060ff16611619576040516347ab1f8160e11b815260040160405180910390fd5b3361162389611a63565b6001600160a01b031614611649576040516282b42960e81b815260040160405180910390fd5b6103e887101561166c5760405163b4fa3fb360e01b815260040160405180910390fd5b6040518060e00160405280898152602001336001600160a01b03168152602001336001600160a01b0316815260200188815260200160011515815260200142815260200187878080601f0160208091040260200160405190810160405280939291908181526020018383808284375f9201829052509390945250508a81526012602090815260409182902084518155908401516001820180546001600160a01b03199081166001600160a01b03938416179091559285015160028301805490941691161790915560608301516003820155608083015160048201805460ff191691151591909117905560a0830151600582015560c0830151909150600682019061177690826153a0565b50905050336001600160a01b0316887f0504f02e56fa83645f2ed13b141a022acf7376b2278ba8f333da09dd0eda278b8989896040516117b893929190615483565b60405180910390a35050505050505050565b6117d26137db565b6117da613834565b60025f81905260116020527f08037d7b151cc412d25674a4e66b334d9ae9d2e5517a7feaae5cdb828bf1c6285460ff161561182857604051630df56d4f60e21b815260040160405180910390fd5b335f9081526017602052604090205460ff161561185857604051632652747360e21b815260040160405180910390fd5b5f8381526004602052604090205483906001600160a01b031661188e5760405163677510db60e11b815260040160405180910390fd5b6103e834116118b05760405163b4fa3fb360e01b815260040160405180910390fd5b60ff831615806118c35750601e8360ff16115b156118e15760405163b4fa3fb360e01b815260040160405180910390fd5b336118eb85611a63565b6001600160a01b0316036119125760405163b4fa3fb360e01b815260040160405180910390fd5b5f61192360ff8516620151806154a5565b6119329062ffffff16426154c3565b9050611942600d80546001019055565b5f61194c600d5490565b6040805160c08101825282815260208082018a8152338385018181523460608601908152608086018a8152600160a088018181525f8b8152601589528a812099518a5596518983015593516002890180546001600160a01b0319166001600160a01b039092169190911790559151600388015551600487015590516005909501805460ff1916951515959095179094558b8252601683528482209082528252838120805493840181558152818120909201849055898252601b905220909150611a159082613b69565b5060408051348152602081018490523391889184917f8bdb6541b99259f92b7d7c61d0f892fdd62042bd96c57fca917a3553af72b270910160405180910390a4505050506113516001600955565b5f818152600460205260408120546001600160a01b031680610bcc5760405162461bcd60e51b815260206004820152601860248201527f4552433732313a20696e76616c696420746f6b656e20494400000000000000006044820152606401610cfa565b606080606085611aed815f908152600460205260409020546001600160a01b0316151590565b611b0a5760405163677510db60e11b815260040160405180910390fd5b5f87815260146020526040812090611b2287896154c3565b8254909150811115611b32575080545b5f611b3d8983615320565b90505f8167ffffffffffffffff811115611b5957611b59615057565b604051908082528060200260200182016040528015611b82578160200160208202803683370190505b5090505f8267ffffffffffffffff811115611b9f57611b9f615057565b604051908082528060200260200182016040528015611bd257816020015b6060815260200190600190039081611bbd5790505b5090505f8367ffffffffffffffff811115611bef57611bef615057565b604051908082528060200260200182016040528015611c18578160200160208202803683370190505b5090505f5b84811015611d68575f87828f611c3391906154c3565b81548110611c4357611c436154d6565b5f9182526020909120600390910201805486519192506001600160a01b031690869084908110611c7557611c756154d6565b60200260200101906001600160a01b031690816001600160a01b031681525050806001018054611ca4906152a4565b80601f0160208091040260200160405190810160405280929190818152602001828054611cd0906152a4565b8015611d1b5780601f10611cf257610100808354040283529160200191611d1b565b820191905f5260205f20905b815481529060010190602001808311611cfe57829003601f168201915b5050505050848381518110611d3257611d326154d6565b60200260200101819052508060020154838381518110611d5457611d546154d6565b602090810291909101015250600101611c1d565b50919c909b50909950975050505050505050565b7f0000000000000000000000000000000000000000000000000000000000000000611da681613576565b611dae6137db565b6001600160a01b038216611dd55760405163b4fa3fb360e01b815260040160405180910390fd5b475f819003611df75760405163b4fa3fb360e01b815260040160405180910390fd5b604080516001600160a01b0385168152602081018390527f23d6711a1d031134a36921253c75aa59e967d38e369ac625992824315e204f20910160405180910390a15f611e448483613889565b905080611e64576040516312171d8360e31b815260040160405180910390fd5b50506113516001600955565b5f6001600160a01b038216611eed5760405162461bcd60e51b815260206004820152602960248201527f4552433732313a2061646472657373207a65726f206973206e6f74206120766160448201527f6c6964206f776e657200000000000000000000000000000000000000000000006064820152608401610cfa565b506001600160a01b03165f9081526005602052604090205490565b5f5f5f5f5f5f606087611f31815f908152600460205260409020546001600160a01b0316151590565b611f4e5760405163677510db60e11b815260040160405180910390fd5b5f8981526012602052604090208054600182015460028301546003840154600485015460058601546006870180546001600160a01b03968716969095169460ff909316928190611f9d906152a4565b80601f0160208091040260200160405190810160405280929190818152602001828054611fc9906152a4565b80156120145780601f10611feb57610100808354040283529160200191612014565b820191905f5260205f20905b815481529060010190602001808311611ff757829003601f168201915b5050505050905098509850985098509850985098505050919395979092949650565b7f000000000000000000000000000000000000000000000000000000000000000061206081613576565b6001600160a01b0382166120875760405163b4fa3fb360e01b815260040160405180910390fd5b50600e80546001600160a01b0319166001600160a01b0392909216919091179055565b6120b2613834565b335f9081526017602052604090205460ff16156120e257604051632652747360e21b815260040160405180910390fd5b5f8281526004602052604090205482906001600160a01b03166121185760405163677510db60e11b815260040160405180910390fd5b5f8381526012602052604090203361212f85611a63565b6001600160a01b031614612155576040516282b42960e81b815260040160405180910390fd5b600481015460ff1661217a5760405163037eff1360e21b815260040160405180910390fd5b6103e883101561219d5760405163b4fa3fb360e01b815260040160405180910390fd5b6003810183905560405183815284907fd9cc159fa79112d02593601db522a6696e6c5c82d9e9ca9332f89ec824935bb0906020015b60405180910390a250505050565b7f000000000000000000000000000000000000000000000000000000000000000061220a81613576565b6112a2613b74565b61221a613834565b335f9081526017602052604090205460ff161561224a57604051632652747360e21b815260040160405180910390fd5b5f818152601560205260409020600581015460ff1661227c57604051634d80826b60e11b815260040160405180910390fd5b336001600160a01b03166122938260010154611a63565b6001600160a01b0316146122b9576040516282b42960e81b815260040160405180910390fd5b60058101805460ff1916905560018101545f908152601b602052604090206122e19083613bb1565b5060405182907facb9cd98d41dc8854281172ab2a764d949b62b51776edd911f85376ed2eca64b905f90a25050565b606060038054610be1906152a4565b5f8181526004602052604081205482906001600160a01b03166123555760405163677510db60e11b815260040160405180910390fd5b5f8381526013602052604090205491505b50919050565b611351338383613bbc565b61237f613834565b335f9081526017602052604090205460ff16156123af57604051632652747360e21b815260040160405180910390fd5b5f8381526004602052604090205483906001600160a01b03166123e55760405163677510db60e11b815260040160405180910390fd5b8115806123f3575061011882115b156124115760405163b4fa3fb360e01b815260040160405180910390fd5b5f6040518060600160405280336001600160a01b0316815260200185858080601f0160208091040260200160405190810160405280939291908181526020018383808284375f92018290525093855250504260209384015250878152601482526040812080546001808201835591835291839020845160039093020180546001600160a01b0319166001600160a01b0390931692909217825591830151929350839290918201906124c290826153a0565b50604082015181600201555050847fcc2d7dd2085ae6644799a42c0174adf9afc10a43f26db5eac3ddd1f96d1d64be338686604051612503939291906154ea565b60405180910390a25050505050565b5f61251b613834565b60035f81905260116020527f9bfbaa59f8e10e7868f8b402de9d605a390c45ddaebd8c9de3c6f31e733c87ff5460ff161561256957604051630df56d4f60e21b815260040160405180910390fd5b335f9081526017602052604090205460ff161561259957604051632652747360e21b815260040160405180910390fd5b84848080601f0160208091040260200160405190810160405280939291908181526020018383808284375f9201829052506040519093506125e0925084915060200161534a565b60408051601f1981840301815291815281516020928301205f818152601890935291205490915060ff16612627576040516347ab1f8160e11b815260040160405180910390fd5b5f8890036126485760405163b4fa3fb360e01b815260040160405180910390fd5b6103e8856001600160601b031611156126745760405163c2b03beb60e01b815260040160405180910390fd5b612682600c80546001019055565b5f61268c600c5490565b90505f5f876001600160601b0316116126b0576010546001600160601b03166126b2565b865b90506126bf823383613c89565b6126c93383613da9565b612708828c8c8080601f0160208091040260200160405190810160405280939291908181526020018383808284375f92019190915250613dc292505050565b5f82815260196020908152604080832080546001600160a01b031916339081179091558352601a909152902061273e9083613b69565b50336001600160a01b0316827f6ba4530d5d6ba1c70cd3ba604c4bb87dcdcd3a32b216cc8e9ee4083db04be5138d8d8d8d60405161277f949392919061550c565b60405180910390a3509998505050505050505050565b61279f3383613580565b6128015760405162461bcd60e51b815260206004820152602d60248201527f4552433732313a2063616c6c6572206973206e6f7420746f6b656e206f776e6560448201526c1c881bdc88185c1c1c9bdd9959609a1b6064820152608401610cfa565b61280d84848484613e9b565b50505050565b61281b6137db565b612823613834565b60025f81905260116020527f08037d7b151cc412d25674a4e66b334d9ae9d2e5517a7feaae5cdb828bf1c6285460ff161561287157604051630df56d4f60e21b815260040160405180910390fd5b335f9081526017602052604090205460ff16156128a157604051632652747360e21b815260040160405180910390fd5b5f828152601560205260409020600581015460ff166128d357604051634d80826b60e11b815260040160405180910390fd5b806004015442106128f75760405163b4fa3fb360e01b815260040160405180910390fd5b336001600160a01b031661290e8260010154611a63565b6001600160a01b031614612934576040516282b42960e81b815260040160405180910390fd5b600181015460028201546003830154600f546001600160a01b03909216915f9060649061296190846152ea565b61296b9190615301565b9050801561298b57600e54612989906001600160a01b031682613889565b505b5f848152601960205260408120546001600160a01b031680158015906129ba57506001600160a01b0381163314155b15612a4b575f5f6129cb8887610e69565b915091508093505f841180156129e957506001600160a01b03821615155b15612a48575f6129f98386613889565b90508015612a4657826001600160a01b0316897ff670029fc6f5302baba881b4ae845d1453acdf752b4c19ed81fe0fa6a686409b87604051612a3d91815260200190565b60405180910390a35b505b50505b5f82612a578587615320565b612a619190615320565b5f8881526012602052604090206004015490915060ff1615612a96575f878152601260205260409020600401805460ff191690555b60058801805460ff19169055612aab876138e3565b612ab63387896135fd565b5f612ac13383613889565b905080612ae1576040516312171d8360e31b815260040160405180910390fd5b604080513381526001600160a01b038916602082015290810187905288908c907f537afea1137614386dde2e3f3f603a09e8ba6fbcd0a9d59b286a6f7e5fc938489060600160405180910390a3505050505050505050506112a26001600955565b6060610bcc82613f19565b6060612b57613834565b60035f81905260116020527f9bfbaa59f8e10e7868f8b402de9d605a390c45ddaebd8c9de3c6f31e733c87ff5460ff1615612ba557604051630df56d4f60e21b815260040160405180910390fd5b335f9081526017602052604090205460ff1615612bd557604051632652747360e21b815260040160405180910390fd5b85858080601f0160208091040260200160405190810160405280939291908181526020018383808284375f920182905250604051909350612c1c925084915060200161534a565b60408051601f1981840301815291815281516020928301205f818152601890935291205490915060ff16612c63576040516347ab1f8160e11b815260040160405180910390fd5b5f899003612c845760405163b4fa3fb360e01b815260040160405180910390fd5b6103e8866001600160601b03161115612cb05760405163c2b03beb60e01b815260040160405180910390fd5b841580612cbe57506103e885115b15612cdc5760405163b4fa3fb360e01b815260040160405180910390fd5b5f8567ffffffffffffffff811115612cf657612cf6615057565b604051908082528060200260200182016040528015612d1f578160200160208202803683370190505b5090505f5f886001600160601b031611612d44576010546001600160601b0316612d46565b875b90505f5b87811015612e1e57612d60600c80546001019055565b5f612d6a600c5490565b9050612d77813385613c89565b612d813382613da9565b612dc0818f8f8080601f0160208091040260200160405190810160405280939291908181526020018383808284375f92019190915250613dc292505050565b5f81815260196020908152604080832080546001600160a01b031916339081179091558352601a9091529020612df69082613b69565b5080848381518110612e0a57612e0a6154d6565b602090810291909101015250600101612d4a565b50612ea2828d8d8080601f0160208091040260200160405190810160405280939291908181526020018383808284375f81840152601f19601f820116905080830192505050505050508c8c8080601f0160208091040260200160405190810160405280939291908181526020018383808284375f9201919091525061401b92505050565b509a9950505050505050505050565b7f0000000000000000000000000000000000000000000000000000000000000000612edb81613576565b612ee36137db565b475f819003612f055760405163b4fa3fb360e01b815260040160405180910390fd5b600e546040515f916001600160a01b03169083908381818185875af1925050503d805f8114612f4f576040519150601f19603f3d011682016040523d82523d5f602084013e612f54565b606091505b5050905080612f76576040516312171d8360e31b815260040160405180910390fd5b50506112a26001600955565b5f828152600b6020526040902060010154612f9c81613576565b610d9b8383613a7b565b6001600160a01b0381165f908152601a60205260409020606090610bcc9061408b565b7f0000000000000000000000000000000000000000000000000000000000000000612ff381613576565b6103e8826001600160601b0316111561301f5760405163c2b03beb60e01b815260040160405180910390fd5b50601080546bffffffffffffffffffffffff19166001600160601b0392909216919091179055565b7f000000000000000000000000000000000000000000000000000000000000000061307181613576565b61135182614097565b613082613834565b335f9081526017602052604090205460ff16156130b257604051632652747360e21b815260040160405180910390fd5b5f8181526004602052604090205481906001600160a01b03166130e85760405163677510db60e11b815260040160405180910390fd5b5f828152601260205260409020336130ff84611a63565b6001600160a01b031614613125576040516282b42960e81b815260040160405180910390fd5b600481015460ff1661314a5760405163037eff1360e21b815260040160405180910390fd5b60048101805460ff1916905560405183907fe0bba5d0bdeddbcc4ef688b9d8170c81883fb4c4a7065d8970c58b47996dd2d7905f90a2505050565b61318d6137db565b613195613834565b5f818152601560205260409020600581015460ff166131c757604051634d80826b60e11b815260040160405180910390fd5b60028101546001600160a01b031633146131f3576040516282b42960e81b815260040160405180910390fd5b600381015460058201805460ff1916905560018201545f908152601b602052604090206132209084613bb1565b5060028201545f9061323b906001600160a01b031683613889565b90508061325b576040516312171d8360e31b815260040160405180910390fd5b60405184907fc28b4aed030bfacc245c0501326e1beb8c0ef0d60e4edc21067fdeb52da2a7aa905f90a25050506112a26001600955565b7f00000000000000000000000000000000000000000000000000000000000000006132bc81613576565b6001600160a01b0382165f908152601760205260409020805460ff19166001179055610d9b601c8361415a565b6132f1613834565b335f9081526017602052604090205460ff161561332157604051632652747360e21b815260040160405180910390fd5b5f8281526004602052604090205482906001600160a01b03166133575760405163677510db60e11b815260040160405180910390fd5b5f8381526013602052604090208280156133825750335f90815260018201602052604090205460ff16155b156133f957335f908152600182810160205260408220805460ff1916909117905581549082906133b18361553d565b9091555050805460408051338152602081019290925285917feea8a105c4c7b3434e7353965670d0156bb0797cfa2e136aa6e7bdb22a053b71910160405180910390a261280d565b821580156134175750335f90815260018201602052604090205460ff165b1561280d57335f9081526001820160205260408120805460ff19169055815490829061344283615555565b9091555050805460408051338152602081019290925285917f2d91c40ad0ad3d0d104a8013aaac58b5a45744f29824426c711330de63a9404b91016121d2565b5f6001600160e01b03198216637965db0b60e01b1480610bcc5750610bcc8261416e565b5f818152600460205260409020546001600160a01b03166112a25760405162461bcd60e51b815260206004820152601860248201527f4552433732313a20696e76616c696420746f6b656e20494400000000000000006044820152606401610cfa565b5f81815260066020526040902080546001600160a01b0319166001600160a01b038416908117909155819061353d82611a63565b6001600160a01b03167f8c5be1e5ebec7d5bd14f71427d1e84f3dd0314c0f7b2291e5b200ac8c7c3b92560405160405180910390a45050565b6112a28133614178565b5f5f61358b83611a63565b9050806001600160a01b0316846001600160a01b031614806135d157506001600160a01b038082165f9081526007602090815260408083209388168352929052205460ff165b806135f55750836001600160a01b03166135ea84610c62565b6001600160a01b0316145b949350505050565b826001600160a01b031661361082611a63565b6001600160a01b0316146136745760405162461bcd60e51b815260206004820152602560248201527f4552433732313a207472616e736665722066726f6d20696e636f72726563742060448201526437bbb732b960d91b6064820152608401610cfa565b6001600160a01b0382166136d65760405162461bcd60e51b8152602060048201526024808201527f4552433732313a207472616e7366657220746f20746865207a65726f206164646044820152637265737360e01b6064820152608401610cfa565b826001600160a01b03166136e982611a63565b6001600160a01b03161461374d5760405162461bcd60e51b815260206004820152602560248201527f4552433732313a207472616e736665722066726f6d20696e636f72726563742060448201526437bbb732b960d91b6064820152608401610cfa565b5f81815260066020908152604080832080546001600160a01b03199081169091556001600160a01b038781168086526005855283862080545f1901905590871680865283862080546001019055868652600490945282852080549092168417909155905184937fddf252ad1be2c89b69c2b068fc378daa952ba7f163c4a11628f55a4df523b3ef91a4505050565b60026009540361382d5760405162461bcd60e51b815260206004820152601f60248201527f5265656e7472616e637947756172643a207265656e7472616e742063616c6c006044820152606401610cfa565b6002600955565b600a5460ff16156138875760405162461bcd60e51b815260206004820152601060248201527f5061757361626c653a20706175736564000000000000000000000000000000006044820152606401610cfa565b565b5f5f836001600160a01b0316836040515f6040518083038185875af1925050503d805f81146138d3576040519150601f19603f3d011682016040523d82523d5f602084013e6138d8565b606091505b509095945050505050565b5f818152601b602052604081206138f99061408b565b90505f5b8151811015613989575f60155f84848151811061391c5761391c6154d6565b602002602001015181526020019081526020015f209050806005015f9054906101000a900460ff16156139805760058101805460ff1916905580546040517facb9cd98d41dc8854281172ab2a764d949b62b51776edd911f85376ed2eca64b905f90a25b506001016138fd565b505b5f828152601b602052604081206139a1906141ec565b1115611351575f828152601b602052604081206139d5916139c291906141f5565b5f848152601b6020526040902090613bb1565b5061398b565b5f828152600b602090815260408083206001600160a01b038516845290915290205460ff16611351575f828152600b602090815260408083206001600160a01b03851684529091529020805460ff19166001179055613a373390565b6001600160a01b0316816001600160a01b0316837f2f8788117e7eff1d82e926ec794901d17c78024a50270940304540a733656f0d60405160405180910390a45050565b5f828152600b602090815260408083206001600160a01b038516845290915290205460ff1615611351575f828152600b602090815260408083206001600160a01b0385168085529252808320805460ff1916905551339285917ff6391f5c32d9c69d2a47ea670b442974b53935d1edc7fd64eb21e047a839171b9190a45050565b613b04614200565b600a805460ff191690557f5db9ee0a495bf2e6ff9c91a7834c1ba4fdd244a5e8aa4e537bd38aeae4b073aa335b6040516001600160a01b03909116815260200160405180910390a1565b5f613b62836001600160a01b038416614252565b9392505050565b5f613b628383614335565b613b7c613834565b600a805460ff191660011790557f62e78cea01bee320cd4e420270b5ea74000d11b0c9f74754ebdbfc544b05a258613b313390565b5f613b628383614252565b816001600160a01b0316836001600160a01b031603613c1d5760405162461bcd60e51b815260206004820152601960248201527f4552433732313a20617070726f766520746f2063616c6c6572000000000000006044820152606401610cfa565b6001600160a01b038381165f81815260076020908152604080832094871680845294825291829020805460ff191686151590811790915591519182527f17307eab39ab6107e8899845ad3d59bd9653f200f220920489ca2b5937696c31910160405180910390a3505050565b6127106001600160601b0382161115613d0a5760405162461bcd60e51b815260206004820152602a60248201527f455243323938313a20726f79616c7479206665652077696c6c2065786365656460448201527f2073616c655072696365000000000000000000000000000000000000000000006064820152608401610cfa565b6001600160a01b038216613d605760405162461bcd60e51b815260206004820152601b60248201527f455243323938313a20496e76616c696420706172616d657465727300000000006044820152606401610cfa565b6040805180820182526001600160a01b0393841681526001600160601b0392831660208083019182525f968752600190529190942093519051909116600160a01b029116179055565b611351828260405180602001604052805f815250614381565b5f828152600460205260409020546001600160a01b0316613e4b5760405162461bcd60e51b815260206004820152602e60248201527f45524337323155524953746f726167653a2055524920736574206f66206e6f6e60448201527f6578697374656e7420746f6b656e0000000000000000000000000000000000006064820152608401610cfa565b5f828152600860205260409020613e6282826153a0565b506040518281527ff8e1a15aba9398e019f0b49df1a4fde98ee17ae345cb5f6b5e2c27f5033e8ce7906020015b60405180910390a15050565b613ea68484846135fd565b613eb2848484846143fe565b61280d5760405162461bcd60e51b815260206004820152603260248201527f4552433732313a207472616e7366657220746f206e6f6e20455243373231526560448201527131b2b4bb32b91034b6b83632b6b2b73a32b960711b6064820152608401610cfa565b6060613f24826134a6565b5f8281526008602052604081208054613f3c906152a4565b80601f0160208091040260200160405190810160405280929190818152602001828054613f68906152a4565b8015613fb35780601f10613f8a57610100808354040283529160200191613fb3565b820191905f5260205f20905b815481529060010190602001808311613f9657829003601f168201915b505050505090505f613fcf60408051602081019091525f815290565b905080515f03613fe0575092915050565b815115614012578082604051602001613ffa92919061556a565b60405160208183030381529060405292505050919050565b6135f584614546565b5f5b835181101561280d57336001600160a01b0316848281518110614042576140426154d6565b60200260200101517f6ba4530d5d6ba1c70cd3ba604c4bb87dcdcd3a32b216cc8e9ee4083db04be513858560405161407b92919061557e565b60405180910390a360010161401d565b60605f613b62836145b5565b80515f036140b85760405163b4fa3fb360e01b815260040160405180910390fd5b5f816040516020016140ca919061534a565b60408051601f1981840301815291815281516020928301205f818152601890935291205490915060ff16156141125760405163b4fa3fb360e01b815260040160405180910390fd5b5f8181526018602052604090819020805460ff19166001179055517f3735abe6d37d9ef031373b241641b39aa1b4bd92a1123b14abe463f461ac5dca90613e8f908490614bca565b5f613b62836001600160a01b038416614335565b5f610bcc8261460e565b5f828152600b602090815260408083206001600160a01b038516845290915290205460ff16611351576141aa81614632565b6141b5836020614644565b6040516020016141c69291906155a2565b60408051601f198184030181529082905262461bcd60e51b8252610cfa91600401614bca565b5f610bcc825490565b5f613b6283836147da565b600a5460ff166138875760405162461bcd60e51b815260206004820152601460248201527f5061757361626c653a206e6f74207061757365640000000000000000000000006044820152606401610cfa565b5f818152600183016020526040812054801561432c575f614274600183615320565b85549091505f9061428790600190615320565b90508181146142e6575f865f0182815481106142a5576142a56154d6565b905f5260205f200154905080875f0184815481106142c5576142c56154d6565b5f918252602080832090910192909255918252600188019052604090208390555b85548690806142f7576142f7615603565b600190038181905f5260205f20015f90559055856001015f8681526020019081526020015f205f905560019350505050610bcc565b5f915050610bcc565b5f81815260018301602052604081205461437a57508154600181810184555f848152602080822090930184905584548482528286019093526040902091909155610bcc565b505f610bcc565b61438b8383614800565b6143975f8484846143fe565b610d9b5760405162461bcd60e51b815260206004820152603260248201527f4552433732313a207472616e7366657220746f206e6f6e20455243373231526560448201527131b2b4bb32b91034b6b83632b6b2b73a32b960711b6064820152608401610cfa565b5f6001600160a01b0384163b1561453b57604051630a85bd0160e11b81526001600160a01b0385169063150b7a0290614441903390899088908890600401615617565b6020604051808303815f875af192505050801561447b575060408051601f3d908101601f1916820190925261447891810190615657565b60015b614521573d8080156144a8576040519150601f19603f3d011682016040523d82523d5f602084013e6144ad565b606091505b5080515f036145195760405162461bcd60e51b815260206004820152603260248201527f4552433732313a207472616e7366657220746f206e6f6e20455243373231526560448201527131b2b4bb32b91034b6b83632b6b2b73a32b960711b6064820152608401610cfa565b805181602001fd5b6001600160e01b031916630a85bd0160e11b1490506135f5565b506001949350505050565b6060614551826134a6565b5f61456660408051602081019091525f815290565b90505f8151116145845760405180602001604052805f815250613b62565b8061458e84614988565b60405160200161459f92919061556a565b6040516020818303038152906040529392505050565b6060815f0180548060200260200160405190810160405280929190818152602001828054801561460257602002820191905f5260205f20905b8154815260200190600101908083116145ee575b50505050509050919050565b5f6001600160e01b03198216632483248360e11b1480610bcc5750610bcc82614a18565b6060610bcc6001600160a01b03831660145b60605f6146528360026152ea565b61465d9060026154c3565b67ffffffffffffffff81111561467557614675615057565b6040519080825280601f01601f19166020018201604052801561469f576020820181803683370190505b509050600360fc1b815f815181106146b9576146b96154d6565b60200101906001600160f81b03191690815f1a905350600f60fb1b816001815181106146e7576146e76154d6565b60200101906001600160f81b03191690815f1a9053505f6147098460026152ea565b6147149060016154c3565b90505b600181111561478b576f181899199a1a9b1b9c1cb0b131b232b360811b85600f1660108110614748576147486154d6565b1a60f81b82828151811061475e5761475e6154d6565b60200101906001600160f81b03191690815f1a90535060049490941c9361478481615555565b9050614717565b508315613b625760405162461bcd60e51b815260206004820181905260248201527f537472696e67733a20686578206c656e67746820696e73756666696369656e746044820152606401610cfa565b5f825f0182815481106147ef576147ef6154d6565b905f5260205f200154905092915050565b6001600160a01b0382166148565760405162461bcd60e51b815260206004820181905260248201527f4552433732313a206d696e7420746f20746865207a65726f20616464726573736044820152606401610cfa565b5f818152600460205260409020546001600160a01b0316156148ba5760405162461bcd60e51b815260206004820152601c60248201527f4552433732313a20746f6b656e20616c7265616479206d696e746564000000006044820152606401610cfa565b5f818152600460205260409020546001600160a01b03161561491e5760405162461bcd60e51b815260206004820152601c60248201527f4552433732313a20746f6b656e20616c7265616479206d696e746564000000006044820152606401610cfa565b6001600160a01b0382165f81815260056020908152604080832080546001019055848352600490915280822080546001600160a01b0319168417905551839291907fddf252ad1be2c89b69c2b068fc378daa952ba7f163c4a11628f55a4df523b3ef908290a45050565b60605f61499483614a57565b60010190505f8167ffffffffffffffff8111156149b3576149b3615057565b6040519080825280601f01601f1916602001820160405280156149dd576020820181803683370190505b5090508181016020015b5f19016f181899199a1a9b1b9c1cb0b131b232b360811b600a86061a8153600a85049450846149e757509392505050565b5f6001600160e01b031982166380ac58cd60e01b1480614a4857506001600160e01b03198216635b5e139f60e01b145b80610bcc5750610bcc82614b38565b5f807a184f03e93ff9f4daa797ed6e38ed64bf6a1f0100000000000000008310614a9f577a184f03e93ff9f4daa797ed6e38ed64bf6a1f010000000000000000830492506040015b6d04ee2d6d415b85acef81000000008310614acb576d04ee2d6d415b85acef8100000000830492506020015b662386f26fc100008310614ae957662386f26fc10000830492506010015b6305f5e1008310614b01576305f5e100830492506008015b6127108310614b1557612710830492506004015b60648310614b27576064830492506002015b600a8310610bcc5760010192915050565b5f6001600160e01b0319821663152a902d60e11b1480610bcc57506301ffc9a760e01b6001600160e01b0319831614610bcc565b6001600160e01b0319811681146112a2575f5ffd5b5f60208284031215614b91575f5ffd5b8135613b6281614b6c565b5f81518084528060208401602086015e5f602082860101526020601f19601f83011685010191505092915050565b602081525f613b626020830184614b9c565b5f60208284031215614bec575f5ffd5b5035919050565b6001600160a01b03811681146112a2575f5ffd5b5f5f60408385031215614c18575f5ffd5b8235614c2381614bf3565b946020939093013593505050565b5f5f5f60608486031215614c43575f5ffd5b8335614c4e81614bf3565b92506020840135614c5e81614bf3565b929592945050506040919091013590565b5f5f60408385031215614c80575f5ffd5b50508035926020909101359150565b5f5f60408385031215614ca0575f5ffd5b823591506020830135614cb281614bf3565b809150509250929050565b803560ff81168114614ccd575f5ffd5b919050565b80358015158114614ccd575f5ffd5b5f5f60408385031215614cf2575f5ffd5b614cfb83614cbd565b9150614d0960208401614cd2565b90509250929050565b5f60208284031215614d22575f5ffd5b8135613b6281614bf3565b5f5f83601f840112614d3d575f5ffd5b50813567ffffffffffffffff811115614d54575f5ffd5b602083019150836020828501011115610f0d575f5ffd5b5f5f5f5f60608587031215614d7e575f5ffd5b8435935060208501359250604085013567ffffffffffffffff811115614da2575f5ffd5b614dae87828801614d2d565b95989497509550505050565b5f5f60408385031215614dcb575f5ffd5b82359150614d0960208401614cbd565b5f5f5f60608486031215614ded575f5ffd5b505081359360208301359350604090920135919050565b5f8151808452602084019350602083015f5b82811015614e34578151865260209586019590910190600101614e16565b5093949350505050565b606080825284519082018190525f9060208601906080840190835b81811015614e805783516001600160a01b0316835260209384019390920191600101614e59565b50508381036020850152809150855180825260208201925060208160051b830101602088015f5b83811015614ed957601f19858403018652614ec3838351614b9c565b6020968701969093509190910190600101614ea7565b50508581036040870152614eed8188614e04565b9998505050505050505050565b8781526001600160a01b03871660208201526001600160a01b038616604082015284606082015283151560808201528260a082015260e060c08201525f614eed60e0830184614b9c565b5f5f60408385031215614f55575f5ffd5b8235614cfb81614bf3565b5f5f5f60408486031215614f72575f5ffd5b83359250602084013567ffffffffffffffff811115614f8f575f5ffd5b614f9b86828701614d2d565b9497909650939450505050565b80356001600160601b0381168114614ccd575f5ffd5b5f5f5f5f5f60608688031215614fd2575f5ffd5b853567ffffffffffffffff811115614fe8575f5ffd5b614ff488828901614d2d565b909650945050602086013567ffffffffffffffff811115615013575f5ffd5b61501f88828901614d2d565b9094509250615032905060408701614fa8565b90509295509295909350565b5f6020828403121561504e575f5ffd5b613b6282614cbd565b634e487b7160e01b5f52604160045260245ffd5b5f5f67ffffffffffffffff84111561508557615085615057565b50604051601f19601f85018116603f0116810181811067ffffffffffffffff821117156150b4576150b4615057565b6040528381529050808284018510156150cb575f5ffd5b838360208301375f60208583010152509392505050565b5f5f5f5f608085870312156150f5575f5ffd5b843561510081614bf3565b9350602085013561511081614bf3565b925060408501359150606085013567ffffffffffffffff811115615132575f5ffd5b8501601f81018713615142575f5ffd5b6151518782356020840161506b565b91505092959194509250565b5f5f5f5f5f5f60808789031215615172575f5ffd5b863567ffffffffffffffff811115615188575f5ffd5b61519489828a01614d2d565b909750955050602087013567ffffffffffffffff8111156151b3575f5ffd5b6151bf89828a01614d2d565b90955093506151d2905060408801614fa8565b95989497509295919493606090920135925050565b602081525f613b626020830184614e04565b5f60208284031215615209575f5ffd5b613b6282614fa8565b5f60208284031215615222575f5ffd5b813567ffffffffffffffff811115615238575f5ffd5b8201601f81018413615248575f5ffd5b6135f58482356020840161506b565b5f5f60408385031215615268575f5ffd5b823561527381614bf3565b91506020830135614cb281614bf3565b5f5f60408385031215615294575f5ffd5b82359150614d0960208401614cd2565b600181811c908216806152b857607f821691505b60208210810361236657634e487b7160e01b5f52602260045260245ffd5b634e487b7160e01b5f52601160045260245ffd5b8082028115828204841417610bcc57610bcc6152d6565b5f8261531b57634e487b7160e01b5f52601260045260245ffd5b500490565b81810381811115610bcc57610bcc6152d6565b5f81518060208401855e5f93019283525090919050565b5f613b628284615333565b601f821115610d9b57805f5260205f20601f840160051c8101602085101561537a5750805b601f840160051c820191505b81811015615399575f8155600101615386565b5050505050565b815167ffffffffffffffff8111156153ba576153ba615057565b6153ce816153c884546152a4565b84615355565b6020601f821160018114615400575f83156153e95750848201515b5f19600385901b1c1916600184901b178455615399565b5f84815260208120601f198516915b8281101561542f578785015182556020948501946001909201910161540f565b508482101561544c57868401515f19600387901b60f8161c191681555b50505050600190811b01905550565b81835281816020850137505f828201602090810191909152601f909101601f19169091010190565b838152604060208201525f61549c60408301848661545b565b95945050505050565b62ffffff818116838216029081169081811461145c5761145c6152d6565b80820180821115610bcc57610bcc6152d6565b634e487b7160e01b5f52603260045260245ffd5b6001600160a01b0384168152604060208201525f61549c60408301848661545b565b604081525f61551f60408301868861545b565b828103602084015261553281858761545b565b979650505050505050565b5f6001820161554e5761554e6152d6565b5060010190565b5f81615563576155636152d6565b505f190190565b5f6135f56155788386615333565b84615333565b604081525f6155906040830185614b9c565b828103602084015261549c8185614b9c565b7f416363657373436f6e74726f6c3a206163636f756e742000000000000000000081525f6155d36017830185615333565b7f206973206d697373696e6720726f6c6520000000000000000000000000000000815261549c6011820185615333565b634e487b7160e01b5f52603160045260245ffd5b6001600160a01b03851681526001600160a01b0384166020820152826040820152608060608201525f61564d6080830184614b9c565b9695505050505050565b5f60208284031215615667575f5ffd5b8151613b6281614b6c56fea26469706673582212200ec97777c1fdebea36cc31432aea25e8607f514954d4c7c67b882ee4b798db2364736f6c634300081e0033",
  "linkReferences": {},
  "deployedLinkReferences": {}
}