{
  "_format": "hh-sol-artifact-1",
  "contractName": "Marketplace",
  "sourceName": "contracts/TokenizationApp.sol",
  "abi": [
    {
      "inputs": [],
      "stateMutability": "nonpayable",
      "type": "constructor"
    },
    {
      "inputs": [],
      "name": "AlreadyListed",
      "type": "error"
    },
    {
      "inputs": [],
      "name": "BlacklistedAddress",
      "type": "error"
    },
    {
      "inputs": [],
      "name": "CategoryNotValid",
      "type": "error"
    },
    {
      "inputs": [],
      "name": "InsufficientFunds",
      "type": "error"
    },
    {
      "inputs": [],
      "name": "InvalidInput",
      "type": "error"
    },
    {
      "inputs": [],
      "name": "OfferNotActive",
      "type": "error"
    },
    {
      "inputs": [],
      "name": "RoyaltyTooHigh",
      "type": "error"
    },
    {
      "inputs": [],
      "name": "SectionPaused",
      "type": "error"
    },
    {
      "inputs": [],
      "name": "TokenDoesNotExist",
      "type": "error"
    },
    {
      "inputs": [],
      "name": "TokenNotForSale",
      "type": "error"
    },
    {
      "inputs": [],
      "name": "TransferFailed",
      "type": "error"
    },
    {
      "inputs": [],
      "name": "Unauthorized",
      "type": "error"
    },
    {
      "anonymous": false,
      "inputs": [
        {
          "indexed": true,
          "internalType": "address",
          "name": "owner",
          "type": "address"
        },
        {
          "indexed": true,
          "internalType": "address",
          "name": "approved",
          "type": "address"
        },
        {
          "indexed": true,
          "internalType": "uint256",
          "name": "tokenId",
          "type": "uint256"
        }
      ],
      "name": "Approval",
      "type": "event"
    },
    {
      "anonymous": false,
      "inputs": [
        {
          "indexed": true,
          "internalType": "address",
          "name": "owner",
          "type": "address"
        },
        {
          "indexed": true,
          "internalType": "address",
          "name": "operator",
          "type": "address"
        },
        {
          "indexed": false,
          "internalType": "bool",
          "name": "approved",
          "type": "bool"
        }
      ],
      "name": "ApprovalForAll",
      "type": "event"
    },
    {
      "anonymous": false,
      "inputs": [
        {
          "indexed": false,
          "internalType": "uint256",
          "name": "_fromTokenId",
          "type": "uint256"
        },
        {
          "indexed": false,
          "internalType": "uint256",
          "name": "_toTokenId",
          "type": "uint256"
        }
      ],
      "name": "BatchMetadataUpdate",
      "type": "event"
    },
    {
      "anonymous": false,
      "inputs": [
        {
          "indexed": false,
          "internalType": "string",
          "name": "category",
          "type": "string"
        }
      ],
      "name": "CategoryRegistered",
      "type": "event"
    },
    {
      "anonymous": false,
      "inputs": [
        {
          "indexed": true,
          "internalType": "uint256",
          "name": "tokenId",
          "type": "uint256"
        },
        {
          "indexed": false,
          "internalType": "address",
          "name": "commenter",
          "type": "address"
        },
        {
          "indexed": false,
          "internalType": "string",
          "name": "comment",
          "type": "string"
        }
      ],
      "name": "CommentAdded",
      "type": "event"
    },
    {
      "anonymous": false,
      "inputs": [
        {
          "indexed": false,
          "internalType": "address",
          "name": "to",
          "type": "address"
        },
        {
          "indexed": false,
          "internalType": "uint256",
          "name": "amount",
          "type": "uint256"
        }
      ],
      "name": "EmergencyWithdrawal",
      "type": "event"
    },
    {
      "anonymous": false,
      "inputs": [
        {
          "indexed": false,
          "internalType": "uint256",
          "name": "_tokenId",
          "type": "uint256"
        }
      ],
      "name": "MetadataUpdate",
      "type": "event"
    },
    {
      "anonymous": false,
      "inputs": [
        {
          "indexed": true,
          "internalType": "uint256",
          "name": "offerId",
          "type": "uint256"
        },
        {
          "indexed": true,
          "internalType": "uint256",
          "name": "tokenId",
          "type": "uint256"
        },
        {
          "indexed": false,
          "internalType": "address",
          "name": "seller",
          "type": "address"
        },
        {
          "indexed": false,
          "internalType": "address",
          "name": "buyer",
          "type": "address"
        },
        {
          "indexed": false,
          "internalType": "uint256",
          "name": "amount",
          "type": "uint256"
        }
      ],
      "name": "OfferAccepted",
      "type": "event"
    },
    {
      "anonymous": false,
      "inputs": [
        {
          "indexed": true,
          "internalType": "uint256",
          "name": "offerId",
          "type": "uint256"
        }
      ],
      "name": "OfferCancelled",
      "type": "event"
    },
    {
      "anonymous": false,
      "inputs": [
        {
          "indexed": true,
          "internalType": "uint256",
          "name": "offerId",
          "type": "uint256"
        },
        {
          "indexed": true,
          "internalType": "uint256",
          "name": "tokenId",
          "type": "uint256"
        },
        {
          "indexed": true,
          "internalType": "address",
          "name": "buyer",
          "type": "address"
        },
        {
          "indexed": false,
          "internalType": "uint256",
          "name": "amount",
          "type": "uint256"
        },
        {
          "indexed": false,
          "internalType": "uint256",
          "name": "expiresAt",
          "type": "uint256"
        }
      ],
      "name": "OfferCreated",
      "type": "event"
    },
    {
      "anonymous": false,
      "inputs": [
        {
          "indexed": true,
          "internalType": "uint256",
          "name": "offerId",
          "type": "uint256"
        }
      ],
      "name": "OfferRejected",
      "type": "event"
    },
    {
      "anonymous": false,
      "inputs": [
        {
          "indexed": false,
          "internalType": "address",
          "name": "account",
          "type": "address"
        }
      ],
      "name": "Paused",
      "type": "event"
    },
    {
      "anonymous": false,
      "inputs": [
        {
          "indexed": true,
          "internalType": "bytes32",
          "name": "role",
          "type": "bytes32"
        },
        {
          "indexed": true,
          "internalType": "bytes32",
          "name": "previousAdminRole",
          "type": "bytes32"
        },
        {
          "indexed": true,
          "internalType": "bytes32",
          "name": "newAdminRole",
          "type": "bytes32"
        }
      ],
      "name": "RoleAdminChanged",
      "type": "event"
    },
    {
      "anonymous": false,
      "inputs": [
        {
          "indexed": true,
          "internalType": "bytes32",
          "name": "role",
          "type": "bytes32"
        },
        {
          "indexed": true,
          "internalType": "address",
          "name": "account",
          "type": "address"
        },
        {
          "indexed": true,
          "internalType": "address",
          "name": "sender",
          "type": "address"
        }
      ],
      "name": "RoleGranted",
      "type": "event"
    },
    {
      "anonymous": false,
      "inputs": [
        {
          "indexed": true,
          "internalType": "bytes32",
          "name": "role",
          "type": "bytes32"
        },
        {
          "indexed": true,
          "internalType": "address",
          "name": "account",
          "type": "address"
        },
        {
          "indexed": true,
          "internalType": "address",
          "name": "sender",
          "type": "address"
        }
      ],
      "name": "RoleRevoked",
      "type": "event"
    },
    {
      "anonymous": false,
      "inputs": [
        {
          "indexed": true,
          "internalType": "uint256",
          "name": "tokenId",
          "type": "uint256"
        },
        {
          "indexed": true,
          "internalType": "address",
          "name": "creator",
          "type": "address"
        },
        {
          "indexed": false,
          "internalType": "uint256",
          "name": "amount",
          "type": "uint256"
        }
      ],
      "name": "RoyaltyPaid",
      "type": "event"
    },
    {
      "anonymous": false,
      "inputs": [
        {
          "indexed": true,
          "internalType": "uint256",
          "name": "tokenId",
          "type": "uint256"
        },
        {
          "indexed": false,
          "internalType": "address",
          "name": "user",
          "type": "address"
        },
        {
          "indexed": false,
          "internalType": "uint256",
          "name": "totalLikes",
          "type": "uint256"
        }
      ],
      "name": "TokenLiked",
      "type": "event"
    },
    {
      "anonymous": false,
      "inputs": [
        {
          "indexed": true,
          "internalType": "uint256",
          "name": "tokenId",
          "type": "uint256"
        },
        {
          "indexed": true,
          "internalType": "address",
          "name": "seller",
          "type": "address"
        },
        {
          "indexed": false,
          "internalType": "uint256",
          "name": "price",
          "type": "uint256"
        },
        {
          "indexed": false,
          "internalType": "string",
          "name": "category",
          "type": "string"
        }
      ],
      "name": "TokenListed",
      "type": "event"
    },
    {
      "anonymous": false,
      "inputs": [
        {
          "indexed": true,
          "internalType": "uint256",
          "name": "tokenId",
          "type": "uint256"
        },
        {
          "indexed": true,
          "internalType": "address",
          "name": "creator",
          "type": "address"
        },
        {
          "indexed": false,
          "internalType": "string",
          "name": "tokenURI",
          "type": "string"
        },
        {
          "indexed": false,
          "internalType": "string",
          "name": "category",
          "type": "string"
        }
      ],
      "name": "TokenMinted",
      "type": "event"
    },
    {
      "anonymous": false,
      "inputs": [
        {
          "indexed": true,
          "internalType": "uint256",
          "name": "tokenId",
          "type": "uint256"
        },
        {
          "indexed": false,
          "internalType": "uint256",
          "name": "newPrice",
          "type": "uint256"
        }
      ],
      "name": "TokenPriceUpdated",
      "type": "event"
    },
    {
      "anonymous": false,
      "inputs": [
        {
          "indexed": true,
          "internalType": "uint256",
          "name": "tokenId",
          "type": "uint256"
        },
        {
          "indexed": true,
          "internalType": "address",
          "name": "seller",
          "type": "address"
        },
        {
          "indexed": true,
          "internalType": "address",
          "name": "buyer",
          "type": "address"
        },
        {
          "indexed": false,
          "internalType": "uint256",
          "name": "price",
          "type": "uint256"
        }
      ],
      "name": "TokenSold",
      "type": "event"
    },
    {
      "anonymous": false,
      "inputs": [
        {
          "indexed": true,
          "internalType": "uint256",
          "name": "tokenId",
          "type": "uint256"
        },
        {
          "indexed": false,
          "internalType": "address",
          "name": "user",
          "type": "address"
        },
        {
          "indexed": false,
          "internalType": "uint256",
          "name": "totalLikes",
          "type": "uint256"
        }
      ],
      "name": "TokenUnLiked",
      "type": "event"
    },
    {
      "anonymous": false,
      "inputs": [
        {
          "indexed": true,
          "internalType": "uint256",
          "name": "tokenId",
          "type": "uint256"
        }
      ],
      "name": "TokenUnlisted",
      "type": "event"
    },
    {
      "anonymous": false,
      "inputs": [
        {
          "indexed": true,
          "internalType": "address",
          "name": "from",
          "type": "address"
        },
        {
          "indexed": true,
          "internalType": "address",
          "name": "to",
          "type": "address"
        },
        {
          "indexed": true,
          "internalType": "uint256",
          "name": "tokenId",
          "type": "uint256"
        }
      ],
      "name": "Transfer",
      "type": "event"
    },
    {
      "anonymous": false,
      "inputs": [
        {
          "indexed": false,
          "internalType": "address",
          "name": "account",
          "type": "address"
        }
      ],
      "name": "Unpaused",
      "type": "event"
    },
    {
      "inputs": [],
      "name": "ADMIN_ROLE",
      "outputs": [
        {
          "internalType": "bytes32",
          "name": "",
          "type": "bytes32"
        }
      ],
      "stateMutability": "view",
      "type": "function"
    },
    {
      "inputs": [],
      "name": "DEFAULT_ADMIN_ROLE",
      "outputs": [
        {
          "internalType": "bytes32",
          "name": "",
          "type": "bytes32"
        }
      ],
      "stateMutability": "view",
      "type": "function"
    },
    {
      "inputs": [],
      "name": "MAX_BATCH_SIZE",
      "outputs": [
        {
          "internalType": "uint256",
          "name": "",
          "type": "uint256"
        }
      ],
      "stateMutability": "view",
      "type": "function"
    },
    {
      "inputs": [],
      "name": "MIN_PRICE",
      "outputs": [
        {
          "internalType": "uint256",
          "name": "",
          "type": "uint256"
        }
      ],
      "stateMutability": "view",
      "type": "function"
    },
    {
      "inputs": [],
      "name": "MODERATOR_ROLE",
      "outputs": [
        {
          "internalType": "bytes32",
          "name": "",
          "type": "bytes32"
        }
      ],
      "stateMutability": "view",
      "type": "function"
    },
    {
      "inputs": [
        {
          "internalType": "uint256",
          "name": "offerId",
          "type": "uint256"
        }
      ],
      "name": "acceptOffer",
      "outputs": [],
      "stateMutability": "nonpayable",
      "type": "function"
    },
    {
      "inputs": [
        {
          "internalType": "uint256",
          "name": "tokenId",
          "type": "uint256"
        },
        {
          "internalType": "string",
          "name": "text",
          "type": "string"
        }
      ],
      "name": "addComment",
      "outputs": [],
      "stateMutability": "nonpayable",
      "type": "function"
    },
    {
      "inputs": [
        {
          "internalType": "address",
          "name": "to",
          "type": "address"
        },
        {
          "internalType": "uint256",
          "name": "tokenId",
          "type": "uint256"
        }
      ],
      "name": "approve",
      "outputs": [],
      "stateMutability": "nonpayable",
      "type": "function"
    },
    {
      "inputs": [
        {
          "internalType": "address",
          "name": "owner",
          "type": "address"
        }
      ],
      "name": "balanceOf",
      "outputs": [
        {
          "internalType": "uint256",
          "name": "",
          "type": "uint256"
        }
      ],
      "stateMutability": "view",
      "type": "function"
    },
    {
      "inputs": [
        {
          "internalType": "address",
          "name": "user",
          "type": "address"
        }
      ],
      "name": "blacklistAddress",
      "outputs": [],
      "stateMutability": "nonpayable",
      "type": "function"
    },
    {
      "inputs": [
        {
          "internalType": "uint256",
          "name": "tokenId",
          "type": "uint256"
        }
      ],
      "name": "buyToken",
      "outputs": [],
      "stateMutability": "payable",
      "type": "function"
    },
    {
      "inputs": [
        {
          "internalType": "uint256",
          "name": "offerId",
          "type": "uint256"
        }
      ],
      "name": "cancelOffer",
      "outputs": [],
      "stateMutability": "nonpayable",
      "type": "function"
    },
    {
      "inputs": [
        {
          "internalType": "string",
          "name": "_tokenURI",
          "type": "string"
        },
        {
          "internalType": "string",
          "name": "category",
          "type": "string"
        },
        {
          "internalType": "uint96",
          "name": "royaltyPercentage",
          "type": "uint96"
        }
      ],
      "name": "createNFT",
      "outputs": [
        {
          "internalType": "uint256",
          "name": "",
          "type": "uint256"
        }
      ],
      "stateMutability": "nonpayable",
      "type": "function"
    },
    {
      "inputs": [],
      "name": "defaultRoyaltyPercentage",
      "outputs": [
        {
          "internalType": "uint96",
          "name": "",
          "type": "uint96"
        }
      ],
      "stateMutability": "view",
      "type": "function"
    },
    {
      "inputs": [
        {
          "internalType": "address payable",
          "name": "to",
          "type": "address"
        }
      ],
      "name": "emergencyWithdraw",
      "outputs": [],
      "stateMutability": "nonpayable",
      "type": "function"
    },
    {
      "inputs": [
        {
          "internalType": "uint256",
          "name": "tokenId",
          "type": "uint256"
        }
      ],
      "name": "getApproved",
      "outputs": [
        {
          "internalType": "address",
          "name": "",
          "type": "address"
        }
      ],
      "stateMutability": "view",
      "type": "function"
    },
    {
      "inputs": [
        {
          "internalType": "uint256",
          "name": "tokenId",
          "type": "uint256"
        },
        {
          "internalType": "uint256",
          "name": "startIndex",
          "type": "uint256"
        },
        {
          "internalType": "uint256",
          "name": "count",
          "type": "uint256"
        }
      ],
      "name": "getComments",
      "outputs": [
        {
          "internalType": "address[]",
          "name": "",
          "type": "address[]"
        },
        {
          "internalType": "string[]",
          "name": "",
          "type": "string[]"
        },
        {
          "internalType": "uint256[]",
          "name": "",
          "type": "uint256[]"
        }
      ],
      "stateMutability": "view",
      "type": "function"
    },
    {
      "inputs": [
        {
          "internalType": "uint256",
          "name": "tokenId",
          "type": "uint256"
        }
      ],
      "name": "getLikesCount",
      "outputs": [
        {
          "internalType": "uint256",
          "name": "",
          "type": "uint256"
        }
      ],
      "stateMutability": "view",
      "type": "function"
    },
    {
      "inputs": [
        {
          "internalType": "uint256",
          "name": "tokenId",
          "type": "uint256"
        }
      ],
      "name": "getListedToken",
      "outputs": [
        {
          "internalType": "uint256",
          "name": "",
          "type": "uint256"
        },
        {
          "internalType": "address",
          "name": "",
          "type": "address"
        },
        {
          "internalType": "address",
          "name": "",
          "type": "address"
        },
        {
          "internalType": "uint256",
          "name": "",
          "type": "uint256"
        },
        {
          "internalType": "bool",
          "name": "",
          "type": "bool"
        },
        {
          "internalType": "uint256",
          "name": "",
          "type": "uint256"
        },
        {
          "internalType": "string",
          "name": "",
          "type": "string"
        }
      ],
      "stateMutability": "view",
      "type": "function"
    },
    {
      "inputs": [
        {
          "internalType": "uint256",
          "name": "offerId",
          "type": "uint256"
        }
      ],
      "name": "getOffer",
      "outputs": [
        {
          "internalType": "uint256",
          "name": "",
          "type": "uint256"
        },
        {
          "internalType": "uint256",
          "name": "",
          "type": "uint256"
        },
        {
          "internalType": "address",
          "name": "",
          "type": "address"
        },
        {
          "internalType": "uint256",
          "name": "",
          "type": "uint256"
        },
        {
          "internalType": "uint256",
          "name": "",
          "type": "uint256"
        },
        {
          "internalType": "bool",
          "name": "",
          "type": "bool"
        }
      ],
      "stateMutability": "view",
      "type": "function"
    },
    {
      "inputs": [
        {
          "internalType": "bytes32",
          "name": "role",
          "type": "bytes32"
        }
      ],
      "name": "getRoleAdmin",
      "outputs": [
        {
          "internalType": "bytes32",
          "name": "",
          "type": "bytes32"
        }
      ],
      "stateMutability": "view",
      "type": "function"
    },
    {
      "inputs": [
        {
          "internalType": "address",
          "name": "creator",
          "type": "address"
        }
      ],
      "name": "getTokensByCreator",
      "outputs": [
        {
          "internalType": "uint256[]",
          "name": "",
          "type": "uint256[]"
        }
      ],
      "stateMutability": "view",
      "type": "function"
    },
    {
      "inputs": [
        {
          "internalType": "bytes32",
          "name": "role",
          "type": "bytes32"
        },
        {
          "internalType": "address",
          "name": "account",
          "type": "address"
        }
      ],
      "name": "grantRole",
      "outputs": [],
      "stateMutability": "nonpayable",
      "type": "function"
    },
    {
      "inputs": [
        {
          "internalType": "bytes32",
          "name": "role",
          "type": "bytes32"
        },
        {
          "internalType": "address",
          "name": "account",
          "type": "address"
        }
      ],
      "name": "hasRole",
      "outputs": [
        {
          "internalType": "bool",
          "name": "",
          "type": "bool"
        }
      ],
      "stateMutability": "view",
      "type": "function"
    },
    {
      "inputs": [
        {
          "internalType": "uint256",
          "name": "tokenId",
          "type": "uint256"
        },
        {
          "internalType": "address",
          "name": "user",
          "type": "address"
        }
      ],
      "name": "hasUserLiked",
      "outputs": [
        {
          "internalType": "bool",
          "name": "",
          "type": "bool"
        }
      ],
      "stateMutability": "view",
      "type": "function"
    },
    {
      "inputs": [
        {
          "internalType": "address",
          "name": "owner",
          "type": "address"
        },
        {
          "internalType": "address",
          "name": "operator",
          "type": "address"
        }
      ],
      "name": "isApprovedForAll",
      "outputs": [
        {
          "internalType": "bool",
          "name": "",
          "type": "bool"
        }
      ],
      "stateMutability": "view",
      "type": "function"
    },
    {
      "inputs": [
        {
          "internalType": "uint256",
          "name": "tokenId",
          "type": "uint256"
        },
        {
          "internalType": "uint256",
          "name": "price",
          "type": "uint256"
        },
        {
          "internalType": "string",
          "name": "category",
          "type": "string"
        }
      ],
      "name": "listTokenForSale",
      "outputs": [],
      "stateMutability": "nonpayable",
      "type": "function"
    },
    {
      "inputs": [
        {
          "internalType": "uint256",
          "name": "tokenId",
          "type": "uint256"
        },
        {
          "internalType": "uint8",
          "name": "expiresInDays",
          "type": "uint8"
        }
      ],
      "name": "makeOffer",
      "outputs": [],
      "stateMutability": "payable",
      "type": "function"
    },
    {
      "inputs": [],
      "name": "name",
      "outputs": [
        {
          "internalType": "string",
          "name": "",
          "type": "string"
        }
      ],
      "stateMutability": "view",
      "type": "function"
    },
    {
      "inputs": [
        {
          "internalType": "uint256",
          "name": "tokenId",
          "type": "uint256"
        }
      ],
      "name": "ownerOf",
      "outputs": [
        {
          "internalType": "address",
          "name": "",
          "type": "address"
        }
      ],
      "stateMutability": "view",
      "type": "function"
    },
    {
      "inputs": [],
      "name": "pause",
      "outputs": [],
      "stateMutability": "nonpayable",
      "type": "function"
    },
    {
      "inputs": [],
      "name": "paused",
      "outputs": [
        {
          "internalType": "bool",
          "name": "",
          "type": "bool"
        }
      ],
      "stateMutability": "view",
      "type": "function"
    },
    {
      "inputs": [],
      "name": "platformFeePercentage",
      "outputs": [
        {
          "internalType": "uint256",
          "name": "",
          "type": "uint256"
        }
      ],
      "stateMutability": "view",
      "type": "function"
    },
    {
      "inputs": [],
      "name": "platformTreasury",
      "outputs": [
        {
          "internalType": "address",
          "name": "",
          "type": "address"
        }
      ],
      "stateMutability": "view",
      "type": "function"
    },
    {
      "inputs": [
        {
          "internalType": "string",
          "name": "category",
          "type": "string"
        }
      ],
      "name": "registerCategory",
      "outputs": [],
      "stateMutability": "nonpayable",
      "type": "function"
    },
    {
      "inputs": [
        {
          "internalType": "uint256",
          "name": "offerId",
          "type": "uint256"
        }
      ],
      "name": "rejectOffer",
      "outputs": [],
      "stateMutability": "nonpayable",
      "type": "function"
    },
    {
      "inputs": [
        {
          "internalType": "address",
          "name": "user",
          "type": "address"
        }
      ],
      "name": "removeFromBlacklist",
      "outputs": [],
      "stateMutability": "nonpayable",
      "type": "function"
    },
    {
      "inputs": [
        {
          "internalType": "bytes32",
          "name": "role",
          "type": "bytes32"
        },
        {
          "internalType": "address",
          "name": "account",
          "type": "address"
        }
      ],
      "name": "renounceRole",
      "outputs": [],
      "stateMutability": "nonpayable",
      "type": "function"
    },
    {
      "inputs": [
        {
          "internalType": "bytes32",
          "name": "role",
          "type": "bytes32"
        },
        {
          "internalType": "address",
          "name": "account",
          "type": "address"
        }
      ],
      "name": "revokeRole",
      "outputs": [],
      "stateMutability": "nonpayable",
      "type": "function"
    },
    {
      "inputs": [
        {
          "internalType": "uint256",
          "name": "tokenId",
          "type": "uint256"
        },
        {
          "internalType": "uint256",
          "name": "salePrice",
          "type": "uint256"
        }
      ],
      "name": "royaltyInfo",
      "outputs": [
        {
          "internalType": "address",
          "name": "",
          "type": "address"
        },
        {
          "internalType": "uint256",
          "name": "",
          "type": "uint256"
        }
      ],
      "stateMutability": "view",
      "type": "function"
    },
    {
      "inputs": [
        {
          "internalType": "address",
          "name": "from",
          "type": "address"
        },
        {
          "internalType": "address",
          "name": "to",
          "type": "address"
        },
        {
          "internalType": "uint256",
          "name": "tokenId",
          "type": "uint256"
        }
      ],
      "name": "safeTransferFrom",
      "outputs": [],
      "stateMutability": "nonpayable",
      "type": "function"
    },
    {
      "inputs": [
        {
          "internalType": "address",
          "name": "from",
          "type": "address"
        },
        {
          "internalType": "address",
          "name": "to",
          "type": "address"
        },
        {
          "internalType": "uint256",
          "name": "tokenId",
          "type": "uint256"
        },
        {
          "internalType": "bytes",
          "name": "data",
          "type": "bytes"
        }
      ],
      "name": "safeTransferFrom",
      "outputs": [],
      "stateMutability": "nonpayable",
      "type": "function"
    },
    {
      "inputs": [
        {
          "internalType": "uint8",
          "name": "",
          "type": "uint8"
        }
      ],
      "name": "sectionPaused",
      "outputs": [
        {
          "internalType": "bool",
          "name": "",
          "type": "bool"
        }
      ],
      "stateMutability": "view",
      "type": "function"
    },
    {
      "inputs": [
        {
          "internalType": "address",
          "name": "operator",
          "type": "address"
        },
        {
          "internalType": "bool",
          "name": "approved",
          "type": "bool"
        }
      ],
      "name": "setApprovalForAll",
      "outputs": [],
      "stateMutability": "nonpayable",
      "type": "function"
    },
    {
      "inputs": [
        {
          "internalType": "uint96",
          "name": "newRoyaltyPercentage",
          "type": "uint96"
        }
      ],
      "name": "setDefaultRoyalty",
      "outputs": [],
      "stateMutability": "nonpayable",
      "type": "function"
    },
    {
      "inputs": [
        {
          "internalType": "uint256",
          "name": "newFeePercentage",
          "type": "uint256"
        }
      ],
      "name": "setPlatformFee",
      "outputs": [],
      "stateMutability": "nonpayable",
      "type": "function"
    },
    {
      "inputs": [
        {
          "internalType": "address",
          "name": "_treasury",
          "type": "address"
        }
      ],
      "name": "setPlatformTreasury",
      "outputs": [],
      "stateMutability": "nonpayable",
      "type": "function"
    },
    {
      "inputs": [
        {
          "internalType": "uint8",
          "name": "section",
          "type": "uint8"
        },
        {
          "internalType": "bool",
          "name": "paused",
          "type": "bool"
        }
      ],
      "name": "setSectionPaused",
      "outputs": [],
      "stateMutability": "nonpayable",
      "type": "function"
    },
    {
      "inputs": [
        {
          "internalType": "bytes4",
          "name": "interfaceId",
          "type": "bytes4"
        }
      ],
      "name": "supportsInterface",
      "outputs": [
        {
          "internalType": "bool",
          "name": "",
          "type": "bool"
        }
      ],
      "stateMutability": "view",
      "type": "function"
    },
    {
      "inputs": [],
      "name": "symbol",
      "outputs": [
        {
          "internalType": "string",
          "name": "",
          "type": "string"
        }
      ],
      "stateMutability": "view",
      "type": "function"
    },
    {
      "inputs": [
        {
          "internalType": "uint256",
          "name": "tokenId",
          "type": "uint256"
        },
        {
          "internalType": "bool",
          "name": "like",
          "type": "bool"
        }
      ],
      "name": "toggleLike",
      "outputs": [],
      "stateMutability": "nonpayable",
      "type": "function"
    },
    {
      "inputs": [
        {
          "internalType": "uint256",
          "name": "tokenId",
          "type": "uint256"
        }
      ],
      "name": "tokenURI",
      "outputs": [
        {
          "internalType": "string",
          "name": "",
          "type": "string"
        }
      ],
      "stateMutability": "view",
      "type": "function"
    },
    {
      "inputs": [
        {
          "internalType": "address",
          "name": "from",
          "type": "address"
        },
        {
          "internalType": "address",
          "name": "to",
          "type": "address"
        },
        {
          "internalType": "uint256",
          "name": "tokenId",
          "type": "uint256"
        }
      ],
      "name": "transferFrom",
      "outputs": [],
      "stateMutability": "nonpayable",
      "type": "function"
    },
    {
      "inputs": [
        {
          "internalType": "uint256",
          "name": "tokenId",
          "type": "uint256"
        }
      ],
      "name": "unlistedToken",
      "outputs": [],
      "stateMutability": "nonpayable",
      "type": "function"
    },
    {
      "inputs": [],
      "name": "unpause",
      "outputs": [],
      "stateMutability": "nonpayable",
      "type": "function"
    },
    {
      "inputs": [
        {
          "internalType": "uint256",
          "name": "tokenId",
          "type": "uint256"
        },
        {
          "internalType": "uint256",
          "name": "newPrice",
          "type": "uint256"
        }
      ],
      "name": "updatePrice",
      "outputs": [],
      "stateMutability": "nonpayable",
      "type": "function"
    },
    {
      "inputs": [],
      "name": "withdrawPlatformFees",
      "outputs": [],
      "stateMutability": "nonpayable",
      "type": "function"
    }
  ],
  "bytecode": "0x60c06040527fa49807205ce4d355092ef5a8a18f56e8913cf4a201fbe287825b095693c217756080527f71f3d55856e4058ed06ee057d79ada615f65cdf5f9ee88181b914225088f834f60a0526005600f55601080546001600160601b03191660fa17905534801561006f575f5ffd5b506040518060400160405280600a8152602001694e75766f73204e46547360b01b815250604051806040016040528060048152602001634e46542b60e01b81525081600290816100bf91906103e5565b5060036100cc82826103e5565b5050600160095550600a805460ff191690556100e85f336101dd565b6080516100f590336101dd565b60a05161010290336101dd565b600e80546001600160a01b03191633179055604080518082019091526003815262185c9d60ea1b60208201526101379061027e565b60408051808201909152600b81526a70686f746f67726170687960a81b60208201526101629061027e565b6040805180820190915260058152646d7573696360d81b60208201526101879061027e565b604080518082019091526005815264766964656f60d81b60208201526101ac9061027e565b60408051808201909152600c81526b636f6c6c65637469626c657360a01b60208201526101d89061027e565b6104ea565b5f828152600b602090815260408083206001600160a01b038516845290915290205460ff1661027a575f828152600b602090815260408083206001600160a01b03851684529091529020805460ff191660011790556102393390565b6001600160a01b0316816001600160a01b0316837f2f8788117e7eff1d82e926ec794901d17c78024a50270940304540a733656f0d60405160405180910390a45b5050565b80515f0361029f5760405163b4fa3fb360e01b815260040160405180910390fd5b5f816040516020016102b1919061049f565b60408051601f1981840301815291815281516020928301205f818152601890935291205490915060ff16156102f95760405163b4fa3fb360e01b815260040160405180910390fd5b5f8181526018602052604090819020805460ff19166001179055517f3735abe6d37d9ef031373b241641b39aa1b4bd92a1123b14abe463f461ac5dca906103419084906104b5565b60405180910390a15050565b634e487b7160e01b5f52604160045260245ffd5b600181811c9082168061037557607f821691505b60208210810361039357634e487b7160e01b5f52602260045260245ffd5b50919050565b601f8211156103e057805f5260205f20601f840160051c810160208510156103be5750805b601f840160051c820191505b818110156103dd575f81556001016103ca565b50505b505050565b81516001600160401b038111156103fe576103fe61034d565b6104128161040c8454610361565b84610399565b6020601f821160018114610444575f831561042d5750848201515b5f19600385901b1c1916600184901b1784556103dd565b5f84815260208120601f198516915b828110156104735787850151825560209485019460019092019101610453565b508482101561049057868401515f19600387901b60f8161c191681555b50505050600190811b01905550565b5f82518060208501845e5f920191825250919050565b602081525f82518060208401528060208501604085015e5f604082850101526040601f19601f83011684010191505092915050565b60805160a0516151f16105585f395f81816107cb01528181612cb00152612efb01525f818161079801528181610d6d01528181611322015281816113960152818161144a01528181611d4901528181612003015281816121ad01528181612b1a0152612c3201526151f15ff3fe608060405260043610610366575f3560e01c80637cd86d60116101c8578063c815729d116100fd578063d6948b751161009d578063e985e9c51161006d578063e985e9c514610ae9578063ef706adf14610b30578063f3290d7514610b4f578063f3eb744e14610b6e575f5ffd5b8063d6948b7514610a6d578063df901d5114610a8c578063e0990c5a14610aab578063e138818c14610aca575f5ffd5b8063cfdbf254116100d8578063cfdbf254146109fa578063d0b7830b14610a0e578063d547741f14610a22578063d5c7127514610a41575f5ffd5b8063c815729d146109a7578063c87b56dd146109c6578063cdd78cfc146109e5575f5ffd5b8063a217fddf11610168578063ad9f20a611610143578063ad9f20a614610926578063b2cc52191461093b578063b70d47501461095a578063b88d4fde14610988575f5ffd5b8063a217fddf146108d5578063a22cb465146108e8578063aa7e568314610907575f5ffd5b806388b10c75116101a357806388b10c751461083f57806391d148541461085e57806395d89b41146108a2578063a160a5df146108b6575f5ffd5b80637cd86d60146107ed57806382367b2d1461080c5780638456cb591461082b575f5ffd5b8063402f0fa01161029e5780636352211e1161023e57806370a082311161021957806370a082311461073657806370bb609a1461075557806375b238fc14610787578063797669c9146107ba575f5ffd5b80636352211e146106ca5780636818ba1d146106e95780636ff1c9bc14610717575f5ffd5b8063537df3b611610279578063537df3b614610662578063578eaf44146106815780635c975abb146106a0578063602dcf29146106b7575f5ffd5b8063402f0fa01461058a57806342842e0e146105a95780634579268a146105c8575f5ffd5b8063248a9ca3116103095780632f2ff15d116102e45780632f2ff15d1461051957806336568abe1461053857806339a7846c146105575780633f4ba83a14610576575f5ffd5b8063248a9ca31461048c5780632a55205a146104c85780632d296bf114610506575f5ffd5b8063095ea7b311610344578063095ea7b3146103f657806312e8e2c314610417578063139d83251461043657806323b872dd1461046d575f5ffd5b806301ffc9a71461036a57806306fdde031461039e578063081812fc146103bf575b5f5ffd5b348015610375575f5ffd5b50610389610384366004614778565b610b8d565b60405190151581526020015b60405180910390f35b3480156103a9575f5ffd5b506103b2610b9d565b60405161039591906147c1565b3480156103ca575f5ffd5b506103de6103d93660046147d3565b610c2d565b6040516001600160a01b039091168152602001610395565b348015610401575f5ffd5b506104156104103660046147fe565b610c52565b005b348015610422575f5ffd5b506104156104313660046147d3565b610d6b565b348015610441575f5ffd5b50601054610455906001600160601b031681565b6040516001600160601b039091168152602001610395565b348015610478575f5ffd5b50610415610487366004614828565b610dbd565b348015610497575f5ffd5b506104ba6104a63660046147d3565b5f908152600b602052604090206001015490565b604051908152602001610395565b3480156104d3575f5ffd5b506104e76104e2366004614866565b610e34565b604080516001600160a01b039093168352602083019190915201610395565b6104156105143660046147d3565b610edf565b348015610524575f5ffd5b50610415610533366004614886565b611270565b348015610543575f5ffd5b50610415610552366004614886565b611294565b348015610562575f5ffd5b506104156105713660046148d8565b611320565b348015610581575f5ffd5b50610415611394565b348015610595575f5ffd5b506103896105a4366004614886565b6113c6565b3480156105b4575f5ffd5b506104156105c3366004614828565b61142e565b3480156105d3575f5ffd5b506106256105e23660046147d3565b5f90815260156020526040902080546001820154600283015460038401546004850154600590950154939592946001600160a01b0390921693909260ff90911690565b6040805196875260208701959095526001600160a01b039093169385019390935260608401526080830191909152151560a082015260c001610395565b34801561066d575f5ffd5b5061041561067c366004614909565b611448565b34801561068c575f5ffd5b5061041561069b366004614962565b61149c565b3480156106ab575f5ffd5b50600a5460ff16610389565b6104156106c53660046149b1565b611795565b3480156106d5575f5ffd5b506103de6106e43660046147d3565b611a2e565b3480156106f4575f5ffd5b506107086107033660046149d2565b611a92565b60405161039593929190614a35565b348015610722575f5ffd5b50610415610731366004614909565b611d47565b348015610741575f5ffd5b506104ba610750366004614909565b611e3b565b348015610760575f5ffd5b5061077461076f3660046147d3565b611ed3565b6040516103959796959493929190614af1565b348015610792575f5ffd5b506104ba7f000000000000000000000000000000000000000000000000000000000000000081565b3480156107c5575f5ffd5b506104ba7f000000000000000000000000000000000000000000000000000000000000000081565b3480156107f8575f5ffd5b50610415610807366004614909565b612001565b348015610817575f5ffd5b50610415610826366004614866565b612075565b348015610836575f5ffd5b506104156121ab565b34801561084a575f5ffd5b506104156108593660046147d3565b6121dd565b348015610869575f5ffd5b50610389610878366004614886565b5f918252600b602090815260408084206001600160a01b0393909316845291905290205460ff1690565b3480156108ad575f5ffd5b506103b26122db565b3480156108c1575f5ffd5b506104ba6108d03660046147d3565b6122ea565b3480156108e0575f5ffd5b506104ba5f81565b3480156108f3575f5ffd5b50610415610902366004614b3b565b612337565b348015610912575f5ffd5b50610415610921366004614b57565b612342565b348015610931575f5ffd5b506104ba6103e881565b348015610946575f5ffd5b506104ba610955366004614bb5565b6124dd565b348015610965575f5ffd5b50610389610974366004614c35565b60116020525f908152604090205460ff1681565b348015610993575f5ffd5b506104156109a2366004614cd9565b612760565b3480156109b2575f5ffd5b506104156109c13660046147d3565b6127de565b3480156109d1575f5ffd5b506103b26109e03660046147d3565b612b0d565b3480156109f0575f5ffd5b506104ba600f5481565b348015610a05575f5ffd5b506104ba601481565b348015610a19575f5ffd5b50610415612b18565b348015610a2d575f5ffd5b50610415610a3c366004614886565b612be9565b348015610a4c575f5ffd5b50610a60610a5b366004614909565b612c0d565b6040516103959190614d54565b348015610a78575f5ffd5b50610415610a87366004614d66565b612c30565b348015610a97575f5ffd5b50610415610aa6366004614d7f565b612cae565b348015610ab6575f5ffd5b50610415610ac53660046147d3565b612ce1565b348015610ad5575f5ffd5b50600e546103de906001600160a01b031681565b348015610af4575f5ffd5b50610389610b03366004614dc4565b6001600160a01b039182165f90815260076020908152604080832093909416825291909152205460ff1690565b348015610b3b575f5ffd5b50610415610b4a3660046147d3565b612dec565b348015610b5a575f5ffd5b50610415610b69366004614909565b612ef9565b348015610b79575f5ffd5b50610415610b88366004614df0565b612f50565b5f610b97826130e9565b92915050565b606060028054610bac90614e11565b80601f0160208091040260200160405190810160405280929190818152602001828054610bd890614e11565b8015610c235780601f10610bfa57610100808354040283529160200191610c23565b820191905f5260205f20905b815481529060010190602001808311610c0657829003601f168201915b5050505050905090565b5f610c378261310d565b505f908152600660205260409020546001600160a01b031690565b5f610c5c82611a2e565b9050806001600160a01b0316836001600160a01b031603610cce5760405162461bcd60e51b815260206004820152602160248201527f4552433732313a20617070726f76616c20746f2063757272656e74206f776e656044820152603960f91b60648201526084015b60405180910390fd5b336001600160a01b0382161480610cea5750610cea8133610b03565b610d5c5760405162461bcd60e51b815260206004820152603d60248201527f4552433732313a20617070726f76652063616c6c6572206973206e6f7420746f60448201527f6b656e206f776e6572206f7220617070726f76656420666f7220616c6c0000006064820152608401610cc5565b610d668383613170565b505050565b7f0000000000000000000000000000000000000000000000000000000000000000610d95816131dd565b600a821115610db75760405163b4fa3fb360e01b815260040160405180910390fd5b50600f55565b610dc733826131e7565b610e295760405162461bcd60e51b815260206004820152602d60248201527f4552433732313a2063616c6c6572206973206e6f7420746f6b656e206f776e6560448201526c1c881bdc88185c1c1c9bdd9959609a1b6064820152608401610cc5565b610d66838383613264565b5f8281526001602090815260408083208151808301909252546001600160a01b038116808352600160a01b9091046001600160601b0316928201929092528291610ea75750604080518082019091525f546001600160a01b0381168252600160a01b90046001600160601b031660208201525b60208101515f9061271090610ec5906001600160601b031687614e57565b610ecf9190614e6e565b91519350909150505b9250929050565b610ee7613442565b610eef61349b565b60015f81905260116020527f17bc176d2408558f6e4111feebc3cab4e16b63e967be91cde721f4c8a488b5525460ff1615610f3d57604051630df56d4f60e21b815260040160405180910390fd5b335f9081526017602052604090205460ff1615610f6d57604051632652747360e21b815260040160405180910390fd5b5f8281526004602052604090205482906001600160a01b0316610fa35760405163677510db60e11b815260040160405180910390fd5b5f838152601260205260409020600481015460ff16610fd55760405163037eff1360e21b815260040160405180910390fd5b8060030154341015610ffa5760405163356680b760e01b815260040160405180910390fd5b6001810154336001600160a01b03909116036110295760405163b4fa3fb360e01b815260040160405180910390fd5b60018101546003820154600f546001600160a01b03909216915f906064906110519084614e57565b61105b9190614e6e565b9050801561107b57600e54611079906001600160a01b0316826134f0565b505b5f878152601960205260408120546001600160a01b031680158015906110b35750846001600160a01b0316816001600160a01b031614155b15611144575f5f6110c48b87610e34565b915091508093505f841180156110e257506001600160a01b03821615155b15611141575f6110f283866134f0565b9050801561113f57826001600160a01b03168c7ff670029fc6f5302baba881b4ae845d1453acdf752b4c19ed81fe0fa6a686409b8760405161113691815260200190565b60405180910390a35b505b50505b5f826111508587614e8d565b61115a9190614e8d565b600288018054336001600160a01b0319918216811790925560018a018054909116909117905560048801805460ff1916905590506111978a61354a565b6111a286338c613264565b5f6111ad87836134f0565b9050806111cd576040516312171d8360e31b815260040160405180910390fd5b8534111561120b575f6111e9336111e48934614e8d565b6134f0565b905080611209576040516312171d8360e31b815260040160405180910390fd5b505b336001600160a01b0316876001600160a01b03168c7f3d5eb834b5d6cadc063c171c3f25f60bca8ea892ba9db25342278927d0af95568960405161125191815260200190565b60405180910390a45050505050505050505061126d6001600955565b50565b5f828152600b602052604090206001015461128a816131dd565b610d668383613642565b6001600160a01b03811633146113125760405162461bcd60e51b815260206004820152602f60248201527f416363657373436f6e74726f6c3a2063616e206f6e6c792072656e6f756e636560448201527f20726f6c657320666f722073656c6600000000000000000000000000000000006064820152608401610cc5565b61131c82826136e2565b5050565b7f000000000000000000000000000000000000000000000000000000000000000061134a816131dd565b60038360ff16111561136f5760405163b4fa3fb360e01b815260040160405180910390fd5b5060ff919091165f908152601160205260409020805460ff1916911515919091179055565b7f00000000000000000000000000000000000000000000000000000000000000006113be816131dd565b61126d613763565b5f8281526004602052604081205483906001600160a01b03166113fc5760405163677510db60e11b815260040160405180910390fd5b5f8481526013602090815260408083206001600160a01b038716845260010190915290205460ff1691505b5092915050565b610d6683838360405180602001604052805f815250612760565b7f0000000000000000000000000000000000000000000000000000000000000000611472816131dd565b6001600160a01b0382165f908152601760205260409020805460ff19169055610d66601c836137b5565b6114a461349b565b5f80805260116020527f4ad3b33220dddc71b994a52d72c06b10862965f7d926534c05c00fb7e819e7b75460ff16156114f057604051630df56d4f60e21b815260040160405180910390fd5b335f9081526017602052604090205460ff161561152057604051632652747360e21b815260040160405180910390fd5b5f8581526004602052604090205485906001600160a01b03166115565760405163677510db60e11b815260040160405180910390fd5b83838080601f0160208091040260200160405190810160405280939291908181526020018383808284375f92018290525060405190935061159d9250849150602001614eb7565b60408051601f1981840301815291815281516020928301205f818152601890935291205490915060ff166115e4576040516347ab1f8160e11b815260040160405180910390fd5b336115ee89611a2e565b6001600160a01b031614611614576040516282b42960e81b815260040160405180910390fd5b6103e88710156116375760405163b4fa3fb360e01b815260040160405180910390fd5b6040518060e00160405280898152602001336001600160a01b03168152602001336001600160a01b0316815260200188815260200160011515815260200142815260200187878080601f0160208091040260200160405190810160405280939291908181526020018383808284375f9201829052509390945250508a81526012602090815260409182902084518155908401516001820180546001600160a01b03199081166001600160a01b03938416179091559285015160028301805490941691161790915560608301516003820155608083015160048201805460ff191691151591909117905560a0830151600582015560c083015190915060068201906117419082614f0d565b50905050336001600160a01b0316887f0504f02e56fa83645f2ed13b141a022acf7376b2278ba8f333da09dd0eda278b89898960405161178393929190614ff0565b60405180910390a35050505050505050565b61179d613442565b6117a561349b565b60025f81905260116020527f08037d7b151cc412d25674a4e66b334d9ae9d2e5517a7feaae5cdb828bf1c6285460ff16156117f357604051630df56d4f60e21b815260040160405180910390fd5b335f9081526017602052604090205460ff161561182357604051632652747360e21b815260040160405180910390fd5b5f8381526004602052604090205483906001600160a01b03166118595760405163677510db60e11b815260040160405180910390fd5b6103e8341161187b5760405163b4fa3fb360e01b815260040160405180910390fd5b60ff8316158061188e5750601e8360ff16115b156118ac5760405163b4fa3fb360e01b815260040160405180910390fd5b336118b685611a2e565b6001600160a01b0316036118dd5760405163b4fa3fb360e01b815260040160405180910390fd5b5f6118ee60ff851662015180615012565b6118fd9062ffffff1642615030565b905061190d600d80546001019055565b5f611917600d5490565b6040805160c08101825282815260208082018a8152338385018181523460608601908152608086018a8152600160a088018181525f8b8152601589528a812099518a5596518983015593516002890180546001600160a01b0319166001600160a01b039092169190911790559151600388015551600487015590516005909501805460ff1916951515959095179094558b8252601683528482209082528252838120805493840181558152818120909201849055898252601b9052209091506119e090826137d0565b5060408051348152602081018490523391889184917f8bdb6541b99259f92b7d7c61d0f892fdd62042bd96c57fca917a3553af72b270910160405180910390a45050505061131c6001600955565b5f818152600460205260408120546001600160a01b031680610b975760405162461bcd60e51b815260206004820152601860248201527f4552433732313a20696e76616c696420746f6b656e20494400000000000000006044820152606401610cc5565b606080606085611ab8815f908152600460205260409020546001600160a01b0316151590565b611ad55760405163677510db60e11b815260040160405180910390fd5b5f87815260146020526040812090611aed8789615030565b8254909150811115611afd575080545b5f611b088983614e8d565b90505f8167ffffffffffffffff811115611b2457611b24614c4e565b604051908082528060200260200182016040528015611b4d578160200160208202803683370190505b5090505f8267ffffffffffffffff811115611b6a57611b6a614c4e565b604051908082528060200260200182016040528015611b9d57816020015b6060815260200190600190039081611b885790505b5090505f8367ffffffffffffffff811115611bba57611bba614c4e565b604051908082528060200260200182016040528015611be3578160200160208202803683370190505b5090505f5b84811015611d33575f87828f611bfe9190615030565b81548110611c0e57611c0e615043565b5f9182526020909120600390910201805486519192506001600160a01b031690869084908110611c4057611c40615043565b60200260200101906001600160a01b031690816001600160a01b031681525050806001018054611c6f90614e11565b80601f0160208091040260200160405190810160405280929190818152602001828054611c9b90614e11565b8015611ce65780601f10611cbd57610100808354040283529160200191611ce6565b820191905f5260205f20905b815481529060010190602001808311611cc957829003601f168201915b5050505050848381518110611cfd57611cfd615043565b60200260200101819052508060020154838381518110611d1f57611d1f615043565b602090810291909101015250600101611be8565b50919c909b50909950975050505050505050565b7f0000000000000000000000000000000000000000000000000000000000000000611d71816131dd565b611d79613442565b6001600160a01b038216611da05760405163b4fa3fb360e01b815260040160405180910390fd5b475f819003611dc25760405163b4fa3fb360e01b815260040160405180910390fd5b604080516001600160a01b0385168152602081018390527f23d6711a1d031134a36921253c75aa59e967d38e369ac625992824315e204f20910160405180910390a15f611e0f84836134f0565b905080611e2f576040516312171d8360e31b815260040160405180910390fd5b505061131c6001600955565b5f6001600160a01b038216611eb85760405162461bcd60e51b815260206004820152602960248201527f4552433732313a2061646472657373207a65726f206973206e6f74206120766160448201527f6c6964206f776e657200000000000000000000000000000000000000000000006064820152608401610cc5565b506001600160a01b03165f9081526005602052604090205490565b5f5f5f5f5f5f606087611efc815f908152600460205260409020546001600160a01b0316151590565b611f195760405163677510db60e11b815260040160405180910390fd5b5f8981526012602052604090208054600182015460028301546003840154600485015460058601546006870180546001600160a01b03968716969095169460ff909316928190611f6890614e11565b80601f0160208091040260200160405190810160405280929190818152602001828054611f9490614e11565b8015611fdf5780601f10611fb657610100808354040283529160200191611fdf565b820191905f5260205f20905b815481529060010190602001808311611fc257829003601f168201915b5050505050905098509850985098509850985098505050919395979092949650565b7f000000000000000000000000000000000000000000000000000000000000000061202b816131dd565b6001600160a01b0382166120525760405163b4fa3fb360e01b815260040160405180910390fd5b50600e80546001600160a01b0319166001600160a01b0392909216919091179055565b61207d61349b565b335f9081526017602052604090205460ff16156120ad57604051632652747360e21b815260040160405180910390fd5b5f8281526004602052604090205482906001600160a01b03166120e35760405163677510db60e11b815260040160405180910390fd5b5f838152601260205260409020336120fa85611a2e565b6001600160a01b031614612120576040516282b42960e81b815260040160405180910390fd5b600481015460ff166121455760405163037eff1360e21b815260040160405180910390fd5b6103e88310156121685760405163b4fa3fb360e01b815260040160405180910390fd5b6003810183905560405183815284907fd9cc159fa79112d02593601db522a6696e6c5c82d9e9ca9332f89ec824935bb0906020015b60405180910390a250505050565b7f00000000000000000000000000000000000000000000000000000000000000006121d5816131dd565b61126d6137db565b6121e561349b565b335f9081526017602052604090205460ff161561221557604051632652747360e21b815260040160405180910390fd5b5f818152601560205260409020600581015460ff1661224757604051634d80826b60e11b815260040160405180910390fd5b336001600160a01b031661225e8260010154611a2e565b6001600160a01b031614612284576040516282b42960e81b815260040160405180910390fd5b60058101805460ff1916905560018101545f908152601b602052604090206122ac9083613818565b5060405182907facb9cd98d41dc8854281172ab2a764d949b62b51776edd911f85376ed2eca64b905f90a25050565b606060038054610bac90614e11565b5f8181526004602052604081205482906001600160a01b03166123205760405163677510db60e11b815260040160405180910390fd5b5f8381526013602052604090205491505b50919050565b61131c338383613823565b61234a61349b565b335f9081526017602052604090205460ff161561237a57604051632652747360e21b815260040160405180910390fd5b5f8381526004602052604090205483906001600160a01b03166123b05760405163677510db60e11b815260040160405180910390fd5b8115806123be575061011882115b156123dc5760405163b4fa3fb360e01b815260040160405180910390fd5b5f6040518060600160405280336001600160a01b0316815260200185858080601f0160208091040260200160405190810160405280939291908181526020018383808284375f92018290525093855250504260209384015250878152601482526040812080546001808201835591835291839020845160039093020180546001600160a01b0319166001600160a01b03909316929092178255918301519293508392909182019061248d9082614f0d565b50604082015181600201555050847fcc2d7dd2085ae6644799a42c0174adf9afc10a43f26db5eac3ddd1f96d1d64be3386866040516124ce93929190615057565b60405180910390a25050505050565b5f6124e661349b565b60035f81905260116020527f9bfbaa59f8e10e7868f8b402de9d605a390c45ddaebd8c9de3c6f31e733c87ff5460ff161561253457604051630df56d4f60e21b815260040160405180910390fd5b335f9081526017602052604090205460ff161561256457604051632652747360e21b815260040160405180910390fd5b84848080601f0160208091040260200160405190810160405280939291908181526020018383808284375f9201829052506040519093506125ab9250849150602001614eb7565b60408051601f1981840301815291815281516020928301205f818152601890935291205490915060ff166125f2576040516347ab1f8160e11b815260040160405180910390fd5b5f8890036126135760405163b4fa3fb360e01b815260040160405180910390fd5b6103e8856001600160601b0316111561263f5760405163c2b03beb60e01b815260040160405180910390fd5b61264d600c80546001019055565b5f612657600c5490565b90505f5f876001600160601b03161161267b576010546001600160601b031661267d565b865b905061268a8233836138f0565b6126943383613a10565b6126d3828c8c8080601f0160208091040260200160405190810160405280939291908181526020018383808284375f92019190915250613a2992505050565b5f82815260196020908152604080832080546001600160a01b031916339081179091558352601a909152902061270990836137d0565b50336001600160a01b0316827f6ba4530d5d6ba1c70cd3ba604c4bb87dcdcd3a32b216cc8e9ee4083db04be5138d8d8d8d60405161274a9493929190615079565b60405180910390a3509998505050505050505050565b61276a33836131e7565b6127cc5760405162461bcd60e51b815260206004820152602d60248201527f4552433732313a2063616c6c6572206973206e6f7420746f6b656e206f776e6560448201526c1c881bdc88185c1c1c9bdd9959609a1b6064820152608401610cc5565b6127d884848484613b02565b50505050565b6127e6613442565b6127ee61349b565b60025f81905260116020527f08037d7b151cc412d25674a4e66b334d9ae9d2e5517a7feaae5cdb828bf1c6285460ff161561283c57604051630df56d4f60e21b815260040160405180910390fd5b335f9081526017602052604090205460ff161561286c57604051632652747360e21b815260040160405180910390fd5b5f828152601560205260409020600581015460ff1661289e57604051634d80826b60e11b815260040160405180910390fd5b806004015442106128c25760405163b4fa3fb360e01b815260040160405180910390fd5b336001600160a01b03166128d98260010154611a2e565b6001600160a01b0316146128ff576040516282b42960e81b815260040160405180910390fd5b600181015460028201546003830154600f546001600160a01b03909216915f9060649061292c9084614e57565b6129369190614e6e565b9050801561295657600e54612954906001600160a01b0316826134f0565b505b5f848152601960205260408120546001600160a01b0316801580159061298557506001600160a01b0381163314155b15612a16575f5f6129968887610e34565b915091508093505f841180156129b457506001600160a01b03821615155b15612a13575f6129c483866134f0565b90508015612a1157826001600160a01b0316897ff670029fc6f5302baba881b4ae845d1453acdf752b4c19ed81fe0fa6a686409b87604051612a0891815260200190565b60405180910390a35b505b50505b5f82612a228587614e8d565b612a2c9190614e8d565b5f8881526012602052604090206004015490915060ff1615612a61575f878152601260205260409020600401805460ff191690555b60058801805460ff19169055612a768761354a565b612a81338789613264565b5f612a8c33836134f0565b905080612aac576040516312171d8360e31b815260040160405180910390fd5b604080513381526001600160a01b038916602082015290810187905288908c907f537afea1137614386dde2e3f3f603a09e8ba6fbcd0a9d59b286a6f7e5fc938489060600160405180910390a35050505050505050505061126d6001600955565b6060610b9782613b80565b7f0000000000000000000000000000000000000000000000000000000000000000612b42816131dd565b612b4a613442565b475f819003612b6c5760405163b4fa3fb360e01b815260040160405180910390fd5b600e546040515f916001600160a01b03169083908381818185875af1925050503d805f8114612bb6576040519150601f19603f3d011682016040523d82523d5f602084013e612bbb565b606091505b5050905080612bdd576040516312171d8360e31b815260040160405180910390fd5b505061126d6001600955565b5f828152600b6020526040902060010154612c03816131dd565b610d6683836136e2565b6001600160a01b0381165f908152601a60205260409020606090610b9790613c82565b7f0000000000000000000000000000000000000000000000000000000000000000612c5a816131dd565b6103e8826001600160601b03161115612c865760405163c2b03beb60e01b815260040160405180910390fd5b50601080546bffffffffffffffffffffffff19166001600160601b0392909216919091179055565b7f0000000000000000000000000000000000000000000000000000000000000000612cd8816131dd565b61131c82613c8e565b612ce961349b565b335f9081526017602052604090205460ff1615612d1957604051632652747360e21b815260040160405180910390fd5b5f8181526004602052604090205481906001600160a01b0316612d4f5760405163677510db60e11b815260040160405180910390fd5b5f82815260126020526040902033612d6684611a2e565b6001600160a01b031614612d8c576040516282b42960e81b815260040160405180910390fd5b600481015460ff16612db15760405163037eff1360e21b815260040160405180910390fd5b60048101805460ff1916905560405183907fe0bba5d0bdeddbcc4ef688b9d8170c81883fb4c4a7065d8970c58b47996dd2d7905f90a2505050565b612df4613442565b612dfc61349b565b5f818152601560205260409020600581015460ff16612e2e57604051634d80826b60e11b815260040160405180910390fd5b60028101546001600160a01b03163314612e5a576040516282b42960e81b815260040160405180910390fd5b600381015460058201805460ff1916905560018201545f908152601b60205260409020612e879084613818565b5060028201545f90612ea2906001600160a01b0316836134f0565b905080612ec2576040516312171d8360e31b815260040160405180910390fd5b60405184907fc28b4aed030bfacc245c0501326e1beb8c0ef0d60e4edc21067fdeb52da2a7aa905f90a250505061126d6001600955565b7f0000000000000000000000000000000000000000000000000000000000000000612f23816131dd565b6001600160a01b0382165f908152601760205260409020805460ff19166001179055610d66601c83613d51565b612f5861349b565b335f9081526017602052604090205460ff1615612f8857604051632652747360e21b815260040160405180910390fd5b5f8281526004602052604090205482906001600160a01b0316612fbe5760405163677510db60e11b815260040160405180910390fd5b5f838152601360205260409020828015612fe95750335f90815260018201602052604090205460ff16155b1561306057335f908152600182810160205260408220805460ff191690911790558154908290613018836150aa565b9091555050805460408051338152602081019290925285917feea8a105c4c7b3434e7353965670d0156bb0797cfa2e136aa6e7bdb22a053b71910160405180910390a26127d8565b8215801561307e5750335f90815260018201602052604090205460ff165b156127d857335f9081526001820160205260408120805460ff1916905581549082906130a9836150c2565b9091555050805460408051338152602081019290925285917f2d91c40ad0ad3d0d104a8013aaac58b5a45744f29824426c711330de63a9404b910161219d565b5f6001600160e01b03198216637965db0b60e01b1480610b975750610b9782613d65565b5f818152600460205260409020546001600160a01b031661126d5760405162461bcd60e51b815260206004820152601860248201527f4552433732313a20696e76616c696420746f6b656e20494400000000000000006044820152606401610cc5565b5f81815260066020526040902080546001600160a01b0319166001600160a01b03841690811790915581906131a482611a2e565b6001600160a01b03167f8c5be1e5ebec7d5bd14f71427d1e84f3dd0314c0f7b2291e5b200ac8c7c3b92560405160405180910390a45050565b61126d8133613d6f565b5f5f6131f283611a2e565b9050806001600160a01b0316846001600160a01b0316148061323857506001600160a01b038082165f9081526007602090815260408083209388168352929052205460ff165b8061325c5750836001600160a01b031661325184610c2d565b6001600160a01b0316145b949350505050565b826001600160a01b031661327782611a2e565b6001600160a01b0316146132db5760405162461bcd60e51b815260206004820152602560248201527f4552433732313a207472616e736665722066726f6d20696e636f72726563742060448201526437bbb732b960d91b6064820152608401610cc5565b6001600160a01b03821661333d5760405162461bcd60e51b8152602060048201526024808201527f4552433732313a207472616e7366657220746f20746865207a65726f206164646044820152637265737360e01b6064820152608401610cc5565b826001600160a01b031661335082611a2e565b6001600160a01b0316146133b45760405162461bcd60e51b815260206004820152602560248201527f4552433732313a207472616e736665722066726f6d20696e636f72726563742060448201526437bbb732b960d91b6064820152608401610cc5565b5f81815260066020908152604080832080546001600160a01b03199081169091556001600160a01b038781168086526005855283862080545f1901905590871680865283862080546001019055868652600490945282852080549092168417909155905184937fddf252ad1be2c89b69c2b068fc378daa952ba7f163c4a11628f55a4df523b3ef91a4505050565b6002600954036134945760405162461bcd60e51b815260206004820152601f60248201527f5265656e7472616e637947756172643a207265656e7472616e742063616c6c006044820152606401610cc5565b6002600955565b600a5460ff16156134ee5760405162461bcd60e51b815260206004820152601060248201527f5061757361626c653a20706175736564000000000000000000000000000000006044820152606401610cc5565b565b5f5f836001600160a01b0316836040515f6040518083038185875af1925050503d805f811461353a576040519150601f19603f3d011682016040523d82523d5f602084013e61353f565b606091505b509095945050505050565b5f818152601b6020526040812061356090613c82565b90505f5b81518110156135f0575f60155f84848151811061358357613583615043565b602002602001015181526020019081526020015f209050806005015f9054906101000a900460ff16156135e75760058101805460ff1916905580546040517facb9cd98d41dc8854281172ab2a764d949b62b51776edd911f85376ed2eca64b905f90a25b50600101613564565b505b5f828152601b6020526040812061360890613de3565b111561131c575f828152601b6020526040812061363c916136299190613dec565b5f848152601b6020526040902090613818565b506135f2565b5f828152600b602090815260408083206001600160a01b038516845290915290205460ff1661131c575f828152600b602090815260408083206001600160a01b03851684529091529020805460ff1916600117905561369e3390565b6001600160a01b0316816001600160a01b0316837f2f8788117e7eff1d82e926ec794901d17c78024a50270940304540a733656f0d60405160405180910390a45050565b5f828152600b602090815260408083206001600160a01b038516845290915290205460ff161561131c575f828152600b602090815260408083206001600160a01b0385168085529252808320805460ff1916905551339285917ff6391f5c32d9c69d2a47ea670b442974b53935d1edc7fd64eb21e047a839171b9190a45050565b61376b613df7565b600a805460ff191690557f5db9ee0a495bf2e6ff9c91a7834c1ba4fdd244a5e8aa4e537bd38aeae4b073aa335b6040516001600160a01b03909116815260200160405180910390a1565b5f6137c9836001600160a01b038416613e49565b9392505050565b5f6137c98383613f2c565b6137e361349b565b600a805460ff191660011790557f62e78cea01bee320cd4e420270b5ea74000d11b0c9f74754ebdbfc544b05a2586137983390565b5f6137c98383613e49565b816001600160a01b0316836001600160a01b0316036138845760405162461bcd60e51b815260206004820152601960248201527f4552433732313a20617070726f766520746f2063616c6c6572000000000000006044820152606401610cc5565b6001600160a01b038381165f81815260076020908152604080832094871680845294825291829020805460ff191686151590811790915591519182527f17307eab39ab6107e8899845ad3d59bd9653f200f220920489ca2b5937696c31910160405180910390a3505050565b6127106001600160601b03821611156139715760405162461bcd60e51b815260206004820152602a60248201527f455243323938313a20726f79616c7479206665652077696c6c2065786365656460448201527f2073616c655072696365000000000000000000000000000000000000000000006064820152608401610cc5565b6001600160a01b0382166139c75760405162461bcd60e51b815260206004820152601b60248201527f455243323938313a20496e76616c696420706172616d657465727300000000006044820152606401610cc5565b6040805180820182526001600160a01b0393841681526001600160601b0392831660208083019182525f968752600190529190942093519051909116600160a01b029116179055565b61131c828260405180602001604052805f815250613f78565b5f828152600460205260409020546001600160a01b0316613ab25760405162461bcd60e51b815260206004820152602e60248201527f45524337323155524953746f726167653a2055524920736574206f66206e6f6e60448201527f6578697374656e7420746f6b656e0000000000000000000000000000000000006064820152608401610cc5565b5f828152600860205260409020613ac98282614f0d565b506040518281527ff8e1a15aba9398e019f0b49df1a4fde98ee17ae345cb5f6b5e2c27f5033e8ce7906020015b60405180910390a15050565b613b0d848484613264565b613b1984848484613ff5565b6127d85760405162461bcd60e51b815260206004820152603260248201527f4552433732313a207472616e7366657220746f206e6f6e20455243373231526560448201527131b2b4bb32b91034b6b83632b6b2b73a32b960711b6064820152608401610cc5565b6060613b8b8261310d565b5f8281526008602052604081208054613ba390614e11565b80601f0160208091040260200160405190810160405280929190818152602001828054613bcf90614e11565b8015613c1a5780601f10613bf157610100808354040283529160200191613c1a565b820191905f5260205f20905b815481529060010190602001808311613bfd57829003601f168201915b505050505090505f613c3660408051602081019091525f815290565b905080515f03613c47575092915050565b815115613c79578082604051602001613c619291906150d7565b60405160208183030381529060405292505050919050565b61325c8461413d565b60605f6137c9836141ac565b80515f03613caf5760405163b4fa3fb360e01b815260040160405180910390fd5b5f81604051602001613cc19190614eb7565b60408051601f1981840301815291815281516020928301205f818152601890935291205490915060ff1615613d095760405163b4fa3fb360e01b815260040160405180910390fd5b5f8181526018602052604090819020805460ff19166001179055517f3735abe6d37d9ef031373b241641b39aa1b4bd92a1123b14abe463f461ac5dca90613af69084906147c1565b5f6137c9836001600160a01b038416613f2c565b5f610b9782614205565b5f828152600b602090815260408083206001600160a01b038516845290915290205460ff1661131c57613da181614229565b613dac83602061423b565b604051602001613dbd9291906150eb565b60408051601f198184030181529082905262461bcd60e51b8252610cc5916004016147c1565b5f610b97825490565b5f6137c983836143d1565b600a5460ff166134ee5760405162461bcd60e51b815260206004820152601460248201527f5061757361626c653a206e6f74207061757365640000000000000000000000006044820152606401610cc5565b5f8181526001830160205260408120548015613f23575f613e6b600183614e8d565b85549091505f90613e7e90600190614e8d565b9050818114613edd575f865f018281548110613e9c57613e9c615043565b905f5260205f200154905080875f018481548110613ebc57613ebc615043565b5f918252602080832090910192909255918252600188019052604090208390555b8554869080613eee57613eee61514c565b600190038181905f5260205f20015f90559055856001015f8681526020019081526020015f205f905560019350505050610b97565b5f915050610b97565b5f818152600183016020526040812054613f7157508154600181810184555f848152602080822090930184905584548482528286019093526040902091909155610b97565b505f610b97565b613f8283836143f7565b613f8e5f848484613ff5565b610d665760405162461bcd60e51b815260206004820152603260248201527f4552433732313a207472616e7366657220746f206e6f6e20455243373231526560448201527131b2b4bb32b91034b6b83632b6b2b73a32b960711b6064820152608401610cc5565b5f6001600160a01b0384163b1561413257604051630a85bd0160e11b81526001600160a01b0385169063150b7a0290614038903390899088908890600401615160565b6020604051808303815f875af1925050508015614072575060408051601f3d908101601f1916820190925261406f918101906151a0565b60015b614118573d80801561409f576040519150601f19603f3d011682016040523d82523d5f602084013e6140a4565b606091505b5080515f036141105760405162461bcd60e51b815260206004820152603260248201527f4552433732313a207472616e7366657220746f206e6f6e20455243373231526560448201527131b2b4bb32b91034b6b83632b6b2b73a32b960711b6064820152608401610cc5565b805181602001fd5b6001600160e01b031916630a85bd0160e11b14905061325c565b506001949350505050565b60606141488261310d565b5f61415d60408051602081019091525f815290565b90505f81511161417b5760405180602001604052805f8152506137c9565b806141858461457f565b6040516020016141969291906150d7565b6040516020818303038152906040529392505050565b6060815f018054806020026020016040519081016040528092919081815260200182805480156141f957602002820191905f5260205f20905b8154815260200190600101908083116141e5575b50505050509050919050565b5f6001600160e01b03198216632483248360e11b1480610b975750610b978261460f565b6060610b976001600160a01b03831660145b60605f614249836002614e57565b614254906002615030565b67ffffffffffffffff81111561426c5761426c614c4e565b6040519080825280601f01601f191660200182016040528015614296576020820181803683370190505b509050600360fc1b815f815181106142b0576142b0615043565b60200101906001600160f81b03191690815f1a905350600f60fb1b816001815181106142de576142de615043565b60200101906001600160f81b03191690815f1a9053505f614300846002614e57565b61430b906001615030565b90505b6001811115614382576f181899199a1a9b1b9c1cb0b131b232b360811b85600f166010811061433f5761433f615043565b1a60f81b82828151811061435557614355615043565b60200101906001600160f81b03191690815f1a90535060049490941c9361437b816150c2565b905061430e565b5083156137c95760405162461bcd60e51b815260206004820181905260248201527f537472696e67733a20686578206c656e67746820696e73756666696369656e746044820152606401610cc5565b5f825f0182815481106143e6576143e6615043565b905f5260205f200154905092915050565b6001600160a01b03821661444d5760405162461bcd60e51b815260206004820181905260248201527f4552433732313a206d696e7420746f20746865207a65726f20616464726573736044820152606401610cc5565b5f818152600460205260409020546001600160a01b0316156144b15760405162461bcd60e51b815260206004820152601c60248201527f4552433732313a20746f6b656e20616c7265616479206d696e746564000000006044820152606401610cc5565b5f818152600460205260409020546001600160a01b0316156145155760405162461bcd60e51b815260206004820152601c60248201527f4552433732313a20746f6b656e20616c7265616479206d696e746564000000006044820152606401610cc5565b6001600160a01b0382165f81815260056020908152604080832080546001019055848352600490915280822080546001600160a01b0319168417905551839291907fddf252ad1be2c89b69c2b068fc378daa952ba7f163c4a11628f55a4df523b3ef908290a45050565b60605f61458b8361464e565b60010190505f8167ffffffffffffffff8111156145aa576145aa614c4e565b6040519080825280601f01601f1916602001820160405280156145d4576020820181803683370190505b5090508181016020015b5f19016f181899199a1a9b1b9c1cb0b131b232b360811b600a86061a8153600a85049450846145de57509392505050565b5f6001600160e01b031982166380ac58cd60e01b148061463f57506001600160e01b03198216635b5e139f60e01b145b80610b975750610b978261472f565b5f807a184f03e93ff9f4daa797ed6e38ed64bf6a1f0100000000000000008310614696577a184f03e93ff9f4daa797ed6e38ed64bf6a1f010000000000000000830492506040015b6d04ee2d6d415b85acef810000000083106146c2576d04ee2d6d415b85acef8100000000830492506020015b662386f26fc1000083106146e057662386f26fc10000830492506010015b6305f5e10083106146f8576305f5e100830492506008015b612710831061470c57612710830492506004015b6064831061471e576064830492506002015b600a8310610b975760010192915050565b5f6001600160e01b0319821663152a902d60e11b1480610b9757506301ffc9a760e01b6001600160e01b0319831614610b97565b6001600160e01b03198116811461126d575f5ffd5b5f60208284031215614788575f5ffd5b81356137c981614763565b5f81518084528060208401602086015e5f602082860101526020601f19601f83011685010191505092915050565b602081525f6137c96020830184614793565b5f602082840312156147e3575f5ffd5b5035919050565b6001600160a01b038116811461126d575f5ffd5b5f5f6040838503121561480f575f5ffd5b823561481a816147ea565b946020939093013593505050565b5f5f5f6060848603121561483a575f5ffd5b8335614845816147ea565b92506020840135614855816147ea565b929592945050506040919091013590565b5f5f60408385031215614877575f5ffd5b50508035926020909101359150565b5f5f60408385031215614897575f5ffd5b8235915060208301356148a9816147ea565b809150509250929050565b803560ff811681146148c4575f5ffd5b919050565b803580151581146148c4575f5ffd5b5f5f604083850312156148e9575f5ffd5b6148f2836148b4565b9150614900602084016148c9565b90509250929050565b5f60208284031215614919575f5ffd5b81356137c9816147ea565b5f5f83601f840112614934575f5ffd5b50813567ffffffffffffffff81111561494b575f5ffd5b602083019150836020828501011115610ed8575f5ffd5b5f5f5f5f60608587031215614975575f5ffd5b8435935060208501359250604085013567ffffffffffffffff811115614999575f5ffd5b6149a587828801614924565b95989497509550505050565b5f5f604083850312156149c2575f5ffd5b82359150614900602084016148b4565b5f5f5f606084860312156149e4575f5ffd5b505081359360208301359350604090920135919050565b5f8151808452602084019350602083015f5b82811015614a2b578151865260209586019590910190600101614a0d565b5093949350505050565b606080825284519082018190525f9060208601906080840190835b81811015614a775783516001600160a01b0316835260209384019390920191600101614a50565b50508381036020850152809150855180825260208201925060208160051b830101602088015f5b83811015614ad057601f19858403018652614aba838351614793565b6020968701969093509190910190600101614a9e565b50508581036040870152614ae481886149fb565b9998505050505050505050565b8781526001600160a01b03871660208201526001600160a01b038616604082015284606082015283151560808201528260a082015260e060c08201525f614ae460e0830184614793565b5f5f60408385031215614b4c575f5ffd5b82356148f2816147ea565b5f5f5f60408486031215614b69575f5ffd5b83359250602084013567ffffffffffffffff811115614b86575f5ffd5b614b9286828701614924565b9497909650939450505050565b80356001600160601b03811681146148c4575f5ffd5b5f5f5f5f5f60608688031215614bc9575f5ffd5b853567ffffffffffffffff811115614bdf575f5ffd5b614beb88828901614924565b909650945050602086013567ffffffffffffffff811115614c0a575f5ffd5b614c1688828901614924565b9094509250614c29905060408701614b9f565b90509295509295909350565b5f60208284031215614c45575f5ffd5b6137c9826148b4565b634e487b7160e01b5f52604160045260245ffd5b5f5f67ffffffffffffffff841115614c7c57614c7c614c4e565b50604051601f19601f85018116603f0116810181811067ffffffffffffffff82111715614cab57614cab614c4e565b604052838152905080828401851015614cc2575f5ffd5b838360208301375f60208583010152509392505050565b5f5f5f5f60808587031215614cec575f5ffd5b8435614cf7816147ea565b93506020850135614d07816147ea565b925060408501359150606085013567ffffffffffffffff811115614d29575f5ffd5b8501601f81018713614d39575f5ffd5b614d4887823560208401614c62565b91505092959194509250565b602081525f6137c960208301846149fb565b5f60208284031215614d76575f5ffd5b6137c982614b9f565b5f60208284031215614d8f575f5ffd5b813567ffffffffffffffff811115614da5575f5ffd5b8201601f81018413614db5575f5ffd5b61325c84823560208401614c62565b5f5f60408385031215614dd5575f5ffd5b8235614de0816147ea565b915060208301356148a9816147ea565b5f5f60408385031215614e01575f5ffd5b82359150614900602084016148c9565b600181811c90821680614e2557607f821691505b60208210810361233157634e487b7160e01b5f52602260045260245ffd5b634e487b7160e01b5f52601160045260245ffd5b8082028115828204841417610b9757610b97614e43565b5f82614e8857634e487b7160e01b5f52601260045260245ffd5b500490565b81810381811115610b9757610b97614e43565b5f81518060208401855e5f93019283525090919050565b5f6137c98284614ea0565b601f821115610d6657805f5260205f20601f840160051c81016020851015614ee75750805b601f840160051c820191505b81811015614f06575f8155600101614ef3565b5050505050565b815167ffffffffffffffff811115614f2757614f27614c4e565b614f3b81614f358454614e11565b84614ec2565b6020601f821160018114614f6d575f8315614f565750848201515b5f19600385901b1c1916600184901b178455614f06565b5f84815260208120601f198516915b82811015614f9c5787850151825560209485019460019092019101614f7c565b5084821015614fb957868401515f19600387901b60f8161c191681555b50505050600190811b01905550565b81835281816020850137505f828201602090810191909152601f909101601f19169091010190565b838152604060208201525f615009604083018486614fc8565b95945050505050565b62ffffff818116838216029081169081811461142757611427614e43565b80820180821115610b9757610b97614e43565b634e487b7160e01b5f52603260045260245ffd5b6001600160a01b0384168152604060208201525f615009604083018486614fc8565b604081525f61508c604083018688614fc8565b828103602084015261509f818587614fc8565b979650505050505050565b5f600182016150bb576150bb614e43565b5060010190565b5f816150d0576150d0614e43565b505f190190565b5f61325c6150e58386614ea0565b84614ea0565b7f416363657373436f6e74726f6c3a206163636f756e742000000000000000000081525f61511c6017830185614ea0565b7f206973206d697373696e6720726f6c652000000000000000000000000000000081526150096011820185614ea0565b634e487b7160e01b5f52603160045260245ffd5b6001600160a01b03851681526001600160a01b0384166020820152826040820152608060608201525f6151966080830184614793565b9695505050505050565b5f602082840312156151b0575f5ffd5b81516137c98161476356fea2646970667358221220a814b763bdf540d7bb3cadc03f5a929a3f880e6777fb6a4ef2f8b153b41fc25a64736f6c634300081e0033",
  "linkReferences": {},
  "deployedLinkReferences": {}
}