{
  "_format": "hh-sol-artifact-1",
  "contractName": "SmartStaking",
  "sourceName": "contracts/SmartStaking.sol",
  "abi": [
    {
      "inputs": [
        {
          "internalType": "address",
          "name": "_treasury",
          "type": "address"
        }
      ],
      "stateMutability": "nonpayable",
      "type": "constructor"
    },
    {
      "inputs": [],
      "name": "AlreadyMigrated",
      "type": "error"
    },
    {
      "inputs": [],
      "name": "ContractIsMigrated",
      "type": "error"
    },
    {
      "inputs": [
        {
          "internalType": "uint256",
          "name": "provided",
          "type": "uint256"
        },
        {
          "internalType": "uint256",
          "name": "maximum",
          "type": "uint256"
        }
      ],
      "name": "DepositTooHigh",
      "type": "error"
    },
    {
      "inputs": [
        {
          "internalType": "uint256",
          "name": "provided",
          "type": "uint256"
        },
        {
          "internalType": "uint256",
          "name": "minimum",
          "type": "uint256"
        }
      ],
      "name": "DepositTooLow",
      "type": "error"
    },
    {
      "inputs": [],
      "name": "InsufficientBalance",
      "type": "error"
    },
    {
      "inputs": [],
      "name": "InvalidAddress",
      "type": "error"
    },
    {
      "inputs": [
        {
          "internalType": "address",
          "name": "user",
          "type": "address"
        },
        {
          "internalType": "uint16",
          "name": "maxDeposits",
          "type": "uint16"
        }
      ],
      "name": "MaxDepositsReached",
      "type": "error"
    },
    {
      "inputs": [],
      "name": "NoDepositsFound",
      "type": "error"
    },
    {
      "inputs": [],
      "name": "NoPendingCommission",
      "type": "error"
    },
    {
      "inputs": [],
      "name": "NoRewardsAvailable",
      "type": "error"
    },
    {
      "inputs": [],
      "name": "UnauthorizedSender",
      "type": "error"
    },
    {
      "anonymous": false,
      "inputs": [
        {
          "indexed": false,
          "internalType": "uint256",
          "name": "amount",
          "type": "uint256"
        },
        {
          "indexed": true,
          "internalType": "uint256",
          "name": "timestamp",
          "type": "uint256"
        }
      ],
      "name": "BalanceAdded",
      "type": "event"
    },
    {
      "anonymous": false,
      "inputs": [
        {
          "indexed": true,
          "internalType": "address",
          "name": "receiver",
          "type": "address"
        },
        {
          "indexed": false,
          "internalType": "uint256",
          "name": "amount",
          "type": "uint256"
        },
        {
          "indexed": true,
          "internalType": "uint256",
          "name": "timestamp",
          "type": "uint256"
        }
      ],
      "name": "CommissionPaid",
      "type": "event"
    },
    {
      "anonymous": false,
      "inputs": [
        {
          "indexed": true,
          "internalType": "address",
          "name": "newContract",
          "type": "address"
        },
        {
          "indexed": true,
          "internalType": "uint256",
          "name": "timestamp",
          "type": "uint256"
        }
      ],
      "name": "ContractMigrated",
      "type": "event"
    },
    {
      "anonymous": false,
      "inputs": [
        {
          "indexed": true,
          "internalType": "address",
          "name": "owner",
          "type": "address"
        },
        {
          "indexed": true,
          "internalType": "uint256",
          "name": "timestamp",
          "type": "uint256"
        }
      ],
      "name": "ContractPaused",
      "type": "event"
    },
    {
      "anonymous": false,
      "inputs": [
        {
          "indexed": true,
          "internalType": "address",
          "name": "owner",
          "type": "address"
        },
        {
          "indexed": true,
          "internalType": "uint256",
          "name": "timestamp",
          "type": "uint256"
        }
      ],
      "name": "ContractUnpaused",
      "type": "event"
    },
    {
      "anonymous": false,
      "inputs": [
        {
          "indexed": true,
          "internalType": "address",
          "name": "user",
          "type": "address"
        },
        {
          "indexed": true,
          "internalType": "uint256",
          "name": "depositId",
          "type": "uint256"
        },
        {
          "indexed": false,
          "internalType": "uint256",
          "name": "amount",
          "type": "uint256"
        },
        {
          "indexed": false,
          "internalType": "uint256",
          "name": "commission",
          "type": "uint256"
        },
        {
          "indexed": true,
          "internalType": "uint256",
          "name": "timestamp",
          "type": "uint256"
        }
      ],
      "name": "DepositMade",
      "type": "event"
    },
    {
      "anonymous": false,
      "inputs": [
        {
          "indexed": true,
          "internalType": "address",
          "name": "owner",
          "type": "address"
        },
        {
          "indexed": true,
          "internalType": "address",
          "name": "to",
          "type": "address"
        },
        {
          "indexed": false,
          "internalType": "uint256",
          "name": "amount",
          "type": "uint256"
        },
        {
          "indexed": true,
          "internalType": "uint256",
          "name": "timestamp",
          "type": "uint256"
        }
      ],
      "name": "EmergencyWithdrawOwner",
      "type": "event"
    },
    {
      "anonymous": false,
      "inputs": [
        {
          "indexed": true,
          "internalType": "address",
          "name": "user",
          "type": "address"
        },
        {
          "indexed": false,
          "internalType": "uint256",
          "name": "amount",
          "type": "uint256"
        },
        {
          "indexed": true,
          "internalType": "uint256",
          "name": "timestamp",
          "type": "uint256"
        }
      ],
      "name": "EmergencyWithdrawUser",
      "type": "event"
    },
    {
      "anonymous": false,
      "inputs": [
        {
          "indexed": true,
          "internalType": "address",
          "name": "previousOwner",
          "type": "address"
        },
        {
          "indexed": true,
          "internalType": "address",
          "name": "newOwner",
          "type": "address"
        }
      ],
      "name": "OwnershipTransferred",
      "type": "event"
    },
    {
      "anonymous": false,
      "inputs": [
        {
          "indexed": false,
          "internalType": "address",
          "name": "account",
          "type": "address"
        }
      ],
      "name": "Paused",
      "type": "event"
    },
    {
      "anonymous": false,
      "inputs": [
        {
          "indexed": true,
          "internalType": "address",
          "name": "previousTreasury",
          "type": "address"
        },
        {
          "indexed": true,
          "internalType": "address",
          "name": "newTreasury",
          "type": "address"
        },
        {
          "indexed": true,
          "internalType": "uint256",
          "name": "timestamp",
          "type": "uint256"
        }
      ],
      "name": "TreasuryAddressChanged",
      "type": "event"
    },
    {
      "anonymous": false,
      "inputs": [
        {
          "indexed": false,
          "internalType": "address",
          "name": "account",
          "type": "address"
        }
      ],
      "name": "Unpaused",
      "type": "event"
    },
    {
      "anonymous": false,
      "inputs": [
        {
          "indexed": true,
          "internalType": "address",
          "name": "user",
          "type": "address"
        },
        {
          "indexed": false,
          "internalType": "uint256",
          "name": "amount",
          "type": "uint256"
        },
        {
          "indexed": false,
          "internalType": "uint256",
          "name": "commission",
          "type": "uint256"
        },
        {
          "indexed": true,
          "internalType": "uint256",
          "name": "timestamp",
          "type": "uint256"
        }
      ],
      "name": "WithdrawalMade",
      "type": "event"
    },
    {
      "inputs": [],
      "name": "addBalance",
      "outputs": [],
      "stateMutability": "payable",
      "type": "function"
    },
    {
      "inputs": [
        {
          "internalType": "address",
          "name": "userAddress",
          "type": "address"
        }
      ],
      "name": "calculateRewards",
      "outputs": [
        {
          "internalType": "uint256",
          "name": "totalRewards",
          "type": "uint256"
        }
      ],
      "stateMutability": "view",
      "type": "function"
    },
    {
      "inputs": [
        {
          "internalType": "address",
          "name": "_newTreasury",
          "type": "address"
        }
      ],
      "name": "changeTreasuryAddress",
      "outputs": [],
      "stateMutability": "nonpayable",
      "type": "function"
    },
    {
      "inputs": [],
      "name": "deposit",
      "outputs": [],
      "stateMutability": "payable",
      "type": "function"
    },
    {
      "inputs": [],
      "name": "emergencyUserWithdraw",
      "outputs": [],
      "stateMutability": "nonpayable",
      "type": "function"
    },
    {
      "inputs": [
        {
          "internalType": "address",
          "name": "to",
          "type": "address"
        }
      ],
      "name": "emergencyWithdraw",
      "outputs": [],
      "stateMutability": "nonpayable",
      "type": "function"
    },
    {
      "inputs": [],
      "name": "getContractBalance",
      "outputs": [
        {
          "internalType": "uint256",
          "name": "",
          "type": "uint256"
        }
      ],
      "stateMutability": "view",
      "type": "function"
    },
    {
      "inputs": [],
      "name": "getContractVersion",
      "outputs": [
        {
          "internalType": "uint256",
          "name": "",
          "type": "uint256"
        }
      ],
      "stateMutability": "pure",
      "type": "function"
    },
    {
      "inputs": [
        {
          "internalType": "address",
          "name": "userAddress",
          "type": "address"
        }
      ],
      "name": "getTotalDeposit",
      "outputs": [
        {
          "internalType": "uint256",
          "name": "",
          "type": "uint256"
        }
      ],
      "stateMutability": "view",
      "type": "function"
    },
    {
      "inputs": [
        {
          "internalType": "address",
          "name": "userAddress",
          "type": "address"
        }
      ],
      "name": "getUserDeposits",
      "outputs": [
        {
          "components": [
            {
              "internalType": "uint128",
              "name": "amount",
              "type": "uint128"
            },
            {
              "internalType": "uint64",
              "name": "timestamp",
              "type": "uint64"
            },
            {
              "internalType": "uint64",
              "name": "lastClaimTime",
              "type": "uint64"
            }
          ],
          "internalType": "struct SmartStaking.Deposit[]",
          "name": "",
          "type": "tuple[]"
        }
      ],
      "stateMutability": "view",
      "type": "function"
    },
    {
      "inputs": [
        {
          "internalType": "address",
          "name": "userAddress",
          "type": "address"
        }
      ],
      "name": "getUserInfo",
      "outputs": [
        {
          "components": [
            {
              "internalType": "uint256",
              "name": "totalDeposited",
              "type": "uint256"
            },
            {
              "internalType": "uint256",
              "name": "pendingRewards",
              "type": "uint256"
            },
            {
              "internalType": "uint256",
              "name": "lastWithdraw",
              "type": "uint256"
            }
          ],
          "internalType": "struct SmartStaking.UserInfo",
          "name": "",
          "type": "tuple"
        }
      ],
      "stateMutability": "view",
      "type": "function"
    },
    {
      "inputs": [
        {
          "internalType": "address",
          "name": "_newContractAddress",
          "type": "address"
        }
      ],
      "name": "migrateToNewContract",
      "outputs": [],
      "stateMutability": "nonpayable",
      "type": "function"
    },
    {
      "inputs": [],
      "name": "migrated",
      "outputs": [
        {
          "internalType": "bool",
          "name": "",
          "type": "bool"
        }
      ],
      "stateMutability": "view",
      "type": "function"
    },
    {
      "inputs": [],
      "name": "newContractAddress",
      "outputs": [
        {
          "internalType": "address",
          "name": "",
          "type": "address"
        }
      ],
      "stateMutability": "view",
      "type": "function"
    },
    {
      "inputs": [],
      "name": "owner",
      "outputs": [
        {
          "internalType": "address",
          "name": "",
          "type": "address"
        }
      ],
      "stateMutability": "view",
      "type": "function"
    },
    {
      "inputs": [],
      "name": "pause",
      "outputs": [],
      "stateMutability": "nonpayable",
      "type": "function"
    },
    {
      "inputs": [],
      "name": "paused",
      "outputs": [
        {
          "internalType": "bool",
          "name": "",
          "type": "bool"
        }
      ],
      "stateMutability": "view",
      "type": "function"
    },
    {
      "inputs": [],
      "name": "pendingCommission",
      "outputs": [
        {
          "internalType": "uint256",
          "name": "",
          "type": "uint256"
        }
      ],
      "stateMutability": "view",
      "type": "function"
    },
    {
      "inputs": [],
      "name": "renounceOwnership",
      "outputs": [],
      "stateMutability": "nonpayable",
      "type": "function"
    },
    {
      "inputs": [],
      "name": "totalPoolBalance",
      "outputs": [
        {
          "internalType": "uint256",
          "name": "",
          "type": "uint256"
        }
      ],
      "stateMutability": "view",
      "type": "function"
    },
    {
      "inputs": [
        {
          "internalType": "address",
          "name": "newOwner",
          "type": "address"
        }
      ],
      "name": "transferOwnership",
      "outputs": [],
      "stateMutability": "nonpayable",
      "type": "function"
    },
    {
      "inputs": [],
      "name": "treasury",
      "outputs": [
        {
          "internalType": "address",
          "name": "",
          "type": "address"
        }
      ],
      "stateMutability": "view",
      "type": "function"
    },
    {
      "inputs": [],
      "name": "uniqueUsersCount",
      "outputs": [
        {
          "internalType": "uint256",
          "name": "",
          "type": "uint256"
        }
      ],
      "stateMutability": "view",
      "type": "function"
    },
    {
      "inputs": [],
      "name": "unpause",
      "outputs": [],
      "stateMutability": "nonpayable",
      "type": "function"
    },
    {
      "inputs": [],
      "name": "withdraw",
      "outputs": [],
      "stateMutability": "nonpayable",
      "type": "function"
    },
    {
      "inputs": [],
      "name": "withdrawAll",
      "outputs": [],
      "stateMutability": "nonpayable",
      "type": "function"
    },
    {
      "inputs": [],
      "name": "withdrawPendingCommission",
      "outputs": [],
      "stateMutability": "nonpayable",
      "type": "function"
    },
    {
      "stateMutability": "payable",
      "type": "receive"
    }
  ],
  "bytecode": "0x608060405234801561000f575f5ffd5b50604051611a6f380380611a6f83398101604081905261002e916100e4565b61003733610095565b5f805460ff60a01b1916905560018055806001600160a01b03811661006f5760405163e6c4247b60e01b815260040160405180910390fd5b50600280546001600160a01b0319166001600160a01b0392909216919091179055610111565b5f80546001600160a01b038381166001600160a01b0319831681178455604051919092169283917f8be0079c531659141344cd1fd0a4f28419497f9722a3daafe3b4186f6b6457e09190a35050565b5f602082840312156100f4575f5ffd5b81516001600160a01b038116811461010a575f5ffd5b9392505050565b6119518061011e5f395ff3fe6080604052600436106101a7575f3560e01c80638456cb59116100e7578063b8362bc711610087578063f01daef111610062578063f01daef11461048d578063f2fde38b146104a2578063fe0f869f146104c1578063fe1e05b5146104d5575f5ffd5b8063b8362bc71461045c578063c9f8234f14610470578063d0e30db014610485575f5ffd5b80638aa10435116100c25780638aa10435146104065780638da5cb5b14610419578063a6f353f014610435578063b163cc3814610454575f5ffd5b80638456cb591461039e578063853828b6146103b2578063857184d1146103c6575f5ffd5b806361d027b3116101525780636af04a571161012d5780636af04a571461033a5780636f9fb98a146103595780636ff1c9bc1461036b578063715018a61461038a575f5ffd5b806361d027b3146102a35780636386c1c7146102da57806364ab86751461031b575f5ffd5b80633f4ba83a116101825780633f4ba83a1461024f5780635026d63e146102635780635c975abb14610286575f5ffd5b80632a5bf6d2146101dd5780632c678c64146102125780633ccfd60b1461023b575f5ffd5b366101d9576002546001600160a01b031633146101d757604051630101292160e31b815260040160405180910390fd5b005b5f5ffd5b3480156101e8575f5ffd5b506101fc6101f73660046117ca565b6104f4565b60405161020991906117f7565b60405180910390f35b34801561021d575f5ffd5b5060075461022b9060ff1681565b6040519015158152602001610209565b348015610246575f5ffd5b506101d76105b9565b34801561025a575f5ffd5b506101d7610782565b34801561026e575f5ffd5b5061027860045481565b604051908152602001610209565b348015610291575f5ffd5b505f54600160a01b900460ff1661022b565b3480156102ae575f5ffd5b506002546102c2906001600160a01b031681565b6040516001600160a01b039091168152602001610209565b3480156102e5575f5ffd5b506102f96102f43660046117ca565b6107c0565b6040805182518152602080840151908201529181015190820152606001610209565b348015610326575f5ffd5b506102786103353660046117ca565b61084b565b348015610345575f5ffd5b506003546102c2906001600160a01b031681565b348015610364575f5ffd5b5047610278565b348015610376575f5ffd5b506101d76103853660046117ca565b6109b5565b348015610395575f5ffd5b506101d7610a54565b3480156103a9575f5ffd5b506101d7610a65565b3480156103bd575f5ffd5b506101d7610aa3565b3480156103d1575f5ffd5b506102786103e03660046117ca565b6001600160a01b03165f908152600860205260409020600101546001600160801b031690565b348015610411575f5ffd5b506003610278565b348015610424575f5ffd5b505f546001600160a01b03166102c2565b348015610440575f5ffd5b506101d761044f3660046117ca565b610c8f565b6101d7610d1f565b348015610467575f5ffd5b506101d7610da2565b34801561047b575f5ffd5b5061027860065481565b6101d7610e90565b348015610498575f5ffd5b5061027860055481565b3480156104ad575f5ffd5b506101d76104bc3660046117ca565b6110f2565b3480156104cc575f5ffd5b506101d7611182565b3480156104e0575f5ffd5b506101d76104ef3660046117ca565b611272565b6060816001600160a01b03811661051e5760405163e6c4247b60e01b815260040160405180910390fd5b6001600160a01b0383165f90815260086020908152604080832080548251818502810185019093528083529193909284015b828210156105ad575f84815260209081902060408051606081018252918501546001600160801b038116835267ffffffffffffffff600160801b8204811684860152600160c01b9091041690820152825260019092019101610550565b50505050915050919050565b6105c161132d565b6105c9611386565b60075460ff16156105ed5760405163f2bcabb960e01b815260040160405180910390fd5b5f6105f73361084b565b9050805f036106195760405163afb0be3360e01b815260040160405180910390fd5b5f61271061062961025884611886565b61063391906118a3565b90505f61064082846118c2565b905061064c82826118d5565b47101561066c57604051631e9acf1760e31b815260040160405180910390fd5b335f9081526008602052604081209042905b82548110156106e55781835f01828154811061069c5761069c6118e8565b5f918252602090912001805467ffffffffffffffff92909216600160c01b0277ffffffffffffffffffffffffffffffffffffffffffffffff90921691909117905560010161067e565b506001820180547fffffffffffffffff0000000000000000ffffffffffffffffffffffffffffffff16600160801b67ffffffffffffffff84160217905561072b846113df565b610735338461148c565b6040805184815260208101869052429133917fa7b927747255bae4c9b535ee84804707f42b787d2a0c4a461f0c3a77f91ea82c910160405180910390a3505050505061078060018055565b565b61078a6115a6565b6107926115ff565b604051429033907f107553d8191d85b405879cf752997865edd48d94e20bda4dd27223c94b31a7cc905f90a3565b6107e160405180606001604052805f81526020015f81526020015f81525090565b6001600160a01b0382165f9081526008602090815260409182902082516060810190935260018101546001600160801b03168352919081016108228561084b565b815260019092015467ffffffffffffffff600160801b9091041660209092019190915292915050565b6001600160a01b0381165f908152600860205260408120805480830361087457505f9392505050565b5f5b818110156109ad575f835f018281548110610893576108936118e8565b5f91825260208220018054909250610e10906108c090600160c01b900467ffffffffffffffff16426118c2565b6108ca91906118a3565b905080156109a35781545f90620f42409083906108f2906064906001600160801b0316611886565b6108fc9190611886565b61090691906118a3565b83549091505f9061271090610927906130d4906001600160801b0316611886565b61093191906118a3565b90508082111561093f578091505b83545f906109679061096290600160801b900467ffffffffffffffff16426118c2565b611653565b905080156109935761271061097c8285611886565b61098691906118a3565b61099090846118d5565b92505b61099d838a6118d5565b98505050505b5050600101610876565b505050919050565b6109bd6115a6565b6109c56116a6565b806001600160a01b0381166109ed5760405163e6c4247b60e01b815260040160405180910390fd5b47610a016001600160a01b0384168261148c565b42836001600160a01b0316336001600160a01b03167fa9936b0b3bd9c38a0b53648f98d600d5e84f608f58aab150ade90176579b271b84604051610a4791815260200190565b60405180910390a4505050565b610a5c6115a6565b6107805f6116fe565b610a6d6115a6565b610a7561175a565b604051429033907f80170b5fcdd2bf1e0660ef4b8851f86685f64d41b1a19de1471947ece8725aac905f90a3565b610aab61132d565b610ab3611386565b60075460ff1615610ad75760405163f2bcabb960e01b815260040160405180910390fd5b335f908152600860205260408120600181015490916001600160801b039091169003610b1657604051636f16c5e960e11b815260040160405180910390fd5b5f610b203361084b565b60018301549091506001600160801b03165f8215610b6a57612710610b4761025885611886565b610b5191906118a3565b9050610b5d81846118c2565b610b6790836118d5565b91505b610b7481836118d5565b471015610b9457604051631e9acf1760e31b815260040160405180910390fd5b6001840154600480546001600160801b03909216915f90610bb69084906118c2565b90915550508015610bca57610bca816113df565b610bd4338361148c565b335f90815260086020526040812090610bed828261179c565b5060010180546001600160c01b03191690556040805183815260208101839052429133917fa7b927747255bae4c9b535ee84804707f42b787d2a0c4a461f0c3a77f91ea82c910160405180910390a360018401546040516001600160801b039091168152429033907f977aab5cb43bd7923db8ec4aa8569ff05a87062b287df31ed125e4202ba53bf69060200160405180910390a35050505061078060018055565b610c976115a6565b806001600160a01b038116610cbf5760405163e6c4247b60e01b815260040160405180910390fd5b600280546001600160a01b0384811673ffffffffffffffffffffffffffffffffffffffff1983168117909355604051911691429183907fb60b491be4b0e8f92e7d52f768ee5f0a27e956a74b6cf69560df226b0127778e905f90a4505050565b610d276115a6565b345f03610d555760405163ea691a4b60e01b81525f6004820152600160248201526044015b60405180910390fd5b3460045f828254610d6691906118d5565b909155505060405134815242907f2f59d1a3b7b985da630a67df5848afd649a7ac56a4f65c399458a7b1219d25569060200160405180910390a2565b610daa6115a6565b6005545f03610dcc57604051635bac54f360e11b815260040160405180910390fd5b600580545f918290556002546040519192916001600160a01b039091169083908381818185875af1925050503d805f8114610e22576040519150601f19603f3d011682016040523d82523d5f602084013e610e27565b606091505b5050905080610e4957604051631e9acf1760e31b815260040160405180910390fd5b60025460405183815242916001600160a01b0316907fe37b2ae9cc03ec700b9146c4df2fc797e7a1119c08fc25513755ab5315faa6d2906020015b60405180910390a35050565b610e9861132d565b610ea0611386565b60075460ff1615610ec45760405163f2bcabb960e01b815260040160405180910390fd5b34674563918244f40000811015610eff5760405163ea691a4b60e01b815260048101829052674563918244f400006024820152604401610d4c565b69021e19e0c9bab2400000811115610f3d576040516330250a5b60e11b81526004810182905269021e19e0c9bab24000006024820152604401610d4c565b335f908152600860205260409020805461012c11610f785760405163756a320d60e11b815233600482015261012c6024820152604401610d4c565b5f612710610f8861025834611886565b610f9291906118a3565b90505f610f9f82346118c2565b83549091505f03610fb4576006805460010190555b8060045f828254610fc591906118d5565b90915550506001830180548291905f90610fe99084906001600160801b03166118fc565b82546001600160801b039182166101009390930a928302928202191691909117909155845460408051606081018252858416815267ffffffffffffffff428181166020808501828152958501918252600187018c555f8c81522093519386018054955191518416600160c01b0277ffffffffffffffffffffffffffffffffffffffffffffffff92909416600160801b026001600160c01b0319909616949097169390931793909317919091161790925591506110a4846113df565b60408051848152602081018690524291849133917ff0c0eca9f6ed9ad8da1bc85eb9c9ee44f49b92275543eec272134ef0b091d10a910160405180910390a450505050505061078060018055565b6110fa6115a6565b6001600160a01b0381166111765760405162461bcd60e51b815260206004820152602660248201527f4f776e61626c653a206e6577206f776e657220697320746865207a65726f206160448201527f64647265737300000000000000000000000000000000000000000000000000006064820152608401610d4c565b61117f816116fe565b50565b61118a61132d565b6111926116a6565b335f908152600860205260408120600181015490916001600160801b0390911690036111d157604051636f16c5e960e11b815260040160405180910390fd5b6001810154600480546001600160801b03909216918291905f906111f69084906118c2565b9091555050335f90815260086020526040812090611214828261179c565b5060010180546001600160c01b0319169055611230338261148c565b604051818152429033907f977aab5cb43bd7923db8ec4aa8569ff05a87062b287df31ed125e4202ba53bf69060200160405180910390a3505061078060018055565b61127a6115a6565b806001600160a01b0381166112a25760405163e6c4247b60e01b815260040160405180910390fd5b60075460ff16156112c6576040516332870f2f60e21b815260040160405180910390fd5b6003805473ffffffffffffffffffffffffffffffffffffffff19166001600160a01b0384169081179091556007805460ff191660011790556040514291907fa98abbd66d7b82d36401253301a8962d537e861495aac48844ac6f7d61b221f7905f90a35050565b60026001540361137f5760405162461bcd60e51b815260206004820152601f60248201527f5265656e7472616e637947756172643a207265656e7472616e742063616c6c006044820152606401610d4c565b6002600155565b5f54600160a01b900460ff16156107805760405162461bcd60e51b815260206004820152601060248201527f5061757361626c653a20706175736564000000000000000000000000000000006044820152606401610d4c565b6002546040515f916001600160a01b03169083908381818185875af1925050503d805f8114611429576040519150601f19603f3d011682016040523d82523d5f602084013e61142e565b606091505b5050905080610e49578160055f82825461144891906118d5565b909155505060025460405183815242916001600160a01b0316907fe37b2ae9cc03ec700b9146c4df2fc797e7a1119c08fc25513755ab5315faa6d290602001610e84565b804710156114dc5760405162461bcd60e51b815260206004820152601d60248201527f416464726573733a20696e73756666696369656e742062616c616e63650000006044820152606401610d4c565b5f826001600160a01b0316826040515f6040518083038185875af1925050503d805f8114611525576040519150601f19603f3d011682016040523d82523d5f602084013e61152a565b606091505b50509050806115a15760405162461bcd60e51b815260206004820152603a60248201527f416464726573733a20756e61626c6520746f2073656e642076616c75652c207260448201527f6563697069656e74206d617920686176652072657665727465640000000000006064820152608401610d4c565b505050565b5f546001600160a01b031633146107805760405162461bcd60e51b815260206004820181905260248201527f4f776e61626c653a2063616c6c6572206973206e6f7420746865206f776e65726044820152606401610d4c565b6116076116a6565b5f805460ff60a01b191690557f5db9ee0a495bf2e6ff9c91a7834c1ba4fdd244a5e8aa4e537bd38aeae4b073aa335b6040516001600160a01b03909116815260200160405180910390a1565b5f6301e13380821061166857506101f4919050565b62ed4e00821061167b575061012c919050565b6276a700821061168d57506064919050565b62278d00821061169f57506032919050565b505f919050565b5f54600160a01b900460ff166107805760405162461bcd60e51b815260206004820152601460248201527f5061757361626c653a206e6f74207061757365640000000000000000000000006044820152606401610d4c565b5f80546001600160a01b0383811673ffffffffffffffffffffffffffffffffffffffff19831681178455604051919092169283917f8be0079c531659141344cd1fd0a4f28419497f9722a3daafe3b4186f6b6457e09190a35050565b611762611386565b5f805460ff60a01b1916600160a01b1790557f62e78cea01bee320cd4e420270b5ea74000d11b0c9f74754ebdbfc544b05a2586116363390565b5080545f8255905f5260205f209081019061117f91905b808211156117c6575f81556001016117b3565b5090565b5f602082840312156117da575f5ffd5b81356001600160a01b03811681146117f0575f5ffd5b9392505050565b602080825282518282018190525f918401906040840190835b818110156118675783516001600160801b03815116845267ffffffffffffffff602082015116602085015267ffffffffffffffff604082015116604085015250606083019250602084019350600181019050611810565b509095945050505050565b634e487b7160e01b5f52601160045260245ffd5b808202811582820484141761189d5761189d611872565b92915050565b5f826118bd57634e487b7160e01b5f52601260045260245ffd5b500490565b8181038181111561189d5761189d611872565b8082018082111561189d5761189d611872565b634e487b7160e01b5f52603260045260245ffd5b6001600160801b03818116838216019081111561189d5761189d61187256fea264697066735822122083a276be6523e4557276fc3ea12e5877bd6b705c4d270b40b75aeca83b033a1764736f6c634300081e0033",
  "linkReferences": {},
  "deployedLinkReferences": {}
}