{
  "_format": "hh-sol-artifact-1",
  "contractName": "SmartStaking",
  "sourceName": "contracts/SmartStaking.sol",
  "abi": [
    {
      "inputs": [
        {
          "internalType": "address",
          "name": "_treasury",
          "type": "address"
        }
      ],
      "stateMutability": "nonpayable",
      "type": "constructor"
    },
    {
      "inputs": [],
      "name": "AlreadyMigrated",
      "type": "error"
    },
    {
      "inputs": [],
      "name": "ContractIsMigrated",
      "type": "error"
    },
    {
      "inputs": [
        {
          "internalType": "uint256",
          "name": "availableToWithdraw",
          "type": "uint256"
        }
      ],
      "name": "DailyWithdrawalLimitExceeded",
      "type": "error"
    },
    {
      "inputs": [
        {
          "internalType": "uint256",
          "name": "provided",
          "type": "uint256"
        },
        {
          "internalType": "uint256",
          "name": "maximum",
          "type": "uint256"
        }
      ],
      "name": "DepositTooHigh",
      "type": "error"
    },
    {
      "inputs": [
        {
          "internalType": "uint256",
          "name": "provided",
          "type": "uint256"
        },
        {
          "internalType": "uint256",
          "name": "minimum",
          "type": "uint256"
        }
      ],
      "name": "DepositTooLow",
      "type": "error"
    },
    {
      "inputs": [],
      "name": "FundsAreLocked",
      "type": "error"
    },
    {
      "inputs": [],
      "name": "InsufficientBalance",
      "type": "error"
    },
    {
      "inputs": [],
      "name": "InvalidAddress",
      "type": "error"
    },
    {
      "inputs": [],
      "name": "InvalidLockupDuration",
      "type": "error"
    },
    {
      "inputs": [
        {
          "internalType": "address",
          "name": "user",
          "type": "address"
        },
        {
          "internalType": "uint16",
          "name": "maxDeposits",
          "type": "uint16"
        }
      ],
      "name": "MaxDepositsReached",
      "type": "error"
    },
    {
      "inputs": [],
      "name": "NoDepositsFound",
      "type": "error"
    },
    {
      "inputs": [],
      "name": "NoPendingCommission",
      "type": "error"
    },
    {
      "inputs": [],
      "name": "NoRewardsAvailable",
      "type": "error"
    },
    {
      "inputs": [],
      "name": "UnauthorizedSender",
      "type": "error"
    },
    {
      "anonymous": false,
      "inputs": [
        {
          "indexed": false,
          "internalType": "uint256",
          "name": "amount",
          "type": "uint256"
        },
        {
          "indexed": true,
          "internalType": "uint256",
          "name": "timestamp",
          "type": "uint256"
        }
      ],
      "name": "BalanceAdded",
      "type": "event"
    },
    {
      "anonymous": false,
      "inputs": [
        {
          "indexed": true,
          "internalType": "address",
          "name": "receiver",
          "type": "address"
        },
        {
          "indexed": false,
          "internalType": "uint256",
          "name": "amount",
          "type": "uint256"
        },
        {
          "indexed": true,
          "internalType": "uint256",
          "name": "timestamp",
          "type": "uint256"
        }
      ],
      "name": "CommissionPaid",
      "type": "event"
    },
    {
      "anonymous": false,
      "inputs": [
        {
          "indexed": true,
          "internalType": "address",
          "name": "newContract",
          "type": "address"
        },
        {
          "indexed": true,
          "internalType": "uint256",
          "name": "timestamp",
          "type": "uint256"
        }
      ],
      "name": "ContractMigrated",
      "type": "event"
    },
    {
      "anonymous": false,
      "inputs": [
        {
          "indexed": true,
          "internalType": "address",
          "name": "owner",
          "type": "address"
        },
        {
          "indexed": true,
          "internalType": "uint256",
          "name": "timestamp",
          "type": "uint256"
        }
      ],
      "name": "ContractPaused",
      "type": "event"
    },
    {
      "anonymous": false,
      "inputs": [
        {
          "indexed": true,
          "internalType": "address",
          "name": "owner",
          "type": "address"
        },
        {
          "indexed": true,
          "internalType": "uint256",
          "name": "timestamp",
          "type": "uint256"
        }
      ],
      "name": "ContractUnpaused",
      "type": "event"
    },
    {
      "anonymous": false,
      "inputs": [
        {
          "indexed": true,
          "internalType": "address",
          "name": "user",
          "type": "address"
        },
        {
          "indexed": true,
          "internalType": "uint256",
          "name": "depositId",
          "type": "uint256"
        },
        {
          "indexed": false,
          "internalType": "uint256",
          "name": "amount",
          "type": "uint256"
        },
        {
          "indexed": false,
          "internalType": "uint256",
          "name": "commission",
          "type": "uint256"
        },
        {
          "indexed": true,
          "internalType": "uint256",
          "name": "timestamp",
          "type": "uint256"
        }
      ],
      "name": "DepositMade",
      "type": "event"
    },
    {
      "anonymous": false,
      "inputs": [
        {
          "indexed": true,
          "internalType": "address",
          "name": "owner",
          "type": "address"
        },
        {
          "indexed": true,
          "internalType": "address",
          "name": "to",
          "type": "address"
        },
        {
          "indexed": false,
          "internalType": "uint256",
          "name": "amount",
          "type": "uint256"
        },
        {
          "indexed": true,
          "internalType": "uint256",
          "name": "timestamp",
          "type": "uint256"
        }
      ],
      "name": "EmergencyWithdrawOwner",
      "type": "event"
    },
    {
      "anonymous": false,
      "inputs": [
        {
          "indexed": true,
          "internalType": "address",
          "name": "user",
          "type": "address"
        },
        {
          "indexed": false,
          "internalType": "uint256",
          "name": "amount",
          "type": "uint256"
        },
        {
          "indexed": true,
          "internalType": "uint256",
          "name": "timestamp",
          "type": "uint256"
        }
      ],
      "name": "EmergencyWithdrawUser",
      "type": "event"
    },
    {
      "anonymous": false,
      "inputs": [
        {
          "indexed": true,
          "internalType": "address",
          "name": "previousOwner",
          "type": "address"
        },
        {
          "indexed": true,
          "internalType": "address",
          "name": "newOwner",
          "type": "address"
        }
      ],
      "name": "OwnershipTransferred",
      "type": "event"
    },
    {
      "anonymous": false,
      "inputs": [
        {
          "indexed": false,
          "internalType": "address",
          "name": "account",
          "type": "address"
        }
      ],
      "name": "Paused",
      "type": "event"
    },
    {
      "anonymous": false,
      "inputs": [
        {
          "indexed": true,
          "internalType": "address",
          "name": "user",
          "type": "address"
        },
        {
          "indexed": false,
          "internalType": "uint256",
          "name": "amount",
          "type": "uint256"
        }
      ],
      "name": "RewardsCompounded",
      "type": "event"
    },
    {
      "anonymous": false,
      "inputs": [
        {
          "indexed": true,
          "internalType": "address",
          "name": "previousTreasury",
          "type": "address"
        },
        {
          "indexed": true,
          "internalType": "address",
          "name": "newTreasury",
          "type": "address"
        },
        {
          "indexed": true,
          "internalType": "uint256",
          "name": "timestamp",
          "type": "uint256"
        }
      ],
      "name": "TreasuryAddressChanged",
      "type": "event"
    },
    {
      "anonymous": false,
      "inputs": [
        {
          "indexed": false,
          "internalType": "address",
          "name": "account",
          "type": "address"
        }
      ],
      "name": "Unpaused",
      "type": "event"
    },
    {
      "anonymous": false,
      "inputs": [
        {
          "indexed": true,
          "internalType": "address",
          "name": "user",
          "type": "address"
        },
        {
          "indexed": false,
          "internalType": "uint256",
          "name": "amount",
          "type": "uint256"
        },
        {
          "indexed": false,
          "internalType": "uint256",
          "name": "commission",
          "type": "uint256"
        },
        {
          "indexed": true,
          "internalType": "uint256",
          "name": "timestamp",
          "type": "uint256"
        },
        {
          "indexed": false,
          "internalType": "uint256",
          "name": "depositId",
          "type": "uint256"
        }
      ],
      "name": "WithdrawalMade",
      "type": "event"
    },
    {
      "inputs": [],
      "name": "addBalance",
      "outputs": [],
      "stateMutability": "payable",
      "type": "function"
    },
    {
      "inputs": [
        {
          "internalType": "address",
          "name": "userAddress",
          "type": "address"
        }
      ],
      "name": "calculateRewards",
      "outputs": [
        {
          "internalType": "uint256",
          "name": "totalRewards",
          "type": "uint256"
        }
      ],
      "stateMutability": "view",
      "type": "function"
    },
    {
      "inputs": [
        {
          "internalType": "address",
          "name": "_newTreasury",
          "type": "address"
        }
      ],
      "name": "changeTreasuryAddress",
      "outputs": [],
      "stateMutability": "nonpayable",
      "type": "function"
    },
    {
      "inputs": [],
      "name": "compound",
      "outputs": [],
      "stateMutability": "nonpayable",
      "type": "function"
    },
    {
      "inputs": [
        {
          "internalType": "uint64",
          "name": "_lockupDuration",
          "type": "uint64"
        }
      ],
      "name": "deposit",
      "outputs": [],
      "stateMutability": "payable",
      "type": "function"
    },
    {
      "inputs": [],
      "name": "emergencyUserWithdraw",
      "outputs": [],
      "stateMutability": "nonpayable",
      "type": "function"
    },
    {
      "inputs": [
        {
          "internalType": "address",
          "name": "to",
          "type": "address"
        }
      ],
      "name": "emergencyWithdraw",
      "outputs": [],
      "stateMutability": "nonpayable",
      "type": "function"
    },
    {
      "inputs": [],
      "name": "getContractBalance",
      "outputs": [
        {
          "internalType": "uint256",
          "name": "",
          "type": "uint256"
        }
      ],
      "stateMutability": "view",
      "type": "function"
    },
    {
      "inputs": [],
      "name": "getContractVersion",
      "outputs": [
        {
          "internalType": "uint256",
          "name": "",
          "type": "uint256"
        }
      ],
      "stateMutability": "pure",
      "type": "function"
    },
    {
      "inputs": [
        {
          "internalType": "address",
          "name": "userAddress",
          "type": "address"
        }
      ],
      "name": "getTotalDeposit",
      "outputs": [
        {
          "internalType": "uint256",
          "name": "",
          "type": "uint256"
        }
      ],
      "stateMutability": "view",
      "type": "function"
    },
    {
      "inputs": [
        {
          "internalType": "address",
          "name": "userAddress",
          "type": "address"
        }
      ],
      "name": "getUserDeposits",
      "outputs": [
        {
          "components": [
            {
              "internalType": "uint128",
              "name": "amount",
              "type": "uint128"
            },
            {
              "internalType": "uint64",
              "name": "timestamp",
              "type": "uint64"
            },
            {
              "internalType": "uint64",
              "name": "lastClaimTime",
              "type": "uint64"
            },
            {
              "internalType": "uint64",
              "name": "lockupDuration",
              "type": "uint64"
            }
          ],
          "internalType": "struct SmartStaking.Deposit[]",
          "name": "",
          "type": "tuple[]"
        }
      ],
      "stateMutability": "view",
      "type": "function"
    },
    {
      "inputs": [
        {
          "internalType": "address",
          "name": "userAddress",
          "type": "address"
        }
      ],
      "name": "getUserInfo",
      "outputs": [
        {
          "components": [
            {
              "internalType": "uint256",
              "name": "totalDeposited",
              "type": "uint256"
            },
            {
              "internalType": "uint256",
              "name": "pendingRewards",
              "type": "uint256"
            },
            {
              "internalType": "uint256",
              "name": "lastWithdraw",
              "type": "uint256"
            }
          ],
          "internalType": "struct SmartStaking.UserInfo",
          "name": "",
          "type": "tuple"
        }
      ],
      "stateMutability": "view",
      "type": "function"
    },
    {
      "inputs": [
        {
          "internalType": "address",
          "name": "_newContractAddress",
          "type": "address"
        }
      ],
      "name": "migrateToNewContract",
      "outputs": [],
      "stateMutability": "nonpayable",
      "type": "function"
    },
    {
      "inputs": [],
      "name": "migrated",
      "outputs": [
        {
          "internalType": "bool",
          "name": "",
          "type": "bool"
        }
      ],
      "stateMutability": "view",
      "type": "function"
    },
    {
      "inputs": [],
      "name": "newContractAddress",
      "outputs": [
        {
          "internalType": "address",
          "name": "",
          "type": "address"
        }
      ],
      "stateMutability": "view",
      "type": "function"
    },
    {
      "inputs": [],
      "name": "owner",
      "outputs": [
        {
          "internalType": "address",
          "name": "",
          "type": "address"
        }
      ],
      "stateMutability": "view",
      "type": "function"
    },
    {
      "inputs": [],
      "name": "pause",
      "outputs": [],
      "stateMutability": "nonpayable",
      "type": "function"
    },
    {
      "inputs": [],
      "name": "paused",
      "outputs": [
        {
          "internalType": "bool",
          "name": "",
          "type": "bool"
        }
      ],
      "stateMutability": "view",
      "type": "function"
    },
    {
      "inputs": [],
      "name": "pendingCommission",
      "outputs": [
        {
          "internalType": "uint256",
          "name": "",
          "type": "uint256"
        }
      ],
      "stateMutability": "view",
      "type": "function"
    },
    {
      "inputs": [],
      "name": "renounceOwnership",
      "outputs": [],
      "stateMutability": "nonpayable",
      "type": "function"
    },
    {
      "inputs": [],
      "name": "totalPoolBalance",
      "outputs": [
        {
          "internalType": "uint256",
          "name": "",
          "type": "uint256"
        }
      ],
      "stateMutability": "view",
      "type": "function"
    },
    {
      "inputs": [
        {
          "internalType": "address",
          "name": "newOwner",
          "type": "address"
        }
      ],
      "name": "transferOwnership",
      "outputs": [],
      "stateMutability": "nonpayable",
      "type": "function"
    },
    {
      "inputs": [],
      "name": "treasury",
      "outputs": [
        {
          "internalType": "address",
          "name": "",
          "type": "address"
        }
      ],
      "stateMutability": "view",
      "type": "function"
    },
    {
      "inputs": [],
      "name": "uniqueUsersCount",
      "outputs": [
        {
          "internalType": "uint256",
          "name": "",
          "type": "uint256"
        }
      ],
      "stateMutability": "view",
      "type": "function"
    },
    {
      "inputs": [],
      "name": "unpause",
      "outputs": [],
      "stateMutability": "nonpayable",
      "type": "function"
    },
    {
      "inputs": [],
      "name": "withdraw",
      "outputs": [],
      "stateMutability": "nonpayable",
      "type": "function"
    },
    {
      "inputs": [],
      "name": "withdrawAll",
      "outputs": [],
      "stateMutability": "nonpayable",
      "type": "function"
    },
    {
      "inputs": [],
      "name": "withdrawPendingCommission",
      "outputs": [],
      "stateMutability": "nonpayable",
      "type": "function"
    },
    {
      "stateMutability": "payable",
      "type": "receive"
    }
  ],
  "bytecode": "0x608060405234801561000f575f5ffd5b506040516122b03803806122b083398101604081905261002e916100e4565b61003733610095565b5f805460ff60a01b1916905560018055806001600160a01b03811661006f5760405163e6c4247b60e01b815260040160405180910390fd5b50600280546001600160a01b0319166001600160a01b0392909216919091179055610111565b5f80546001600160a01b038381166001600160a01b0319831681178455604051919092169283917f8be0079c531659141344cd1fd0a4f28419497f9722a3daafe3b4186f6b6457e09190a35050565b5f602082840312156100f4575f5ffd5b81516001600160a01b038116811461010a575f5ffd5b9392505050565b6121928061011e5f395ff3fe6080604052600436106101b2575f3560e01c80638456cb59116100e7578063b8362bc711610087578063f2fde38b11610062578063f2fde38b146104b8578063f69e2046146104d7578063fe0f869f146104eb578063fe1e05b5146104ff575f5ffd5b8063b8362bc71461047a578063c9f8234f1461048e578063f01daef1146104a3575f5ffd5b80638aa10435116100c25780638aa10435146104245780638da5cb5b14610437578063a6f353f014610453578063b163cc3814610472575f5ffd5b80638456cb59146103bc578063853828b6146103d0578063857184d1146103e4575f5ffd5b806361d027b3116101525780636af04a571161012d5780636af04a57146103585780636f9fb98a146103775780636ff1c9bc14610389578063715018a6146103a8575f5ffd5b806361d027b3146102c15780636386c1c7146102f857806364ab867514610339575f5ffd5b80633ccfd60b1161018d5780633ccfd60b146102595780633f4ba83a1461026d5780635026d63e146102815780635c975abb146102a4575f5ffd5b806313765838146101e85780632a5bf6d2146101fb5780632c678c6414610230575f5ffd5b366101e4576002546001600160a01b031633146101e257604051630101292160e31b815260040160405180910390fd5b005b5f5ffd5b6101e26101f6366004611f86565b61051e565b348015610206575f5ffd5b5061021a610215366004611fb4565b6108bc565b6040516102279190611fda565b60405180910390f35b34801561023b575f5ffd5b506007546102499060ff1681565b6040519015158152602001610227565b348015610264575f5ffd5b506101e2610997565b348015610278575f5ffd5b506101e2610d03565b34801561028c575f5ffd5b5061029660045481565b604051908152602001610227565b3480156102af575f5ffd5b505f54600160a01b900460ff16610249565b3480156102cc575f5ffd5b506002546102e0906001600160a01b031681565b6040516001600160a01b039091168152602001610227565b348015610303575f5ffd5b50610317610312366004611fb4565b610d41565b6040805182518152602080840151908201529181015190820152606001610227565b348015610344575f5ffd5b50610296610353366004611fb4565b610dcc565b348015610363575f5ffd5b506003546102e0906001600160a01b031681565b348015610382575f5ffd5b5047610296565b348015610394575f5ffd5b506101e26103a3366004611fb4565b610ffd565b3480156103b3575f5ffd5b506101e261109c565b3480156103c7575f5ffd5b506101e26110ad565b3480156103db575f5ffd5b506101e26110eb565b3480156103ef575f5ffd5b506102966103fe366004611fb4565b6001600160a01b03165f908152600860205260409020600101546001600160801b031690565b34801561042f575f5ffd5b506003610296565b348015610442575f5ffd5b505f546001600160a01b03166102e0565b34801561045e575f5ffd5b506101e261046d366004611fb4565b6114a4565b6101e2611534565b348015610485575f5ffd5b506101e26115b2565b348015610499575f5ffd5b5061029660065481565b3480156104ae575f5ffd5b5061029660055481565b3480156104c3575f5ffd5b506101e26104d2366004611fb4565b6116a0565b3480156104e2575f5ffd5b506101e261172d565b3480156104f6575f5ffd5b506101e2611928565b34801561050a575f5ffd5b506101e2610519366004611fb4565b611a18565b610526611ad3565b61052e611b2c565b60075460ff16156105525760405163f2bcabb960e01b815260040160405180910390fd5b34674563918244f400008110156105925760405163ea691a4b60e01b815260048101829052674563918244f4000060248201526044015b60405180910390fd5b69021e19e0c9bab24000008111156105d0576040516330250a5b60e11b81526004810182905269021e19e0c9bab24000006024820152604401610589565b67ffffffffffffffff8216158015906105f457508167ffffffffffffffff16601e14155b801561060b57508167ffffffffffffffff16605a14155b801561062257508167ffffffffffffffff1660b414155b801561063a57508167ffffffffffffffff1661016d14155b1561065857604051631ab8aa1760e21b815260040160405180910390fd5b335f908152600860205260409020805461012c116106935760405163756a320d60e11b815233600482015261012c6024820152604401610589565b5f6127106106a36102583461207d565b6106ad919061209a565b90505f6106ba82346120b9565b83549091505f036106cf576006805460010190555b8060045f8282546106e091906120cc565b90915550506001830180548291905f906107049084906001600160801b03166120df565b82546001600160801b039182166101009390930a9283029190920219909116179055508254425f61073888620151806120fe565b9050855f016040518060800160405280866001600160801b031681526020018467ffffffffffffffff1681526020018467ffffffffffffffff1681526020018367ffffffffffffffff16815250908060018154018082558091505060019003905f5260205f2090600202015f909190919091505f820151815f015f6101000a8154816001600160801b0302191690836001600160801b031602179055506020820151815f0160106101000a81548167ffffffffffffffff021916908367ffffffffffffffff1602179055506040820151815f0160186101000a81548167ffffffffffffffff021916908367ffffffffffffffff1602179055506060820151816001015f6101000a81548167ffffffffffffffff021916908367ffffffffffffffff160217905550505061086a85611b85565b60408051858152602081018790524291859133917ff0c0eca9f6ed9ad8da1bc85eb9c9ee44f49b92275543eec272134ef0b091d10a910160405180910390a4505050505050506108b960018055565b50565b6060816001600160a01b0381166108e65760405163e6c4247b60e01b815260040160405180910390fd5b6001600160a01b0383165f90815260086020908152604080832080548251818502810185019093528083529193909284015b8282101561098b575f848152602090819020604080516080810182526002860290920180546001600160801b038116845267ffffffffffffffff600160801b8204811685870152600160c01b90910481169284019290925260019081015490911660608301529083529092019101610918565b50505050915050919050565b61099f611ad3565b6109a7611b2c565b60075460ff16156109cb5760405163f2bcabb960e01b815260040160405180910390fd5b335f908152600860209081526040808320600a9092529091205467ffffffffffffffff166109fc620151804261209a565b1115610a4d57335f90815260096020526040812055610a1e620151804261209a565b335f908152600a60205260409020805467ffffffffffffffff191667ffffffffffffffff929092169190911790555b5f610a5733610dcc565b9050805f03610a795760405163afb0be3360e01b815260040160405180910390fd5b335f90815260096020526040902054683635c9adc5dea0000090610a9e9083906120cc565b1115610ae257335f90815260096020526040902054610ac690683635c9adc5dea000006120b9565b604051631aefe80360e21b815260040161058991815260200190565b335f9081526009602052604081208054839290610b009084906120cc565b909155505f90505b8254811015610ba9575f835f018281548110610b2657610b26612128565b5f9182526020909120600290910201600181015490915067ffffffffffffffff1615801590610b82575060018101548154610b759167ffffffffffffffff90811691600160801b90041661213c565b67ffffffffffffffff1642105b15610ba057604051633b20f1c360e21b815260040160405180910390fd5b50600101610b08565b505f612710610bba6102588461207d565b610bc4919061209a565b90505f610bd182846120b9565b9050610bdd82826120cc565b471015610bfd57604051631e9acf1760e31b815260040160405180910390fd5b425f5b8554811015610c5b5781865f018281548110610c1e57610c1e612128565b5f9182526020909120600290910201805467ffffffffffffffff92909216600160c01b026001600160c01b03909216919091179055600101610c00565b506001850180547fffffffffffffffff0000000000000000ffffffffffffffffffffffffffffffff16600160801b67ffffffffffffffff841602179055610ca183611b85565b610cab3383611c32565b60408051838152602081018590525f91810191909152429033907f92f2787b755dae547f1701582fe74c7abf277ec14db316dd01abc69cacf7a259906060015b60405180910390a35050505050610d0160018055565b565b610d0b611d4c565b610d13611da5565b604051429033907f107553d8191d85b405879cf752997865edd48d94e20bda4dd27223c94b31a7cc905f90a3565b610d6260405180606001604052805f81526020015f81526020015f81525090565b6001600160a01b0382165f9081526008602090815260409182902082516060810190935260018101546001600160801b0316835291908101610da385610dcc565b815260019092015467ffffffffffffffff600160801b9091041660209092019190915292915050565b6001600160a01b0381165f9081526008602052604081208054808303610df557505f9392505050565b5f5b81811015610ff5575f835f018281548110610e1457610e14612128565b5f918252602082206002909102018054909250610e1090610e479067ffffffffffffffff600160c01b90910416426120b9565b610e51919061209a565b90507bffffffffffffffffffffffffffffffffffffffffffffffffffffffff811615610feb57600182015460649067ffffffffffffffff1662278cff1901610e9b57506078610efc565b600183015467ffffffffffffffff166276a6ff1901610ebc575060a0610efc565b600183015467ffffffffffffffff1662ed4dff1901610edd575060c8610efc565b600183015467ffffffffffffffff166301e1337f1901610efc575061012c5b82545f90620f4240907bffffffffffffffffffffffffffffffffffffffffffffffffffffffff851690610f399085906001600160801b031661207d565b610f43919061207d565b610f4d919061209a565b84549091505f9061271090610f6e906130d4906001600160801b031661207d565b610f78919061209a565b905080821115610f86578091505b84545f90610fae90610fa990600160801b900467ffffffffffffffff16426120b9565b611df9565b90508015610fda57612710610fc3828561207d565b610fcd919061209a565b610fd790846120cc565b92505b610fe4838b6120cc565b9950505050505b5050600101610df7565b505050919050565b611005611d4c565b61100d611e4c565b806001600160a01b0381166110355760405163e6c4247b60e01b815260040160405180910390fd5b476110496001600160a01b03841682611c32565b42836001600160a01b0316336001600160a01b03167fa9936b0b3bd9c38a0b53648f98d600d5e84f608f58aab150ade90176579b271b8460405161108f91815260200190565b60405180910390a4505050565b6110a4611d4c565b610d015f611ea4565b6110b5611d4c565b6110bd611f00565b604051429033907f80170b5fcdd2bf1e0660ef4b8851f86685f64d41b1a19de1471947ece8725aac905f90a3565b6110f3611ad3565b6110fb611b2c565b60075460ff161561111f5760405163f2bcabb960e01b815260040160405180910390fd5b335f908152600860209081526040808320600a9092529091205467ffffffffffffffff16611150620151804261209a565b11156111a157335f90815260096020526040812055611172620151804261209a565b335f908152600a60205260409020805467ffffffffffffffff191667ffffffffffffffff929092169190911790555b5f6111ab33610dcc565b60018301546111c391906001600160801b03166120cc565b60018301549091506001600160801b03165f036111f357604051636f16c5e960e11b815260040160405180910390fd5b335f90815260096020526040902054683635c9adc5dea00000906112189083906120cc565b111561124057335f90815260096020526040902054610ac690683635c9adc5dea000006120b9565b335f908152600960205260408120805483929061125e9084906120cc565b909155505f90505b8254811015611307575f835f01828154811061128457611284612128565b5f9182526020909120600290910201600181015490915067ffffffffffffffff16158015906112e05750600181015481546112d39167ffffffffffffffff90811691600160801b90041661213c565b67ffffffffffffffff1642105b156112fe57604051633b20f1c360e21b815260040160405180910390fd5b50600101611266565b5060018201546001600160801b03165f0361133557604051636f16c5e960e11b815260040160405180910390fd5b5f61133f33610dcc565b60018401549091506001600160801b03165f8215611389576127106113666102588561207d565b611370919061209a565b905061137c81846120b9565b61138690836120cc565b91505b61139381836120cc565b4710156113b357604051631e9acf1760e31b815260040160405180910390fd5b6001850154600480546001600160801b03909216915f906113d59084906120b9565b909155505080156113e9576113e981611b85565b6113f33383611c32565b335f9081526008602052604081209061140c8282611f42565b5060010180546001600160c01b031916905560408051838152602081018390525f818301529051429133917f92f2787b755dae547f1701582fe74c7abf277ec14db316dd01abc69cacf7a2599181900360600190a360018501546040516001600160801b039091168152429033907f977aab5cb43bd7923db8ec4aa8569ff05a87062b287df31ed125e4202ba53bf690602001610ceb565b6114ac611d4c565b806001600160a01b0381166114d45760405163e6c4247b60e01b815260040160405180910390fd5b600280546001600160a01b0384811673ffffffffffffffffffffffffffffffffffffffff1983168117909355604051911691429183907fb60b491be4b0e8f92e7d52f768ee5f0a27e956a74b6cf69560df226b0127778e905f90a4505050565b61153c611d4c565b345f036115655760405163ea691a4b60e01b81525f600482015260016024820152604401610589565b3460045f82825461157691906120cc565b909155505060405134815242907f2f59d1a3b7b985da630a67df5848afd649a7ac56a4f65c399458a7b1219d25569060200160405180910390a2565b6115ba611d4c565b6005545f036115dc57604051635bac54f360e11b815260040160405180910390fd5b600580545f918290556002546040519192916001600160a01b039091169083908381818185875af1925050503d805f8114611632576040519150601f19603f3d011682016040523d82523d5f602084013e611637565b606091505b505090508061165957604051631e9acf1760e31b815260040160405180910390fd5b60025460405183815242916001600160a01b0316907fe37b2ae9cc03ec700b9146c4df2fc797e7a1119c08fc25513755ab5315faa6d2906020015b60405180910390a35050565b6116a8611d4c565b6001600160a01b0381166117245760405162461bcd60e51b815260206004820152602660248201527f4f776e61626c653a206e6577206f776e657220697320746865207a65726f206160448201527f64647265737300000000000000000000000000000000000000000000000000006064820152608401610589565b6108b981611ea4565b611735611ad3565b61173d611b2c565b60075460ff16156117615760405163f2bcabb960e01b815260040160405180910390fd5b335f8181526008602052604081209161177990610dcc565b9050805f0361179b5760405163afb0be3360e01b815260040160405180910390fd5b6001820180548291905f906117ba9084906001600160801b03166120df565b82546101009290920a6001600160801b038181021990931691831602179091556040805160808101825284831681524267ffffffffffffffff81811660208085018281529585019182525f606086018181528b5460018181018e558d845293832097516002909102909701805498519451979099166001600160c01b031990981697909717600160801b93851693909302929092176001600160c01b0316600160c01b95841695909502949094178655935194909201805467ffffffffffffffff1916949092169390931790559091505b83548110156118e65781845f0182815481106118a9576118a9612128565b5f9182526020909120600290910201805467ffffffffffffffff92909216600160c01b026001600160c01b0390921691909117905560010161188b565b5060405182815233907f8ce0a2fad3764c1fd039c26f784a2d7490f96db7928a834db2330abc1efd29449060200160405180910390a2505050610d0160018055565b611930611ad3565b611938611e4c565b335f908152600860205260408120600181015490916001600160801b03909116900361197757604051636f16c5e960e11b815260040160405180910390fd5b6001810154600480546001600160801b03909216918291905f9061199c9084906120b9565b9091555050335f908152600860205260408120906119ba8282611f42565b5060010180546001600160c01b03191690556119d63382611c32565b604051818152429033907f977aab5cb43bd7923db8ec4aa8569ff05a87062b287df31ed125e4202ba53bf69060200160405180910390a35050610d0160018055565b611a20611d4c565b806001600160a01b038116611a485760405163e6c4247b60e01b815260040160405180910390fd5b60075460ff1615611a6c576040516332870f2f60e21b815260040160405180910390fd5b6003805473ffffffffffffffffffffffffffffffffffffffff19166001600160a01b0384169081179091556007805460ff191660011790556040514291907fa98abbd66d7b82d36401253301a8962d537e861495aac48844ac6f7d61b221f7905f90a35050565b600260015403611b255760405162461bcd60e51b815260206004820152601f60248201527f5265656e7472616e637947756172643a207265656e7472616e742063616c6c006044820152606401610589565b6002600155565b5f54600160a01b900460ff1615610d015760405162461bcd60e51b815260206004820152601060248201527f5061757361626c653a20706175736564000000000000000000000000000000006044820152606401610589565b6002546040515f916001600160a01b03169083908381818185875af1925050503d805f8114611bcf576040519150601f19603f3d011682016040523d82523d5f602084013e611bd4565b606091505b5050905080611659578160055f828254611bee91906120cc565b909155505060025460405183815242916001600160a01b0316907fe37b2ae9cc03ec700b9146c4df2fc797e7a1119c08fc25513755ab5315faa6d290602001611694565b80471015611c825760405162461bcd60e51b815260206004820152601d60248201527f416464726573733a20696e73756666696369656e742062616c616e63650000006044820152606401610589565b5f826001600160a01b0316826040515f6040518083038185875af1925050503d805f8114611ccb576040519150601f19603f3d011682016040523d82523d5f602084013e611cd0565b606091505b5050905080611d475760405162461bcd60e51b815260206004820152603a60248201527f416464726573733a20756e61626c6520746f2073656e642076616c75652c207260448201527f6563697069656e74206d617920686176652072657665727465640000000000006064820152608401610589565b505050565b5f546001600160a01b03163314610d015760405162461bcd60e51b815260206004820181905260248201527f4f776e61626c653a2063616c6c6572206973206e6f7420746865206f776e65726044820152606401610589565b611dad611e4c565b5f805460ff60a01b191690557f5db9ee0a495bf2e6ff9c91a7834c1ba4fdd244a5e8aa4e537bd38aeae4b073aa335b6040516001600160a01b03909116815260200160405180910390a1565b5f6301e133808210611e0e57506101f4919050565b62ed4e008210611e21575061012c919050565b6276a7008210611e3357506064919050565b62278d008210611e4557506032919050565b505f919050565b5f54600160a01b900460ff16610d015760405162461bcd60e51b815260206004820152601460248201527f5061757361626c653a206e6f74207061757365640000000000000000000000006044820152606401610589565b5f80546001600160a01b0383811673ffffffffffffffffffffffffffffffffffffffff19831681178455604051919092169283917f8be0079c531659141344cd1fd0a4f28419497f9722a3daafe3b4186f6b6457e09190a35050565b611f08611b2c565b5f805460ff60a01b1916600160a01b1790557f62e78cea01bee320cd4e420270b5ea74000d11b0c9f74754ebdbfc544b05a258611ddc3390565b5080545f8255600202905f5260205f20908101906108b991905b80821115611f82575f815560018101805467ffffffffffffffff19169055600201611f5c565b5090565b5f60208284031215611f96575f5ffd5b813567ffffffffffffffff81168114611fad575f5ffd5b9392505050565b5f60208284031215611fc4575f5ffd5b81356001600160a01b0381168114611fad575f5ffd5b602080825282518282018190525f918401906040840190835b8181101561205e5783516001600160801b03815116845267ffffffffffffffff602082015116602085015267ffffffffffffffff604082015116604085015267ffffffffffffffff606082015116606085015250608083019250602084019350600181019050611ff3565b509095945050505050565b634e487b7160e01b5f52601160045260245ffd5b808202811582820484141761209457612094612069565b92915050565b5f826120b457634e487b7160e01b5f52601260045260245ffd5b500490565b8181038181111561209457612094612069565b8082018082111561209457612094612069565b6001600160801b03818116838216019081111561209457612094612069565b67ffffffffffffffff818116838216029081169081811461212157612121612069565b5092915050565b634e487b7160e01b5f52603260045260245ffd5b67ffffffffffffffff81811683821601908111156120945761209461206956fea2646970667358221220d1923ab98d5dfe1e1a0b7f05d1063f3349871f841986d9b02418bbd67a35b8f464736f6c634300081c0033",
  "linkReferences": {},
  "deployedLinkReferences": {}
}