{
  "_format": "hh-sol-artifact-1",
  "contractName": "StakingContract",
  "sourceName": "contracts/nuvoLogic.sol",
  "abi": [
    {
      "inputs": [
        {
          "internalType": "address",
          "name": "_treasury",
          "type": "address"
        }
      ],
      "stateMutability": "nonpayable",
      "type": "constructor"
    },
    {
      "anonymous": false,
      "inputs": [
        {
          "indexed": false,
          "internalType": "uint256",
          "name": "amount",
          "type": "uint256"
        }
      ],
      "name": "BalanceAdded",
      "type": "event"
    },
    {
      "anonymous": false,
      "inputs": [
        {
          "indexed": true,
          "internalType": "address",
          "name": "owner",
          "type": "address"
        }
      ],
      "name": "ContractPaused",
      "type": "event"
    },
    {
      "anonymous": false,
      "inputs": [
        {
          "indexed": true,
          "internalType": "address",
          "name": "owner",
          "type": "address"
        }
      ],
      "name": "ContractUnpaused",
      "type": "event"
    },
    {
      "anonymous": false,
      "inputs": [
        {
          "indexed": true,
          "internalType": "address",
          "name": "user",
          "type": "address"
        },
        {
          "indexed": true,
          "internalType": "uint256",
          "name": "depositId",
          "type": "uint256"
        },
        {
          "indexed": false,
          "internalType": "uint256",
          "name": "amount",
          "type": "uint256"
        },
        {
          "indexed": false,
          "internalType": "uint256",
          "name": "commission",
          "type": "uint256"
        },
        {
          "indexed": false,
          "internalType": "uint256",
          "name": "timestamp",
          "type": "uint256"
        }
      ],
      "name": "DepositMade",
      "type": "event"
    },
    {
      "anonymous": false,
      "inputs": [
        {
          "indexed": true,
          "internalType": "address",
          "name": "user",
          "type": "address"
        },
        {
          "indexed": false,
          "internalType": "uint256",
          "name": "amount",
          "type": "uint256"
        }
      ],
      "name": "EmergencyWithdraw",
      "type": "event"
    },
    {
      "anonymous": false,
      "inputs": [
        {
          "indexed": true,
          "internalType": "address",
          "name": "previousOwner",
          "type": "address"
        },
        {
          "indexed": true,
          "internalType": "address",
          "name": "newOwner",
          "type": "address"
        }
      ],
      "name": "OwnershipTransferred",
      "type": "event"
    },
    {
      "anonymous": false,
      "inputs": [
        {
          "indexed": false,
          "internalType": "address",
          "name": "account",
          "type": "address"
        }
      ],
      "name": "Paused",
      "type": "event"
    },
    {
      "anonymous": false,
      "inputs": [
        {
          "indexed": true,
          "internalType": "address",
          "name": "previousTreasury",
          "type": "address"
        },
        {
          "indexed": true,
          "internalType": "address",
          "name": "newTreasury",
          "type": "address"
        }
      ],
      "name": "TreasuryAddressChanged",
      "type": "event"
    },
    {
      "anonymous": false,
      "inputs": [
        {
          "indexed": false,
          "internalType": "address",
          "name": "account",
          "type": "address"
        }
      ],
      "name": "Unpaused",
      "type": "event"
    },
    {
      "anonymous": false,
      "inputs": [
        {
          "indexed": true,
          "internalType": "address",
          "name": "user",
          "type": "address"
        },
        {
          "indexed": false,
          "internalType": "uint256",
          "name": "amount",
          "type": "uint256"
        }
      ],
      "name": "WithdrawalMade",
      "type": "event"
    },
    {
      "inputs": [],
      "name": "COMMISSION_PERCENTAGE",
      "outputs": [
        {
          "internalType": "uint16",
          "name": "",
          "type": "uint16"
        }
      ],
      "stateMutability": "view",
      "type": "function"
    },
    {
      "inputs": [],
      "name": "CONTRACT_VERSION",
      "outputs": [
        {
          "internalType": "uint256",
          "name": "",
          "type": "uint256"
        }
      ],
      "stateMutability": "view",
      "type": "function"
    },
    {
      "inputs": [],
      "name": "HOURLY_ROI_PERCENTAGE",
      "outputs": [
        {
          "internalType": "uint256",
          "name": "",
          "type": "uint256"
        }
      ],
      "stateMutability": "view",
      "type": "function"
    },
    {
      "inputs": [],
      "name": "MAX_DEPOSIT",
      "outputs": [
        {
          "internalType": "uint256",
          "name": "",
          "type": "uint256"
        }
      ],
      "stateMutability": "view",
      "type": "function"
    },
    {
      "inputs": [],
      "name": "MAX_DEPOSITS_PER_USER",
      "outputs": [
        {
          "internalType": "uint256",
          "name": "",
          "type": "uint256"
        }
      ],
      "stateMutability": "view",
      "type": "function"
    },
    {
      "inputs": [],
      "name": "MAX_ROI_PERCENTAGE",
      "outputs": [
        {
          "internalType": "uint16",
          "name": "",
          "type": "uint16"
        }
      ],
      "stateMutability": "view",
      "type": "function"
    },
    {
      "inputs": [],
      "name": "MIN_DEPOSIT",
      "outputs": [
        {
          "internalType": "uint256",
          "name": "",
          "type": "uint256"
        }
      ],
      "stateMutability": "view",
      "type": "function"
    },
    {
      "inputs": [],
      "name": "addBalance",
      "outputs": [],
      "stateMutability": "payable",
      "type": "function"
    },
    {
      "inputs": [
        {
          "internalType": "address",
          "name": "userAddress",
          "type": "address"
        }
      ],
      "name": "calculateRewards",
      "outputs": [
        {
          "internalType": "uint256",
          "name": "",
          "type": "uint256"
        }
      ],
      "stateMutability": "view",
      "type": "function"
    },
    {
      "inputs": [
        {
          "internalType": "address",
          "name": "_newTreasury",
          "type": "address"
        }
      ],
      "name": "changeTreasuryAddress",
      "outputs": [],
      "stateMutability": "nonpayable",
      "type": "function"
    },
    {
      "inputs": [],
      "name": "deposit",
      "outputs": [],
      "stateMutability": "payable",
      "type": "function"
    },
    {
      "inputs": [],
      "name": "emergencyUserWithdraw",
      "outputs": [],
      "stateMutability": "nonpayable",
      "type": "function"
    },
    {
      "inputs": [
        {
          "internalType": "address",
          "name": "to",
          "type": "address"
        }
      ],
      "name": "emergencyWithdraw",
      "outputs": [],
      "stateMutability": "nonpayable",
      "type": "function"
    },
    {
      "inputs": [],
      "name": "getContractBalance",
      "outputs": [
        {
          "internalType": "uint256",
          "name": "",
          "type": "uint256"
        }
      ],
      "stateMutability": "view",
      "type": "function"
    },
    {
      "inputs": [
        {
          "internalType": "address",
          "name": "user",
          "type": "address"
        }
      ],
      "name": "getTotalDeposit",
      "outputs": [
        {
          "internalType": "uint256",
          "name": "",
          "type": "uint256"
        }
      ],
      "stateMutability": "view",
      "type": "function"
    },
    {
      "inputs": [
        {
          "internalType": "address",
          "name": "user",
          "type": "address"
        }
      ],
      "name": "getUserDeposits",
      "outputs": [
        {
          "components": [
            {
              "internalType": "uint256",
              "name": "amount",
              "type": "uint256"
            },
            {
              "internalType": "uint256",
              "name": "timestamp",
              "type": "uint256"
            }
          ],
          "internalType": "struct StakingContract.Deposit[]",
          "name": "",
          "type": "tuple[]"
        }
      ],
      "stateMutability": "view",
      "type": "function"
    },
    {
      "inputs": [
        {
          "internalType": "address",
          "name": "_newContractAddress",
          "type": "address"
        }
      ],
      "name": "migrateToNewContract",
      "outputs": [],
      "stateMutability": "nonpayable",
      "type": "function"
    },
    {
      "inputs": [],
      "name": "migrated",
      "outputs": [
        {
          "internalType": "bool",
          "name": "",
          "type": "bool"
        }
      ],
      "stateMutability": "view",
      "type": "function"
    },
    {
      "inputs": [],
      "name": "newContractAddress",
      "outputs": [
        {
          "internalType": "address",
          "name": "",
          "type": "address"
        }
      ],
      "stateMutability": "view",
      "type": "function"
    },
    {
      "inputs": [],
      "name": "owner",
      "outputs": [
        {
          "internalType": "address",
          "name": "",
          "type": "address"
        }
      ],
      "stateMutability": "view",
      "type": "function"
    },
    {
      "inputs": [],
      "name": "pause",
      "outputs": [],
      "stateMutability": "nonpayable",
      "type": "function"
    },
    {
      "inputs": [],
      "name": "paused",
      "outputs": [
        {
          "internalType": "bool",
          "name": "",
          "type": "bool"
        }
      ],
      "stateMutability": "view",
      "type": "function"
    },
    {
      "inputs": [],
      "name": "renounceOwnership",
      "outputs": [],
      "stateMutability": "nonpayable",
      "type": "function"
    },
    {
      "inputs": [],
      "name": "totalPoolBalance",
      "outputs": [
        {
          "internalType": "uint256",
          "name": "",
          "type": "uint256"
        }
      ],
      "stateMutability": "view",
      "type": "function"
    },
    {
      "inputs": [
        {
          "internalType": "address",
          "name": "newOwner",
          "type": "address"
        }
      ],
      "name": "transferOwnership",
      "outputs": [],
      "stateMutability": "nonpayable",
      "type": "function"
    },
    {
      "inputs": [],
      "name": "treasury",
      "outputs": [
        {
          "internalType": "address",
          "name": "",
          "type": "address"
        }
      ],
      "stateMutability": "view",
      "type": "function"
    },
    {
      "inputs": [],
      "name": "uniqueUsersCount",
      "outputs": [
        {
          "internalType": "uint256",
          "name": "",
          "type": "uint256"
        }
      ],
      "stateMutability": "view",
      "type": "function"
    },
    {
      "inputs": [],
      "name": "unpause",
      "outputs": [],
      "stateMutability": "nonpayable",
      "type": "function"
    },
    {
      "inputs": [],
      "name": "withdraw",
      "outputs": [],
      "stateMutability": "nonpayable",
      "type": "function"
    },
    {
      "stateMutability": "payable",
      "type": "receive"
    }
  ],
  "bytecode": "0x608060405234801561001057600080fd5b5060405161162338038061162383398101604081905261002f91610118565b610038336100c8565b6000805460ff60a01b19169055600180556001600160a01b0381166100a35760405162461bcd60e51b815260206004820152601860248201527f496e76616c696420747265617375727920616464726573730000000000000000604482015260640160405180910390fd5b600380546001600160a01b0319166001600160a01b0392909216919091179055610148565b600080546001600160a01b038381166001600160a01b0319831681178455604051919092169283917f8be0079c531659141344cd1fd0a4f28419497f9722a3daafe3b4186f6b6457e09190a35050565b60006020828403121561012a57600080fd5b81516001600160a01b038116811461014157600080fd5b9392505050565b6114cc806101576000396000f3fe6080604052600436106101c65760003560e01c8063715018a6116100f7578063c9f8234f11610095578063e798d3c911610064578063e798d3c91461049f578063f2fde38b146104b5578063fe0f869f146104d5578063fe1e05b5146104ea57600080fd5b8063c9f8234f14610447578063d0e30db01461045d578063dd5967c314610465578063e1e158a51461048357600080fd5b80638da5cb5b116100d15780638da5cb5b146103eb5780639dc1fb2714610409578063a6f353f01461041f578063b163cc381461043f57600080fd5b8063715018a6146103a15780638456cb59146103b6578063857184d1146103cb57600080fd5b80635026d63e1161016457806364ab86751161013e57806364ab86751461032e5780636af04a571461034e5780636f9fb98a1461036e5780636ff1c9bc1461038157600080fd5b80635026d63e146102c15780635c975abb146102d757806361d027b3146102f657600080fd5b806333fb4e64116101a057806333fb4e641461025d57806338b90333146102805780633ccfd60b146102955780633f4ba83a146102ac57600080fd5b80631bf1de9b146101d25780632a5bf6d2146101ff5780632c678c641461022c57600080fd5b366101cd57005b600080fd5b3480156101de57600080fd5b506101e7600681565b60405161ffff90911681526020015b60405180910390f35b34801561020b57600080fd5b5061021f61021a366004611373565b61050a565b6040516101f691906113a3565b34801561023857600080fd5b5060065461024d90600160a01b900460ff1681565b60405190151581526020016101f6565b34801561026957600080fd5b5061027260fa81565b6040519081526020016101f6565b34801561028c57600080fd5b50610272600181565b3480156102a157600080fd5b506102aa610593565b005b3480156102b857600080fd5b506102aa610735565b3480156102cd57600080fd5b5061027260045481565b3480156102e357600080fd5b50600054600160a01b900460ff1661024d565b34801561030257600080fd5b50600354610316906001600160a01b031681565b6040516001600160a01b0390911681526020016101f6565b34801561033a57600080fd5b50610272610349366004611373565b610772565b34801561035a57600080fd5b50600654610316906001600160a01b031681565b34801561037a57600080fd5b5047610272565b34801561038d57600080fd5b506102aa61039c366004611373565b61085f565b3480156103ad57600080fd5b506102aa610912565b3480156103c257600080fd5b506102aa610924565b3480156103d757600080fd5b506102726103e6366004611373565b610961565b3480156103f757600080fd5b506000546001600160a01b0316610316565b34801561041557600080fd5b5061027261012c81565b34801561042b57600080fd5b506102aa61043a366004611373565b6109bf565b6102aa610a6f565b34801561045357600080fd5b5061027260025481565b6102aa610b0d565b34801561047157600080fd5b5061027269021e19e0c9bab240000081565b34801561048f57600080fd5b50610272674563918244f4000081565b3480156104ab57600080fd5b506101e76132c881565b3480156104c157600080fd5b506102aa6104d0366004611373565b610d8e565b3480156104e157600080fd5b506102aa610e07565b3480156104f657600080fd5b506102aa610505366004611373565b610eea565b6001600160a01b0381166000908152600560209081526040808320805482518185028101850190935280835260609492939192909184015b8282101561058857838290600052602060002090600202016040518060400160405290816000820154815260200160018201548152505081526020019060010190610542565b505050509050919050565b61059b610fae565b6105a3611007565b600654600160a01b900460ff16156106025760405162461bcd60e51b815260206004820152601a60248201527f436f6e747261637420686173206265656e206d6967726174656400000000000060448201526064015b60405180910390fd5b600061060d33610772565b9050600081116106585760405162461bcd60e51b81526020600482015260166024820152754e6f207265776172647320746f20776974686472617760501b60448201526064016105f9565b600061067261271061066c84610258611054565b90611069565b905060006106808383611075565b3360009081526005602052604081209192505b81548110156106d057428260000182815481106106b2576106b26113f2565b60009182526020909120600160029092020181019190915501610693565b506003546106e7906001600160a01b031684611081565b6106f13383611081565b60405182815233907fbc158bb64f05d6383aea69bbb0b20c1bbf4b7a18f63359c5649b7c39e29d38849060200160405180910390a25050505061073360018055565b565b61073d61119f565b6107456111f9565b60405133907f5b65b0c1363b3003db9bcc5e1fd8805a6d6bf5bf6dc9d3431ee4494cd7d1176690600090a2565b6001600160a01b038116600090815260056020526040812081805b82548110156108575760008360000182815481106107ad576107ad6113f2565b906000526020600020906002020190506000610e108260010154426107d2919061141e565b6107dc9190611431565b90506000620f42408260fa85600001546107f69190611453565b6108009190611453565b61080a9190611431565b835490915060009061271090610823906132c890611453565b61082d9190611431565b90508082111561083b578091505b610845828761146a565b9550506001909301925061078d915050565b509392505050565b61086761119f565b61086f611249565b6001600160a01b0381166108b75760405162461bcd60e51b815260206004820152600f60248201526e496e76616c6964206164647265737360881b60448201526064016105f9565b476108cb6001600160a01b03831682611081565b816001600160a01b03167f5fafa99d0643513820be26656b45130b01e1c03062e1266bf36f88cbd3bd96958260405161090691815260200190565b60405180910390a25050565b61091a61119f565b6107336000611299565b61092c61119f565b6109346112e9565b60405133907f81990fd9a5c552b8e3677917d8a03c07678f0d2cb68f88b634aca2022e9bd19f90600090a2565b6001600160a01b038116600090815260056020526040812081805b8254811015610857576109b583600001828154811061099d5761099d6113f2565b6000918252602090912060029091020154839061132c565b915060010161097c565b6109c761119f565b6001600160a01b038116610a1d5760405162461bcd60e51b815260206004820152601860248201527f496e76616c69642074726561737572792061646472657373000000000000000060448201526064016105f9565b600380546001600160a01b038381166001600160a01b0319831681179093556040519116919082907f4fc6e7a37aea21888550b60360992adb6a9b3b4da644d63e9f3a420c2d86e28290600090a35050565b610a7761119f565b60003411610ac75760405162461bcd60e51b815260206004820152601d60248201527f416d6f756e74206d7573742062652067726561746572207468616e203000000060448201526064016105f9565b600454610ad4903461132c565b6004556040513481527f29ec8878f219a513e81dc2f215d685ba9ad10d60b25a0b9241aad63fce84962c906020015b60405180910390a1565b610b15610fae565b610b1d611007565b600654600160a01b900460ff1615610b775760405162461bcd60e51b815260206004820152601a60248201527f436f6e747261637420686173206265656e206d6967726174656400000000000060448201526064016105f9565b674563918244f40000341015610bc75760405162461bcd60e51b81526020600482015260156024820152744465706f7369742062656c6f77206d696e696d756d60581b60448201526064016105f9565b69021e19e0c9bab2400000341115610c2d5760405162461bcd60e51b8152602060048201526024808201527f4465706f73697420616d6f756e742065786365656473206d6178696d756d206c6044820152631a5b5a5d60e21b60648201526084016105f9565b3360009081526005602052604090205461012c11610c845760405162461bcd60e51b815260206004820152601460248201527313585e0819195c1bdcda5d1cc81c995858da195960621b60448201526064016105f9565b6000610c9861271061066c34610258611054565b90506000610ca63483611075565b3360009081526005602052604081205491925003610cd45760028054906000610cce8361147d565b91905055505b600454610ce1908261132c565b600455336000908152600560209081526040808320805482518084019093528583524283850190815260018083018455928652939094209151600285029092019182559151910155600354610d3f906001600160a01b031684611081565b604080518381526020810185905242818301529051829133917ff0c0eca9f6ed9ad8da1bc85eb9c9ee44f49b92275543eec272134ef0b091d10a9181900360600190a350505061073360018055565b610d9661119f565b6001600160a01b038116610dfb5760405162461bcd60e51b815260206004820152602660248201527f4f776e61626c653a206e6577206f776e657220697320746865207a65726f206160448201526564647265737360d01b60648201526084016105f9565b610e0481611299565b50565b610e0f610fae565b610e17611249565b6000610e2233610961565b905060008111610e745760405162461bcd60e51b815260206004820152601760248201527f4e6f206465706f7369747320746f20776974686472617700000000000000000060448201526064016105f9565b600454610e819082611075565b60045533600090815260056020526040812090610e9e8282611338565b50610eab90503382611081565b60405181815233907f5fafa99d0643513820be26656b45130b01e1c03062e1266bf36f88cbd3bd96959060200160405180910390a25061073360018055565b610ef261119f565b6001600160a01b038116610f3a5760405162461bcd60e51b815260206004820152600f60248201526e496e76616c6964206164647265737360881b60448201526064016105f9565b600654600160a01b900460ff1615610f875760405162461bcd60e51b815260206004820152601060248201526f105b1c9958591e481b5a59dc985d195960821b60448201526064016105f9565b600680546001600160a81b0319166001600160a01b0390921691909117600160a01b179055565b6002600154036110005760405162461bcd60e51b815260206004820152601f60248201527f5265656e7472616e637947756172643a207265656e7472616e742063616c6c0060448201526064016105f9565b6002600155565b600054600160a01b900460ff16156107335760405162461bcd60e51b815260206004820152601060248201526f14185d5cd8589b194e881c185d5cd95960821b60448201526064016105f9565b60006110608284611453565b90505b92915050565b60006110608284611431565b6000611060828461141e565b804710156110d15760405162461bcd60e51b815260206004820152601d60248201527f416464726573733a20696e73756666696369656e742062616c616e636500000060448201526064016105f9565b6000826001600160a01b03168260405160006040518083038185875af1925050503d806000811461111e576040519150601f19603f3d011682016040523d82523d6000602084013e611123565b606091505b505090508061119a5760405162461bcd60e51b815260206004820152603a60248201527f416464726573733a20756e61626c6520746f2073656e642076616c75652c207260448201527f6563697069656e74206d6179206861766520726576657274656400000000000060648201526084016105f9565b505050565b6000546001600160a01b031633146107335760405162461bcd60e51b815260206004820181905260248201527f4f776e61626c653a2063616c6c6572206973206e6f7420746865206f776e657260448201526064016105f9565b611201611249565b6000805460ff60a01b191690557f5db9ee0a495bf2e6ff9c91a7834c1ba4fdd244a5e8aa4e537bd38aeae4b073aa335b6040516001600160a01b039091168152602001610b03565b600054600160a01b900460ff166107335760405162461bcd60e51b815260206004820152601460248201527314185d5cd8589b194e881b9bdd081c185d5cd95960621b60448201526064016105f9565b600080546001600160a01b038381166001600160a01b0319831681178455604051919092169283917f8be0079c531659141344cd1fd0a4f28419497f9722a3daafe3b4186f6b6457e09190a35050565b6112f1611007565b6000805460ff60a01b1916600160a01b1790557f62e78cea01bee320cd4e420270b5ea74000d11b0c9f74754ebdbfc544b05a2586112313390565b6000611060828461146a565b5080546000825560020290600052602060002090810190610e0491905b8082111561136f5760008082556001820155600201611355565b5090565b60006020828403121561138557600080fd5b81356001600160a01b038116811461139c57600080fd5b9392505050565b602080825282518282018190526000919060409081850190868401855b828110156113e5578151805185528601518685015292840192908501906001016113c0565b5091979650505050505050565b634e487b7160e01b600052603260045260246000fd5b634e487b7160e01b600052601160045260246000fd5b8181038181111561106357611063611408565b60008261144e57634e487b7160e01b600052601260045260246000fd5b500490565b808202811582820484141761106357611063611408565b8082018082111561106357611063611408565b60006001820161148f5761148f611408565b506001019056fea264697066735822122039118a913aeba3d11aabc331249807106eb7ceec0ae6506973c4f7ffaa8eb50c64736f6c63430008180033",
  "linkReferences": {},
  "deployedLinkReferences": {}
}