{
  "_format": "hh-sol-artifact-1",
  "contractName": "NuvoLogic",
  "sourceName": "contracts/nuvoLogic.sol",
  "abi": [
    {
      "inputs": [
        {
          "internalType": "address",
          "name": "_treasury",
          "type": "address"
        }
      ],
      "stateMutability": "nonpayable",
      "type": "constructor"
    },
    {
      "anonymous": false,
      "inputs": [
        {
          "indexed": false,
          "internalType": "uint256",
          "name": "amount",
          "type": "uint256"
        }
      ],
      "name": "BalanceAdded",
      "type": "event"
    },
    {
      "anonymous": false,
      "inputs": [
        {
          "indexed": true,
          "internalType": "address",
          "name": "owner",
          "type": "address"
        }
      ],
      "name": "ContractPaused",
      "type": "event"
    },
    {
      "anonymous": false,
      "inputs": [
        {
          "indexed": true,
          "internalType": "address",
          "name": "owner",
          "type": "address"
        }
      ],
      "name": "ContractUnpaused",
      "type": "event"
    },
    {
      "anonymous": false,
      "inputs": [
        {
          "indexed": true,
          "internalType": "address",
          "name": "user",
          "type": "address"
        },
        {
          "indexed": true,
          "internalType": "uint256",
          "name": "depositId",
          "type": "uint256"
        },
        {
          "indexed": false,
          "internalType": "uint256",
          "name": "amount",
          "type": "uint256"
        },
        {
          "indexed": false,
          "internalType": "uint256",
          "name": "commission",
          "type": "uint256"
        },
        {
          "indexed": false,
          "internalType": "uint256",
          "name": "timestamp",
          "type": "uint256"
        }
      ],
      "name": "DepositMade",
      "type": "event"
    },
    {
      "anonymous": false,
      "inputs": [
        {
          "indexed": true,
          "internalType": "address",
          "name": "user",
          "type": "address"
        },
        {
          "indexed": false,
          "internalType": "uint256",
          "name": "amount",
          "type": "uint256"
        }
      ],
      "name": "EmergencyWithdraw",
      "type": "event"
    },
    {
      "anonymous": false,
      "inputs": [
        {
          "indexed": true,
          "internalType": "address",
          "name": "previousOwner",
          "type": "address"
        },
        {
          "indexed": true,
          "internalType": "address",
          "name": "newOwner",
          "type": "address"
        }
      ],
      "name": "OwnershipTransferred",
      "type": "event"
    },
    {
      "anonymous": false,
      "inputs": [
        {
          "indexed": false,
          "internalType": "address",
          "name": "account",
          "type": "address"
        }
      ],
      "name": "Paused",
      "type": "event"
    },
    {
      "anonymous": false,
      "inputs": [
        {
          "indexed": true,
          "internalType": "address",
          "name": "previousTreasury",
          "type": "address"
        },
        {
          "indexed": true,
          "internalType": "address",
          "name": "newTreasury",
          "type": "address"
        }
      ],
      "name": "TreasuryAddressChanged",
      "type": "event"
    },
    {
      "anonymous": false,
      "inputs": [
        {
          "indexed": false,
          "internalType": "address",
          "name": "account",
          "type": "address"
        }
      ],
      "name": "Unpaused",
      "type": "event"
    },
    {
      "anonymous": false,
      "inputs": [
        {
          "indexed": true,
          "internalType": "address",
          "name": "user",
          "type": "address"
        },
        {
          "indexed": false,
          "internalType": "uint256",
          "name": "amount",
          "type": "uint256"
        }
      ],
      "name": "WithdrawalMade",
      "type": "event"
    },
    {
      "inputs": [],
      "name": "COMMISSION_PERCENTAGE",
      "outputs": [
        {
          "internalType": "uint16",
          "name": "",
          "type": "uint16"
        }
      ],
      "stateMutability": "view",
      "type": "function"
    },
    {
      "inputs": [],
      "name": "CONTRACT_VERSION",
      "outputs": [
        {
          "internalType": "uint256",
          "name": "",
          "type": "uint256"
        }
      ],
      "stateMutability": "view",
      "type": "function"
    },
    {
      "inputs": [],
      "name": "HOURLY_ROI_PERCENTAGE",
      "outputs": [
        {
          "internalType": "uint256",
          "name": "",
          "type": "uint256"
        }
      ],
      "stateMutability": "view",
      "type": "function"
    },
    {
      "inputs": [],
      "name": "MAX_DEPOSIT",
      "outputs": [
        {
          "internalType": "uint256",
          "name": "",
          "type": "uint256"
        }
      ],
      "stateMutability": "view",
      "type": "function"
    },
    {
      "inputs": [],
      "name": "MAX_DEPOSITS_PER_USER",
      "outputs": [
        {
          "internalType": "uint256",
          "name": "",
          "type": "uint256"
        }
      ],
      "stateMutability": "view",
      "type": "function"
    },
    {
      "inputs": [],
      "name": "MAX_ROI_PERCENTAGE",
      "outputs": [
        {
          "internalType": "uint16",
          "name": "",
          "type": "uint16"
        }
      ],
      "stateMutability": "view",
      "type": "function"
    },
    {
      "inputs": [],
      "name": "MIN_DEPOSIT",
      "outputs": [
        {
          "internalType": "uint256",
          "name": "",
          "type": "uint256"
        }
      ],
      "stateMutability": "view",
      "type": "function"
    },
    {
      "inputs": [],
      "name": "addBalance",
      "outputs": [],
      "stateMutability": "payable",
      "type": "function"
    },
    {
      "inputs": [
        {
          "internalType": "address",
          "name": "userAddress",
          "type": "address"
        }
      ],
      "name": "calculateRewards",
      "outputs": [
        {
          "internalType": "uint256",
          "name": "",
          "type": "uint256"
        }
      ],
      "stateMutability": "view",
      "type": "function"
    },
    {
      "inputs": [
        {
          "internalType": "address",
          "name": "_newTreasury",
          "type": "address"
        }
      ],
      "name": "changeTreasuryAddress",
      "outputs": [],
      "stateMutability": "nonpayable",
      "type": "function"
    },
    {
      "inputs": [],
      "name": "deposit",
      "outputs": [],
      "stateMutability": "payable",
      "type": "function"
    },
    {
      "inputs": [],
      "name": "emergencyUserWithdraw",
      "outputs": [],
      "stateMutability": "nonpayable",
      "type": "function"
    },
    {
      "inputs": [
        {
          "internalType": "address",
          "name": "to",
          "type": "address"
        }
      ],
      "name": "emergencyWithdraw",
      "outputs": [],
      "stateMutability": "nonpayable",
      "type": "function"
    },
    {
      "inputs": [],
      "name": "getContractBalance",
      "outputs": [
        {
          "internalType": "uint256",
          "name": "",
          "type": "uint256"
        }
      ],
      "stateMutability": "view",
      "type": "function"
    },
    {
      "inputs": [
        {
          "internalType": "address",
          "name": "user",
          "type": "address"
        }
      ],
      "name": "getTotalDeposit",
      "outputs": [
        {
          "internalType": "uint256",
          "name": "",
          "type": "uint256"
        }
      ],
      "stateMutability": "view",
      "type": "function"
    },
    {
      "inputs": [
        {
          "internalType": "address",
          "name": "user",
          "type": "address"
        }
      ],
      "name": "getUserDeposits",
      "outputs": [
        {
          "components": [
            {
              "internalType": "uint256",
              "name": "amount",
              "type": "uint256"
            },
            {
              "internalType": "uint256",
              "name": "timestamp",
              "type": "uint256"
            }
          ],
          "internalType": "struct NuvoLogic.Deposit[]",
          "name": "",
          "type": "tuple[]"
        }
      ],
      "stateMutability": "view",
      "type": "function"
    },
    {
      "inputs": [
        {
          "internalType": "address",
          "name": "user",
          "type": "address"
        }
      ],
      "name": "getUserInfo",
      "outputs": [
        {
          "components": [
            {
              "internalType": "uint256",
              "name": "totalDeposited",
              "type": "uint256"
            },
            {
              "internalType": "uint256",
              "name": "pendingRewards",
              "type": "uint256"
            },
            {
              "internalType": "uint256",
              "name": "lastWithdraw",
              "type": "uint256"
            }
          ],
          "internalType": "struct NuvoLogic.UserInfo",
          "name": "",
          "type": "tuple"
        }
      ],
      "stateMutability": "view",
      "type": "function"
    },
    {
      "inputs": [
        {
          "internalType": "address",
          "name": "",
          "type": "address"
        }
      ],
      "name": "lastWithdrawTime",
      "outputs": [
        {
          "internalType": "uint256",
          "name": "",
          "type": "uint256"
        }
      ],
      "stateMutability": "view",
      "type": "function"
    },
    {
      "inputs": [
        {
          "internalType": "address",
          "name": "_newContractAddress",
          "type": "address"
        }
      ],
      "name": "migrateToNewContract",
      "outputs": [],
      "stateMutability": "nonpayable",
      "type": "function"
    },
    {
      "inputs": [],
      "name": "migrated",
      "outputs": [
        {
          "internalType": "bool",
          "name": "",
          "type": "bool"
        }
      ],
      "stateMutability": "view",
      "type": "function"
    },
    {
      "inputs": [],
      "name": "newContractAddress",
      "outputs": [
        {
          "internalType": "address",
          "name": "",
          "type": "address"
        }
      ],
      "stateMutability": "view",
      "type": "function"
    },
    {
      "inputs": [],
      "name": "owner",
      "outputs": [
        {
          "internalType": "address",
          "name": "",
          "type": "address"
        }
      ],
      "stateMutability": "view",
      "type": "function"
    },
    {
      "inputs": [],
      "name": "pause",
      "outputs": [],
      "stateMutability": "nonpayable",
      "type": "function"
    },
    {
      "inputs": [],
      "name": "paused",
      "outputs": [
        {
          "internalType": "bool",
          "name": "",
          "type": "bool"
        }
      ],
      "stateMutability": "view",
      "type": "function"
    },
    {
      "inputs": [],
      "name": "renounceOwnership",
      "outputs": [],
      "stateMutability": "nonpayable",
      "type": "function"
    },
    {
      "inputs": [],
      "name": "totalPoolBalance",
      "outputs": [
        {
          "internalType": "uint256",
          "name": "",
          "type": "uint256"
        }
      ],
      "stateMutability": "view",
      "type": "function"
    },
    {
      "inputs": [
        {
          "internalType": "address",
          "name": "newOwner",
          "type": "address"
        }
      ],
      "name": "transferOwnership",
      "outputs": [],
      "stateMutability": "nonpayable",
      "type": "function"
    },
    {
      "inputs": [],
      "name": "treasury",
      "outputs": [
        {
          "internalType": "address",
          "name": "",
          "type": "address"
        }
      ],
      "stateMutability": "view",
      "type": "function"
    },
    {
      "inputs": [],
      "name": "uniqueUsersCount",
      "outputs": [
        {
          "internalType": "uint256",
          "name": "",
          "type": "uint256"
        }
      ],
      "stateMutability": "view",
      "type": "function"
    },
    {
      "inputs": [],
      "name": "unpause",
      "outputs": [],
      "stateMutability": "nonpayable",
      "type": "function"
    },
    {
      "inputs": [],
      "name": "withdraw",
      "outputs": [],
      "stateMutability": "nonpayable",
      "type": "function"
    },
    {
      "inputs": [],
      "name": "withdrawAll",
      "outputs": [],
      "stateMutability": "nonpayable",
      "type": "function"
    },
    {
      "stateMutability": "payable",
      "type": "receive"
    }
  ],
  "bytecode": "0x608060405234801561001057600080fd5b5060405162001a7238038062001a728339810160408190526100319161011a565b61003a336100ca565b6000805460ff60a01b19169055600180556001600160a01b0381166100a55760405162461bcd60e51b815260206004820152601860248201527f496e76616c696420747265617375727920616464726573730000000000000000604482015260640160405180910390fd5b600380546001600160a01b0319166001600160a01b039290921691909117905561014a565b600080546001600160a01b038381166001600160a01b0319831681178455604051919092169283917f8be0079c531659141344cd1fd0a4f28419497f9722a3daafe3b4186f6b6457e09190a35050565b60006020828403121561012c57600080fd5b81516001600160a01b038116811461014357600080fd5b9392505050565b611918806200015a6000396000f3fe6080604052600436106101e75760003560e01c8063715018a611610102578063c9f8234f11610095578063e798d3c911610064578063e798d3c914610544578063f2fde38b1461055a578063fe0f869f1461057a578063fe1e05b51461058f57600080fd5b8063c9f8234f146104ec578063d0e30db014610502578063dd5967c31461050a578063e1e158a51461052857600080fd5b80638da5cb5b116100d15780638da5cb5b146104905780639dc1fb27146104ae578063a6f353f0146104c4578063b163cc38146104e457600080fd5b8063715018a6146104315780638456cb5914610446578063853828b61461045b578063857184d11461047057600080fd5b80635026d63e1161017a57806364ab86751161014957806364ab8675146103be5780636af04a57146103de5780636f9fb98a146103fe5780636ff1c9bc1461041157600080fd5b80635026d63e1461030f5780635c975abb1461032557806361d027b3146103445780636386c1c71461037c57600080fd5b806333fb4e64116101b657806333fb4e64146102b957806338b90333146102ce5780633ccfd60b146102e35780633f4ba83a146102fa57600080fd5b80631031ec31146101f35780631bf1de9b146102335780632a5bf6d21461025b5780632c678c641461028857600080fd5b366101ee57005b600080fd5b3480156101ff57600080fd5b5061022061020e366004611788565b60066020526000908152604090205481565b6040519081526020015b60405180910390f35b34801561023f57600080fd5b50610248600681565b60405161ffff909116815260200161022a565b34801561026757600080fd5b5061027b610276366004611788565b6105af565b60405161022a91906117b8565b34801561029457600080fd5b506007546102a990600160a01b900460ff1681565b604051901515815260200161022a565b3480156102c557600080fd5b5061022060c881565b3480156102da57600080fd5b50610220600181565b3480156102ef57600080fd5b506102f8610638565b005b34801561030657600080fd5b506102f861085d565b34801561031b57600080fd5b5061022060045481565b34801561033157600080fd5b50600054600160a01b900460ff166102a9565b34801561035057600080fd5b50600354610364906001600160a01b031681565b6040516001600160a01b03909116815260200161022a565b34801561038857600080fd5b5061039c610397366004611788565b61089a565b604080518251815260208084015190820152918101519082015260600161022a565b3480156103ca57600080fd5b506102206103d9366004611788565b610909565b3480156103ea57600080fd5b50600754610364906001600160a01b031681565b34801561040a57600080fd5b5047610220565b34801561041d57600080fd5b506102f861042c366004611788565b610a3c565b34801561043d57600080fd5b506102f8610b14565b34801561045257600080fd5b506102f8610b26565b34801561046757600080fd5b506102f8610b63565b34801561047c57600080fd5b5061022061048b366004611788565b610cfa565b34801561049c57600080fd5b506000546001600160a01b0316610364565b3480156104ba57600080fd5b5061022061012c81565b3480156104d057600080fd5b506102f86104df366004611788565b610d5a565b6102f8610e0a565b3480156104f857600080fd5b5061022060025481565b6102f8610eaf565b34801561051657600080fd5b5061022069021e19e0c9bab240000081565b34801561053457600080fd5b50610220674563918244f4000081565b34801561055057600080fd5b506102486130d481565b34801561056657600080fd5b506102f8610575366004611788565b611136565b34801561058657600080fd5b506102f86111af565b34801561059b57600080fd5b506102f86105aa366004611788565b6112bc565b6001600160a01b0381166000908152600560209081526040808320805482518185028101850190935280835260609492939192909184015b8282101561062d578382906000526020600020906002020160405180604001604052908160008201548152602001600182015481525050815260200190600101906105e7565b505050509050919050565b610640611380565b6106486113d9565b600754600160a01b900460ff161561067b5760405162461bcd60e51b815260040161067290611807565b60405180910390fd5b600061068633610909565b9050600081116106d15760405162461bcd60e51b81526020600482015260166024820152754e6f207265776172647320746f20776974686472617760501b6044820152606401610672565b336000908152600660205260409020429055806107295760405162461bcd60e51b81526020600482015260166024820152754e6f207265776172647320746f20776974686472617760501b6044820152606401610672565b600061271061073a83610258611854565b610744919061186b565b90506000610752828461188d565b905060005b336000908152600560205260409020548110156107b057336000908152600560205260409020805442919083908110610792576107926118a0565b60009182526020909120600160029092020181019190915501610757565b506003546040516001600160a01b039091169083156108fc029084906000818181858888f193505050501580156107eb573d6000803e3d6000fd5b50604051339082156108fc029083906000818181858888f19350505050158015610819573d6000803e3d6000fd5b5060405181815233907fbc158bb64f05d6383aea69bbb0b20c1bbf4b7a18f63359c5649b7c39e29d38849060200160405180910390a250505061085b60018055565b565b610865611426565b61086d611480565b60405133907f5b65b0c1363b3003db9bcc5e1fd8805a6d6bf5bf6dc9d3431ee4494cd7d1176690600090a2565b6108be60405180606001604052806000815260200160008152602001600081525090565b60405180606001604052806108d284610cfa565b81526020016108e084610909565b81526001600160a01b039093166000908152600660209081526040909120549301929092525090565b6001600160a01b038116600090815260056020526040812081805b8254811015610a34576000836000018281548110610944576109446118a0565b906000526020600020906002020190506000610e10826001015442610969919061188d565b610973919061186b565b90506000620f42408260c8856000015461098d9190611854565b6109979190611854565b6109a1919061186b565b8354909150600090612710906109ba906130d490611854565b6109c4919061186b565b9050808211156109d2578091505b60008460010154426109e4919061188d565b905060006109f1826114d0565b9050612710610a008286611854565b610a0a919061186b565b610a1490856118b6565b9350610a2084896118b6565b975050600190950194506109249350505050565b509392505050565b610a44611426565b610a4c611513565b6001600160a01b038116610a945760405162461bcd60e51b815260206004820152600f60248201526e496e76616c6964206164647265737360881b6044820152606401610672565b60405147906001600160a01b0383169082156108fc029083906000818181858888f19350505050158015610acc573d6000803e3d6000fd5b50816001600160a01b03167f5fafa99d0643513820be26656b45130b01e1c03062e1266bf36f88cbd3bd969582604051610b0891815260200190565b60405180910390a25050565b610b1c611426565b61085b6000611563565b610b2e611426565b610b366115b3565b60405133907f81990fd9a5c552b8e3677917d8a03c07678f0d2cb68f88b634aca2022e9bd19f90600090a2565b610b6b611380565b610b736113d9565b600754600160a01b900460ff1615610b9d5760405162461bcd60e51b815260040161067290611807565b6000610ba833610cfa565b90506000610bb533610909565b90506000610bc383836115f6565b905060008111610c0c5760405162461bcd60e51b81526020600482015260146024820152734e6f2066756e647320746f20776974686472617760601b6044820152606401610672565b6000610c25612710610c1f85600661160b565b90611617565b90506000610c338383611623565b600454909150610c439086611623565b60045533600090815260056020526040812090610c60828261174d565b5050600354610c78906001600160a01b03168361162f565b610c82338261162f565b60405181815233907fbc158bb64f05d6383aea69bbb0b20c1bbf4b7a18f63359c5649b7c39e29d38849060200160405180910390a260405185815233907f5fafa99d0643513820be26656b45130b01e1c03062e1266bf36f88cbd3bd96959060200160405180910390a2505050505061085b60018055565b6001600160a01b038116600090815260056020526040812081805b8254811015610a3457826000018181548110610d3357610d336118a0565b90600052602060002090600202016000015482610d5091906118b6565b9150600101610d15565b610d62611426565b6001600160a01b038116610db85760405162461bcd60e51b815260206004820152601860248201527f496e76616c6964207472656173757279206164647265737300000000000000006044820152606401610672565b600380546001600160a01b038381166001600160a01b0319831681179093556040519116919082907f4fc6e7a37aea21888550b60360992adb6a9b3b4da644d63e9f3a420c2d86e28290600090a35050565b610e12611426565b60003411610e625760405162461bcd60e51b815260206004820152601d60248201527f416d6f756e74206d7573742062652067726561746572207468616e20300000006044820152606401610672565b3460046000828254610e7491906118b6565b90915550506040513481527f29ec8878f219a513e81dc2f215d685ba9ad10d60b25a0b9241aad63fce84962c906020015b60405180910390a1565b610eb7611380565b610ebf6113d9565b600754600160a01b900460ff1615610ee95760405162461bcd60e51b815260040161067290611807565b674563918244f40000341015610f395760405162461bcd60e51b81526020600482015260156024820152744465706f7369742062656c6f77206d696e696d756d60581b6044820152606401610672565b69021e19e0c9bab2400000341115610f9f5760405162461bcd60e51b8152602060048201526024808201527f4465706f73697420616d6f756e742065786365656473206d6178696d756d206c6044820152631a5b5a5d60e21b6064820152608401610672565b3360009081526005602052604090205461012c11610ff65760405162461bcd60e51b815260206004820152601460248201527313585e0819195c1bdcda5d1cc81c995858da195960621b6044820152606401610672565b600061271061100734610258611854565b611011919061186b565b9050600061101f823461188d565b336000908152600560205260408120549192500361104d5760028054906000611047836118c9565b91905055505b806004600082825461105f91906118b6565b9091555050336000908152600560209081526040808320805482518084018452868152428186019081526001808401855593875294862090516002830290910190815593519390910192909255600354905191926001600160a01b03909116916108fc86150291869190818181858888f193505050501580156110e6573d6000803e3d6000fd5b50604080518381526020810185905242818301529051829133917ff0c0eca9f6ed9ad8da1bc85eb9c9ee44f49b92275543eec272134ef0b091d10a9181900360600190a350505061085b60018055565b61113e611426565b6001600160a01b0381166111a35760405162461bcd60e51b815260206004820152602660248201527f4f776e61626c653a206e6577206f776e657220697320746865207a65726f206160448201526564647265737360d01b6064820152608401610672565b6111ac81611563565b50565b6111b7611380565b6111bf611513565b60006111ca33610cfa565b90506000811161121c5760405162461bcd60e51b815260206004820152601760248201527f4e6f206465706f7369747320746f2077697468647261770000000000000000006044820152606401610672565b806004600082825461122e919061188d565b90915550503360009081526005602052604081209061124d828261174d565b5050604051339082156108fc029083906000818181858888f1935050505015801561127c573d6000803e3d6000fd5b5060405181815233907f5fafa99d0643513820be26656b45130b01e1c03062e1266bf36f88cbd3bd96959060200160405180910390a25061085b60018055565b6112c4611426565b6001600160a01b03811661130c5760405162461bcd60e51b815260206004820152600f60248201526e496e76616c6964206164647265737360881b6044820152606401610672565b600754600160a01b900460ff16156113595760405162461bcd60e51b815260206004820152601060248201526f105b1c9958591e481b5a59dc985d195960821b6044820152606401610672565b600780546001600160a81b0319166001600160a01b0390921691909117600160a01b179055565b6002600154036113d25760405162461bcd60e51b815260206004820152601f60248201527f5265656e7472616e637947756172643a207265656e7472616e742063616c6c006044820152606401610672565b6002600155565b600054600160a01b900460ff161561085b5760405162461bcd60e51b815260206004820152601060248201526f14185d5cd8589b194e881c185d5cd95960821b6044820152606401610672565b6000546001600160a01b0316331461085b5760405162461bcd60e51b815260206004820181905260248201527f4f776e61626c653a2063616c6c6572206973206e6f7420746865206f776e65726044820152606401610672565b611488611513565b6000805460ff60a01b191690557f5db9ee0a495bf2e6ff9c91a7834c1ba4fdd244a5e8aa4e537bd38aeae4b073aa335b6040516001600160a01b039091168152602001610ea5565b60006301e1338082106114e657506101f4919050565b62ed4e0082106114f9575061012c919050565b6276a700821061150b57506064919050565b506000919050565b600054600160a01b900460ff1661085b5760405162461bcd60e51b815260206004820152601460248201527314185d5cd8589b194e881b9bdd081c185d5cd95960621b6044820152606401610672565b600080546001600160a01b038381166001600160a01b0319831681178455604051919092169283917f8be0079c531659141344cd1fd0a4f28419497f9722a3daafe3b4186f6b6457e09190a35050565b6115bb6113d9565b6000805460ff60a01b1916600160a01b1790557f62e78cea01bee320cd4e420270b5ea74000d11b0c9f74754ebdbfc544b05a2586114b83390565b600061160282846118b6565b90505b92915050565b60006116028284611854565b6000611602828461186b565b6000611602828461188d565b8047101561167f5760405162461bcd60e51b815260206004820152601d60248201527f416464726573733a20696e73756666696369656e742062616c616e63650000006044820152606401610672565b6000826001600160a01b03168260405160006040518083038185875af1925050503d80600081146116cc576040519150601f19603f3d011682016040523d82523d6000602084013e6116d1565b606091505b50509050806117485760405162461bcd60e51b815260206004820152603a60248201527f416464726573733a20756e61626c6520746f2073656e642076616c75652c207260448201527f6563697069656e74206d617920686176652072657665727465640000000000006064820152608401610672565b505050565b50805460008255600202906000526020600020908101906111ac91905b80821115611784576000808255600182015560020161176a565b5090565b60006020828403121561179a57600080fd5b81356001600160a01b03811681146117b157600080fd5b9392505050565b602080825282518282018190526000919060409081850190868401855b828110156117fa578151805185528601518685015292840192908501906001016117d5565b5091979650505050505050565b6020808252601a908201527f436f6e747261637420686173206265656e206d69677261746564000000000000604082015260600190565b634e487b7160e01b600052601160045260246000fd5b80820281158282048414176116055761160561183e565b60008261188857634e487b7160e01b600052601260045260246000fd5b500490565b818103818111156116055761160561183e565b634e487b7160e01b600052603260045260246000fd5b808201808211156116055761160561183e565b6000600182016118db576118db61183e565b506001019056fea2646970667358221220a2be41252fce855c71967e4c33583cf01ad4482adc1c1bd658e862d781f1530964736f6c63430008180033",
  "linkReferences": {},
  "deployedLinkReferences": {}
}