{
  "_format": "hh-sol-artifact-1",
  "contractName": "StakingContract",
  "sourceName": "contracts/nuvoLogic.sol",
  "abi": [
    {
      "inputs": [
        {
          "internalType": "address",
          "name": "_treasury",
          "type": "address"
        }
      ],
      "stateMutability": "nonpayable",
      "type": "constructor"
    },
    {
      "anonymous": false,
      "inputs": [
        {
          "indexed": true,
          "internalType": "address",
          "name": "user",
          "type": "address"
        },
        {
          "indexed": false,
          "internalType": "uint256",
          "name": "amount",
          "type": "uint256"
        },
        {
          "indexed": false,
          "internalType": "uint256",
          "name": "commission",
          "type": "uint256"
        }
      ],
      "name": "DepositMade",
      "type": "event"
    },
    {
      "anonymous": false,
      "inputs": [
        {
          "indexed": true,
          "internalType": "address",
          "name": "user",
          "type": "address"
        },
        {
          "indexed": false,
          "internalType": "uint256",
          "name": "amount",
          "type": "uint256"
        },
        {
          "indexed": false,
          "internalType": "uint256",
          "name": "commission",
          "type": "uint256"
        }
      ],
      "name": "DepositWithdrawn",
      "type": "event"
    },
    {
      "anonymous": false,
      "inputs": [
        {
          "indexed": true,
          "internalType": "address",
          "name": "previousOwner",
          "type": "address"
        },
        {
          "indexed": true,
          "internalType": "address",
          "name": "newOwner",
          "type": "address"
        }
      ],
      "name": "OwnershipTransferred",
      "type": "event"
    },
    {
      "anonymous": false,
      "inputs": [
        {
          "indexed": false,
          "internalType": "address",
          "name": "account",
          "type": "address"
        }
      ],
      "name": "Paused",
      "type": "event"
    },
    {
      "anonymous": false,
      "inputs": [
        {
          "indexed": true,
          "internalType": "address",
          "name": "user",
          "type": "address"
        },
        {
          "indexed": false,
          "internalType": "uint256",
          "name": "amount",
          "type": "uint256"
        }
      ],
      "name": "RewardClaimed",
      "type": "event"
    },
    {
      "anonymous": false,
      "inputs": [
        {
          "indexed": false,
          "internalType": "address",
          "name": "account",
          "type": "address"
        }
      ],
      "name": "Unpaused",
      "type": "event"
    },
    {
      "inputs": [],
      "name": "COMMISSION_PERCENTAGE",
      "outputs": [
        {
          "internalType": "uint256",
          "name": "",
          "type": "uint256"
        }
      ],
      "stateMutability": "view",
      "type": "function"
    },
    {
      "inputs": [],
      "name": "DAILY_ROI_PERCENTAGE",
      "outputs": [
        {
          "internalType": "uint256",
          "name": "",
          "type": "uint256"
        }
      ],
      "stateMutability": "view",
      "type": "function"
    },
    {
      "inputs": [],
      "name": "DURATION",
      "outputs": [
        {
          "internalType": "uint256",
          "name": "",
          "type": "uint256"
        }
      ],
      "stateMutability": "view",
      "type": "function"
    },
    {
      "inputs": [],
      "name": "MAX_DEPOSIT_PERCENTAGE",
      "outputs": [
        {
          "internalType": "uint256",
          "name": "",
          "type": "uint256"
        }
      ],
      "stateMutability": "view",
      "type": "function"
    },
    {
      "inputs": [],
      "name": "MAX_ROI_PERCENTAGE",
      "outputs": [
        {
          "internalType": "uint256",
          "name": "",
          "type": "uint256"
        }
      ],
      "stateMutability": "view",
      "type": "function"
    },
    {
      "inputs": [],
      "name": "WEEKLY_ROI_PERCENTAGE",
      "outputs": [
        {
          "internalType": "uint256",
          "name": "",
          "type": "uint256"
        }
      ],
      "stateMutability": "view",
      "type": "function"
    },
    {
      "inputs": [],
      "name": "addToPool",
      "outputs": [],
      "stateMutability": "payable",
      "type": "function"
    },
    {
      "inputs": [
        {
          "internalType": "address",
          "name": "user",
          "type": "address"
        }
      ],
      "name": "calculateRewards",
      "outputs": [
        {
          "internalType": "uint256",
          "name": "",
          "type": "uint256"
        }
      ],
      "stateMutability": "view",
      "type": "function"
    },
    {
      "inputs": [
        {
          "internalType": "address",
          "name": "user",
          "type": "address"
        }
      ],
      "name": "checkUserDeposits",
      "outputs": [
        {
          "internalType": "uint256",
          "name": "",
          "type": "uint256"
        }
      ],
      "stateMutability": "view",
      "type": "function"
    },
    {
      "inputs": [],
      "name": "claimRewards",
      "outputs": [],
      "stateMutability": "nonpayable",
      "type": "function"
    },
    {
      "inputs": [],
      "name": "deposit",
      "outputs": [],
      "stateMutability": "payable",
      "type": "function"
    },
    {
      "inputs": [
        {
          "internalType": "address",
          "name": "user",
          "type": "address"
        }
      ],
      "name": "getTotalDeposited",
      "outputs": [
        {
          "internalType": "uint256",
          "name": "",
          "type": "uint256"
        }
      ],
      "stateMutability": "view",
      "type": "function"
    },
    {
      "inputs": [
        {
          "internalType": "address",
          "name": "",
          "type": "address"
        }
      ],
      "name": "lastWithdrawalTime",
      "outputs": [
        {
          "internalType": "uint256",
          "name": "",
          "type": "uint256"
        }
      ],
      "stateMutability": "view",
      "type": "function"
    },
    {
      "inputs": [],
      "name": "owner",
      "outputs": [
        {
          "internalType": "address",
          "name": "",
          "type": "address"
        }
      ],
      "stateMutability": "view",
      "type": "function"
    },
    {
      "inputs": [],
      "name": "pause",
      "outputs": [],
      "stateMutability": "nonpayable",
      "type": "function"
    },
    {
      "inputs": [],
      "name": "paused",
      "outputs": [
        {
          "internalType": "bool",
          "name": "",
          "type": "bool"
        }
      ],
      "stateMutability": "view",
      "type": "function"
    },
    {
      "inputs": [],
      "name": "renounceOwnership",
      "outputs": [],
      "stateMutability": "nonpayable",
      "type": "function"
    },
    {
      "inputs": [
        {
          "internalType": "address",
          "name": "_newTreasury",
          "type": "address"
        }
      ],
      "name": "setTreasury",
      "outputs": [],
      "stateMutability": "nonpayable",
      "type": "function"
    },
    {
      "inputs": [
        {
          "internalType": "address",
          "name": "",
          "type": "address"
        }
      ],
      "name": "totalClaimedRewards",
      "outputs": [
        {
          "internalType": "uint256",
          "name": "",
          "type": "uint256"
        }
      ],
      "stateMutability": "view",
      "type": "function"
    },
    {
      "inputs": [
        {
          "internalType": "address",
          "name": "",
          "type": "address"
        }
      ],
      "name": "totalDeposited",
      "outputs": [
        {
          "internalType": "uint256",
          "name": "",
          "type": "uint256"
        }
      ],
      "stateMutability": "view",
      "type": "function"
    },
    {
      "inputs": [],
      "name": "totalPoolBalance",
      "outputs": [
        {
          "internalType": "uint256",
          "name": "",
          "type": "uint256"
        }
      ],
      "stateMutability": "view",
      "type": "function"
    },
    {
      "inputs": [
        {
          "internalType": "address",
          "name": "newOwner",
          "type": "address"
        }
      ],
      "name": "transferOwnership",
      "outputs": [],
      "stateMutability": "nonpayable",
      "type": "function"
    },
    {
      "inputs": [],
      "name": "treasury",
      "outputs": [
        {
          "internalType": "address",
          "name": "",
          "type": "address"
        }
      ],
      "stateMutability": "view",
      "type": "function"
    },
    {
      "inputs": [],
      "name": "unpause",
      "outputs": [],
      "stateMutability": "nonpayable",
      "type": "function"
    },
    {
      "inputs": [
        {
          "internalType": "address",
          "name": "",
          "type": "address"
        },
        {
          "internalType": "uint256",
          "name": "",
          "type": "uint256"
        }
      ],
      "name": "userDeposits",
      "outputs": [
        {
          "internalType": "uint256",
          "name": "amount",
          "type": "uint256"
        },
        {
          "internalType": "uint256",
          "name": "limitAmount",
          "type": "uint256"
        },
        {
          "internalType": "uint256",
          "name": "lastClaimTime",
          "type": "uint256"
        },
        {
          "internalType": "bool",
          "name": "active",
          "type": "bool"
        }
      ],
      "stateMutability": "view",
      "type": "function"
    },
    {
      "inputs": [
        {
          "internalType": "uint256",
          "name": "_amount",
          "type": "uint256"
        }
      ],
      "name": "withdraw",
      "outputs": [],
      "stateMutability": "nonpayable",
      "type": "function"
    },
    {
      "stateMutability": "payable",
      "type": "receive"
    }
  ],
  "bytecode": "0x60806040523480156200001157600080fd5b506040516200262f3803806200262f8339818101604052810190620000379190620001ef565b620000576200004b620000b960201b60201c565b620000c160201b60201c565b60008060146101000a81548160ff02191690831515021790555080600160006101000a81548173ffffffffffffffffffffffffffffffffffffffff021916908373ffffffffffffffffffffffffffffffffffffffff1602179055505062000221565b600033905090565b60008060009054906101000a900473ffffffffffffffffffffffffffffffffffffffff169050816000806101000a81548173ffffffffffffffffffffffffffffffffffffffff021916908373ffffffffffffffffffffffffffffffffffffffff1602179055508173ffffffffffffffffffffffffffffffffffffffff168173ffffffffffffffffffffffffffffffffffffffff167f8be0079c531659141344cd1fd0a4f28419497f9722a3daafe3b4186f6b6457e060405160405180910390a35050565b600080fd5b600073ffffffffffffffffffffffffffffffffffffffff82169050919050565b6000620001b7826200018a565b9050919050565b620001c981620001aa565b8114620001d557600080fd5b50565b600081519050620001e981620001be565b92915050565b60006020828403121562000208576200020762000185565b5b60006200021884828501620001d8565b91505092915050565b6123fe80620002316000396000f3fe6080604052600436106101855760003560e01c806361d027b3116100d1578063bd761f731161008a578063dc99ef0d11610064578063dc99ef0d14610530578063e798d3c91461055b578063f0f4426014610586578063f2fde38b146105af5761018c565b8063bd761f73146104f1578063c07401f01461051c578063d0e30db0146105265761018c565b806361d027b3146103f357806364ab86751461041e578063715018a61461045b5780638456cb59146104725780638da5cb5b14610489578063a110b93f146104b45761018c565b8063372500ab1161013e5780634de5120e116101185780634de5120e146103235780635026d63e14610360578063530554811461038b5780635c975abb146103c85761018c565b8063372500ab146102ca5780633f4ba83a146102e15780634232c079146102f85761018c565b806308f43333146101915780630c9c31bd146101d15780631be052891461020e5780631bf1de9b146102395780632e1a7d4d1461026457806331d982371461028d5761018c565b3661018c57005b600080fd5b34801561019d57600080fd5b506101b860048036038101906101b39190611b19565b6105d8565b6040516101c89493929190611b83565b60405180910390f35b3480156101dd57600080fd5b506101f860048036038101906101f39190611bc8565b610632565b6040516102059190611bf5565b60405180910390f35b34801561021a57600080fd5b5061022361067b565b6040516102309190611bf5565b60405180910390f35b34801561024557600080fd5b5061024e610682565b60405161025b9190611bf5565b60405180910390f35b34801561027057600080fd5b5061028b60048036038101906102869190611c10565b610688565b005b34801561029957600080fd5b506102b460048036038101906102af9190611bc8565b610b5c565b6040516102c19190611bf5565b60405180910390f35b3480156102d657600080fd5b506102df610b6e565b005b3480156102ed57600080fd5b506102f6610f60565b005b34801561030457600080fd5b5061030d610f72565b60405161031a9190611bf5565b60405180910390f35b34801561032f57600080fd5b5061034a60048036038101906103459190611bc8565b610f78565b6040516103579190611bf5565b60405180910390f35b34801561036c57600080fd5b50610375610f90565b6040516103829190611bf5565b60405180910390f35b34801561039757600080fd5b506103b260048036038101906103ad9190611bc8565b610f96565b6040516103bf9190611bf5565b60405180910390f35b3480156103d457600080fd5b506103dd610fae565b6040516103ea9190611c3d565b60405180910390f35b3480156103ff57600080fd5b50610408610fc4565b6040516104159190611c67565b60405180910390f35b34801561042a57600080fd5b5061044560048036038101906104409190611bc8565b610fea565b6040516104529190611bf5565b60405180910390f35b34801561046757600080fd5b506104706112b8565b005b34801561047e57600080fd5b506104876112cc565b005b34801561049557600080fd5b5061049e6112de565b6040516104ab9190611c67565b60405180910390f35b3480156104c057600080fd5b506104db60048036038101906104d69190611bc8565b611307565b6040516104e89190611bf5565b60405180910390f35b3480156104fd57600080fd5b5061050661131f565b6040516105139190611bf5565b60405180910390f35b610524611325565b005b61052e61134a565b005b34801561053c57600080fd5b506105456116ab565b6040516105529190611bf5565b60405180910390f35b34801561056757600080fd5b506105706116b1565b60405161057d9190611bf5565b60405180910390f35b34801561059257600080fd5b506105ad60048036038101906105a89190611bc8565b6116b7565b005b3480156105bb57600080fd5b506105d660048036038101906105d19190611bc8565b611703565b005b600360205281600052604060002081815481106105f457600080fd5b9060005260206000209060040201600091509150508060000154908060010154908060020154908060030160009054906101000a900460ff16905084565b6000600760008373ffffffffffffffffffffffffffffffffffffffff1673ffffffffffffffffffffffffffffffffffffffff168152602001908152602001600020549050919050565b62093a8081565b61019081565b610690611786565b6106e562093a80600660003373ffffffffffffffffffffffffffffffffffffffff1673ffffffffffffffffffffffffffffffffffffffff168152602001908152602001600020546117d090919063ffffffff16565b421015610727576040517f08c379a000000000000000000000000000000000000000000000000000000000815260040161071e90611cdf565b60405180910390fd5b600460003373ffffffffffffffffffffffffffffffffffffffff1673ffffffffffffffffffffffffffffffffffffffff168152602001908152602001600020548111156107a9576040517f08c379a00000000000000000000000000000000000000000000000000000000081526004016107a090611d4b565b60405180910390fd5b6000600560003373ffffffffffffffffffffffffffffffffffffffff1673ffffffffffffffffffffffffffffffffffffffff16815260200190815260200160002054905060008282116107fc57816107fe565b825b9050600061082b61271061081d610190856117e690919063ffffffff16565b6117fc90919063ffffffff16565b90506000610842828461181290919063ffffffff16565b905061089685600460003373ffffffffffffffffffffffffffffffffffffffff1673ffffffffffffffffffffffffffffffffffffffff1681526020019081526020016000205461181290919063ffffffff16565b600460003373ffffffffffffffffffffffffffffffffffffffff1673ffffffffffffffffffffffffffffffffffffffff1681526020019081526020016000208190555061092b83600560003373ffffffffffffffffffffffffffffffffffffffff1673ffffffffffffffffffffffffffffffffffffffff1681526020019081526020016000205461181290919063ffffffff16565b600560003373ffffffffffffffffffffffffffffffffffffffff1673ffffffffffffffffffffffffffffffffffffffff168152602001908152602001600020819055506109838160025461181290919063ffffffff16565b6002819055506000600160009054906101000a900473ffffffffffffffffffffffffffffffffffffffff1673ffffffffffffffffffffffffffffffffffffffff16836040516109d190611d9c565b60006040518083038185875af1925050503d8060008114610a0e576040519150601f19603f3d011682016040523d82523d6000602084013e610a13565b606091505b5050905080610a57576040517f08c379a0000000000000000000000000000000000000000000000000000000008152600401610a4e90611dfd565b60405180910390fd5b60003373ffffffffffffffffffffffffffffffffffffffff1683604051610a7d90611d9c565b60006040518083038185875af1925050503d8060008114610aba576040519150601f19603f3d011682016040523d82523d6000602084013e610abf565b606091505b5050905080610b03576040517f08c379a0000000000000000000000000000000000000000000000000000000008152600401610afa90611e8f565b60405180910390fd5b3373ffffffffffffffffffffffffffffffffffffffff167f7719804546c0185709e60c90d164447ff251a5ba29af0216faa921350f6bebf78486604051610b4b929190611eaf565b60405180910390a250505050505050565b6000610b6782610632565b9050919050565b610b76611786565b62093a80600660003373ffffffffffffffffffffffffffffffffffffffff1673ffffffffffffffffffffffffffffffffffffffff16815260200190815260200160002054610bc49190611f07565b4211610c05576040517f08c379a0000000000000000000000000000000000000000000000000000000008152600401610bfc90611fad565b60405180910390fd5b6000610c1033610fea565b905060008111610c55576040517f08c379a0000000000000000000000000000000000000000000000000000000008152600401610c4c90612019565b60405180910390fd5b610ca781600560003373ffffffffffffffffffffffffffffffffffffffff1673ffffffffffffffffffffffffffffffffffffffff168152602001908152602001600020546117d090919063ffffffff16565b600560003373ffffffffffffffffffffffffffffffffffffffff1673ffffffffffffffffffffffffffffffffffffffff16815260200190815260200160002081905550610d3c81600460003373ffffffffffffffffffffffffffffffffffffffff1673ffffffffffffffffffffffffffffffffffffffff168152602001908152602001600020546117d090919063ffffffff16565b600460003373ffffffffffffffffffffffffffffffffffffffff1673ffffffffffffffffffffffffffffffffffffffff16815260200190815260200160002081905550610d948160025461181290919063ffffffff16565b60028190555060005b600360003373ffffffffffffffffffffffffffffffffffffffff1673ffffffffffffffffffffffffffffffffffffffff16815260200190815260200160002080549050811015610e615742600360003373ffffffffffffffffffffffffffffffffffffffff1673ffffffffffffffffffffffffffffffffffffffff1681526020019081526020016000208281548110610e3957610e38612039565b5b9060005260206000209060040201600201819055508080610e5990612068565b915050610d9d565b5060003373ffffffffffffffffffffffffffffffffffffffff1682604051610e8890611d9c565b60006040518083038185875af1925050503d8060008114610ec5576040519150601f19603f3d011682016040523d82523d6000602084013e610eca565b606091505b5050905080610f0e576040517f08c379a0000000000000000000000000000000000000000000000000000000008152600401610f05906120fc565b60405180910390fd5b3373ffffffffffffffffffffffffffffffffffffffff167f106f923f993c2149d49b4255ff723acafa1f2d94393f561d3eda32ae348f724183604051610f549190611bf5565b60405180910390a25050565b610f68611828565b610f706118a6565b565b6102ca81565b60066020528060005260406000206000915090505481565b60025481565b60046020528060005260406000206000915090505481565b60008060149054906101000a900460ff16905090565b600160009054906101000a900473ffffffffffffffffffffffffffffffffffffffff1681565b600080600360008473ffffffffffffffffffffffffffffffffffffffff1673ffffffffffffffffffffffffffffffffffffffff16815260200190815260200160002090506000805b828054905081101561125c5782818154811061105157611050612039565b5b906000526020600020906004020160030160009054906101000a900460ff16156112495760006201518084838154811061108e5761108d612039565b5b906000526020600020906004020160020154426110ab919061211c565b6110b5919061217f565b905060006111066127106110f86101f48887815481106110d8576110d7612039565b5b9060005260206000209060040201600001546117e690919063ffffffff16565b6117fc90919063ffffffff16565b9050600782106111365761112f600783611120919061217f565b826117e690919063ffffffff16565b905061113b565b600090505b84838154811061114e5761114d612039565b5b9060005260206000209060040201600101546111b2600460008a73ffffffffffffffffffffffffffffffffffffffff1673ffffffffffffffffffffffffffffffffffffffff16815260200190815260200160002054836117d090919063ffffffff16565b11156112315761122e600460008973ffffffffffffffffffffffffffffffffffffffff1673ffffffffffffffffffffffffffffffffffffffff1681526020019081526020016000205486858154811061120e5761120d612039565b5b90600052602060002090600402016001015461181290919063ffffffff16565b90505b61124481856117d090919063ffffffff16565b935050505b808061125490612068565b915050611032565b506112af600560008673ffffffffffffffffffffffffffffffffffffffff1673ffffffffffffffffffffffffffffffffffffffff168152602001908152602001600020548261181290919063ffffffff16565b92505050919050565b6112c0611828565b6112ca6000611908565b565b6112d4611828565b6112dc6119cc565b565b60008060009054906101000a900473ffffffffffffffffffffffffffffffffffffffff16905090565b60056020528060005260406000206000915090505481565b613c8c81565b61132d611828565b611342346002546117d090919063ffffffff16565b600281905550565b34600760003373ffffffffffffffffffffffffffffffffffffffff1673ffffffffffffffffffffffffffffffffffffffff16815260200190815260200160002060008282546113999190611f07565b9250508190555060006113cb6127106113bd610190346117e690919063ffffffff16565b6117fc90919063ffffffff16565b905060006113e2823461181290919063ffffffff16565b9050600360003373ffffffffffffffffffffffffffffffffffffffff1673ffffffffffffffffffffffffffffffffffffffff168152602001908152602001600020604051806080016040528083815260200161145d61271061144f613c8c876117e690919063ffffffff16565b6117fc90919063ffffffff16565b815260200142815260200160011515815250908060018154018082558091505060019003906000526020600020906004020160009091909190915060008201518160000155602082015181600101556040820151816002015560608201518160030160006101000a81548160ff021916908315150217905550505061152a81600460003373ffffffffffffffffffffffffffffffffffffffff1673ffffffffffffffffffffffffffffffffffffffff168152602001908152602001600020546117d090919063ffffffff16565b600460003373ffffffffffffffffffffffffffffffffffffffff1673ffffffffffffffffffffffffffffffffffffffff16815260200190815260200160002081905550611582816002546117d090919063ffffffff16565b6002819055506000600160009054906101000a900473ffffffffffffffffffffffffffffffffffffffff1673ffffffffffffffffffffffffffffffffffffffff16836040516115d090611d9c565b60006040518083038185875af1925050503d806000811461160d576040519150601f19603f3d011682016040523d82523d6000602084013e611612565b606091505b5050905080611656576040517f08c379a000000000000000000000000000000000000000000000000000000000815260040161164d90611dfd565b60405180910390fd5b3373ffffffffffffffffffffffffffffffffffffffff167f0b05f0d1cd0819f155b8a61f60baf7767c1ee49d04aeaab701df236140eb93f9838560405161169e929190611eaf565b60405180910390a2505050565b6101f481565b61157c81565b6116bf611828565b80600160006101000a81548173ffffffffffffffffffffffffffffffffffffffff021916908373ffffffffffffffffffffffffffffffffffffffff16021790555050565b61170b611828565b600073ffffffffffffffffffffffffffffffffffffffff168173ffffffffffffffffffffffffffffffffffffffff160361177a576040517f08c379a000000000000000000000000000000000000000000000000000000000815260040161177190612222565b60405180910390fd5b61178381611908565b50565b61178e610fae565b156117ce576040517f08c379a00000000000000000000000000000000000000000000000000000000081526004016117c59061228e565b60405180910390fd5b565b600081836117de9190611f07565b905092915050565b600081836117f491906122ae565b905092915050565b6000818361180a919061217f565b905092915050565b60008183611820919061211c565b905092915050565b611830611a2f565b73ffffffffffffffffffffffffffffffffffffffff1661184e6112de565b73ffffffffffffffffffffffffffffffffffffffff16146118a4576040517f08c379a000000000000000000000000000000000000000000000000000000000815260040161189b9061233c565b60405180910390fd5b565b6118ae611a37565b60008060146101000a81548160ff0219169083151502179055507f5db9ee0a495bf2e6ff9c91a7834c1ba4fdd244a5e8aa4e537bd38aeae4b073aa6118f1611a2f565b6040516118fe9190611c67565b60405180910390a1565b60008060009054906101000a900473ffffffffffffffffffffffffffffffffffffffff169050816000806101000a81548173ffffffffffffffffffffffffffffffffffffffff021916908373ffffffffffffffffffffffffffffffffffffffff1602179055508173ffffffffffffffffffffffffffffffffffffffff168173ffffffffffffffffffffffffffffffffffffffff167f8be0079c531659141344cd1fd0a4f28419497f9722a3daafe3b4186f6b6457e060405160405180910390a35050565b6119d4611786565b6001600060146101000a81548160ff0219169083151502179055507f62e78cea01bee320cd4e420270b5ea74000d11b0c9f74754ebdbfc544b05a258611a18611a2f565b604051611a259190611c67565b60405180910390a1565b600033905090565b611a3f610fae565b611a7e576040517f08c379a0000000000000000000000000000000000000000000000000000000008152600401611a75906123a8565b60405180910390fd5b565b600080fd5b600073ffffffffffffffffffffffffffffffffffffffff82169050919050565b6000611ab082611a85565b9050919050565b611ac081611aa5565b8114611acb57600080fd5b50565b600081359050611add81611ab7565b92915050565b6000819050919050565b611af681611ae3565b8114611b0157600080fd5b50565b600081359050611b1381611aed565b92915050565b60008060408385031215611b3057611b2f611a80565b5b6000611b3e85828601611ace565b9250506020611b4f85828601611b04565b9150509250929050565b611b6281611ae3565b82525050565b60008115159050919050565b611b7d81611b68565b82525050565b6000608082019050611b986000830187611b59565b611ba56020830186611b59565b611bb26040830185611b59565b611bbf6060830184611b74565b95945050505050565b600060208284031215611bde57611bdd611a80565b5b6000611bec84828501611ace565b91505092915050565b6000602082019050611c0a6000830184611b59565b92915050565b600060208284031215611c2657611c25611a80565b5b6000611c3484828501611b04565b91505092915050565b6000602082019050611c526000830184611b74565b92915050565b611c6181611aa5565b82525050565b6000602082019050611c7c6000830184611c58565b92915050565b600082825260208201905092915050565b7f43616e6e6f742077697468647261772079657400000000000000000000000000600082015250565b6000611cc9601383611c82565b9150611cd482611c93565b602082019050919050565b60006020820190508181036000830152611cf881611cbc565b9050919050565b7f496e73756666696369656e742066756e647320746f2077697468647261770000600082015250565b6000611d35601e83611c82565b9150611d4082611cff565b602082019050919050565b60006020820190508181036000830152611d6481611d28565b9050919050565b600081905092915050565b50565b6000611d86600083611d6b565b9150611d9182611d76565b600082019050919050565b6000611da782611d79565b9150819050919050565b7f4661696c656420746f207472616e7366657220636f6d6d697373696f6e000000600082015250565b6000611de7601d83611c82565b9150611df282611db1565b602082019050919050565b60006020820190508181036000830152611e1681611dda565b9050919050565b7f4661696c656420746f207472616e7366657220776974686472617720616d6f7560008201527f6e74000000000000000000000000000000000000000000000000000000000000602082015250565b6000611e79602283611c82565b9150611e8482611e1d565b604082019050919050565b60006020820190508181036000830152611ea881611e6c565b9050919050565b6000604082019050611ec46000830185611b59565b611ed16020830184611b59565b9392505050565b7f4e487b7100000000000000000000000000000000000000000000000000000000600052601160045260246000fd5b6000611f1282611ae3565b9150611f1d83611ae3565b9250828201905080821115611f3557611f34611ed8565b5b92915050565b7f4e65656420746f2077616974206174206c656173742061207765656b20666f7260008201527f206e65787420636c61696d000000000000000000000000000000000000000000602082015250565b6000611f97602b83611c82565b9150611fa282611f3b565b604082019050919050565b60006020820190508181036000830152611fc681611f8a565b9050919050565b7f4e6f207265776172647320746f20636c61696d00000000000000000000000000600082015250565b6000612003601383611c82565b915061200e82611fcd565b602082019050919050565b6000602082019050818103600083015261203281611ff6565b9050919050565b7f4e487b7100000000000000000000000000000000000000000000000000000000600052603260045260246000fd5b600061207382611ae3565b91507fffffffffffffffffffffffffffffffffffffffffffffffffffffffffffffffff82036120a5576120a4611ed8565b5b600182019050919050565b7f4661696c656420746f207472616e736665722072657761726473000000000000600082015250565b60006120e6601a83611c82565b91506120f1826120b0565b602082019050919050565b60006020820190508181036000830152612115816120d9565b9050919050565b600061212782611ae3565b915061213283611ae3565b925082820390508181111561214a57612149611ed8565b5b92915050565b7f4e487b7100000000000000000000000000000000000000000000000000000000600052601260045260246000fd5b600061218a82611ae3565b915061219583611ae3565b9250826121a5576121a4612150565b5b828204905092915050565b7f4f776e61626c653a206e6577206f776e657220697320746865207a65726f206160008201527f6464726573730000000000000000000000000000000000000000000000000000602082015250565b600061220c602683611c82565b9150612217826121b0565b604082019050919050565b6000602082019050818103600083015261223b816121ff565b9050919050565b7f5061757361626c653a2070617573656400000000000000000000000000000000600082015250565b6000612278601083611c82565b915061228382612242565b602082019050919050565b600060208201905081810360008301526122a78161226b565b9050919050565b60006122b982611ae3565b91506122c483611ae3565b92508282026122d281611ae3565b915082820484148315176122e9576122e8611ed8565b5b5092915050565b7f4f776e61626c653a2063616c6c6572206973206e6f7420746865206f776e6572600082015250565b6000612326602083611c82565b9150612331826122f0565b602082019050919050565b6000602082019050818103600083015261235581612319565b9050919050565b7f5061757361626c653a206e6f7420706175736564000000000000000000000000600082015250565b6000612392601483611c82565b915061239d8261235c565b602082019050919050565b600060208201905081810360008301526123c181612385565b905091905056fea26469706673582212207fa83d7256fc92246aa4fbd327c4ec11941cce0ee81f0d49e8375bbda7d75e7f64736f6c63430008130033",
  "linkReferences": {},
  "deployedLinkReferences": {}
}