{
  "_format": "hh-sol-artifact-1",
  "contractName": "StakingContract",
  "sourceName": "contracts/nuvoLogic.sol",
  "abi": [
    {
      "inputs": [
        {
          "internalType": "address",
          "name": "_treasury",
          "type": "address"
        }
      ],
      "stateMutability": "nonpayable",
      "type": "constructor"
    },
    {
      "anonymous": false,
      "inputs": [
        {
          "indexed": false,
          "internalType": "uint256",
          "name": "amount",
          "type": "uint256"
        }
      ],
      "name": "BalanceAdded",
      "type": "event"
    },
    {
      "anonymous": false,
      "inputs": [
        {
          "indexed": true,
          "internalType": "address",
          "name": "owner",
          "type": "address"
        }
      ],
      "name": "ContractPaused",
      "type": "event"
    },
    {
      "anonymous": false,
      "inputs": [
        {
          "indexed": true,
          "internalType": "address",
          "name": "owner",
          "type": "address"
        }
      ],
      "name": "ContractUnpaused",
      "type": "event"
    },
    {
      "anonymous": false,
      "inputs": [
        {
          "indexed": true,
          "internalType": "address",
          "name": "user",
          "type": "address"
        },
        {
          "indexed": false,
          "internalType": "uint256",
          "name": "amount",
          "type": "uint256"
        },
        {
          "indexed": false,
          "internalType": "uint256",
          "name": "commission",
          "type": "uint256"
        }
      ],
      "name": "DepositMade",
      "type": "event"
    },
    {
      "anonymous": false,
      "inputs": [
        {
          "indexed": true,
          "internalType": "address",
          "name": "previousOwner",
          "type": "address"
        },
        {
          "indexed": true,
          "internalType": "address",
          "name": "newOwner",
          "type": "address"
        }
      ],
      "name": "OwnershipTransferred",
      "type": "event"
    },
    {
      "anonymous": false,
      "inputs": [
        {
          "indexed": false,
          "internalType": "address",
          "name": "account",
          "type": "address"
        }
      ],
      "name": "Paused",
      "type": "event"
    },
    {
      "anonymous": false,
      "inputs": [
        {
          "indexed": true,
          "internalType": "address",
          "name": "user",
          "type": "address"
        },
        {
          "indexed": false,
          "internalType": "uint256",
          "name": "amount",
          "type": "uint256"
        }
      ],
      "name": "RewardClaimed",
      "type": "event"
    },
    {
      "anonymous": false,
      "inputs": [
        {
          "indexed": true,
          "internalType": "address",
          "name": "user",
          "type": "address"
        },
        {
          "indexed": false,
          "internalType": "uint256",
          "name": "amount",
          "type": "uint256"
        }
      ],
      "name": "RewardWithdrawn",
      "type": "event"
    },
    {
      "anonymous": false,
      "inputs": [
        {
          "indexed": true,
          "internalType": "address",
          "name": "previousTreasury",
          "type": "address"
        },
        {
          "indexed": true,
          "internalType": "address",
          "name": "newTreasury",
          "type": "address"
        }
      ],
      "name": "TreasuryAddressChanged",
      "type": "event"
    },
    {
      "anonymous": false,
      "inputs": [
        {
          "indexed": false,
          "internalType": "address",
          "name": "account",
          "type": "address"
        }
      ],
      "name": "Unpaused",
      "type": "event"
    },
    {
      "inputs": [],
      "name": "COMMISSION_PERCENTAGE",
      "outputs": [
        {
          "internalType": "uint16",
          "name": "",
          "type": "uint16"
        }
      ],
      "stateMutability": "view",
      "type": "function"
    },
    {
      "inputs": [],
      "name": "HOURLY_ROI_PERCENTAGE",
      "outputs": [
        {
          "internalType": "uint256",
          "name": "",
          "type": "uint256"
        }
      ],
      "stateMutability": "view",
      "type": "function"
    },
    {
      "inputs": [],
      "name": "MAX_DEPOSIT",
      "outputs": [
        {
          "internalType": "uint256",
          "name": "",
          "type": "uint256"
        }
      ],
      "stateMutability": "view",
      "type": "function"
    },
    {
      "inputs": [],
      "name": "MAX_ROI_PERCENTAGE",
      "outputs": [
        {
          "internalType": "uint16",
          "name": "",
          "type": "uint16"
        }
      ],
      "stateMutability": "view",
      "type": "function"
    },
    {
      "inputs": [],
      "name": "addBalance",
      "outputs": [],
      "stateMutability": "payable",
      "type": "function"
    },
    {
      "inputs": [
        {
          "internalType": "address",
          "name": "userAddress",
          "type": "address"
        }
      ],
      "name": "calculateRewards",
      "outputs": [
        {
          "internalType": "uint256",
          "name": "",
          "type": "uint256"
        }
      ],
      "stateMutability": "view",
      "type": "function"
    },
    {
      "inputs": [
        {
          "internalType": "address",
          "name": "_newTreasury",
          "type": "address"
        }
      ],
      "name": "changeTreasuryAddress",
      "outputs": [],
      "stateMutability": "nonpayable",
      "type": "function"
    },
    {
      "inputs": [],
      "name": "claimRewards",
      "outputs": [],
      "stateMutability": "nonpayable",
      "type": "function"
    },
    {
      "inputs": [],
      "name": "deposit",
      "outputs": [],
      "stateMutability": "payable",
      "type": "function"
    },
    {
      "inputs": [
        {
          "internalType": "address",
          "name": "to",
          "type": "address"
        }
      ],
      "name": "emergencyWithdraw",
      "outputs": [],
      "stateMutability": "nonpayable",
      "type": "function"
    },
    {
      "inputs": [
        {
          "internalType": "address",
          "name": "user",
          "type": "address"
        }
      ],
      "name": "getLastClaimTime",
      "outputs": [
        {
          "internalType": "uint256",
          "name": "",
          "type": "uint256"
        }
      ],
      "stateMutability": "view",
      "type": "function"
    },
    {
      "inputs": [
        {
          "internalType": "address",
          "name": "user",
          "type": "address"
        }
      ],
      "name": "getTotalDeposit",
      "outputs": [
        {
          "internalType": "uint256",
          "name": "",
          "type": "uint256"
        }
      ],
      "stateMutability": "view",
      "type": "function"
    },
    {
      "inputs": [
        {
          "internalType": "address",
          "name": "_newContractAddress",
          "type": "address"
        }
      ],
      "name": "migrateToNewContract",
      "outputs": [],
      "stateMutability": "nonpayable",
      "type": "function"
    },
    {
      "inputs": [],
      "name": "migrated",
      "outputs": [
        {
          "internalType": "bool",
          "name": "",
          "type": "bool"
        }
      ],
      "stateMutability": "view",
      "type": "function"
    },
    {
      "inputs": [],
      "name": "newContractAddress",
      "outputs": [
        {
          "internalType": "address",
          "name": "",
          "type": "address"
        }
      ],
      "stateMutability": "view",
      "type": "function"
    },
    {
      "inputs": [],
      "name": "owner",
      "outputs": [
        {
          "internalType": "address",
          "name": "",
          "type": "address"
        }
      ],
      "stateMutability": "view",
      "type": "function"
    },
    {
      "inputs": [],
      "name": "pause",
      "outputs": [],
      "stateMutability": "nonpayable",
      "type": "function"
    },
    {
      "inputs": [],
      "name": "paused",
      "outputs": [
        {
          "internalType": "bool",
          "name": "",
          "type": "bool"
        }
      ],
      "stateMutability": "view",
      "type": "function"
    },
    {
      "inputs": [],
      "name": "renounceOwnership",
      "outputs": [],
      "stateMutability": "nonpayable",
      "type": "function"
    },
    {
      "inputs": [],
      "name": "totalPoolBalance",
      "outputs": [
        {
          "internalType": "uint256",
          "name": "",
          "type": "uint256"
        }
      ],
      "stateMutability": "view",
      "type": "function"
    },
    {
      "inputs": [
        {
          "internalType": "address",
          "name": "user",
          "type": "address"
        }
      ],
      "name": "totalRewardsClaimed",
      "outputs": [
        {
          "internalType": "uint256",
          "name": "",
          "type": "uint256"
        }
      ],
      "stateMutability": "view",
      "type": "function"
    },
    {
      "inputs": [
        {
          "internalType": "address",
          "name": "newOwner",
          "type": "address"
        }
      ],
      "name": "transferOwnership",
      "outputs": [],
      "stateMutability": "nonpayable",
      "type": "function"
    },
    {
      "inputs": [],
      "name": "treasury",
      "outputs": [
        {
          "internalType": "address",
          "name": "",
          "type": "address"
        }
      ],
      "stateMutability": "view",
      "type": "function"
    },
    {
      "inputs": [],
      "name": "uniqueUsersCount",
      "outputs": [
        {
          "internalType": "uint256",
          "name": "",
          "type": "uint256"
        }
      ],
      "stateMutability": "view",
      "type": "function"
    },
    {
      "inputs": [],
      "name": "unpause",
      "outputs": [],
      "stateMutability": "nonpayable",
      "type": "function"
    },
    {
      "inputs": [],
      "name": "withdrawRewards",
      "outputs": [],
      "stateMutability": "nonpayable",
      "type": "function"
    },
    {
      "stateMutability": "payable",
      "type": "receive"
    }
  ],
  "bytecode": "0x608060405234801561001057600080fd5b506040516113a73803806113a783398101604081905261002f916100ba565b6100383361006a565b6000805460ff60a01b19169055600280546001600160a01b0319166001600160a01b03929092169190911790556100ea565b600080546001600160a01b038381166001600160a01b0319831681178455604051919092169283917f8be0079c531659141344cd1fd0a4f28419497f9722a3daafe3b4186f6b6457e09190a35050565b6000602082840312156100cc57600080fd5b81516001600160a01b03811681146100e357600080fd5b9392505050565b6112ae806100f96000396000f3fe6080604052600436106101855760003560e01c8063857184d1116100d1578063c9f8234f1161008a578063e798d3c911610064578063e798d3c914610426578063f2fde38b1461043c578063f6ce90041461045c578063fe1e05b51461049557600080fd5b8063c9f8234f146103ea578063d0e30db014610400578063dd5967c31461040857600080fd5b8063857184d1146103365780638da5cb5b14610356578063a680e0bc14610374578063a6f353f0146103ad578063b163cc38146103cd578063c7b8981c146103d557600080fd5b80635c975abb1161013e5780636af04a57116101185780636af04a57146102cc5780636ff1c9bc146102ec578063715018a61461030c5780638456cb591461032157600080fd5b80635c975abb1461025557806361d027b31461027457806364ab8675146102ac57600080fd5b80631bf1de9b146101915780632c678c64146101bf57806333fb4e64146101f0578063372500ab146102135780633f4ba83a1461022a5780635026d63e1461023f57600080fd5b3661018c57005b600080fd5b34801561019d57600080fd5b506101a76101fe81565b60405161ffff90911681526020015b60405180910390f35b3480156101cb57600080fd5b506005546101e090600160a01b900460ff1681565b60405190151581526020016101b6565b3480156101fc57600080fd5b5061020560be81565b6040519081526020016101b6565b34801561021f57600080fd5b506102286104b5565b005b34801561023657600080fd5b50610228610745565b34801561024b57600080fd5b5061020560035481565b34801561026157600080fd5b50600054600160a01b900460ff166101e0565b34801561028057600080fd5b50600254610294906001600160a01b031681565b6040516001600160a01b0390911681526020016101b6565b3480156102b857600080fd5b506102056102c73660046111a4565b610782565b3480156102d857600080fd5b50600554610294906001600160a01b031681565b3480156102f857600080fd5b506102286103073660046111a4565b610892565b34801561031857600080fd5b50610228610949565b34801561032d57600080fd5b5061022861095d565b34801561034257600080fd5b506102056103513660046111a4565b61099a565b34801561036257600080fd5b506000546001600160a01b0316610294565b34801561038057600080fd5b5061020561038f3660046111a4565b6001600160a01b031660009081526004602052604090206001015490565b3480156103b957600080fd5b506102286103c83660046111a4565b6109f8565b610228610aa8565b3480156103e157600080fd5b50610228610b46565b3480156103f657600080fd5b5061020560015481565b610228610c91565b34801561041457600080fd5b5061020569014542ba12a337c0000081565b34801561043257600080fd5b506101a76132c881565b34801561044857600080fd5b506102286104573660046111a4565b610e8f565b34801561046857600080fd5b506102056104773660046111a4565b6001600160a01b031660009081526004602052604090206002015490565b3480156104a157600080fd5b506102286104b03660046111a4565b610f08565b6104bd610f91565b336000818152600460205260408120916104d690610782565b905060006127106104e96101fe846111ea565b6104f39190611201565b90506104ff8183611223565b60035410156105555760405162461bcd60e51b815260206004820152601c60248201527f4e6f7420656e6f7567682066756e647320696e2074686520706f6f6c0000000060448201526064015b60405180910390fd5b6000821161059b5760405162461bcd60e51b81526020600482015260136024820152724e6f207265776172647320746f20636c61696d60681b604482015260640161054c565b69014542ba12a337c000006105af3361099a565b6105b99084611223565b111561061c5760405162461bcd60e51b815260206004820152602c60248201527f436c61696d6564207265776172647320657863656564206d6178696d756d206460448201526b195c1bdcda5d081b1a5b5a5d60a21b606482015260840161054c565b6106268183611236565b91506106328183611223565b600360008282546106439190611236565b90915550504260018401556002546040516000916001600160a01b03169083908381818185875af1925050503d806000811461069b576040519150601f19603f3d011682016040523d82523d6000602084013e6106a0565b606091505b50509050806106f15760405162461bcd60e51b815260206004820152601d60248201527f4661696c656420746f207472616e7366657220636f6d6d697373696f6e000000604482015260640161054c565b828460020160008282546107059190611223565b909155505060405183815233907f106f923f993c2149d49b4255ff723acafa1f2d94393f561d3eda32ae348f72419060200160405180910390a250505050565b61074d610fde565b610755611038565b60405133907f5b65b0c1363b3003db9bcc5e1fd8805a6d6bf5bf6dc9d3431ee4494cd7d1176690600090a2565b6001600160a01b038116600090815260046020526040812081805b825481101561088a5760008360000182815481106107bd576107bd611249565b906000526020600020906002020190506000610e108260010154426107e29190611236565b6107ec9190611201565b90506000620f42408260be856000015461080691906111ea565b61081091906111ea565b61081a9190611201565b835490915060009061271090610833906132c8906111ea565b61083d9190611201565b905060008760020154836108519190611223565b90508181111561086d57600288015461086a9083611236565b92505b6108778388611223565b9650506001909401935061079d92505050565b509392505050565b61089a610fde565b6108a2610f91565b6000816001600160a01b03164760405160006040518083038185875af1925050503d80600081146108ef576040519150601f19603f3d011682016040523d82523d6000602084013e6108f4565b606091505b50509050806109455760405162461bcd60e51b815260206004820152601960248201527f456d657267656e6379207769746864726177206661696c656400000000000000604482015260640161054c565b5050565b610951610fde565b61095b6000611088565b565b610965610fde565b61096d6110d8565b60405133907f81990fd9a5c552b8e3677917d8a03c07678f0d2cb68f88b634aca2022e9bd19f90600090a2565b6001600160a01b038116600090815260046020526040812081805b825481101561088a576109ee8360000182815481106109d6576109d6611249565b6000918252602090912060029091020154839061111b565b91506001016109b5565b610a00610fde565b6001600160a01b038116610a565760405162461bcd60e51b815260206004820152601860248201527f496e76616c696420747265617375727920616464726573730000000000000000604482015260640161054c565b600280546001600160a01b038381166001600160a01b0319831681179093556040519116919082907f4fc6e7a37aea21888550b60360992adb6a9b3b4da644d63e9f3a420c2d86e28290600090a35050565b610ab0610fde565b60003411610b005760405162461bcd60e51b815260206004820152601d60248201527f416d6f756e74206d7573742062652067726561746572207468616e2030000000604482015260640161054c565b600354610b0d903461111b565b6003556040513481527f29ec8878f219a513e81dc2f215d685ba9ad10d60b25a0b9241aad63fce84962c906020015b60405180910390a1565b610b4e610f91565b3360009081526004602052604090206002015480610bae5760405162461bcd60e51b815260206004820152601e60248201527f4e6f20636c61696d6564207265776172647320746f2077697468647261770000604482015260640161054c565b336000818152600460205260408082206002018290555190919083908381818185875af1925050503d8060008114610c02576040519150601f19603f3d011682016040523d82523d6000602084013e610c07565b606091505b5050905080610c585760405162461bcd60e51b815260206004820152601a60248201527f4661696c656420746f207472616e736665722072657761726473000000000000604482015260640161054c565b60405182815233907f1d3eee4ca001cff39eec6ec7615aacf2f2bd61791273830728ba00ccbd6e13379060200160405180910390a25050565b610c99610f91565b69014542ba12a337c00000341115610cf35760405162461bcd60e51b815260206004820152601b60248201527f4465706f736974206578636565647320746865206d6178696d756d0000000000604482015260640161054c565b6000610d0d612710610d07346101fe611130565b9061113c565b90506000610d1b3483611148565b3360009081526004602052604081205491925003610d495760018054906000610d438361125f565b91905055505b600354610d56908261111b565b6003553360008181526004602081815260408084208151808301835287815242818501818152835460018082018655858a52878a209451600292830290950194855591519382019390935597875294909352949094019190915554915190916001600160a01b03169084908381818185875af1925050503d8060008114610df9576040519150601f19603f3d011682016040523d82523d6000602084013e610dfe565b606091505b5050905080610e4f5760405162461bcd60e51b815260206004820152601d60248201527f4661696c656420746f207472616e7366657220636f6d6d697373696f6e000000604482015260640161054c565b604080518381526020810185905233917f0b05f0d1cd0819f155b8a61f60baf7767c1ee49d04aeaab701df236140eb93f9910160405180910390a2505050565b610e97610fde565b6001600160a01b038116610efc5760405162461bcd60e51b815260206004820152602660248201527f4f776e61626c653a206e6577206f776e657220697320746865207a65726f206160448201526564647265737360d01b606482015260840161054c565b610f0581611088565b50565b610f10610fde565b600554600160a01b900460ff1615610f6a5760405162461bcd60e51b815260206004820152601f60248201527f4d6967726174696f6e2068617320616c7265616479206265656e20646f6e6500604482015260640161054c565b600580546001600160a81b0319166001600160a01b0390921691909117600160a01b179055565b600054600160a01b900460ff161561095b5760405162461bcd60e51b815260206004820152601060248201526f14185d5cd8589b194e881c185d5cd95960821b604482015260640161054c565b6000546001600160a01b0316331461095b5760405162461bcd60e51b815260206004820181905260248201527f4f776e61626c653a2063616c6c6572206973206e6f7420746865206f776e6572604482015260640161054c565b611040611154565b6000805460ff60a01b191690557f5db9ee0a495bf2e6ff9c91a7834c1ba4fdd244a5e8aa4e537bd38aeae4b073aa335b6040516001600160a01b039091168152602001610b3c565b600080546001600160a01b038381166001600160a01b0319831681178455604051919092169283917f8be0079c531659141344cd1fd0a4f28419497f9722a3daafe3b4186f6b6457e09190a35050565b6110e0610f91565b6000805460ff60a01b1916600160a01b1790557f62e78cea01bee320cd4e420270b5ea74000d11b0c9f74754ebdbfc544b05a2586110703390565b60006111278284611223565b90505b92915050565b600061112782846111ea565b60006111278284611201565b60006111278284611236565b600054600160a01b900460ff1661095b5760405162461bcd60e51b815260206004820152601460248201527314185d5cd8589b194e881b9bdd081c185d5cd95960621b604482015260640161054c565b6000602082840312156111b657600080fd5b81356001600160a01b03811681146111cd57600080fd5b9392505050565b634e487b7160e01b600052601160045260246000fd5b808202811582820484141761112a5761112a6111d4565b60008261121e57634e487b7160e01b600052601260045260246000fd5b500490565b8082018082111561112a5761112a6111d4565b8181038181111561112a5761112a6111d4565b634e487b7160e01b600052603260045260246000fd5b600060018201611271576112716111d4565b506001019056fea2646970667358221220334af7ea55eb551effb4086984fde50765717637adbea3f9922640387cae0b4d64736f6c63430008180033",
  "linkReferences": {},
  "deployedLinkReferences": {}
}