{
  "_format": "hh-sol-artifact-1",
  "contractName": "StakingContract",
  "sourceName": "contracts/nuvoLogic.sol",
  "abi": [
    {
      "inputs": [
        {
          "internalType": "address",
          "name": "_treasury",
          "type": "address"
        }
      ],
      "stateMutability": "nonpayable",
      "type": "constructor"
    },
    {
      "anonymous": false,
      "inputs": [
        {
          "indexed": false,
          "internalType": "uint256",
          "name": "amount",
          "type": "uint256"
        }
      ],
      "name": "BalanceAdded",
      "type": "event"
    },
    {
      "anonymous": false,
      "inputs": [
        {
          "indexed": true,
          "internalType": "address",
          "name": "owner",
          "type": "address"
        }
      ],
      "name": "ContractPaused",
      "type": "event"
    },
    {
      "anonymous": false,
      "inputs": [
        {
          "indexed": true,
          "internalType": "address",
          "name": "owner",
          "type": "address"
        }
      ],
      "name": "ContractUnpaused",
      "type": "event"
    },
    {
      "anonymous": false,
      "inputs": [
        {
          "indexed": true,
          "internalType": "address",
          "name": "user",
          "type": "address"
        },
        {
          "indexed": false,
          "internalType": "uint256",
          "name": "amount",
          "type": "uint256"
        },
        {
          "indexed": false,
          "internalType": "uint256",
          "name": "commission",
          "type": "uint256"
        }
      ],
      "name": "DepositMade",
      "type": "event"
    },
    {
      "anonymous": false,
      "inputs": [
        {
          "indexed": true,
          "internalType": "address",
          "name": "previousOwner",
          "type": "address"
        },
        {
          "indexed": true,
          "internalType": "address",
          "name": "newOwner",
          "type": "address"
        }
      ],
      "name": "OwnershipTransferred",
      "type": "event"
    },
    {
      "anonymous": false,
      "inputs": [
        {
          "indexed": false,
          "internalType": "address",
          "name": "account",
          "type": "address"
        }
      ],
      "name": "Paused",
      "type": "event"
    },
    {
      "anonymous": false,
      "inputs": [
        {
          "indexed": true,
          "internalType": "address",
          "name": "user",
          "type": "address"
        },
        {
          "indexed": false,
          "internalType": "uint256",
          "name": "amount",
          "type": "uint256"
        }
      ],
      "name": "RewardClaimed",
      "type": "event"
    },
    {
      "anonymous": false,
      "inputs": [
        {
          "indexed": true,
          "internalType": "address",
          "name": "user",
          "type": "address"
        },
        {
          "indexed": false,
          "internalType": "uint256",
          "name": "amount",
          "type": "uint256"
        }
      ],
      "name": "RewardWithdrawn",
      "type": "event"
    },
    {
      "anonymous": false,
      "inputs": [
        {
          "indexed": true,
          "internalType": "address",
          "name": "previousTreasury",
          "type": "address"
        },
        {
          "indexed": true,
          "internalType": "address",
          "name": "newTreasury",
          "type": "address"
        }
      ],
      "name": "TreasuryAddressChanged",
      "type": "event"
    },
    {
      "anonymous": false,
      "inputs": [
        {
          "indexed": false,
          "internalType": "address",
          "name": "account",
          "type": "address"
        }
      ],
      "name": "Unpaused",
      "type": "event"
    },
    {
      "inputs": [],
      "name": "COMMISSION_PERCENTAGE",
      "outputs": [
        {
          "internalType": "uint16",
          "name": "",
          "type": "uint16"
        }
      ],
      "stateMutability": "view",
      "type": "function"
    },
    {
      "inputs": [],
      "name": "HOURLY_ROI_PERCENTAGE",
      "outputs": [
        {
          "internalType": "uint256",
          "name": "",
          "type": "uint256"
        }
      ],
      "stateMutability": "view",
      "type": "function"
    },
    {
      "inputs": [],
      "name": "MAX_DEPOSIT",
      "outputs": [
        {
          "internalType": "uint256",
          "name": "",
          "type": "uint256"
        }
      ],
      "stateMutability": "view",
      "type": "function"
    },
    {
      "inputs": [],
      "name": "MAX_ROI_PERCENTAGE",
      "outputs": [
        {
          "internalType": "uint16",
          "name": "",
          "type": "uint16"
        }
      ],
      "stateMutability": "view",
      "type": "function"
    },
    {
      "inputs": [],
      "name": "addBalance",
      "outputs": [],
      "stateMutability": "payable",
      "type": "function"
    },
    {
      "inputs": [
        {
          "internalType": "address",
          "name": "_newTreasury",
          "type": "address"
        }
      ],
      "name": "changeTreasuryAddress",
      "outputs": [],
      "stateMutability": "nonpayable",
      "type": "function"
    },
    {
      "inputs": [],
      "name": "claimRewards",
      "outputs": [],
      "stateMutability": "nonpayable",
      "type": "function"
    },
    {
      "inputs": [
        {
          "internalType": "address",
          "name": "userAddress",
          "type": "address"
        }
      ],
      "name": "claimableRewards",
      "outputs": [
        {
          "internalType": "uint256",
          "name": "",
          "type": "uint256"
        }
      ],
      "stateMutability": "view",
      "type": "function"
    },
    {
      "inputs": [
        {
          "internalType": "address",
          "name": "userAddress",
          "type": "address"
        }
      ],
      "name": "computeRewards",
      "outputs": [
        {
          "internalType": "uint256",
          "name": "",
          "type": "uint256"
        }
      ],
      "stateMutability": "view",
      "type": "function"
    },
    {
      "inputs": [],
      "name": "deposit",
      "outputs": [],
      "stateMutability": "payable",
      "type": "function"
    },
    {
      "inputs": [
        {
          "internalType": "address",
          "name": "to",
          "type": "address"
        }
      ],
      "name": "emergencyWithdraw",
      "outputs": [],
      "stateMutability": "nonpayable",
      "type": "function"
    },
    {
      "inputs": [
        {
          "internalType": "address",
          "name": "user",
          "type": "address"
        }
      ],
      "name": "getLastClaimTime",
      "outputs": [
        {
          "internalType": "uint256",
          "name": "",
          "type": "uint256"
        }
      ],
      "stateMutability": "view",
      "type": "function"
    },
    {
      "inputs": [
        {
          "internalType": "address",
          "name": "user",
          "type": "address"
        }
      ],
      "name": "getTotalDeposit",
      "outputs": [
        {
          "internalType": "uint256",
          "name": "",
          "type": "uint256"
        }
      ],
      "stateMutability": "view",
      "type": "function"
    },
    {
      "inputs": [
        {
          "internalType": "address",
          "name": "_newContractAddress",
          "type": "address"
        }
      ],
      "name": "migrateToNewContract",
      "outputs": [],
      "stateMutability": "nonpayable",
      "type": "function"
    },
    {
      "inputs": [],
      "name": "migrated",
      "outputs": [
        {
          "internalType": "bool",
          "name": "",
          "type": "bool"
        }
      ],
      "stateMutability": "view",
      "type": "function"
    },
    {
      "inputs": [],
      "name": "newContractAddress",
      "outputs": [
        {
          "internalType": "address",
          "name": "",
          "type": "address"
        }
      ],
      "stateMutability": "view",
      "type": "function"
    },
    {
      "inputs": [],
      "name": "owner",
      "outputs": [
        {
          "internalType": "address",
          "name": "",
          "type": "address"
        }
      ],
      "stateMutability": "view",
      "type": "function"
    },
    {
      "inputs": [],
      "name": "pause",
      "outputs": [],
      "stateMutability": "nonpayable",
      "type": "function"
    },
    {
      "inputs": [],
      "name": "paused",
      "outputs": [
        {
          "internalType": "bool",
          "name": "",
          "type": "bool"
        }
      ],
      "stateMutability": "view",
      "type": "function"
    },
    {
      "inputs": [],
      "name": "renounceOwnership",
      "outputs": [],
      "stateMutability": "nonpayable",
      "type": "function"
    },
    {
      "inputs": [],
      "name": "totalPoolBalance",
      "outputs": [
        {
          "internalType": "uint256",
          "name": "",
          "type": "uint256"
        }
      ],
      "stateMutability": "view",
      "type": "function"
    },
    {
      "inputs": [
        {
          "internalType": "address",
          "name": "user",
          "type": "address"
        }
      ],
      "name": "totalRewardsClaimed",
      "outputs": [
        {
          "internalType": "uint256",
          "name": "",
          "type": "uint256"
        }
      ],
      "stateMutability": "view",
      "type": "function"
    },
    {
      "inputs": [
        {
          "internalType": "address",
          "name": "newOwner",
          "type": "address"
        }
      ],
      "name": "transferOwnership",
      "outputs": [],
      "stateMutability": "nonpayable",
      "type": "function"
    },
    {
      "inputs": [],
      "name": "treasury",
      "outputs": [
        {
          "internalType": "address",
          "name": "",
          "type": "address"
        }
      ],
      "stateMutability": "view",
      "type": "function"
    },
    {
      "inputs": [],
      "name": "uniqueUsersCount",
      "outputs": [
        {
          "internalType": "uint256",
          "name": "",
          "type": "uint256"
        }
      ],
      "stateMutability": "view",
      "type": "function"
    },
    {
      "inputs": [],
      "name": "unpause",
      "outputs": [],
      "stateMutability": "nonpayable",
      "type": "function"
    },
    {
      "inputs": [],
      "name": "withdrawRewards",
      "outputs": [],
      "stateMutability": "nonpayable",
      "type": "function"
    },
    {
      "stateMutability": "payable",
      "type": "receive"
    }
  ],
  "bytecode": "0x608060405234801561001057600080fd5b5060405161143c38038061143c83398101604081905261002f916100ba565b6100383361006a565b6000805460ff60a01b19169055600280546001600160a01b0319166001600160a01b03929092169190911790556100ea565b600080546001600160a01b038381166001600160a01b0319831681178455604051919092169283917f8be0079c531659141344cd1fd0a4f28419497f9722a3daafe3b4186f6b6457e09190a35050565b6000602082840312156100cc57600080fd5b81516001600160a01b03811681146100e357600080fd5b9392505050565b611343806100f96000396000f3fe6080604052600436106101a05760003560e01c80638da5cb5b116100ec578063d0e30db01161008a578063e798d3c911610064578063e798d3c914610461578063f2fde38b14610477578063f6ce900414610497578063fe1e05b5146104d057600080fd5b8063d0e30db01461041b578063dc01f60d14610423578063dd5967c31461044357600080fd5b8063b163cc38116100c6578063b163cc38146103c8578063b48ea725146103d0578063c7b8981c146103f0578063c9f8234f1461040557600080fd5b80638da5cb5b14610351578063a680e0bc1461036f578063a6f353f0146103a857600080fd5b80635c975abb116101595780636ff1c9bc116101335780636ff1c9bc146102e7578063715018a6146103075780638456cb591461031c578063857184d11461033157600080fd5b80635c975abb1461027057806361d027b31461028f5780636af04a57146102c757600080fd5b80631bf1de9b146101ac5780632c678c64146101da57806333fb4e641461020b578063372500ab1461022e5780633f4ba83a146102455780635026d63e1461025a57600080fd5b366101a757005b600080fd5b3480156101b857600080fd5b506101c26101fe81565b60405161ffff90911681526020015b60405180910390f35b3480156101e657600080fd5b506005546101fb90600160a01b900460ff1681565b60405190151581526020016101d1565b34801561021757600080fd5b5061022060be81565b6040519081526020016101d1565b34801561023a57600080fd5b506102436104f0565b005b34801561025157600080fd5b5061024361079b565b34801561026657600080fd5b5061022060035481565b34801561027c57600080fd5b50600054600160a01b900460ff166101fb565b34801561029b57600080fd5b506002546102af906001600160a01b031681565b6040516001600160a01b0390911681526020016101d1565b3480156102d357600080fd5b506005546102af906001600160a01b031681565b3480156102f357600080fd5b50610243610302366004611239565b6107d8565b34801561031357600080fd5b5061024361088f565b34801561032857600080fd5b506102436108a3565b34801561033d57600080fd5b5061022061034c366004611239565b6108e0565b34801561035d57600080fd5b506000546001600160a01b03166102af565b34801561037b57600080fd5b5061022061038a366004611239565b6001600160a01b031660009081526004602052604090206001015490565b3480156103b457600080fd5b506102436103c3366004611239565b610946565b6102436109f6565b3480156103dc57600080fd5b506102206103eb366004611239565b610a94565b3480156103fc57600080fd5b50610243610b9c565b34801561041157600080fd5b5061022060015481565b610243610ce7565b34801561042f57600080fd5b5061022061043e366004611239565b610ee5565b34801561044f57600080fd5b5061022069014542ba12a337c0000081565b34801561046d57600080fd5b506101c26132c881565b34801561048357600080fd5b50610243610492366004611239565b610f24565b3480156104a357600080fd5b506102206104b2366004611239565b6001600160a01b031660009081526004602052604090206002015490565b3480156104dc57600080fd5b506102436104eb366004611239565b610f9d565b6104f8611026565b3360008181526004602052604081209161051190610ee5565b9050600081116105685760405162461bcd60e51b815260206004820181905260248201527f4e6f20686179207265636f6d70656e7361732070617261207265636c616d617260448201526064015b60405180910390fd5b60006127106105796101fe8461127f565b6105839190611296565b905061058f81836112b8565b60035410156105e05760405162461bcd60e51b815260206004820152601f60248201527f466f6e646f7320696e737566696369656e74657320656e20656c20706f6f6c00604482015260640161055f565b69014542ba12a337c000006105f4336108e0565b6105fe90846112b8565b11156106725760405162461bcd60e51b815260206004820152603e60248201527f4c6173207265636f6d70656e736173207265636c616d6164617320657863656460448201527f656e20656c206c696d697465206465206465706f7369746f206d78696d6f0000606482015260840161055f565b61067c81836112cb565b915061068881836112b8565b6003600082825461069991906112cb565b90915550504260018401556002546040516000916001600160a01b03169083908381818185875af1925050503d80600081146106f1576040519150601f19603f3d011682016040523d82523d6000602084013e6106f6565b606091505b50509050806107475760405162461bcd60e51b815260206004820152601e60248201527f46616c6c6f20616c207472616e736665726972206c6120636f6d69736f6e0000604482015260640161055f565b8284600201600082825461075b91906112b8565b909155505060405183815233907f106f923f993c2149d49b4255ff723acafa1f2d94393f561d3eda32ae348f72419060200160405180910390a250505050565b6107a3611073565b6107ab6110cd565b60405133907f5b65b0c1363b3003db9bcc5e1fd8805a6d6bf5bf6dc9d3431ee4494cd7d1176690600090a2565b6107e0611073565b6107e8611026565b6000816001600160a01b03164760405160006040518083038185875af1925050503d8060008114610835576040519150601f19603f3d011682016040523d82523d6000602084013e61083a565b606091505b505090508061088b5760405162461bcd60e51b815260206004820152601960248201527f456d657267656e6379207769746864726177206661696c656400000000000000604482015260640161055f565b5050565b610897611073565b6108a1600061111d565b565b6108ab611073565b6108b361116d565b60405133907f81990fd9a5c552b8e3677917d8a03c07678f0d2cb68f88b634aca2022e9bd19f90600090a2565b6001600160a01b038116600090815260046020526040812081805b825481101561093e5761093483600001828154811061091c5761091c6112de565b600091825260209091206002909102015483906111b0565b91506001016108fb565b509392505050565b61094e611073565b6001600160a01b0381166109a45760405162461bcd60e51b815260206004820152601f60248201527f446972656363696f6e206465207465736f726572696120696e76616c69646100604482015260640161055f565b600280546001600160a01b038381166001600160a01b0319831681179093556040519116919082907f4fc6e7a37aea21888550b60360992adb6a9b3b4da644d63e9f3a420c2d86e28290600090a35050565b6109fe611073565b60003411610a4e5760405162461bcd60e51b815260206004820152601d60248201527f416d6f756e74206d7573742062652067726561746572207468616e2030000000604482015260640161055f565b600354610a5b90346111b0565b6003556040513481527f29ec8878f219a513e81dc2f215d685ba9ad10d60b25a0b9241aad63fce84962c906020015b60405180910390a1565b6001600160a01b038116600090815260046020526040812081805b825481101561093e576000836000018281548110610acf57610acf6112de565b906000526020600020906002020190506000610e10826001015442610af491906112cb565b610afe9190611296565b90506000620f42408260be8560000154610b18919061127f565b610b22919061127f565b610b2c9190611296565b835490915060009061271090610b45906132c89061127f565b610b4f9190611296565b90506000876002015483610b6391906112b8565b905081811115610b7f576002880154610b7c90836112cb565b92505b610b8983886112b8565b96505060019094019350610aaf92505050565b610ba4611026565b3360009081526004602052604090206002015480610c045760405162461bcd60e51b815260206004820152601e60248201527f4e6f20636c61696d6564207265776172647320746f2077697468647261770000604482015260640161055f565b336000818152600460205260408082206002018290555190919083908381818185875af1925050503d8060008114610c58576040519150601f19603f3d011682016040523d82523d6000602084013e610c5d565b606091505b5050905080610cae5760405162461bcd60e51b815260206004820152601a60248201527f4661696c656420746f207472616e736665722072657761726473000000000000604482015260640161055f565b60405182815233907f1d3eee4ca001cff39eec6ec7615aacf2f2bd61791273830728ba00ccbd6e13379060200160405180910390a25050565b610cef611026565b69014542ba12a337c00000341115610d495760405162461bcd60e51b815260206004820152601c60248201527f456c206465706f7369746f2073757065726120656c206d6178696d6f00000000604482015260640161055f565b6000610d63612710610d5d346101fe6111c5565b906111d1565b90506000610d7134836111dd565b3360009081526004602052604081205491925003610d9f5760018054906000610d99836112f4565b91905055505b600354610dac90826111b0565b6003553360008181526004602081815260408084208151808301835287815242818501818152835460018082018655858a52878a209451600292830290950194855591519382019390935597875294909352949094019190915554915190916001600160a01b03169084908381818185875af1925050503d8060008114610e4f576040519150601f19603f3d011682016040523d82523d6000602084013e610e54565b606091505b5050905080610ea55760405162461bcd60e51b815260206004820152601f60248201527f46616c6c6f20616c207472616e736665726972206c6120636f6d6973696f6e00604482015260640161055f565b604080518381526020810185905233917f0b05f0d1cd0819f155b8a61f60baf7767c1ee49d04aeaab701df236140eb93f9910160405180910390a2505050565b6001600160a01b038116600090815260046020526040812081610f0784610a94565b90506000826002015482610f1b91906112cb565b95945050505050565b610f2c611073565b6001600160a01b038116610f915760405162461bcd60e51b815260206004820152602660248201527f4f776e61626c653a206e6577206f776e657220697320746865207a65726f206160448201526564647265737360d01b606482015260840161055f565b610f9a8161111d565b50565b610fa5611073565b600554600160a01b900460ff1615610fff5760405162461bcd60e51b815260206004820152601f60248201527f4d6967726174696f6e2068617320616c7265616479206265656e20646f6e6500604482015260640161055f565b600580546001600160a81b0319166001600160a01b0390921691909117600160a01b179055565b600054600160a01b900460ff16156108a15760405162461bcd60e51b815260206004820152601060248201526f14185d5cd8589b194e881c185d5cd95960821b604482015260640161055f565b6000546001600160a01b031633146108a15760405162461bcd60e51b815260206004820181905260248201527f4f776e61626c653a2063616c6c6572206973206e6f7420746865206f776e6572604482015260640161055f565b6110d56111e9565b6000805460ff60a01b191690557f5db9ee0a495bf2e6ff9c91a7834c1ba4fdd244a5e8aa4e537bd38aeae4b073aa335b6040516001600160a01b039091168152602001610a8a565b600080546001600160a01b038381166001600160a01b0319831681178455604051919092169283917f8be0079c531659141344cd1fd0a4f28419497f9722a3daafe3b4186f6b6457e09190a35050565b611175611026565b6000805460ff60a01b1916600160a01b1790557f62e78cea01bee320cd4e420270b5ea74000d11b0c9f74754ebdbfc544b05a2586111053390565b60006111bc82846112b8565b90505b92915050565b60006111bc828461127f565b60006111bc8284611296565b60006111bc82846112cb565b600054600160a01b900460ff166108a15760405162461bcd60e51b815260206004820152601460248201527314185d5cd8589b194e881b9bdd081c185d5cd95960621b604482015260640161055f565b60006020828403121561124b57600080fd5b81356001600160a01b038116811461126257600080fd5b9392505050565b634e487b7160e01b600052601160045260246000fd5b80820281158282048414176111bf576111bf611269565b6000826112b357634e487b7160e01b600052601260045260246000fd5b500490565b808201808211156111bf576111bf611269565b818103818111156111bf576111bf611269565b634e487b7160e01b600052603260045260246000fd5b60006001820161130657611306611269565b506001019056fea2646970667358221220f53e24e33d8867b316b0a8e929770c04b3442e105186ba247d36d5d6e7106ecd64736f6c63430008180033",
  "linkReferences": {},
  "deployedLinkReferences": {}
}