{
  "_format": "hh-sol-artifact-1",
  "contractName": "NuvoLogic",
  "sourceName": "contracts/nuvoLogic2.sol",
  "abi": [
    {
      "inputs": [
        {
          "internalType": "address",
          "name": "_treasury",
          "type": "address"
        }
      ],
      "stateMutability": "nonpayable",
      "type": "constructor"
    },
    {
      "anonymous": false,
      "inputs": [
        {
          "indexed": false,
          "internalType": "uint256",
          "name": "amount",
          "type": "uint256"
        },
        {
          "indexed": false,
          "internalType": "uint256",
          "name": "timestamp",
          "type": "uint256"
        }
      ],
      "name": "BalanceAdded",
      "type": "event"
    },
    {
      "anonymous": false,
      "inputs": [
        {
          "indexed": true,
          "internalType": "address",
          "name": "newContract",
          "type": "address"
        },
        {
          "indexed": false,
          "internalType": "uint256",
          "name": "timestamp",
          "type": "uint256"
        }
      ],
      "name": "ContractMigrated",
      "type": "event"
    },
    {
      "anonymous": false,
      "inputs": [
        {
          "indexed": true,
          "internalType": "address",
          "name": "owner",
          "type": "address"
        },
        {
          "indexed": false,
          "internalType": "uint256",
          "name": "timestamp",
          "type": "uint256"
        }
      ],
      "name": "ContractPaused",
      "type": "event"
    },
    {
      "anonymous": false,
      "inputs": [
        {
          "indexed": true,
          "internalType": "address",
          "name": "owner",
          "type": "address"
        },
        {
          "indexed": false,
          "internalType": "uint256",
          "name": "timestamp",
          "type": "uint256"
        }
      ],
      "name": "ContractUnpaused",
      "type": "event"
    },
    {
      "anonymous": false,
      "inputs": [
        {
          "indexed": true,
          "internalType": "address",
          "name": "user",
          "type": "address"
        },
        {
          "indexed": true,
          "internalType": "uint256",
          "name": "depositId",
          "type": "uint256"
        },
        {
          "indexed": false,
          "internalType": "uint256",
          "name": "amount",
          "type": "uint256"
        },
        {
          "indexed": false,
          "internalType": "uint256",
          "name": "commission",
          "type": "uint256"
        },
        {
          "indexed": false,
          "internalType": "uint256",
          "name": "timestamp",
          "type": "uint256"
        }
      ],
      "name": "DepositMade",
      "type": "event"
    },
    {
      "anonymous": false,
      "inputs": [
        {
          "indexed": true,
          "internalType": "address",
          "name": "user",
          "type": "address"
        },
        {
          "indexed": false,
          "internalType": "uint256",
          "name": "amount",
          "type": "uint256"
        },
        {
          "indexed": false,
          "internalType": "uint256",
          "name": "timestamp",
          "type": "uint256"
        }
      ],
      "name": "EmergencyWithdraw",
      "type": "event"
    },
    {
      "anonymous": false,
      "inputs": [
        {
          "indexed": true,
          "internalType": "address",
          "name": "previousOwner",
          "type": "address"
        },
        {
          "indexed": true,
          "internalType": "address",
          "name": "newOwner",
          "type": "address"
        }
      ],
      "name": "OwnershipTransferred",
      "type": "event"
    },
    {
      "anonymous": false,
      "inputs": [
        {
          "indexed": false,
          "internalType": "address",
          "name": "account",
          "type": "address"
        }
      ],
      "name": "Paused",
      "type": "event"
    },
    {
      "anonymous": false,
      "inputs": [
        {
          "indexed": true,
          "internalType": "address",
          "name": "previousTreasury",
          "type": "address"
        },
        {
          "indexed": true,
          "internalType": "address",
          "name": "newTreasury",
          "type": "address"
        },
        {
          "indexed": false,
          "internalType": "uint256",
          "name": "timestamp",
          "type": "uint256"
        }
      ],
      "name": "TreasuryAddressChanged",
      "type": "event"
    },
    {
      "anonymous": false,
      "inputs": [
        {
          "indexed": false,
          "internalType": "address",
          "name": "account",
          "type": "address"
        }
      ],
      "name": "Unpaused",
      "type": "event"
    },
    {
      "anonymous": false,
      "inputs": [
        {
          "indexed": true,
          "internalType": "address",
          "name": "user",
          "type": "address"
        },
        {
          "indexed": false,
          "internalType": "uint256",
          "name": "amount",
          "type": "uint256"
        },
        {
          "indexed": false,
          "internalType": "uint256",
          "name": "commission",
          "type": "uint256"
        }
      ],
      "name": "WithdrawalMade",
      "type": "event"
    },
    {
      "inputs": [],
      "name": "addBalance",
      "outputs": [],
      "stateMutability": "payable",
      "type": "function"
    },
    {
      "inputs": [
        {
          "internalType": "address",
          "name": "userAddress",
          "type": "address"
        }
      ],
      "name": "calculateRewards",
      "outputs": [
        {
          "internalType": "uint256",
          "name": "",
          "type": "uint256"
        }
      ],
      "stateMutability": "view",
      "type": "function"
    },
    {
      "inputs": [
        {
          "internalType": "address",
          "name": "_newTreasury",
          "type": "address"
        }
      ],
      "name": "changeTreasuryAddress",
      "outputs": [],
      "stateMutability": "nonpayable",
      "type": "function"
    },
    {
      "inputs": [],
      "name": "deposit",
      "outputs": [],
      "stateMutability": "payable",
      "type": "function"
    },
    {
      "inputs": [],
      "name": "emergencyUserWithdraw",
      "outputs": [],
      "stateMutability": "nonpayable",
      "type": "function"
    },
    {
      "inputs": [
        {
          "internalType": "address",
          "name": "to",
          "type": "address"
        }
      ],
      "name": "emergencyWithdraw",
      "outputs": [],
      "stateMutability": "nonpayable",
      "type": "function"
    },
    {
      "inputs": [],
      "name": "getContractBalance",
      "outputs": [
        {
          "internalType": "uint256",
          "name": "",
          "type": "uint256"
        }
      ],
      "stateMutability": "view",
      "type": "function"
    },
    {
      "inputs": [
        {
          "internalType": "address",
          "name": "userAddress",
          "type": "address"
        }
      ],
      "name": "getTotalDeposit",
      "outputs": [
        {
          "internalType": "uint256",
          "name": "",
          "type": "uint256"
        }
      ],
      "stateMutability": "view",
      "type": "function"
    },
    {
      "inputs": [
        {
          "internalType": "address",
          "name": "userAddress",
          "type": "address"
        }
      ],
      "name": "getUserDeposits",
      "outputs": [
        {
          "components": [
            {
              "internalType": "uint256",
              "name": "amount",
              "type": "uint256"
            },
            {
              "internalType": "uint256",
              "name": "timestamp",
              "type": "uint256"
            }
          ],
          "internalType": "struct NuvoLogic.Deposit[]",
          "name": "",
          "type": "tuple[]"
        }
      ],
      "stateMutability": "view",
      "type": "function"
    },
    {
      "inputs": [
        {
          "internalType": "address",
          "name": "userAddress",
          "type": "address"
        }
      ],
      "name": "getUserInfo",
      "outputs": [
        {
          "components": [
            {
              "internalType": "uint256",
              "name": "totalDeposited",
              "type": "uint256"
            },
            {
              "internalType": "uint256",
              "name": "pendingRewards",
              "type": "uint256"
            },
            {
              "internalType": "uint256",
              "name": "lastWithdraw",
              "type": "uint256"
            }
          ],
          "internalType": "struct NuvoLogic.UserInfo",
          "name": "",
          "type": "tuple"
        }
      ],
      "stateMutability": "view",
      "type": "function"
    },
    {
      "inputs": [
        {
          "internalType": "address",
          "name": "_newContractAddress",
          "type": "address"
        }
      ],
      "name": "migrateToNewContract",
      "outputs": [],
      "stateMutability": "nonpayable",
      "type": "function"
    },
    {
      "inputs": [],
      "name": "migrated",
      "outputs": [
        {
          "internalType": "bool",
          "name": "",
          "type": "bool"
        }
      ],
      "stateMutability": "view",
      "type": "function"
    },
    {
      "inputs": [],
      "name": "newContractAddress",
      "outputs": [
        {
          "internalType": "address",
          "name": "",
          "type": "address"
        }
      ],
      "stateMutability": "view",
      "type": "function"
    },
    {
      "inputs": [],
      "name": "owner",
      "outputs": [
        {
          "internalType": "address",
          "name": "",
          "type": "address"
        }
      ],
      "stateMutability": "view",
      "type": "function"
    },
    {
      "inputs": [],
      "name": "pause",
      "outputs": [],
      "stateMutability": "nonpayable",
      "type": "function"
    },
    {
      "inputs": [],
      "name": "paused",
      "outputs": [
        {
          "internalType": "bool",
          "name": "",
          "type": "bool"
        }
      ],
      "stateMutability": "view",
      "type": "function"
    },
    {
      "inputs": [],
      "name": "renounceOwnership",
      "outputs": [],
      "stateMutability": "nonpayable",
      "type": "function"
    },
    {
      "inputs": [],
      "name": "totalPoolBalance",
      "outputs": [
        {
          "internalType": "uint256",
          "name": "",
          "type": "uint256"
        }
      ],
      "stateMutability": "view",
      "type": "function"
    },
    {
      "inputs": [
        {
          "internalType": "address",
          "name": "newOwner",
          "type": "address"
        }
      ],
      "name": "transferOwnership",
      "outputs": [],
      "stateMutability": "nonpayable",
      "type": "function"
    },
    {
      "inputs": [],
      "name": "treasury",
      "outputs": [
        {
          "internalType": "address",
          "name": "",
          "type": "address"
        }
      ],
      "stateMutability": "view",
      "type": "function"
    },
    {
      "inputs": [],
      "name": "uniqueUsersCount",
      "outputs": [
        {
          "internalType": "uint256",
          "name": "",
          "type": "uint256"
        }
      ],
      "stateMutability": "view",
      "type": "function"
    },
    {
      "inputs": [],
      "name": "unpause",
      "outputs": [],
      "stateMutability": "nonpayable",
      "type": "function"
    },
    {
      "inputs": [],
      "name": "withdraw",
      "outputs": [],
      "stateMutability": "nonpayable",
      "type": "function"
    },
    {
      "inputs": [],
      "name": "withdrawAll",
      "outputs": [],
      "stateMutability": "nonpayable",
      "type": "function"
    },
    {
      "stateMutability": "payable",
      "type": "receive"
    }
  ],
  "bytecode": "0x608060405234801561001057600080fd5b506040516200192f3803806200192f8339810160408190526100319161010e565b61003a336100be565b6000805460ff60a01b1916905560018055806001600160a01b0381166100985760405162461bcd60e51b815260206004820152600f60248201526e496e76616c6964206164647265737360881b604482015260640160405180910390fd5b50600380546001600160a01b0319166001600160a01b039290921691909117905561013e565b600080546001600160a01b038381166001600160a01b0319831681178455604051919092169283917f8be0079c531659141344cd1fd0a4f28419497f9722a3daafe3b4186f6b6457e09190a35050565b60006020828403121561012057600080fd5b81516001600160a01b038116811461013757600080fd5b9392505050565b6117e1806200014e6000396000f3fe60806040526004361061014f5760003560e01c8063715018a6116100b6578063b163cc381161006f578063b163cc381461043d578063c9f8234f14610445578063d0e30db01461045b578063f2fde38b14610463578063fe0f869f14610483578063fe1e05b51461049857600080fd5b8063715018a6146103875780638456cb591461039c578063853828b6146103b1578063857184d1146103c65780638da5cb5b146103ff578063a6f353f01461041d57600080fd5b806361d027b31161010857806361d027b3146102955780636386c1c7146102cd57806364ab86751461030f5780636af04a571461032f5780636f9fb98a146103545780636ff1c9bc1461036757600080fd5b80632a5bf6d2146101c85780632c678c64146101fe5780633ccfd60b146102285780633f4ba83a1461023d5780635026d63e146102525780635c975abb1461027657600080fd5b366101c3576003546001600160a01b031633146101c15760405162461bcd60e51b815260206004820152602560248201527f4f6e6c792074726561737572792063616e2073656e642066756e6473206469726044820152646563746c7960d81b60648201526084015b60405180910390fd5b005b600080fd5b3480156101d457600080fd5b506101e86101e3366004611641565b6104b8565b6040516101f59190611671565b60405180910390f35b34801561020a57600080fd5b506005546102189060ff1681565b60405190151581526020016101f5565b34801561023457600080fd5b506101c1610566565b34801561024957600080fd5b506101c161074e565b34801561025e57600080fd5b5061026860045481565b6040519081526020016101f5565b34801561028257600080fd5b50600054600160a01b900460ff16610218565b3480156102a157600080fd5b506003546102b5906001600160a01b031681565b6040516001600160a01b0390911681526020016101f5565b3480156102d957600080fd5b506102ed6102e8366004611641565b610796565b60408051825181526020808401519082015291810151908201526060016101f5565b34801561031b57600080fd5b5061026861032a366004611641565b610821565b34801561033b57600080fd5b506005546102b59061010090046001600160a01b031681565b34801561036057600080fd5b5047610268565b34801561037357600080fd5b506101c1610382366004611641565b61095d565b34801561039357600080fd5b506101c16109f0565b3480156103a857600080fd5b506101c1610a02565b3480156103bd57600080fd5b506101c1610a44565b3480156103d257600080fd5b506102686103e1366004611641565b6001600160a01b031660009081526006602052604090206002015490565b34801561040b57600080fd5b506000546001600160a01b03166102b5565b34801561042957600080fd5b506101c1610438366004611641565b610c54565b6101c1610ce7565b34801561045157600080fd5b5061026860025481565b6101c1610d8a565b34801561046f57600080fd5b506101c161047e366004611641565b610fec565b34801561048f57600080fd5b506101c1611065565b3480156104a457600080fd5b506101c16104b3366004611641565b61115d565b6060816001600160a01b0381166104e15760405162461bcd60e51b81526004016101b8906116c0565b6001600160a01b038316600090815260066020908152604080832080548251818502810185019093528083529193909284015b8282101561055a57838290600052602060002090600202016040518060400160405290816000820154815260200160018201548152505081526020019060010190610514565b50505050915050919050565b61056e611239565b610576611292565b60055460ff16156105995760405162461bcd60e51b81526004016101b8906116e9565b60006105a433610821565b9050600081116105ef5760405162461bcd60e51b81526020600482015260166024820152754e6f207265776172647320746f20776974686472617760501b60448201526064016101b8565b6000610609612710610603846102586112df565b906112f4565b905060006106178383611300565b9050610623818361130c565b4710156106725760405162461bcd60e51b815260206004820152601d60248201527f496e73756666696369656e7420636f6e74726163742062616c616e636500000060448201526064016101b8565b60005b336000908152600660205260409020548110156106ce573360009081526006602052604090208054429190839081106106b0576106b0611720565b60009182526020909120600160029092020181019190915501610675565b50336000908152600660205260409020426001909101556003546106fb906001600160a01b031683611318565b6107053382611318565b604080518281526020810184905233917f2d4d49c3e017b8235c908cbaa83a2431a08f3b950712696ece2088964fd399f0910160405180910390a250505061074c60018055565b565b610756611436565b61075e611490565b60405142815233907f107553d8191d85b405879cf752997865edd48d94e20bda4dd27223c94b31a7cc906020015b60405180910390a2565b6107ba60405180606001604052806000815260200160008152602001600081525090565b60405180606001604052806107e7846001600160a01b031660009081526006602052604090206002015490565b81526020016107f584610821565b81526001600160a01b039093166000908152600660209081526040909120600101549301929092525090565b6001600160a01b03811660009081526006602052604081208054820361084a5750600092915050565b6000805b825481101561095557600083600001828154811061086e5761086e611720565b90600052602060002090600202019050600061089d610e1061060384600101544261130090919063ffffffff16565b905060006108ca620f4240610603846108c460c888600001546112df90919063ffffffff16565b906112df565b83549091506000906108e69061271090610603906130d46112df565b90508082116108f557816108f7565b805b9150600061091a61091586600101544261130090919063ffffffff16565b6114e0565b905061093661092f61271061060386856112df565b849061130c565b9250610942878461130c565b9650506001909401935061084e92505050565b509392505050565b610965611436565b61096d611523565b806001600160a01b0381166109945760405162461bcd60e51b81526004016101b8906116c0565b476109a86001600160a01b03841682611318565b604080518281524260208201526001600160a01b038516917fbb757047c2b5f3974fe26b7c10f732e7bce710b0952a71082702781e62ae0595910160405180910390a2505050565b6109f8611436565b61074c6000611573565b610a0a611436565b610a126115c3565b60405142815233907f80170b5fcdd2bf1e0660ef4b8851f86685f64d41b1a19de1471947ece8725aac9060200161078c565b610a4c611239565b610a54611292565b60055460ff1615610a775760405162461bcd60e51b81526004016101b8906116e9565b3360009081526006602052604090206002810154610ad15760405162461bcd60e51b81526020600482015260176024820152764e6f206465706f7369747320746f20776974686472617760481b60448201526064016101b8565b6000610adc33610821565b600283015490915060008215610b8557610afe612710610603856102586112df565b9050610b14610b0d8483611300565b839061130c565b9150610b20828261130c565b471015610b6f5760405162461bcd60e51b815260206004820152601d60248201527f496e73756666696369656e7420636f6e74726163742062616c616e636500000060448201526064016101b8565b600354610b85906001600160a01b031682611318565b6002840154600454610b9691611300565b60045533600090815260066020526040812090610bb38282611606565b50600060018201819055600290910155610bcd3383611318565b604080518381526020810183905233917f2d4d49c3e017b8235c908cbaa83a2431a08f3b950712696ece2088964fd399f0910160405180910390a260028401546040805191825242602083015233917fbb757047c2b5f3974fe26b7c10f732e7bce710b0952a71082702781e62ae0595910160405180910390a25050505061074c60018055565b610c5c611436565b806001600160a01b038116610c835760405162461bcd60e51b81526004016101b8906116c0565b600380546001600160a01b038481166001600160a01b0319831681179093556040519116919082907fb60b491be4b0e8f92e7d52f768ee5f0a27e956a74b6cf69560df226b0127778e90610cda9042815260200190565b60405180910390a3505050565b610cef611436565b60003411610d3f5760405162461bcd60e51b815260206004820152601d60248201527f416d6f756e74206d7573742062652067726561746572207468616e203000000060448201526064016101b8565b600454610d4c903461130c565b600455604080513481524260208201527f2f59d1a3b7b985da630a67df5848afd649a7ac56a4f65c399458a7b1219d255691015b60405180910390a1565b610d92611239565b610d9a611292565b60055460ff1615610dbd5760405162461bcd60e51b81526004016101b8906116e9565b34674563918244f40000811015610e0e5760405162461bcd60e51b81526020600482015260156024820152744465706f7369742062656c6f77206d696e696d756d60581b60448201526064016101b8565b69021e19e0c9bab2400000811115610e685760405162461bcd60e51b815260206004820152601760248201527f4465706f7369742065786365656473206d6178696d756d00000000000000000060448201526064016101b8565b3360009081526006602052604090205461012c11610ebf5760405162461bcd60e51b815260206004820152601460248201527313585e0819195c1bdcda5d1cc81c995858da195960621b60448201526064016101b8565b6000610ed3612710610603346102586112df565b90506000610ee13483611300565b3360009081526006602052604081205491925003610f0b57600254610f0790600161130c565b6002555b600454610f18908261130c565b600455336000818152600660208181526040808420805482518084019093528783524283850190815260018083018455838852858820945160028085029096019081559151910155959094529190520154610f73908361130c565b33600090815260066020526040902060020155600354610f9c906001600160a01b031684611318565b604080518381526020810185905242818301529051829133917ff0c0eca9f6ed9ad8da1bc85eb9c9ee44f49b92275543eec272134ef0b091d10a9181900360600190a35050505061074c60018055565b610ff4611436565b6001600160a01b0381166110595760405162461bcd60e51b815260206004820152602660248201527f4f776e61626c653a206e6577206f776e657220697320746865207a65726f206160448201526564647265737360d01b60648201526084016101b8565b61106281611573565b50565b61106d611239565b611075611523565b33600090815260066020526040902060028101546110cf5760405162461bcd60e51b81526020600482015260176024820152764e6f206465706f7369747320746f20776974686472617760481b60448201526064016101b8565b60028101546004546110e19082611300565b600455336000908152600660205260408120906110fe8282611606565b506000600182018190556002909101556111183382611318565b6040805182815242602082015233917fbb757047c2b5f3974fe26b7c10f732e7bce710b0952a71082702781e62ae0595910160405180910390a2505061074c60018055565b611165611436565b806001600160a01b03811661118c5760405162461bcd60e51b81526004016101b8906116c0565b60055460ff16156111d25760405162461bcd60e51b815260206004820152601060248201526f105b1c9958591e481b5a59dc985d195960821b60448201526064016101b8565b6005805460ff196001600160a01b0385166101008102919091166001600160a81b0319909216919091176001179091556040514281527fa98abbd66d7b82d36401253301a8962d537e861495aac48844ac6f7d61b221f79060200160405180910390a25050565b60026001540361128b5760405162461bcd60e51b815260206004820152601f60248201527f5265656e7472616e637947756172643a207265656e7472616e742063616c6c0060448201526064016101b8565b6002600155565b600054600160a01b900460ff161561074c5760405162461bcd60e51b815260206004820152601060248201526f14185d5cd8589b194e881c185d5cd95960821b60448201526064016101b8565b60006112eb828461174c565b90505b92915050565b60006112eb8284611763565b60006112eb8284611785565b60006112eb8284611798565b804710156113685760405162461bcd60e51b815260206004820152601d60248201527f416464726573733a20696e73756666696369656e742062616c616e636500000060448201526064016101b8565b6000826001600160a01b03168260405160006040518083038185875af1925050503d80600081146113b5576040519150601f19603f3d011682016040523d82523d6000602084013e6113ba565b606091505b50509050806114315760405162461bcd60e51b815260206004820152603a60248201527f416464726573733a20756e61626c6520746f2073656e642076616c75652c207260448201527f6563697069656e74206d6179206861766520726576657274656400000000000060648201526084016101b8565b505050565b6000546001600160a01b0316331461074c5760405162461bcd60e51b815260206004820181905260248201527f4f776e61626c653a2063616c6c6572206973206e6f7420746865206f776e657260448201526064016101b8565b611498611523565b6000805460ff60a01b191690557f5db9ee0a495bf2e6ff9c91a7834c1ba4fdd244a5e8aa4e537bd38aeae4b073aa335b6040516001600160a01b039091168152602001610d80565b60006301e1338082106114f657506101f4919050565b62ed4e008210611509575061012c919050565b6276a700821061151b57506064919050565b506000919050565b600054600160a01b900460ff1661074c5760405162461bcd60e51b815260206004820152601460248201527314185d5cd8589b194e881b9bdd081c185d5cd95960621b60448201526064016101b8565b600080546001600160a01b038381166001600160a01b0319831681178455604051919092169283917f8be0079c531659141344cd1fd0a4f28419497f9722a3daafe3b4186f6b6457e09190a35050565b6115cb611292565b6000805460ff60a01b1916600160a01b1790557f62e78cea01bee320cd4e420270b5ea74000d11b0c9f74754ebdbfc544b05a2586114c83390565b508054600082556002029060005260206000209081019061106291905b8082111561163d5760008082556001820155600201611623565b5090565b60006020828403121561165357600080fd5b81356001600160a01b038116811461166a57600080fd5b9392505050565b602080825282518282018190526000919060409081850190868401855b828110156116b35781518051855286015186850152928401929085019060010161168e565b5091979650505050505050565b6020808252600f908201526e496e76616c6964206164647265737360881b604082015260600190565b6020808252601a908201527f436f6e747261637420686173206265656e206d69677261746564000000000000604082015260600190565b634e487b7160e01b600052603260045260246000fd5b634e487b7160e01b600052601160045260246000fd5b80820281158282048414176112ee576112ee611736565b60008261178057634e487b7160e01b600052601260045260246000fd5b500490565b818103818111156112ee576112ee611736565b808201808211156112ee576112ee61173656fea2646970667358221220ff6ec499fc502bd7d78635ba2c1037e69a8a3db4bbd87f2b8ff9099eb3fdd0cf64736f6c63430008180033",
  "linkReferences": {},
  "deployedLinkReferences": {}
}