{
  "_format": "hh-sol-artifact-1",
  "contractName": "StakingContract",
  "sourceName": "contracts/nuvoLogic.sol",
  "abi": [
    {
      "inputs": [
        {
          "internalType": "address",
          "name": "_treasury",
          "type": "address"
        }
      ],
      "stateMutability": "nonpayable",
      "type": "constructor"
    },
    {
      "anonymous": false,
      "inputs": [
        {
          "indexed": true,
          "internalType": "address",
          "name": "user",
          "type": "address"
        },
        {
          "indexed": false,
          "internalType": "uint256",
          "name": "amount",
          "type": "uint256"
        },
        {
          "indexed": false,
          "internalType": "uint256",
          "name": "commission",
          "type": "uint256"
        }
      ],
      "name": "DepositMade",
      "type": "event"
    },
    {
      "anonymous": false,
      "inputs": [
        {
          "indexed": true,
          "internalType": "address",
          "name": "previousOwner",
          "type": "address"
        },
        {
          "indexed": true,
          "internalType": "address",
          "name": "newOwner",
          "type": "address"
        }
      ],
      "name": "OwnershipTransferred",
      "type": "event"
    },
    {
      "anonymous": false,
      "inputs": [
        {
          "indexed": false,
          "internalType": "address",
          "name": "account",
          "type": "address"
        }
      ],
      "name": "Paused",
      "type": "event"
    },
    {
      "anonymous": false,
      "inputs": [
        {
          "indexed": true,
          "internalType": "address",
          "name": "user",
          "type": "address"
        },
        {
          "indexed": false,
          "internalType": "uint256",
          "name": "amount",
          "type": "uint256"
        }
      ],
      "name": "RewardClaimed",
      "type": "event"
    },
    {
      "anonymous": false,
      "inputs": [
        {
          "indexed": true,
          "internalType": "address",
          "name": "user",
          "type": "address"
        },
        {
          "indexed": false,
          "internalType": "uint256",
          "name": "amount",
          "type": "uint256"
        }
      ],
      "name": "RewardWithdrawn",
      "type": "event"
    },
    {
      "anonymous": false,
      "inputs": [
        {
          "indexed": false,
          "internalType": "address",
          "name": "account",
          "type": "address"
        }
      ],
      "name": "Unpaused",
      "type": "event"
    },
    {
      "inputs": [],
      "name": "COMMISSION_PERCENTAGE",
      "outputs": [
        {
          "internalType": "uint256",
          "name": "",
          "type": "uint256"
        }
      ],
      "stateMutability": "view",
      "type": "function"
    },
    {
      "inputs": [],
      "name": "DAILY_ROI_PERCENTAGE",
      "outputs": [
        {
          "internalType": "uint256",
          "name": "",
          "type": "uint256"
        }
      ],
      "stateMutability": "view",
      "type": "function"
    },
    {
      "inputs": [],
      "name": "DURATION",
      "outputs": [
        {
          "internalType": "uint256",
          "name": "",
          "type": "uint256"
        }
      ],
      "stateMutability": "view",
      "type": "function"
    },
    {
      "inputs": [],
      "name": "MAX_DEPOSIT",
      "outputs": [
        {
          "internalType": "uint256",
          "name": "",
          "type": "uint256"
        }
      ],
      "stateMutability": "view",
      "type": "function"
    },
    {
      "inputs": [],
      "name": "WEEKLY_ROI_PERCENTAGE",
      "outputs": [
        {
          "internalType": "uint256",
          "name": "",
          "type": "uint256"
        }
      ],
      "stateMutability": "view",
      "type": "function"
    },
    {
      "inputs": [
        {
          "internalType": "address",
          "name": "user",
          "type": "address"
        }
      ],
      "name": "calculateRewards",
      "outputs": [
        {
          "internalType": "uint256",
          "name": "",
          "type": "uint256"
        }
      ],
      "stateMutability": "view",
      "type": "function"
    },
    {
      "inputs": [],
      "name": "claimRewards",
      "outputs": [],
      "stateMutability": "nonpayable",
      "type": "function"
    },
    {
      "inputs": [],
      "name": "deposit",
      "outputs": [],
      "stateMutability": "payable",
      "type": "function"
    },
    {
      "inputs": [
        {
          "internalType": "address",
          "name": "user",
          "type": "address"
        }
      ],
      "name": "getTotalDeposit",
      "outputs": [
        {
          "internalType": "uint256",
          "name": "",
          "type": "uint256"
        }
      ],
      "stateMutability": "view",
      "type": "function"
    },
    {
      "inputs": [],
      "name": "owner",
      "outputs": [
        {
          "internalType": "address",
          "name": "",
          "type": "address"
        }
      ],
      "stateMutability": "view",
      "type": "function"
    },
    {
      "inputs": [],
      "name": "pause",
      "outputs": [],
      "stateMutability": "nonpayable",
      "type": "function"
    },
    {
      "inputs": [],
      "name": "paused",
      "outputs": [
        {
          "internalType": "bool",
          "name": "",
          "type": "bool"
        }
      ],
      "stateMutability": "view",
      "type": "function"
    },
    {
      "inputs": [],
      "name": "renounceOwnership",
      "outputs": [],
      "stateMutability": "nonpayable",
      "type": "function"
    },
    {
      "inputs": [
        {
          "internalType": "address",
          "name": "_newTreasury",
          "type": "address"
        }
      ],
      "name": "setTreasury",
      "outputs": [],
      "stateMutability": "nonpayable",
      "type": "function"
    },
    {
      "inputs": [],
      "name": "totalPoolBalance",
      "outputs": [
        {
          "internalType": "uint256",
          "name": "",
          "type": "uint256"
        }
      ],
      "stateMutability": "view",
      "type": "function"
    },
    {
      "inputs": [
        {
          "internalType": "address",
          "name": "newOwner",
          "type": "address"
        }
      ],
      "name": "transferOwnership",
      "outputs": [],
      "stateMutability": "nonpayable",
      "type": "function"
    },
    {
      "inputs": [],
      "name": "treasury",
      "outputs": [
        {
          "internalType": "address",
          "name": "",
          "type": "address"
        }
      ],
      "stateMutability": "view",
      "type": "function"
    },
    {
      "inputs": [],
      "name": "unpause",
      "outputs": [],
      "stateMutability": "nonpayable",
      "type": "function"
    },
    {
      "inputs": [
        {
          "internalType": "address",
          "name": "",
          "type": "address"
        },
        {
          "internalType": "uint256",
          "name": "",
          "type": "uint256"
        }
      ],
      "name": "userDeposits",
      "outputs": [
        {
          "internalType": "uint256",
          "name": "amount",
          "type": "uint256"
        },
        {
          "internalType": "uint256",
          "name": "lastClaimTime",
          "type": "uint256"
        }
      ],
      "stateMutability": "view",
      "type": "function"
    },
    {
      "inputs": [
        {
          "internalType": "address",
          "name": "",
          "type": "address"
        }
      ],
      "name": "userRewards",
      "outputs": [
        {
          "internalType": "uint256",
          "name": "",
          "type": "uint256"
        }
      ],
      "stateMutability": "view",
      "type": "function"
    },
    {
      "inputs": [],
      "name": "withdrawRewards",
      "outputs": [],
      "stateMutability": "nonpayable",
      "type": "function"
    },
    {
      "stateMutability": "payable",
      "type": "receive"
    }
  ],
  "bytecode": "0x608060405234801561001057600080fd5b50604051610f45380380610f4583398101604081905261002f916100ba565b6100383361006a565b6000805460ff60a01b19169055600180546001600160a01b0319166001600160a01b03929092169190911790556100ea565b600080546001600160a01b038381166001600160a01b0319831681178455604051919092169283917f8be0079c531659141344cd1fd0a4f28419497f9722a3daafe3b4186f6b6457e09190a35050565b6000602082840312156100cc57600080fd5b81516001600160a01b03811681146100e357600080fd5b9392505050565b610e4c806100f96000396000f3fe60806040526004361061012e5760003560e01c806364ab8675116100ab578063c7b8981c1161006f578063c7b8981c1461031d578063d0e30db014610332578063dc99ef0d146101c6578063dd5967c31461033a578063f0f4426014610358578063f2fde38b1461037857600080fd5b806364ab867514610295578063715018a6146102b55780638456cb59146102ca578063857184d1146102df5780638da5cb5b146102ff57600080fd5b80633f4ba83a116100f25780633f4ba83a146101f35780634232c079146102085780635026d63e1461021d5780635c975abb1461023357806361d027b31461025d57600080fd5b80630660f1e81461013a57806308f433331461017a5780631be05289146101af5780631bf1de9b146101c6578063372500ab146101dc57600080fd5b3661013557005b600080fd5b34801561014657600080fd5b50610167610155366004610d2d565b60046020526000908152604090205481565b6040519081526020015b60405180910390f35b34801561018657600080fd5b5061019a610195366004610d48565b610398565b60408051928352602083019190915201610171565b3480156101bb57600080fd5b5061016762093a8081565b3480156101d257600080fd5b506101676101f481565b3480156101e857600080fd5b506101f16103d4565b005b3480156101ff57600080fd5b506101f16105da565b34801561021457600080fd5b506101676105ec565b34801561022957600080fd5b5061016760025481565b34801561023f57600080fd5b50600054600160a01b900460ff166040519015158152602001610171565b34801561026957600080fd5b5060015461027d906001600160a01b031681565b6040516001600160a01b039091168152602001610171565b3480156102a157600080fd5b506101676102b0366004610d2d565b6105fc565b3480156102c157600080fd5b506101f16106d8565b3480156102d657600080fd5b506101f16106ea565b3480156102eb57600080fd5b506101676102fa366004610d2d565b6106fa565b34801561030b57600080fd5b506000546001600160a01b031661027d565b34801561032957600080fd5b506101f161075f565b6101f1610898565b34801561034657600080fd5b5061016769021e19e0c9bab240000081565b34801561036457600080fd5b506101f1610373366004610d2d565b610a56565b34801561038457600080fd5b506101f1610393366004610d2d565b610a80565b600360205281600052604060002081815481106103b457600080fd5b600091825260209091206002909102018054600190910154909250905082565b6103dc610af9565b336000818152600360205260408120916103f5906105fc565b9050600081116104425760405162461bcd60e51b81526020600482015260136024820152724e6f207265776172647320746f20636c61696d60681b60448201526064015b60405180910390fd5b600061045c612710610456846101f4610b46565b90610b5b565b90506104688282610b67565b91506104806104778383610b73565b60025490610b67565b60025560005b83548110156104c857428482815481106104a2576104a2610d72565b6000918252602090912060016002909202010155806104c081610d9e565b915050610486565b506001546040516000916001600160a01b03169083908381818185875af1925050503d8060008114610516576040519150601f19603f3d011682016040523d82523d6000602084013e61051b565b606091505b505090508061056c5760405162461bcd60e51b815260206004820152601d60248201527f4661696c656420746f207472616e7366657220636f6d6d697373696f6e0000006044820152606401610439565b336000908152600460205260409020546105869084610b73565b33600081815260046020526040908190209290925590517f106f923f993c2149d49b4255ff723acafa1f2d94393f561d3eda32ae348f7241906105cc9086815260200190565b60405180910390a250505050565b6105e2610b7f565b6105ea610bd9565b565b6105f960076101f4610db7565b81565b6001600160a01b038116600090815260036020526040812081805b82548110156106d05760006201518084838154811061063857610638610d72565b906000526020600020906002020160010154426106559190610dd9565b61065f9190610db7565b90506000816106a361271061045661067a60076101f4610db7565b89888154811061068c5761068c610d72565b600091825260209091206002909102015490610b46565b6106ad9190610dec565b90506106b98482610b73565b9350505080806106c890610d9e565b915050610617565b509392505050565b6106e0610b7f565b6105ea6000610c2e565b6106f2610b7f565b6105ea610c7e565b6001600160a01b038116600090815260036020526040812081805b82548110156106d05761074b83828154811061073357610733610d72565b60009182526020909120600290910201548390610b73565b91508061075781610d9e565b915050610715565b336000908152600460205260409020546107b45760405162461bcd60e51b81526020600482015260166024820152754e6f207265776172647320746f20776974686472617760501b6044820152606401610439565b33600081815260046020526040808220805490839055905190929083908381818185875af1925050503d8060008114610809576040519150601f19603f3d011682016040523d82523d6000602084013e61080e565b606091505b505090508061085f5760405162461bcd60e51b815260206004820152601a60248201527f4661696c656420746f207472616e7366657220726577617264730000000000006044820152606401610439565b60405182815233907f1d3eee4ca001cff39eec6ec7615aacf2f2bd61791273830728ba00ccbd6e13379060200160405180910390a25050565b6108a0610af9565b69021e19e0c9bab24000003411156108fa5760405162461bcd60e51b815260206004820152601b60248201527f4465706f736974206578636565647320746865206d6178696d756d00000000006044820152606401610439565b600061090e612710610456346101f4610b46565b9050600061091c3483610b67565b60025490915061092c9082610b73565b60029081553360009081526003602090815260408083208151808301835286815242818501908152825460018082018555938752948620915194909602019283559351918401919091559154915190916001600160a01b03169084908381818185875af1925050503d80600081146109c0576040519150601f19603f3d011682016040523d82523d6000602084013e6109c5565b606091505b5050905080610a165760405162461bcd60e51b815260206004820152601d60248201527f4661696c656420746f207472616e7366657220636f6d6d697373696f6e0000006044820152606401610439565b604080518381526020810185905233917f0b05f0d1cd0819f155b8a61f60baf7767c1ee49d04aeaab701df236140eb93f9910160405180910390a2505050565b610a5e610b7f565b600180546001600160a01b0319166001600160a01b0392909216919091179055565b610a88610b7f565b6001600160a01b038116610aed5760405162461bcd60e51b815260206004820152602660248201527f4f776e61626c653a206e6577206f776e657220697320746865207a65726f206160448201526564647265737360d01b6064820152608401610439565b610af681610c2e565b50565b600054600160a01b900460ff16156105ea5760405162461bcd60e51b815260206004820152601060248201526f14185d5cd8589b194e881c185d5cd95960821b6044820152606401610439565b6000610b528284610dec565b90505b92915050565b6000610b528284610db7565b6000610b528284610dd9565b6000610b528284610e03565b6000546001600160a01b031633146105ea5760405162461bcd60e51b815260206004820181905260248201527f4f776e61626c653a2063616c6c6572206973206e6f7420746865206f776e65726044820152606401610439565b610be1610cc1565b6000805460ff60a01b191690557f5db9ee0a495bf2e6ff9c91a7834c1ba4fdd244a5e8aa4e537bd38aeae4b073aa335b6040516001600160a01b03909116815260200160405180910390a1565b600080546001600160a01b038381166001600160a01b0319831681178455604051919092169283917f8be0079c531659141344cd1fd0a4f28419497f9722a3daafe3b4186f6b6457e09190a35050565b610c86610af9565b6000805460ff60a01b1916600160a01b1790557f62e78cea01bee320cd4e420270b5ea74000d11b0c9f74754ebdbfc544b05a258610c113390565b600054600160a01b900460ff166105ea5760405162461bcd60e51b815260206004820152601460248201527314185d5cd8589b194e881b9bdd081c185d5cd95960621b6044820152606401610439565b80356001600160a01b0381168114610d2857600080fd5b919050565b600060208284031215610d3f57600080fd5b610b5282610d11565b60008060408385031215610d5b57600080fd5b610d6483610d11565b946020939093013593505050565b634e487b7160e01b600052603260045260246000fd5b634e487b7160e01b600052601160045260246000fd5b600060018201610db057610db0610d88565b5060010190565b600082610dd457634e487b7160e01b600052601260045260246000fd5b500490565b81810381811115610b5557610b55610d88565b8082028115828204841417610b5557610b55610d88565b80820180821115610b5557610b55610d8856fea26469706673582212205eedce0388f06917e3e570d5b8a89ebddb14b9651c80ecadf452c6b2585fd83a64736f6c63430008130033",
  "linkReferences": {},
  "deployedLinkReferences": {}
}