{
  "_format": "hh-sol-artifact-1",
  "contractName": "StakingContract",
  "sourceName": "contracts/nuvoLogic.sol",
  "abi": [
    {
      "inputs": [
        {
          "internalType": "address",
          "name": "_treasury",
          "type": "address"
        }
      ],
      "stateMutability": "nonpayable",
      "type": "constructor"
    },
    {
      "anonymous": false,
      "inputs": [
        {
          "indexed": true,
          "internalType": "address",
          "name": "owner",
          "type": "address"
        }
      ],
      "name": "ContractPaused",
      "type": "event"
    },
    {
      "anonymous": false,
      "inputs": [
        {
          "indexed": true,
          "internalType": "address",
          "name": "owner",
          "type": "address"
        }
      ],
      "name": "ContractUnpaused",
      "type": "event"
    },
    {
      "anonymous": false,
      "inputs": [
        {
          "indexed": true,
          "internalType": "address",
          "name": "user",
          "type": "address"
        },
        {
          "indexed": false,
          "internalType": "uint256",
          "name": "amount",
          "type": "uint256"
        },
        {
          "indexed": false,
          "internalType": "uint256",
          "name": "commission",
          "type": "uint256"
        }
      ],
      "name": "DepositMade",
      "type": "event"
    },
    {
      "anonymous": false,
      "inputs": [
        {
          "indexed": true,
          "internalType": "address",
          "name": "previousOwner",
          "type": "address"
        },
        {
          "indexed": true,
          "internalType": "address",
          "name": "newOwner",
          "type": "address"
        }
      ],
      "name": "OwnershipTransferred",
      "type": "event"
    },
    {
      "anonymous": false,
      "inputs": [
        {
          "indexed": false,
          "internalType": "address",
          "name": "account",
          "type": "address"
        }
      ],
      "name": "Paused",
      "type": "event"
    },
    {
      "anonymous": false,
      "inputs": [
        {
          "indexed": true,
          "internalType": "address",
          "name": "user",
          "type": "address"
        },
        {
          "indexed": false,
          "internalType": "uint256",
          "name": "amount",
          "type": "uint256"
        }
      ],
      "name": "RewardClaimed",
      "type": "event"
    },
    {
      "anonymous": false,
      "inputs": [
        {
          "indexed": true,
          "internalType": "address",
          "name": "user",
          "type": "address"
        },
        {
          "indexed": false,
          "internalType": "uint256",
          "name": "amount",
          "type": "uint256"
        }
      ],
      "name": "RewardWithdrawn",
      "type": "event"
    },
    {
      "anonymous": false,
      "inputs": [
        {
          "indexed": false,
          "internalType": "address",
          "name": "account",
          "type": "address"
        }
      ],
      "name": "Unpaused",
      "type": "event"
    },
    {
      "inputs": [],
      "name": "COMMISSION_PERCENTAGE",
      "outputs": [
        {
          "internalType": "uint256",
          "name": "",
          "type": "uint256"
        }
      ],
      "stateMutability": "view",
      "type": "function"
    },
    {
      "inputs": [],
      "name": "DURATION",
      "outputs": [
        {
          "internalType": "uint256",
          "name": "",
          "type": "uint256"
        }
      ],
      "stateMutability": "view",
      "type": "function"
    },
    {
      "inputs": [],
      "name": "HOURLY_ROI_PERCENTAGE",
      "outputs": [
        {
          "internalType": "uint256",
          "name": "",
          "type": "uint256"
        }
      ],
      "stateMutability": "view",
      "type": "function"
    },
    {
      "inputs": [],
      "name": "MAX_DEPOSIT",
      "outputs": [
        {
          "internalType": "uint256",
          "name": "",
          "type": "uint256"
        }
      ],
      "stateMutability": "view",
      "type": "function"
    },
    {
      "inputs": [],
      "name": "MAX_ROI_PERCENTAGE",
      "outputs": [
        {
          "internalType": "uint256",
          "name": "",
          "type": "uint256"
        }
      ],
      "stateMutability": "view",
      "type": "function"
    },
    {
      "inputs": [],
      "name": "WEEKLY_ROI_PERCENTAGE",
      "outputs": [
        {
          "internalType": "uint256",
          "name": "",
          "type": "uint256"
        }
      ],
      "stateMutability": "view",
      "type": "function"
    },
    {
      "inputs": [],
      "name": "addBalance",
      "outputs": [],
      "stateMutability": "payable",
      "type": "function"
    },
    {
      "inputs": [
        {
          "internalType": "address",
          "name": "userAddress",
          "type": "address"
        }
      ],
      "name": "calculateRewards",
      "outputs": [
        {
          "internalType": "uint256",
          "name": "",
          "type": "uint256"
        }
      ],
      "stateMutability": "view",
      "type": "function"
    },
    {
      "inputs": [],
      "name": "claimRewards",
      "outputs": [],
      "stateMutability": "nonpayable",
      "type": "function"
    },
    {
      "inputs": [],
      "name": "deposit",
      "outputs": [],
      "stateMutability": "payable",
      "type": "function"
    },
    {
      "inputs": [
        {
          "internalType": "address",
          "name": "to",
          "type": "address"
        }
      ],
      "name": "emergencyWithdraw",
      "outputs": [],
      "stateMutability": "nonpayable",
      "type": "function"
    },
    {
      "inputs": [
        {
          "internalType": "address",
          "name": "user",
          "type": "address"
        }
      ],
      "name": "getLastClaimTime",
      "outputs": [
        {
          "internalType": "uint256",
          "name": "",
          "type": "uint256"
        }
      ],
      "stateMutability": "view",
      "type": "function"
    },
    {
      "inputs": [
        {
          "internalType": "address",
          "name": "user",
          "type": "address"
        }
      ],
      "name": "getTotalDeposit",
      "outputs": [
        {
          "internalType": "uint256",
          "name": "",
          "type": "uint256"
        }
      ],
      "stateMutability": "view",
      "type": "function"
    },
    {
      "inputs": [],
      "name": "owner",
      "outputs": [
        {
          "internalType": "address",
          "name": "",
          "type": "address"
        }
      ],
      "stateMutability": "view",
      "type": "function"
    },
    {
      "inputs": [],
      "name": "pause",
      "outputs": [],
      "stateMutability": "nonpayable",
      "type": "function"
    },
    {
      "inputs": [],
      "name": "paused",
      "outputs": [
        {
          "internalType": "bool",
          "name": "",
          "type": "bool"
        }
      ],
      "stateMutability": "view",
      "type": "function"
    },
    {
      "inputs": [],
      "name": "renounceOwnership",
      "outputs": [],
      "stateMutability": "nonpayable",
      "type": "function"
    },
    {
      "inputs": [
        {
          "internalType": "address",
          "name": "_newTreasury",
          "type": "address"
        }
      ],
      "name": "setTreasury",
      "outputs": [],
      "stateMutability": "nonpayable",
      "type": "function"
    },
    {
      "inputs": [],
      "name": "totalPoolBalance",
      "outputs": [
        {
          "internalType": "uint256",
          "name": "",
          "type": "uint256"
        }
      ],
      "stateMutability": "view",
      "type": "function"
    },
    {
      "inputs": [
        {
          "internalType": "address",
          "name": "newOwner",
          "type": "address"
        }
      ],
      "name": "transferOwnership",
      "outputs": [],
      "stateMutability": "nonpayable",
      "type": "function"
    },
    {
      "inputs": [],
      "name": "treasury",
      "outputs": [
        {
          "internalType": "address",
          "name": "",
          "type": "address"
        }
      ],
      "stateMutability": "view",
      "type": "function"
    },
    {
      "inputs": [],
      "name": "unpause",
      "outputs": [],
      "stateMutability": "nonpayable",
      "type": "function"
    },
    {
      "inputs": [
        {
          "internalType": "address",
          "name": "",
          "type": "address"
        }
      ],
      "name": "userRewards",
      "outputs": [
        {
          "internalType": "uint256",
          "name": "",
          "type": "uint256"
        }
      ],
      "stateMutability": "view",
      "type": "function"
    },
    {
      "inputs": [],
      "name": "withdrawRewards",
      "outputs": [],
      "stateMutability": "nonpayable",
      "type": "function"
    },
    {
      "stateMutability": "payable",
      "type": "receive"
    }
  ],
  "bytecode": "0x608060405234801561001057600080fd5b5060405161107538038061107583398101604081905261002f916100ba565b6100383361006a565b6000805460ff60a01b19169055600180546001600160a01b0319166001600160a01b03929092169190911790556100ea565b600080546001600160a01b038381166001600160a01b0319831681178455604051919092169283917f8be0079c531659141344cd1fd0a4f28419497f9722a3daafe3b4186f6b6457e09190a35050565b6000602082840312156100cc57600080fd5b81516001600160a01b03811681146100e357600080fd5b9392505050565b610f7c806100f96000396000f3fe60806040526004361061014f5760003560e01c80638456cb59116100b6578063d0e30db01161006f578063d0e30db014610395578063dc99ef0d146101b2578063dd5967c31461039d578063e798d3c9146103bb578063f0f44260146103d1578063f2fde38b146103f157600080fd5b80638456cb59146102d6578063857184d1146102eb5780638da5cb5b14610321578063a680e0bc1461033f578063b163cc3814610378578063c7b8981c1461038057600080fd5b80635026d63e116101085780635026d63e146102095780635c975abb1461021f57806361d027b31461024957806364ab8675146102815780636ff1c9bc146102a1578063715018a6146102c157600080fd5b80630660f1e81461015b5780631be052891461019b5780631bf1de9b146101b257806333fb4e64146101c8578063372500ab146101dd5780633f4ba83a146101f457600080fd5b3661015657005b600080fd5b34801561016757600080fd5b50610188610176366004610ea1565b60046020526000908152604090205481565b6040519081526020015b60405180910390f35b3480156101a757600080fd5b5061018862093a8081565b3480156101be57600080fd5b506101886101f481565b3480156101d457600080fd5b50610188610411565b3480156101e957600080fd5b506101f2610421565b005b34801561020057600080fd5b506101f26106b7565b34801561021557600080fd5b5061018860025481565b34801561022b57600080fd5b50600054600160a01b900460ff166040519015158152602001610192565b34801561025557600080fd5b50600154610269906001600160a01b031681565b6040516001600160a01b039091168152602001610192565b34801561028d57600080fd5b5061018861029c366004610ea1565b6106f4565b3480156102ad57600080fd5b506101f26102bc366004610ea1565b610783565b3480156102cd57600080fd5b506101f261083a565b3480156102e257600080fd5b506101f261084e565b3480156102f757600080fd5b50610188610306366004610ea1565b6001600160a01b031660009081526003602052604090205490565b34801561032d57600080fd5b506000546001600160a01b0316610269565b34801561034b57600080fd5b5061018861035a366004610ea1565b6001600160a01b031660009081526003602052604090206001015490565b6101f261088b565b34801561038c57600080fd5b506101f2610893565b6101f26109d4565b3480156103a957600080fd5b5061018869021e19e0c9bab240000081565b3480156103c757600080fd5b506101886134bc81565b3480156103dd57600080fd5b506101f26103ec366004610ea1565b610b7f565b3480156103fd57600080fd5b506101f261040c366004610ea1565b610c10565b61041e60a86101f4610ee7565b81565b610429610c89565b3360009081526003602052604081206001810154909190610e109061044e9042610f09565b6104589190610ee7565b9050600061048a8261048461271061047e61047660a86101f4610ee7565b885490610cd6565b90610ceb565b90610cd6565b905060006104a061271061047e846101f4610cd6565b905060006104c361271061047e6134bc8860000154610cd690919063ffffffff16565b9050808311156104d1578092505b6104db8383610cf7565b60025410156105315760405162461bcd60e51b815260206004820152601c60248201527f4e6f7420656e6f7567682066756e647320696e2074686520706f6f6c0000000060448201526064015b60405180910390fd5b600083116105775760405162461bcd60e51b81526020600482015260136024820152724e6f207265776172647320746f20636c61696d60681b6044820152606401610528565b6105818383610d03565b92506105996105908484610cf7565b60025490610d03565b60025542600186810191909155546040516000916001600160a01b03169084908381818185875af1925050503d80600081146105f1576040519150601f19603f3d011682016040523d82523d6000602084013e6105f6565b606091505b50509050806106475760405162461bcd60e51b815260206004820152601d60248201527f4661696c656420746f207472616e7366657220636f6d6d697373696f6e0000006044820152606401610528565b336000908152600460205260409020546106619085610cf7565b33600081815260046020526040908190209290925590517f106f923f993c2149d49b4255ff723acafa1f2d94393f561d3eda32ae348f7241906106a79087815260200190565b60405180910390a2505050505050565b6106bf610d0f565b6106c7610d69565b60405133907f5b65b0c1363b3003db9bcc5e1fd8805a6d6bf5bf6dc9d3431ee4494cd7d1176690600090a2565b6001600160a01b038116600090815260036020526040812060018101548290610e10906107219042610f09565b61072b9190610ee7565b905060006107498261048461271061047e61047660a86101f4610ee7565b9050600061076c61271061047e6134bc8760000154610cd690919063ffffffff16565b90508082111561077a578091505b50949350505050565b61078b610d0f565b610793610c89565b6000816001600160a01b03164760405160006040518083038185875af1925050503d80600081146107e0576040519150601f19603f3d011682016040523d82523d6000602084013e6107e5565b606091505b50509050806108365760405162461bcd60e51b815260206004820152601960248201527f456d657267656e6379207769746864726177206661696c6564000000000000006044820152606401610528565b5050565b610842610d0f565b61084c6000610dbe565b565b610856610d0f565b61085e610e0e565b60405133907f81990fd9a5c552b8e3677917d8a03c07678f0d2cb68f88b634aca2022e9bd19f90600090a2565b61084c610d0f565b61089b610c89565b336000908152600460205260409020546108f05760405162461bcd60e51b81526020600482015260166024820152754e6f207265776172647320746f20776974686472617760501b6044820152606401610528565b33600081815260046020526040808220805490839055905190929083908381818185875af1925050503d8060008114610945576040519150601f19603f3d011682016040523d82523d6000602084013e61094a565b606091505b505090508061099b5760405162461bcd60e51b815260206004820152601a60248201527f4661696c656420746f207472616e7366657220726577617264730000000000006044820152606401610528565b60405182815233907f1d3eee4ca001cff39eec6ec7615aacf2f2bd61791273830728ba00ccbd6e13379060200160405180910390a25050565b6109dc610c89565b69021e19e0c9bab2400000341115610a365760405162461bcd60e51b815260206004820152601b60248201527f4465706f736974206578636565647320746865206d6178696d756d00000000006044820152606401610528565b6000610a4a61271061047e346101f4610cd6565b90506000610a583483610d03565b600254909150610a689082610cf7565b60025533600090815260036020526040902054610a859082610cf7565b33600090815260036020526040808220928355426001938401559154915190916001600160a01b03169084908381818185875af1925050503d8060008114610ae9576040519150601f19603f3d011682016040523d82523d6000602084013e610aee565b606091505b5050905080610b3f5760405162461bcd60e51b815260206004820152601d60248201527f4661696c656420746f207472616e7366657220636f6d6d697373696f6e0000006044820152606401610528565b604080518381526020810185905233917f0b05f0d1cd0819f155b8a61f60baf7767c1ee49d04aeaab701df236140eb93f9910160405180910390a2505050565b610b87610d0f565b6001600160a01b038116610bee5760405162461bcd60e51b815260206004820152602860248201527f4e6577207472656173757279206164647265737320697320746865207a65726f604482015267206164647265737360c01b6064820152608401610528565b600180546001600160a01b0319166001600160a01b0392909216919091179055565b610c18610d0f565b6001600160a01b038116610c7d5760405162461bcd60e51b815260206004820152602660248201527f4f776e61626c653a206e6577206f776e657220697320746865207a65726f206160448201526564647265737360d01b6064820152608401610528565b610c8681610dbe565b50565b600054600160a01b900460ff161561084c5760405162461bcd60e51b815260206004820152601060248201526f14185d5cd8589b194e881c185d5cd95960821b6044820152606401610528565b6000610ce28284610f1c565b90505b92915050565b6000610ce28284610ee7565b6000610ce28284610f33565b6000610ce28284610f09565b6000546001600160a01b0316331461084c5760405162461bcd60e51b815260206004820181905260248201527f4f776e61626c653a2063616c6c6572206973206e6f7420746865206f776e65726044820152606401610528565b610d71610e51565b6000805460ff60a01b191690557f5db9ee0a495bf2e6ff9c91a7834c1ba4fdd244a5e8aa4e537bd38aeae4b073aa335b6040516001600160a01b03909116815260200160405180910390a1565b600080546001600160a01b038381166001600160a01b0319831681178455604051919092169283917f8be0079c531659141344cd1fd0a4f28419497f9722a3daafe3b4186f6b6457e09190a35050565b610e16610c89565b6000805460ff60a01b1916600160a01b1790557f62e78cea01bee320cd4e420270b5ea74000d11b0c9f74754ebdbfc544b05a258610da13390565b600054600160a01b900460ff1661084c5760405162461bcd60e51b815260206004820152601460248201527314185d5cd8589b194e881b9bdd081c185d5cd95960621b6044820152606401610528565b600060208284031215610eb357600080fd5b81356001600160a01b0381168114610eca57600080fd5b9392505050565b634e487b7160e01b600052601160045260246000fd5b600082610f0457634e487b7160e01b600052601260045260246000fd5b500490565b81810381811115610ce557610ce5610ed1565b8082028115828204841417610ce557610ce5610ed1565b80820180821115610ce557610ce5610ed156fea2646970667358221220182e6618fff0acfee0a3bfc111cb67bf893dfa10b759b786a5313eb7633be9d564736f6c63430008130033",
  "linkReferences": {},
  "deployedLinkReferences": {}
}