{
  "_format": "hh-sol-artifact-1",
  "contractName": "ID",
  "sourceName": "contracts/ID.sol",
  "abi": [
    {
      "anonymous": false,
      "inputs": [
        {
          "indexed": true,
          "internalType": "address",
          "name": "owner",
          "type": "address"
        },
        {
          "indexed": false,
          "internalType": "uint256",
          "name": "timestamp",
          "type": "uint256"
        }
      ],
      "name": "ContractUpdated",
      "type": "event"
    },
    {
      "anonymous": false,
      "inputs": [
        {
          "indexed": true,
          "internalType": "address",
          "name": "previousOwner",
          "type": "address"
        },
        {
          "indexed": true,
          "internalType": "address",
          "name": "newOwner",
          "type": "address"
        }
      ],
      "name": "OwnershipTransferred",
      "type": "event"
    },
    {
      "anonymous": false,
      "inputs": [
        {
          "indexed": true,
          "internalType": "uint256",
          "name": "userId",
          "type": "uint256"
        },
        {
          "indexed": true,
          "internalType": "address",
          "name": "user",
          "type": "address"
        },
        {
          "indexed": false,
          "internalType": "uint256",
          "name": "timestamp",
          "type": "uint256"
        }
      ],
      "name": "UserRegistered",
      "type": "event"
    },
    {
      "inputs": [
        {
          "internalType": "uint256",
          "name": "userId",
          "type": "uint256"
        }
      ],
      "name": "getUserByUserId",
      "outputs": [
        {
          "internalType": "address",
          "name": "",
          "type": "address"
        },
        {
          "internalType": "uint256",
          "name": "",
          "type": "uint256"
        }
      ],
      "stateMutability": "view",
      "type": "function"
    },
    {
      "inputs": [
        {
          "internalType": "address",
          "name": "userAddress",
          "type": "address"
        }
      ],
      "name": "getUserIdByAddress",
      "outputs": [
        {
          "internalType": "uint256",
          "name": "",
          "type": "uint256"
        }
      ],
      "stateMutability": "view",
      "type": "function"
    },
    {
      "inputs": [],
      "name": "owner",
      "outputs": [
        {
          "internalType": "address",
          "name": "",
          "type": "address"
        }
      ],
      "stateMutability": "view",
      "type": "function"
    },
    {
      "inputs": [],
      "name": "registerUser",
      "outputs": [],
      "stateMutability": "nonpayable",
      "type": "function"
    },
    {
      "inputs": [],
      "name": "renounceOwnership",
      "outputs": [],
      "stateMutability": "nonpayable",
      "type": "function"
    },
    {
      "inputs": [
        {
          "internalType": "address",
          "name": "newOwner",
          "type": "address"
        }
      ],
      "name": "transferOwnership",
      "outputs": [],
      "stateMutability": "nonpayable",
      "type": "function"
    },
    {
      "inputs": [],
      "name": "updateContract",
      "outputs": [],
      "stateMutability": "nonpayable",
      "type": "function"
    },
    {
      "stateMutability": "payable",
      "type": "receive"
    }
  ],
  "bytecode": "0x608060405234801561001057600080fd5b5061002d61002261003960201b60201c565b61004160201b60201c565b60018081905550610105565b600033905090565b60008060009054906101000a900473ffffffffffffffffffffffffffffffffffffffff169050816000806101000a81548173ffffffffffffffffffffffffffffffffffffffff021916908373ffffffffffffffffffffffffffffffffffffffff1602179055508173ffffffffffffffffffffffffffffffffffffffff168173ffffffffffffffffffffffffffffffffffffffff167f8be0079c531659141344cd1fd0a4f28419497f9722a3daafe3b4186f6b6457e060405160405180910390a35050565b610bf2806101146000396000f3fe6080604052600436106100745760003560e01c80638da5cb5b1161004e5780638da5cb5b146100eb578063a241c08914610116578063c89e96661461012d578063f2fde38b1461016b5761007b565b8063385399f9146100805780634d3820eb146100bd578063715018a6146100d45761007b565b3661007b57005b600080fd5b34801561008c57600080fd5b506100a760048036038101906100a2919061085c565b610194565b6040516100b491906108a2565b60405180910390f35b3480156100c957600080fd5b506100d261025e565b005b3480156100e057600080fd5b506100e9610436565b005b3480156100f757600080fd5b5061010061044a565b60405161010d91906108cc565b60405180910390f35b34801561012257600080fd5b5061012b610473565b005b34801561013957600080fd5b50610154600480360381019061014f9190610913565b6104cb565b604051610162929190610940565b60405180910390f35b34801561017757600080fd5b50610192600480360381019061018d919061085c565b6105b0565b005b600080600460008473ffffffffffffffffffffffffffffffffffffffff1673ffffffffffffffffffffffffffffffffffffffff1681526020019081526020016000205403610217576040517f08c379a000000000000000000000000000000000000000000000000000000000815260040161020e906109c6565b60405180910390fd5b600460008373ffffffffffffffffffffffffffffffffffffffff1673ffffffffffffffffffffffffffffffffffffffff168152602001908152602001600020549050919050565b610266610633565b6000600460003373ffffffffffffffffffffffffffffffffffffffff1673ffffffffffffffffffffffffffffffffffffffff16815260200190815260200160002054146102e8576040517f08c379a00000000000000000000000000000000000000000000000000000000081526004016102df90610a32565b60405180910390fd5b6102f26002610682565b60006102fe6002610698565b9050600060405180604001604052803373ffffffffffffffffffffffffffffffffffffffff168152602001428152509050806003600084815260200190815260200160002060008201518160000160006101000a81548173ffffffffffffffffffffffffffffffffffffffff021916908373ffffffffffffffffffffffffffffffffffffffff1602179055506020820151816001015590505081600460003373ffffffffffffffffffffffffffffffffffffffff1673ffffffffffffffffffffffffffffffffffffffff168152602001908152602001600020819055503373ffffffffffffffffffffffffffffffffffffffff16827fb58d46e66658e855773af8232237e606476d7f0ad98813c081b540e6f435ea3e4260405161042291906108a2565b60405180910390a350506104346106a6565b565b61043e6106af565b610448600061072d565b565b60008060009054906101000a900473ffffffffffffffffffffffffffffffffffffffff16905090565b61047b6106af565b3373ffffffffffffffffffffffffffffffffffffffff167fd77b5f2b9490cfde2217ada15946529c2790d0fccd2ba4436b7463617f3d49ab426040516104c191906108a2565b60405180910390a2565b6000806104d86002610698565b83111561051a576040517f08c379a0000000000000000000000000000000000000000000000000000000008152600401610511906109c6565b60405180910390fd5b6000600360008581526020019081526020016000206040518060400160405290816000820160009054906101000a900473ffffffffffffffffffffffffffffffffffffffff1673ffffffffffffffffffffffffffffffffffffffff1673ffffffffffffffffffffffffffffffffffffffff1681526020016001820154815250509050806000015181602001519250925050915091565b6105b86106af565b600073ffffffffffffffffffffffffffffffffffffffff168173ffffffffffffffffffffffffffffffffffffffff1603610627576040517f08c379a000000000000000000000000000000000000000000000000000000000815260040161061e90610ac4565b60405180910390fd5b6106308161072d565b50565b600260015403610678576040517f08c379a000000000000000000000000000000000000000000000000000000000815260040161066f90610b30565b60405180910390fd5b6002600181905550565b6001816000016000828254019250508190555050565b600081600001549050919050565b60018081905550565b6106b76107f1565b73ffffffffffffffffffffffffffffffffffffffff166106d561044a565b73ffffffffffffffffffffffffffffffffffffffff161461072b576040517f08c379a000000000000000000000000000000000000000000000000000000000815260040161072290610b9c565b60405180910390fd5b565b60008060009054906101000a900473ffffffffffffffffffffffffffffffffffffffff169050816000806101000a81548173ffffffffffffffffffffffffffffffffffffffff021916908373ffffffffffffffffffffffffffffffffffffffff1602179055508173ffffffffffffffffffffffffffffffffffffffff168173ffffffffffffffffffffffffffffffffffffffff167f8be0079c531659141344cd1fd0a4f28419497f9722a3daafe3b4186f6b6457e060405160405180910390a35050565b600033905090565b600080fd5b600073ffffffffffffffffffffffffffffffffffffffff82169050919050565b6000610829826107fe565b9050919050565b6108398161081e565b811461084457600080fd5b50565b60008135905061085681610830565b92915050565b600060208284031215610872576108716107f9565b5b600061088084828501610847565b91505092915050565b6000819050919050565b61089c81610889565b82525050565b60006020820190506108b76000830184610893565b92915050565b6108c68161081e565b82525050565b60006020820190506108e160008301846108bd565b92915050565b6108f081610889565b81146108fb57600080fd5b50565b60008135905061090d816108e7565b92915050565b600060208284031215610929576109286107f9565b5b6000610937848285016108fe565b91505092915050565b600060408201905061095560008301856108bd565b6109626020830184610893565b9392505050565b600082825260208201905092915050565b7f5573657220646f6573206e6f7420657869737400000000000000000000000000600082015250565b60006109b0601383610969565b91506109bb8261097a565b602082019050919050565b600060208201905081810360008301526109df816109a3565b9050919050565b7f5573657220616c72656164792072656769737465726564000000000000000000600082015250565b6000610a1c601783610969565b9150610a27826109e6565b602082019050919050565b60006020820190508181036000830152610a4b81610a0f565b9050919050565b7f4f776e61626c653a206e6577206f776e657220697320746865207a65726f206160008201527f6464726573730000000000000000000000000000000000000000000000000000602082015250565b6000610aae602683610969565b9150610ab982610a52565b604082019050919050565b60006020820190508181036000830152610add81610aa1565b9050919050565b7f5265656e7472616e637947756172643a207265656e7472616e742063616c6c00600082015250565b6000610b1a601f83610969565b9150610b2582610ae4565b602082019050919050565b60006020820190508181036000830152610b4981610b0d565b9050919050565b7f4f776e61626c653a2063616c6c6572206973206e6f7420746865206f776e6572600082015250565b6000610b86602083610969565b9150610b9182610b50565b602082019050919050565b60006020820190508181036000830152610bb581610b79565b905091905056fea2646970667358221220f61278cb2379c11ebcbcadc2c8a01eb3a268c281b6a9ebb1166dfc4a9e4a63a064736f6c63430008130033",
  "linkReferences": {},
  "deployedLinkReferences": {}
}